:0400000027EF00F0F6
:100008005182FACF0BF0FBCF0CF0D9CF0DF0DACF3D
:100018000EF0F2AA12EF00F014EF00F01DEF00F05E
:10002800F2A419EF00F01BEF00F01DEF00F092ECC6
:100038000BF00EC0DAFF0DC0D9FF0CC0FBFF0BC0E0
:10004800FAFF519211000BEF0BF0000E0001A36FA5
:10005800000EA56F000EA46F36EC0CF0000E106EAB
:10006800000E0F6E68EC0CF0F294F2A43EEF00F074
:1000780040EF00F039EF00F05C0E0F6E150E106EB9
:100088006DEC0CF0F28EF28CCB0E0001886F7F0EB7
:10009800896FDEEC0BF0190E0001886F7F0E896FF7
:1000A800DEEC0BF0D60E0001886F7F0E896FDEEC58
:1000B8000BF0FB0E0001886F7F0E896FDEEC0BF0F2
:1000C80059EC0CF00009D8B46CEF00F06EEF00F0BA
:1000D80064EF00F0F2EC0BF00001A06FF20E886FF5
:1000E8007F0E896FA0C08AF08B6BDEEC0BF059EFA6
:1000F80003F0750E886F7E0E896FDEEC0BF09F0E95
:100108000001886F7F0E896FDEEC0BF0DF0E0001B7
:10011800886F7F0E896FDEEC0BF0620E0001886F2E
:100128007F0E896FDEEC0BF0320E0001886F7F0EB8
:10013800896FDEEC0BF0D80E0001886F7E0E896F98
:10014800DEEC0BF0B70E0001886F7E0E896FDEECD7
:100158000BF01F0E0001886F7E0E896F010E8B6FEA
:10016800000E8A6FDEEC0BF0F90E0001886F7E0E30
:10017800896F010E8B6F000E8A6FDEEC0BF0500E4C
:100188000001886F7E0E896FDEEC0BF0750E0001A2
:10019800886F7E0E896FDEEC0BF087EF03F0E10EBF
:1001A800886F7F0E896FDEEC0BF087EF03F0000E8F
:1001B800A76F000EA66FEF0E886F7F0E896FDEECBB
:1001C8000BF00001A64BA72BA75109E1280EA65D4D
:1001D800D8A0F1EF00F0F3EF00F0DFEF00F0FF0040
:1001E80087EF03F0000EA76F000EA66FEF0E886F63
:1001F8007F0E896FDEEC0BF00001A64BA72BA751F1
:1002080009E1280EA65DD8A00CEF01F00EEF01F071
:10021800FAEF00F087EF03F0050ED02787EF03F021
:10022800050ED05F87EF03F08C0E886F7F0E896F05
:10023800DEEC0BF0010E0001AF6FAF51D8A427EF31
:1002480001F029EF01F021EF01F0000EA76F010E78
:10025800A66FFF0EA625D96E010EA721DA6E810EB4
:10026800DF6039EF01F03BEF01F049EF01F0000EDC
:10027800A625D96E020EA721DA6E810EDF6047EF40
:1002880001F049EF01F065EF01F0FF0EA625D96EE8
:10029800010EA721DA6E800EDF6455EF01F057EFEB
:1002A80001F072EF01F0000EA625D96E020EA7210B
:1002B800DA6E810EDF6063EF01F065EF01F072EF37
:1002C80001F0A351020D000EF324D96E010EF420A3
:1002D800DA6EA6C0DEFFA7C0DDFFA32BA64BA72BB7
:1002E800A705D8A07AEF01F07CEF01F02DEF01F01F
:1002F800B70E886F7D0E896FDEEC0BF0000E0001E3
:10030800A76F000EA66FE60E886F7F0E896FA6C0D6
:1003180092F0A7C093F0923B933BF00E9317925143
:100328000F0B9313F00E921792C08AF093C08BF0C4
:10033800DEEC0BF0A6C092F0A7C093F00001923B50
:10034800933BF00E931792510F0B9313F00E9217E5
:10035800935107E1640E925DD8B0B5EF01F0B7EFA5
:1003680001F0BDEF01F0FC0E886F7F0E896FDEECA7
:100378000BF0A6C092F0A7C093F00001923B933B0C
:10038800F00E931792510F0B9313F00E921793518F
:1003980007E10A0E925DD8B0D4EF01F0D6EF01F074
:1003A800DCEF01F0FC0E886F7F0E896FDEEC0BF03E
:1003B800000E0001A26FA6C092F0A7C093F0923B76
:1003C800933BF00E931792510F0B9313F00E921765
:1003D800000E9225946F020E9321956FA2519425D9
:1003E800D96E000E9521DA6EDF50A16FF70E886F77
:1003F8007F0E896FA1C08AF08B6BDEEC0BF0640E68
:100408000001A1610AEF02F00CEF02F012EF02F016
:10041800FC0E886F7F0E896FDEEC0BF00A0E000170
:10042800A16119EF02F01BEF02F021EF02F0FC0EC0
:10043800886F7F0E896FDEEC0BF00001A22B0F0E88
:10044800A26529EF02F02BEF02F0DFEF01F0EF0ECB
:10045800886F7F0E896FDEEC0BF00001A64BA72B8F
:10046800A75109E1100EA65DD8A03DEF02F03FEFBD
:1004780002F087EF01F0EF0E886F7F0E896FDEECD8
:100488000BF0EB0E0001886F7D0E896FDEEC0BF030
:10049800000E0001A76F000EA66F69EF02F0F70EBD
:1004A800886F7F0E896FD890A635D96EA735DA6E1A
:1004B800000ED926010EDA22DECF8AF0DDCF8BF0CE
:1004C800DEEC0BF00001A64BA72BA351926F936BA8
:1004D8009251A65D9351A759D8A075EF02F077EF16
:1004E80002F053EF02F0ED0E886F7F0E896FDEEC9D
:1004F8000BF0960E0001886F7E0E896FDEEC0BF014
:10050800000E0001A76F010EA66FF8EF02F0A6C05B
:1005180092F0A7C093F0D89092379337FE0E9225A9
:10052800946FFF0E9321956F000E9425D96E010EDE
:100538009521DA6EDECF96F0DDCF97F0D890A6350C
:10054800D96EA735DA6E000ED926010EDA22DECF73
:1005580098F0DDCF99F09651985D9E6F9751995913
:100568009F6F9E51A4279F51A523A75109E1020E11
:10057800A65DD8A0C2EF02F0C4EF02F0C7EF02F008
:10058800D890A533A433AE0E886F7F0E896FD890AC
:10059800A635D96EA735DA6E000ED926010EDA22F5
:1005A800DECF8AF0DDCF8BF0A6C092F0A7C093F023
:1005B800D89092379337FE0E9225946FFF0E9321B1
:1005C800956F000E9425D96E010E9521DA6EDECF57
:1005D8008CF0DDCF8DF09EC08EF09FC08FF0DEECEA
:1005E8000BF00001A64BA72BA351926F936B92516E
:1005F800A65D9351A759D8A004EF03F006EF03F0C6
:100608008BEF02F0ED0E886F7F0E896FDEEC0BF03A
:10061800A4C00FF0A5C010F0000E126E180E116ED7
:1006280006EC0CF00FC0A4F010C0A5F0400E0F6E41
:10063800420E106E0F0E116E000E126EA4C013F053
:10064800A5C014F0156A166A73EC08F00FC09AF08A
:1006580010C09BF011C09CF012C09DF0770E0001F5
:10066800886F7F0E896FA4C08AF0A5C08BF0DEEC7E
:100678000BF04A0E0001886F7F0E896F9AC08AF0CE
:100688009BC08BF09CC08CF09DC08DF0DEEC0BF015
:1006980087EF03F0BD0E886F7F0E896FA0C08AF0C8
:1006A8008B6BDEEC0BF087EF03F00001A051926F2B
:1006B800936B9351000AD8B464EF03F04EEF03F044
:1006C8009251000AD8B487EF03F03F0AD8B47DEFFF
:1006D80000F06B0AD8B410EF01F00E0AD8B4DBEFC3
:1006E80000F03C0AD8B418EF01F0090AD8B4D3EFE7
:1006F80000F01B0AD8B414EF01F00E0AD8B4F6EFD4
:1007080000F04EEF03F0FB0E0001886F7F0E896F3B
:10071800DEEC0BF064EF00F027EF00F073C0D9FFB8
:1007280074C0DAFFDECFF6FFDDCFF7FF0800F55023
:10073800250AD8A4A2EF03F0A4EF03F0C5EF04F054
:1007480073C0D9FF74C0DAFFDE2A000EDD22000E66
:10075800456E000E446E44C0AEF04668476873C0EC
:10076800D9FF74C0DAFFDECFF6FFDDCFF7FF080050
:10077800F550630AD8A4C3EF03F0C5EF03F0E9EF1F
:1007880003F073C0D9FF74C0DAFFDE2A000EDD2241
:1007980075C0D9FF76C0DAFFDFCF3EF0020EDE2645
:1007A800DFCF3FF0000EDD223EC0D9FF3FC0DAFFA9
:1007B800DF500001776F71C01AF072C01BF077C06C
:1007C8001CF0D9EC09F0D9EF04F073C0D9FF74C05C
:1007D800DAFFDECF80F0DDCF81F080C0F6FF81C088
:1007E800F7FF0800F550640AD8B4FDEF03F0FFEFF7
:1007F80003F00DEF04F080C0F6FF81C0F7FF08009A
:10080800F550690AD8A40BEF04F00DEF04F051EF8E
:1008180004F075C0D9FF76C0DAFFDFCF3EF0020ED4
:10082800DE26DFCF3FF0000EDD223EC0D9FF3FC0FD
:10083800DAFFDECF78F0DDCF79F00001000E79BF66
:10084800FF0E7A6F7B6F7C6F7D6F7E6F7F6F010EFF
:1008580080253E6E000E81213F6E73C0D9FF74C0A3
:10086800DAFF3EC0DEFF3FC0DDFF71C02CF072C072
:100878002DF078C02EF079C02FF07AC030F07BC010
:1008880031F07CC032F07DC033F07EC034F07FC0E0
:1008980035F0DAEC04F0D9EF04F080C0F6FF81C03F
:1008A800F7FF0800F550750AD8A45DEF04F05FEF74
:1008B80004F0BCEF04F075C0D9FF76C0DAFFDFCFD3
:1008C8003EF0020EDE26DFCF3FF0000EDD223EC0F6
:1008D800D9FF3FC0DAFFDECF40F0DDCF41F040C0A6
:1008E80078F041C079F000017A6B7B6B7C6B7D6B93
:1008F8007E6B7F6B010E80253E6E000E81213F6E60
:1009080073C0D9FF74C0DAFF3EC0DEFF3FC0DDFF11
:10091800A6EF04F071C02CF072C02DF078C02EF054
:1009280079C02FF07AC030F07BC031F07CC032F053
:100938007DC033F07EC034F07FC035F01AEC06F08D
:10094800D9EF04F080C0F6FF81C0F7FF0800F5502A
:100958003E6E3F6A3F50000AD8B4B5EF04F0BCEFD2
:1009680004F03E50750AD8B48EEF04F0BCEF04F0E2
:1009780073C0D9FF74C0DAFFDE2A000EDD22D9EF7A
:1009880004F073C0D9FF74C0DAFFDECFF6FFDDCF05
:10099800F7FF0800F550116E126A71C013F072C0AB
:1009A80014F026EC0AF0BCEF04F012002EC066F03A
:1009B8002FC067F030C068F031C069F032C06AF00B
:1009C80033C06BF034C06CF035C06DF000016DBF02
:1009D800F0EF04F0F3EF04F0010EF4EF04F0000E72
:1009E8006E6F6E51D8B4FBEF04F0FDEF04F00DEF1D
:1009F80005F06D1F6C1F6B1F6A1F691F681F671F3B
:100A0800666D000E6723682369236A236B236C23B2
:100A18006D2347BE1AEF05F0475006E14604D8B0EB
:100A280018EF05F01AEF05F020EF05F0000E636FE0
:100A3800010E626F24EF05F046C062F047C063F014
:100A480044C064F045C065F06E51D8B42EEF05F08F
:100A580030EF05F047EF05F06407D8A065076E5141
:100A6800D8A439EF05F03BEF05F041EF05F0000E93
:100A7800616F2B0E606F45EF05F0000E616F2D0E54
:100A8800606F60C06EF0000E706F1F0E6F6F000E0B
:100A9800CF6FCCEF05F06F07D8A07007B00E6F25A9
:100AA800D96E000E7021DA6E66C00FF067C010F0C4
:100AB80068C011F069C012F06AC013F06BC014F07E
:100AC8006CC015F06DC016F00A0E176E000E186E89
:100AD800000E196E000E1A6E000E1B6E000E1C6EB4
:100AE800000E1D6E000E1E6EC1EC07F00FC036F032
:100AF80010C037F011C038F012C039F013C03AF006
:100B080014C03BF015C03CF016C03DF036C021F0D3
:100B180037C022F053EC0BF02150300FDF6E00018C
:100B28006207D8A063076407D8A0650766C00FF0FE
:100B380067C010F068C011F069C012F06AC013F005
:100B48006BC014F06CC015F06DC016F00A0E176E6D
:100B5800000E186E000E196E000E1A6E000E1B6E37
:100B6800000E1C6E000E1D6E000E1E6EFDEC06F0D3
:100B78000FC066F010C067F011C068F012C069F0CD
:100B880013C06AF014C06BF015C06CF016C06DF09D
:100B9800000170BFD8EF05F0705108E16F05D8A0CB
:100BA800D8EF05F0DAEF05F0F6EF05F066516711BA
:100BB800681169116A116B116C116D11D8A4E7EFF6
:100BC80005F0E9EF05F04FEF05F063BFF6EF05F02C
:100BD800635106E16205D8B0F4EF05F0F6EF05F0D1
:100BE8004FEF05F06E51D8B4FCEF05F0FEEF05F0BD
:100BF80009EF06F06F07D8A07007B00E6F25D96E01
:100C0800000E7021DA6E6EC0DFFF2CC021F02DC0FF
:100C180022F0B00E6F25236E000E7021246E64C082
:100C280025F065C026F071EC0AF0120047BE27EFE8
:100C380006F0475006E14604D8B025EF06F027EF46
:100C480006F02EEF06F0000E0001636F010E626FD2
:100C580032EF06F046C062F047C063F044C060F06F
:100C680045C061F02EC064F02FC065F030C066F05A
:100C780031C067F032C068F033C069F034C06AF040
:100C880035C06BF0000E00016D6F1F0E6C6F000E0B
:100C9800CF6FC6EF06F06C07D8A06D07B00E6C25B5
:100CA800D96E000E6D21DA6E64C00FF065C010F0C9
:100CB80066C011F067C012F068C013F069C014F084
:100CC8006AC015F06BC016F00A0E176E000E186E8B
:100CD800000E196E000E1A6E000E1B6E000E1C6EB2
:100CE800000E1D6E000E1E6E71EC09F00FC036F07E
:100CF80010C037F011C038F012C039F013C03AF004
:100D080014C03BF015C03CF016C03DF03650300F13
:100D1800DF6E00016207D8A063076007D8A06107EB
:100D280064C00FF065C010F066C011F067C012F023
:100D380068C013F069C014F06AC015F06BC016F0F3
:100D48000A0E176E000E186E000E196E000E1A6E3F
:100D5800000E1B6E000E1C6E000E1D6E000E1E6E29
:100D6800F9EC08F00FC064F010C065F011C066F02F
:100D780012C067F013C068F014C069F015C06AF0BB
:100D880016C06BF000016C516D11D8B4CEEF06F0AF
:100D9800D0EF06F0ECEF06F06451651166116711AB
:100DA800681169116A116B11D8A4DDEF06F0DFEF45
:100DB80006F04FEF06F063BFECEF06F0635106E173
:100DC8006205D8B0EAEF06F0ECEF06F04FEF06F058
:100DD8002CC021F02DC022F0B00E6C25236E000E21
:100DE8006D21246E60C025F061C026F071EC0AF018
:100DF8001200000E206E1EBE06EF07F004EF07F08B
:100E080018EF07F01E1E1D1E1C1E1B1E1A1E191E83
:100E1800181E176C000E182219221A221B221C22D7
:100E28001D221E22010E206E16BE1FEF07F01DEFB9
:100E380007F031EF07F0161E151E141E131E121EA2
:100E4800111E101E0F6C000E1022112212221322E6
:100E5800142215221622010E201A20EE21F0070E68
:100E6800DE6AE806FDE21750181019101A101B1058
:100E78001C101D101E10D8B444EF07F046EF07F001
:100E880098EF07F0010E1F6E54EF07F0D890173651
:100E9800183619361A361B361C361D361E361F2ACA
:100EA8001EAE59EF07F05BEF07F04AEF07F0D89056
:100EB8002136223623362436253626362736283656
:100EC80017500F5C18501058195011581A501258D2
:100ED8001B5013581C5014581D5015581E501658A6
:100EE800D8A079EF07F07BEF07F08CEF07F01750E9
:100EF8000F5E1850105A1950115A1A50125A1B5096
:100F0800135A1C50145A1D50155A1E50165A218037
:100F1800D8901E321D321C321B321A321932183246
:100F280017321F2E5BEF07F02050D8B49EEF07F062
:100F3800A0EF07F0B0EF07F0281E271E261E251E7B
:100F4800241E231E221E216C000E2222232224226C
:100F5800252226222722282221C00FF022C010F0A5
:100F680023C011F024C012F025C013F026C014F0DD
:100F780027C015F028C016F01200000E206E16BE0D
:100F8800CAEF07F0C8EF07F0DCEF07F0161E151ED2
:100F9800141E131E121E111E101E0F6C000E10229E
:100FA800112212221322142215221622010E206E5B
:100FB8001EBEE3EF07F0E1EF07F0F3EF07F01E1EA8
:100FC8001D1E1C1E1B1E1A1E191E181E176C000E35
:100FD800182219221A221B221C221D221E221750F7
:100FE800181019101A101B101C101D101E10D8B440
:100FF80000EF08F002EF08F04AEF08F0010E1F6E4C
:1010080010EF08F0D8901736183619361A361B36EE
:101018001C361D361E361F2A1EAE15EF08F017EFB8
:1010280008F006EF08F017500F5C185010581950C8
:1010380011581A5012581B5013581C5014581D5050
:1010480015581E501658D8A02CEF08F02EEF08F0AF
:101058003EEF08F017500F5E1850105A1950115AE9
:101068001A50125A1B50135A1C50145A1D50155A14
:101078001E50165AD8901E321D321C321B321A329C
:101088001932183217321F2E17EF08F02050D8B433
:1010980050EF08F052EF08F062EF08F0161E151E28
:1010A800141E131E121E111E101E0F6C000E10228D
:1010B8001122122213221422152216220FC00FF019
:1010C80010C010F011C011F012C012F013C013F0CC
:1010D80014C014F015C015F016C016F01200000E5A
:1010E800186E16BE7CEF08F07AEF08F086EF08F06D
:1010F800161E151E141E136C000E1422152216221D
:10110800010E186E12BE8DEF08F08BEF08F097EF06
:1011180008F0121E111E101E0F6C000E1022112254
:101128001222010E181A000E196E000E1A6E000E09
:101138001B6E000E1C6E1350141015101610D8B428
:10114800A8EF08F0AAEF08F0E0EF08F0010E176E1C
:10115800B4EF08F0D8901336143615361636172A19
:1011680016AEB9EF08F0BBEF08F0AEEF08F0D89074
:1011780019361A361B361C3613500F5C145010588B
:101188001550115816501258D8A0CDEF08F0CFEFCF
:1011980008F0D8EF08F013500F5E1450105A15508D
:1011A800115A1650125A1980D89016321532143224
:1011B8001332172EBBEF08F01850D8B4E6EF08F03A
:1011C800E8EF08F0F0EF08F01C1E1B1E1A1E196C41
:1011D800000E1A221B221C2219C00FF01AC010F090
:1011E8001BC011F01CC012F0120020EE1FF0070EF9
:1011F800DE6AE806FDE21750181019101A101B10C5
:101208001C101D101E10D8B40CEF09F00EEF09F0D9
:1012180060EF09F0010E276E1CEF09F0D890173621
:10122800183619361A361B361C361D361E36272A2E
:101238001EAE21EF09F023EF09F012EF09F0D89064
:101248001F362036213622362336243625362636D2
:1012580017500F5C18501058195011581A5012583E
:101268001B5013581C5014581D5015581E50165812
:10127800D8A041EF09F043EF09F054EF09F01750F7
:101288000F5E1850105A1950115A1A50125A1B5002
:10129800135A1C50145A1D50155A1E50165A1F80A6
:1012A800D8901E321D321C321B321A3219321832B3
:1012B8001732272E23EF09F01FC00FF020C010F0BF
:1012C80021C011F022C012F023C013F024C014F082
:1012D80025C015F026C016F0120017501810191066
:1012E8001A101B101C101D101E10D8B47EEF09F028
:1012F80080EF09F0C8EF09F0010E1F6E8EEF09F0BC
:10130800D8901736183619361A361B361C361D363D
:101318001E361F2A1EAE93EF09F095EF09F084EFF1
:1013280009F017500F5C18501058195011581A50DE
:1013380012581B5013581C5014581D5015581E5045
:101348001658D8A0AAEF09F0ACEF09F0BCEF09F0E5
:1013580017500F5E1850105A1950115A1A50125A35
:101368001B50135A1C50145A1D50155A1E50165A09
:10137800D8901E321D321C321B321A3219321832E2
:1013880017321F2E95EF09F00FC00FF010C010F0A4
:1013980011C011F012C012F013C013F014C014F0F1
:1013A80015C015F016C016F0120044504510D8A408
:1013B800E0EF09F0E2EF09F0E8EF09F044C020F0AF
:1013C80045C021F0EEEF09F0FF0E4424206EFF0E19
:1013D8004520216E21BEF3EF09F0F5EF09F0F7EF94
:1013E80009F0FBEF09F0000E216E000E206E000ED2
:1013F8001F6E000E1E6E0DEF0AF0000E126E200E0C
:10140800116E1AC013F01BC014F026EC0AF01E4A25
:101418001F2A20501E5C1F50800A1D6E2150800A12
:101428001D58D8A01AEF0AF01CEF0AF001EF0AF0D5
:101438001CC011F0126A1AC013F01BC014F026EC7D
:101448000AF0120013501410D8B42DEF0AF02FEF41
:101458000AF038EF0AF013501410D8A436EF0AF047
:1014680038EF0AF03DEF0AF0115063EC0CF070EF22
:101478000AF020EE09F01350D9261450DA22DE5073
:10148800DE10D8B44AEF0AF04CEF0AF067EF0AF022
:1014980020EE09F01350D9261450DA2210EE03F08A
:1014A8001350E1261450E222DE50E65CE650800A32
:1014B800196EDE50800A1958D8B065EF0AF067EF48
:1014C8000AF070EF0AF020EE03F01350D9261450FA
:1014D800DA22DE2A000EDD22120026BE76EF0AF09E
:1014E80078EF0AF07EEF0AF025C02AF026C02BF02C
:1014F80082EF0AF0000E2B6E000E2A6E000E296E87
:10150800000E286E94EF0AF0000E126E200E116E77
:1015180021C013F022C014F026EC0AF0284A292A28
:101528002A50285C2950800A276E2B50800A275899
:10153800D8A0A1EF0AF0A3EF0AF088EF0AF023C0C1
:101548001AF024C01BF021C01CF022C01DF031ECA1
:101558000BF01200898C000E0A6E000E096E81ECE9
:101568000CF0C2820001AF51D8B4BDEF0AF0BFEF52
:101578000AF0D6EF0AF0000E4824D96E020E492070
:10158800DA6EC4CFDFFF484A492A49044810D8A474
:10159800D0EF0AF0D2EF0AF0D6EF0AF0000E496E4B
:1015A800000E486E19EC0CF0C00E0124096EF90EFD
:1015B80002200A6E81EC0CF0899C120084C042F073
:1015C80085C043F0F7EF0AF082C071F083C072F073
:1015D800420E0001736F000E746F86C075F087C0ED
:1015E80076F092EC03F042C0F6FF43C0F7FF080024
:1015F800F5500009D8A403EF0BF005EF0BF0E8EF66
:101608000AF0000E0001836F000E826F1200120EA6
:10161800F66E190EF76E000EF86E0900F5CFD0F0D1
:1016280002EE00F011EE00F0EE6AE550E150FCE148
:10163800E250FAE100EEA8F0280EEE6AE806FDE1B5
:1016480000EE44F00D0EEE6AE806FDE1519051926D
:10165800000EF86E000129EF00F0000E206E000E5B
:101668001F6E42EF0BF01EC011F0126A1CC013F07F
:101678001DC014F026EC0AF01F4A202A1F501A2415
:10168800D96E20501B20DA6EDF501E6E1E50D8A473
:1016980050EF0BF052EF0BF037EF0BF0120022BEB9
:1016A80060EF0BF0225006E12104D8B05EEF0BF09A
:1016B80060EF0BF06EEF0BF021C023F022C024F096
:1016C800231E241E234A242A23C021F024C022F0EA
:1016D80072EF0BF021C021F022C022F01200080E98
:1016E800B86E900EAB6E240EAC6E820EAF6E060E08
:1016F800B06E000E0F6E000E106E77EC0CF0000E40
:101708000F6E000E106E72EC0CF0000E0F6E000ED5
:10171800106E7CEC0CF0000E506E1200F2944B50E0
:10172800D76E4AC0D6FF4C504D10D8B49EEF0BF080
:10173800A0EF0BF0ADEF0BF002D8ADEF0BF005000A
:10174800FA6E4C50FD6E4D50FE6EF850FF6EFA501A
:1017580012001200D59C000ED76E000ED66ED65021
:10176800D7CF11F0126A11C012F0116A11104A6E27
:1017780012504B6EF294F28A100E0F6E190E106E04
:101788006DEC0CF09F0ED56E1200000E896E000EE7
:101798008A6E000E8B6E92689368BF0E946E3C0E34
:1017A8000F013A6F3F0E396F2F0E386F000E616EC2
:1017B800F18E12008A0E0001906F000E916F000EDC
:1017C800826F000E836F88C084F089C085F0900E08
:1017D800866F000E876FE2EC0AF012009EAAF7EF00
:1017E8000BF0F9EF0BF0F2EF0BF0000E506EABA21E
:1017F80000EF0CF002EF0CF004EF0CF0AB98AB88A4
:10180800AE5012000F501102F3CF13F0F4CF14F0C2
:101818000F501202F350142610501102F3501426E0
:1018280013C00FF014C010F01200D6CF07F0D7CFB6
:1018380008F00850036E0750056E03C006F005C097
:1018480001F006C002F01200700ED36E040ED26EC4
:10185800400E9B6ED2AE33EF0CF035EF0CF02EEF4E
:101868000CF0120086EC0CF0C9EC0BF028EC0CF034
:10187800AEEC0BF04EEC0CF073EC0BF012000F6EAC
:101888009EA849EF0CF04BEF0CF044EF0CF00FC0A2
:10189800ADFF1200000EC16E260EC06E000EC36EA4
:1018A800000EC46E110EC26E12009EBA5EEF0CF0EE
:1018B80061EF0CF0010E62EF0CF0000E1200106EDA
:1018C800105043EC0CF012001050D76E0FC0D6FF2A
:1018D80012000FC04CF010C04DF012000FC0AAF05B
:1018E80010C0ABF012000FC0ACF010C0ADF0120089
:1018F8000FC0A8F010C0A9F012000A50D76E09C096
:0B190800D6FF1200D09E120012000A51
:107DB60000546865206C6173742032353620414466
:107DC600432073616D706C65732066726F6D2074ED
:107DD6006865206D6963726F70686F6E6520617289
:107DE600653A0A0D0054686520736F756E642077D6
:107DF6006176652063726F737365642061742074A5
:107E0600686520666F6C6C6F77696E6720696E6453
:107E160069636965733A0A0D00663A20636F6D708F
:107E26007574652074686520706572696F64206674
:107E3600726F6D2025642073616D706C65732066AA
:107E4600726F6D204144430D0A00302D393A20737C
:107E560077697463682073616D706C65642063680C
:107E6600616E6E656C20746F20414E780D0A002D90
:107E76002D2D2D2D2D2D2D2D2D2D2D2D2D2D2D2D2C
:107E86002D2D2D2D2D2D2D2D2D2D2D2D2D0D0A008C
:107E960054686520736F756E642077617665206817
:107EA600616420313020706572696F64733A0A0D1F
:107EB60000743A2064656372656173652073616D51
:107EC600706C696E67207468726573686F6C640A9B
:107ED6000D00543A20696E637265617365207361A3
:107EE6006D706C696E67207468726573686F6C6418
:107EF6000A0D00733A206761746865722025642054
:107F060073616D706C65732066726F6D20414443BA
:107F16000D0A004D6963726F70686F6E6520657833
:107F2600706572696D656E74730D0A007A3A204346
:107F36006C65617220746865207465726D696E6126
:107F46006C0D0A00617665726167652066726571FF
:107F560075656E63793A2025750A0D005A3A2052E6
:107F6600657365742070726F636573736F720D0A43
:107F7600006176657261676520706572696F643A43
:107F86002025750A0D0074616B696E672073616D3B
:107F9600706C65733A200A0D003F3A2048656C7094
:107FA600206D656E750D0A002575202D202575201E
:107FB6003D2025750A0D00756E6B6E6F776E206B12
:107FC60065790D0A00696E4C61622030380D0A0031
:107FD6004465762732310D0A006F3A206B0D0A0090
:107FE600535B25755D20000A0D0A0D0025630A0DF9
:097FF60000257520003E2000006A
:020000040020DA
:08000000FFFFFFFFFFFFFFFF00
:020000040030CA
:0E000000FF281F3CFFBF85FF0FC00FE00F4021
:00000001FF
