:04000000FFEF30F0EE
:105F940001C066F002C067F0120001C06AF002C0DE
:105FA4006BF0120001C068F002C069F012000250E8
:105FB400D76E01C0D6FF1200026E025011EC30F011
:105FC40012003F0EBB6E000EBC6E9E92050EBA6EA2
:105FD400120080B0DAF5FFF5DAB0804F250A000A26
:105FE400254F9EBAF8EF2FF0FBEF2FF0010EFCEFD8
:105FF4002FF0000E1200F2B402EF30F005EF30F093
:10600400010E06EF30F0000E12009EB00CEF30F0DF
:106014000FEF30F0010E10EF30F0000E1200016EA1
:106024009EA817EF30F019EF30F012EF30F001C0F6
:10603400ADFF1200700ED36E040ED26E400E9B6E36
:10604400D2AE27EF30F029EF30F022EF30F012001B
:10605400000ECC6EE00ECF6E000ECE6ECECF64F08E
:10606400CFCF65F09E90310ECD6E1200A7EC30F0CC
:106074001CEC30F047EC30F0E3EC2FF02AEC30F07D
:10608400BCEC30F01AEC31F012003C0EBD6E000E88
:10609400B66E800EB76E010EB96E000EBF6E1F0E87
:1060A400BE6EFC0E0F014917120001500302F3CF1C
:1060B40005F0F4CF06F001500402F3500626025016
:1060C4000302F350062605C001F006C002F01200D8
:1060D400CDA46FEF30F071EF30F079EF30F0CD9068
:1060E4000250CF6E01C0CEFFCD807DEF30F0025064
:1060F400CF6E01C0CEFF1200920E0001966F000E0B
:10610400976F000E586E000E596E90C05AF091C0F1
:106114005BF0960E5C6E000E5D6E9FEC31F012002B
:106124009EAA97EF30F099EF30F092EF30F0000E26
:1061340000016F6FABA2A1EF30F0A3EF30F0A5EF39
:1061440030F0AB98AB88AE501200000E896E000E92
:106154008A6E000E8B6E92689368BB0E946E3C0E32
:106164000F013A6F3F0E396F2F0E386F000E616EBC
:10617400F18E1200D59CE00ED76EBF0ED66ED650AF
:10618400D7CF01F0026A01C002F0016A01100001D8
:106194006C6F02506D6FF294980ED56E1200D00E93
:1061A4000124036EFF0E0220046E04500AE10A0E5D
:1061B400035CD8A0E0EF30F0E3EF30F0010EE4EF41
:1061C40030F0000E016E026A120001C003F002C03A
:1061D40004F0D89004320332D890043203320350CE
:1061E400BE6E01C003F0030E0316033AF00E03164D
:1061F400BD50CF0B0310BD6E1200D60EF66E5F0EAF
:10620400F76E000EF86E00EEBBF010EE10F0090011
:10621400F5CFEEFFE550E150FAE100EE60F0300E0C
:10622400EE6AE806FDE1000EF86E0001E2EF3BF0D5
:10623400080EB86E900EAB6E240EAC6E820EAF6E6E
:10624400060EB06E000E016E000E026ECFEC2FF043
:10625400000E016E000E026ED4EC2FF0000E016EE3
:10626400000E026ECAEC2FF0000E00016F6F1200D8
:1062740014BE47EF31F0145006E11304D8B045EFD3
:1062840031F047EF31F055EF31F013C015F014C081
:1062940016F0151E161E154A162A15C013F016C040
:1062A40014F059EF31F013C013F014C014F01200BD
:1062B400000E126E000E116E6BEF31F010C003F081
:1062C400046A0EC005F00FC006F035EC32F0114A36
:1062D400122A11500C24D96E12500D20DA6EDF50A0
:1062E400106E1050D8A479EF31F07BEF31F060EFED
:1062F40031F01200010E056E200E01180210D8B400
:1063040086EF31F088EF31F09BEF31F0F70E012486
:10631400036EFF0E0220046E045009E1050E035CB7
:10632400D8A097EF31F099EF31F09BEF31F0000EE8
:10633400056E05C001F0026A12005AC05EF05BC02F
:106344005FF0B3EF31F058C041F059C042F05E0E37
:10635400436E000E446E5CC045F05DC046F0C9EC6F
:1063640039F05EC0F6FF5FC0F7FF0800F550000982
:10637400D8A4BFEF31F0C1EF31F0A5EF31F0000E3A
:10638400596E000E586E1200000E096E000E0A6E51
:10639400000E0B6E000E0C6E01A0D3EF31F0D5EFA2
:1063A40031F0DDEF31F00550092606500A2207507E
:1063B4000B2208500C22D8900536063607360836CC
:1063C400D890043203320232013201500210031019
:1063D4000410D8A4F0EF31F0F2EF31F0CEEF31F049
:1063E40009C001F00AC002F00BC003F00CC004F0B5
:1063F4001200000E0C6E000E0B6E09500A10D8B479
:1064040006EF32F008EF32F030EF32F0010E0D6E8D
:1064140010EF32F0D89009360A360D2A0AAE15EF7D
:1064240032F017EF32F00CEF32F0D8900B360C3616
:106434000950075C0A500858D8A023EF32F025EF22
:1064440032F02AEF32F00950075E0A50085A0B80E6
:10645400D8900A3209320D2E17EF32F00BC007F034
:106464000CC008F0120005500610D8B43CEF32F00E
:106474003EEF32F047EF32F005500610D8A445EF56
:1064840032F047EF32F04CEF32F00350DEEC2FF0F5
:106494007FEF32F020EE09F00550D9260650DA22BB
:1064A400DE50DE10D8B459EF32F05BEF32F076EF05
:1064B40032F020EE09F00550D9260650DA2210EE0B
:1064C40003F00550E1260650E222DE50E65CE65079
:1064D400800A0B6EDE50800A0B58D8B074EF32F08D
:1064E40076EF32F07FEF32F020EE03F00550D9263C
:1064F4000650DA22DE2A000EDD221200000E096E9A
:10650400000E0A6E000E0B6E000E0C6E0550061087
:1065140007100810D8B491EF32F093EF32F0C9EFBE
:1065240032F0010E0D6E9DEF32F0D890053606362E
:10653400073608360D2A08AEA2EF32F0A4EF32F087
:1065440097EF32F0D89009360A360B360C360550E0
:10655400015C065002580750035808500458D8A04C
:10656400B6EF32F0B8EF32F0C1EF32F00550015E11
:106574000650025A0750035A0850045A0980D8900A
:1065840008320732063205320D2EA4EF32F009C06C
:1065940001F00AC002F00BC003F00CC004F01200BA
:1065A40000016EA1D8EF32F0DAEF32F0E4EF32F00E
:1065B40015C00CF016C00DF013C00EF014C00FF08F
:1065C4005AEC31F018BEE9EF32F0EBEF32F0F1EFB4
:1065D40032F017C01CF018C01DF0F5EF32F0000EB9
:1065E4001D6E000E1C6E000E1B6E000E1A6E07EF61
:1065F40033F0000E046E200E036E13C005F014C0B9
:1066040006F035EC32F01A4A1B2A1C501A5C1B5057
:10661400800A196E1D50800A1958D8A014EF33F05F
:1066240016EF33F0FBEF32F000016EB11CEF33F0E4
:106634001EEF33F028EF33F015C00CF016C00DF048
:1066440013C00EF014C00FF05AEC31F01200000128
:1066540060516111D8A431EF33F033EF33F039EFE7
:1066640033F060C012F061C013F03FEF33F0FF0E5F
:106674006025126EFF0E6121136E6EA144EF33F09C
:1066840046EF33F04FEF33F00EC003F0046A0CC052
:1066940005F00DC006F035EC32F013BE54EF33F0C4
:1066A40056EF33F058EF33F05CEF33F0000E136E17
:1066B400000E126E000E116E000E106E6EEF33F0AF
:1066C400000E046E200E036E0CC005F00DC006F023
:1066D40035EC32F0104A112A1250105C1150800A25
:1066E4000F6E1350800A0F58D8A07BEF33F07DEF64
:1066F40033F062EF33F000016EB183EF33F085EFD6
:1067040033F08EEF33F00EC003F0046A0CC005F0D2
:106714000DC006F035EC32F0120009500A100B10CF
:106724000C100D100E100F101010D8B49CEF33F095
:106734009EEF33F0E6EF33F0010E116EACEF33F061
:10674400D89009360A360B360C360D360E360F360F
:106754001036112A10AEB1EF33F0B3EF33F0A2EFDD
:1067640033F00950015C0A5002580B5003580C5086
:1067740004580D5005580E5006580F500758105025
:106784000858D8A0C8EF33F0CAEF33F0DAEF33F08B
:106794000950015E0A50025A0B50035A0C50045A15
:1067A4000D50055A0E50065A0F50075A1050085AE9
:1067B400D89010320F320E320D320C320B320A32B4
:1067C4000932112EB3EF33F001C001F002C002F020
:1067D40003C003F004C004F005C005F006C006F0D1
:1067E40007C007F008C008F0120020EE11F0070EF1
:1067F400DE6AE806FDE209500A100B100C100D10B9
:106804000E100F101010D8B40AEF34F00CEF34F05F
:106814005EEF34F0010E196E1AEF34F0D890093699
:106824000A360B360C360D360E360F361036192A4C
:1068340010AE1FEF34F021EF34F010EF34F0D890A5
:1068440011361236133614361536163617361836F0
:106854000950015C0A5002580B5003580C5004585C
:106864000D5005580E5006580F5007581050085830
:10687400D8A03FEF34F041EF34F052EF34F0095038
:10688400015E0A50025A0B50035A0C50045A0D5020
:10689400055A0E50065A0F50075A1050085A1180C4
:1068A400D89010320F320E320D320C320B320A32C3
:1068B4000932192E21EF34F011C001F012C002F098
:1068C40013C003F014C004F015C005F016C006F0A0
:1068D40017C007F018C008F01200000E0F6E000E6B
:1068E4000E6E000E0D6E000E0C6E7BEF34F0074A38
:1068F400082A07C0F6FF08C0F7FF0800F550200A71
:10690400D8B487EF34F089EF34F079EF34F007C06E
:10691400F6FF08C0F7FF0800F5CF09F0F70E0924C9
:106924000A6E0B6AFF0E0B220B5009E1050E0A5C7E
:10693400D8A09FEF34F0A1EF34F079EF34F0ABEF4F
:1069440034F0000E0D6E010E0C6E074A082AE0EFBB
:1069540034F007C0F6FF08C0F7FF0800F550096ED1
:106964000A6A0A50000AD8B4BAEF34F0E0EF34F0FF
:1069740009502B0AD8B4A7EF34F0060AD8B4A3EF11
:1069840034F0E0EF34F00EC001F00FC002F0000E5E
:10699400046E0A0E036E57EC30F007C0F6FF08C011
:1069A400F7FF0800F550015E000E025A300E012474
:1069B4000E6E000E02200F6EA7EF34F007C0F6FF34
:1069C40008C0F7FF0800F5CF09F0D00E09240A6EBD
:1069D4000B6AFF0E0B220B5009E10A0E0A5CD8A0C9
:1069E400F6EF34F0F8EF34F0C5EF34F00C500D103E
:1069F400D8A4FFEF34F001EF35F00FEF35F00EC0FF
:106A040009F00FC00AF0091E0A1E094A0A2A09C021
:106A140007F00AC008F013EF35F00EC007F00FC0FE
:106A240008F01200000E126E08BE1DEF35F01BEFC9
:106A340035F02FEF35F0081E071E061E051E041E36
:106A4400031E021E016C000E0222032204220522F0
:106A5400062207220822010E126E10BE36EF35F010
:106A640034EF35F046EF35F0101E0F1E0E1E0D1ECE
:106A74000C1E0B1E0A1E096C000E0A220B220C228D
:106A84000D220E220F22102209500A100B100C1096
:106A94000D100E100F101010D8B453EF35F055EF41
:106AA40035F09DEF35F0010E116E63EF35F0D8909F
:106AB40009360A360B360C360D360E360F361036BE
:106AC400112A10AE68EF35F06AEF35F059EF35F062
:106AD4000950015C0A5002580B5003580C500458DA
:106AE4000D5005580E5006580F50075810500858AE
:106AF400D8A07FEF35F081EF35F091EF35F00950F4
:106B0400015E0A50025A0B50035A0C50045A0D509D
:106B1400055A0E50065A0F50075A1050085AD8906A
:106B240010320F320E320D320C320B320A3209326D
:106B3400112E6AEF35F01250D8B4A3EF35F0A5EF5B
:106B440035F0B5EF35F0081E071E061E051E041E9F
:106B5400031E021E016C000E0222032204220522DF
:106B640006220722082201C001F002C002F003C07D
:106B740003F004C004F005C005F006C006F007C029
:106B840007F008C008F01200000E126E10BECFEF1E
:106B940035F0CDEF35F0E1EF35F0101E0F1E0E1E6F
:106BA4000D1E0C1E0B1E0A1E096C000E0A220B225F
:106BB4000C220D220E220F221022010E126E08BE8C
:106BC400E8EF35F0E6EF35F0FAEF35F0081E071E72
:106BD400061E051E041E031E021E016C000E022268
:106BE400032204220522062207220822010E121A79
:106BF40020EE13F0070EDE6AE806FDE209500A10E3
:106C04000B100C100D100E100F101010D8B40DEF47
:106C140036F00FEF36F061EF36F0010E116E1DEF16
:106C240036F0D89009360A360B360C360D360E3649
:106C34000F361036112A10AE22EF36F024EF36F05C
:106C440013EF36F0D8901336143615361636173639
:106C5400183619361A360950015C0A5002580B507E
:106C640003580C5004580D5005580E5006580F5038
:106C7400075810500858D8A042EF36F044EF36F0C9
:106C840055EF36F00950015E0A50025A0B50035A70
:106C94000C50045A0D50055A0E50065A0F50075AFC
:106CA4001050085A1380D89010320F320E320D3221
:106CB4000C320B320A320932112E24EF36F0125004
:106CC400D8B467EF36F069EF36F079EF36F01A1E74
:106CD400191E181E171E161E151E141E136C000EE8
:106CE4001422152216221722182219221A2213C03E
:106CF40001F014C002F015C003F016C004F017C070
:106D040005F018C006F019C007F01AC008F0120008
:106D1400000163BF90EF36F092EF36F093EF36F058
:106D24006E9363BFA0EF36F0635106E16205D8B0FD
:106D34009EEF36F0A0EF36F0A6EF36F0000E336E7D
:106D4400010E326EAAEF36F062C032F063C033F047
:106D540060C034F061C035F020C036F021C037F097
:106D640022C038F023C039F024C03AF025C03BF0EB
:106D740026C03CF027C03DF0000E3F6E1F0E3E6E55
:106D8400000E8F6F21EF37F03E06D8A03F06365035
:106D94000F0B406E090E4064D2EF36F0D4EF36F09C
:106DA400DCEF36F0570E4024306E316A000E31228B
:106DB400E2EF36F0300E4024306E316A000E31229C
:106DC40030C040F0700E3E24D96E000E3F20DA6EC3
:106DD40040C0DFFF3206D8A033063406D8A03506FB
:106DE40036C028F037C029F038C02AF039C02BF05B
:106DF4003AC02CF03BC02DF03CC02EF03DC02FF02B
:106E0400050E0EEF37F0D8902F322E322D322C3261
:106E14002B322A3229322832E82E05EF37F028C0E7
:106E240036F029C037F02AC038F02BC039F02CC016
:106E34003AF02DC03BF02EC03CF02FC03DF03FBED9
:106E44002DEF37F03F5009E1020E3E5CD8A02DEF44
:106E540037F02FEF37F060EF37F036503710381037
:106E640039103A103B103C103D10D8A43CEF37F0D9
:106E74003EEF37F0C6EF36F033BE4BEF37F033500A
:106E840006E13204D8B049EF37F04BEF37F0C6EFE4
:106E940036F035BE56EF37F0355008E13404D8A04B
:106EA40056EF37F058EF37F060EF37F000016EB36C
:106EB4005EEF37F060EF37F0C6EF36F01EC013F028
:106EC4001FC014F0700E3E24156E000E3F20166E87
:106ED40034C017F035C018F0D2EC32F012000001C3
:106EE40063BF77EF37F079EF37F07AEF37F06E93CF
:106EF40063BF87EF37F0635106E16205D8B085EFD1
:106F040037F087EF37F08DEF37F0000E316E010E5A
:106F1400306E91EF37F062C030F063C031F060C082
:106F240032F061C033F020C034F021C035F022C00B
:106F340036F023C037F024C038F025C039F026C01D
:106F44003AF027C03BF0000E3D6E1F0E3C6E000E63
:106F54008F6F23EF38F03C06D8A03D06700E3C241A
:106F6400D96E000E3D20DA6E34C001F035C002F057
:106F740036C003F037C004F038C005F039C006F05D
:106F84003AC007F03BC008F00A0E096E000E0A6E04
:106F9400000E0B6E000E0C6E000E0D6E000E0E6ECB
:106FA400000E0F6E000E106E8FEC33F001C028F04F
:106FB40002C029F003C02AF004C02BF005C02CF055
:106FC40006C02DF007C02EF008C02FF02850300F57
:106FD400DF6E3006D8A031063206D8A0330634C09E
:106FE40001F035C002F036C003F037C004F038C0F9
:106FF40005F039C006F03AC007F03BC008F00A0EAD
:10700400096E000E0A6E000E0B6E000E0C6E000E62
:107014000D6E000E0E6E000E0F6E000E106EF7EC6D
:1070240033F001C034F002C035F003C036F004C0C0
:1070340037F005C038F006C039F007C03AF008C090
:107044003BF03C503D10D8B42AEF38F02CEF38F028
:107054005DEF38F0345035103610371038103910D1
:107064003A103B10D8A439EF38F03BEF38F0ADEFCD
:1070740037F031BE48EF38F0315006E13004D8B073
:1070840046EF38F048EF38F0ADEF37F033BE53EF4A
:1070940038F0335008E13204D8A053EF38F055EFFC
:1070A40038F05DEF38F000016EB35BEF38F05DEF60
:1070B40038F0ADEF37F01EC013F01FC014F0700E9F
:1070C4003C24156E000E3D20166E32C017F033C0FE
:1070D40018F0D2EC32F0120020C036F021C037F0A4
:1070E40022C038F023C039F024C03AF025C03BF068
:1070F40026C03CF027C03DF03DBE83EF38F086EF5C
:1071040038F0010E87EF38F0000E406E4050D8B4CE
:107114008EEF38F090EF38F0A0EF38F03D1E3C1EB3
:107124003B1E3A1E391E381E371E366C000E37229F
:10713400382239223A223B223C223D22000163BFFD
:10714400A6EF38F0A8EF38F0A9EF38F06E9363BFDC
:10715400B6EF38F0635106E16205D8B0B4EF38F009
:10716400B6EF38F0BCEF38F0000E336E010E326E1D
:10717400C0EF38F062C032F063C033F060C034F066
:1071840061C035F04050D8B4CAEF38F0CCEF38F0D5
:10719400E3EF38F03406D8A035064050D8A4D5EF34
:1071A40038F0D7EF38F0DDEF38F0000E316E2B0EEB
:1071B400306EE1EF38F0000E316E2D0E306E30C0BF
:1071C40040F0000E3F6E1F0E3E6E000E8F6F67EF95
:1071D40039F03E06D8A03F06700E3E24D96E000E4C
:1071E4003F20DA6E36C001F037C002F038C003F039
:1071F40039C004F03AC005F03BC006F03CC007F0CB
:107204003DC008F00A0E096E000E0A6E000E0B6EE9
:10721400000E0C6E000E0D6E000E0E6E000E0F6E44
:10722400000E106E14EC35F001C028F002C029F0F5
:1072340003C02AF004C02BF005C02CF006C02DF0CA
:1072440007C02EF008C02FF028C013F029C014F096
:107254003AEC31F01350300FDF6E3206D8A033060B
:107264003406D8A0350636C001F037C002F038C065
:1072740003F039C004F03AC005F03BC006F03CC04E
:1072840007F03DC008F00A0E096E000E0A6E000EEB
:107294000B6E000E0C6E000E0D6E000E0E6E000EC8
:1072A4000F6E000E106EC6EC35F001C036F002C051
:1072B40037F003C038F004C039F005C03AF006C016
:1072C4003BF007C03CF008C03DF03FBE72EF39F020
:1072D4003F5008E13E04D8A072EF39F074EF39F062
:1072E400A5EF39F036503710381039103A103B10EA
:1072F4003C103D10D8A481EF39F083EF39F0EBEF67
:1073040038F033BE90EF39F0335006E13204D8B090
:107314008EEF39F090EF39F0EBEF38F035BE9BEF9C
:1073240039F0355008E13404D8A09BEF39F09DEFD3
:1073340039F0A5EF39F000016EB3A3EF39F0A5EFF2
:1073440039F0EBEF38F04050D8B4ABEF39F0ADEF93
:1073540039F0B8EF39F03E06D8A03F06700E3E244F
:10736400D96E000E3F20DA6E40C0DFFF1EC013F05E
:107374001FC014F0700E3E24156E000E3F20166ED2
:1073840034C017F035C018F0D2EC32F0120043C00C
:10739400D9FF44C0DAFFDECFF6FFDDCFF7FF0800E8
:1073A400F550250AD8A4D9EF39F0DBEF39F0CDEF49
:1073B4003BF043C0D9FF44C0DAFFDE2A000EDD22D1
:1073C400000E0001616F000E606F60C06EF06269B4
:1073D4006369000E4C6E000E4B6E1CEF3AF0000118
:1073E4006E8343C0D9FF44C0DAFFDE2A000EDD22DB
:1073F4001CEF3AF0000E4C6E010E4B6E1CEF3AF08F
:1074040043C0D9FF44C0DAFFDECFF6FFDDCFF7FF7C
:107414000800F550476E486A4850000AD8B415EF82
:107424003AF0FCEF39F04750300AD8B4F1EF39F0B4
:10743400FCEF39F04B504C10D8B423EF3AF025EF61
:107444003AF002EF3AF043C0D9FF44C0DAFFDECF8E
:10745400F6FFDDCFF7FF0800F5502A0AD8A435EF70
:107464003AF037EF3AF061EF3AF043C0D9FF44C045
:10747400DAFFDE2A000EDD2245C0D9FF46C0DAFF5E
:10748400DFCF47F0020EDE26DFCF48F0000EDD220C
:1074940047C0D9FF48C0DAFFDECF60F0DDCF61F02E
:1074A400000161BF5AEF3AF058EF3AF094EF3AF026
:1074B4006E81606D611FD8B0612B94EF3AF043C0C8
:1074C400D9FF44C0DAFFDECF07F0DDCF08F06FEC60
:1074D40034F007C060F008C061F078EF3AF043C0C0
:1074E400D9FF44C0DAFFDE2A000EDD2243C0D9FFF3
:1074F40044C0DAFFDECFF6FFDDCFF7FF0800F5CF9B
:1075040047F0D00E4724486E496AFF0E492249507D
:1075140009E10A0E485CD8A092EF3AF094EF3AF0F1
:1075240071EF3AF043C0D9FF44C0DAFFDECFF6FF73
:10753400DDCFF7FF0800F550630AD8A4A4EF3AF0B2
:10754400A6EF3AF0C9EF3AF043C0D9FF44C0DAFFDE
:10755400DE2A000EDD2245C0D9FF46C0DAFFDFCFA8
:1075640047F0020EDE26DFCF48F0000EDD2247C0D2
:10757400D9FF48C0DAFFDF504D6E41C00CF042C065
:107584000DF04DC00EF029EC33F0E1EF3BF043C0B9
:10759400D9FF44C0DAFFDECF56F0DDCF57F056C036
:1075A400F6FF57C0F7FF0800F550640AD8B4DDEFC2
:1075B4003AF0DFEF3AF0EDEF3AF056C0F6FF57C07D
:1075C400F7FF0800F550690AD8A4EBEF3AF0EDEFA5
:1075D4003AF030EF3BF045C0D9FF46C0DAFFDFCFC9
:1075E40047F0020EDE26DFCF48F0000EDD2247C052
:1075F400D9FF48C0DAFFDECF4EF0DDCF4FF0000EEA
:107604004FBEFF0E506E516E526E536E546E556ED9
:10761400010E5624476E000E5720486E43C0D9FF12
:1076240044C0DAFF47C0DEFF48C0DDFF41C01EF0A2
:1076340042C01FF04EC020F04FC021F050C022F0D5
:1076440051C023F052C024F053C025F054C026F09A
:1076540055C027F06EEC38F0E1EF3BF056C0F6FF72
:1076640057C0F7FF0800F550780AD8B43CEF3BF058
:107674003EEF3BF04CEF3BF056C0F6FF57C0F7FF30
:107684000800F550750AD8A44AEF3BF04CEF3BF0E4
:10769400C4EF3BF045C0D9FF46C0DAFFDFCF47F067
:1076A400020EDE26DFCF48F0000EDD2247C0D9FFF0
:1076B40048C0DAFFDECF49F0DDCF4AF049C04EF0D2
:1076C4004AC04FF0506A516A526A536A546A556A02
:1076D400010E5624476E000E5720486E43C0D9FF52
:1076E40044C0DAFF47C0DEFF48C0DDFFAAEF3BF02D
:1076F40041C01EF042C01FF04EC020F04FC021F028
:1077040050C022F051C023F052C024F053C025F0E1
:1077140054C026F055C027F071EC37F0E1EF3BF090
:1077240041C01EF042C01FF04EC020F04FC021F0F7
:1077340050C022F051C023F052C024F053C025F0B1
:1077440054C026F055C027F08AEC36F0E1EF3BF048
:1077540056C0F6FF57C0F7FF0800F550476E486A59
:107764004850000AD8B4B9EF3BF0C4EF3BF047509F
:10777400750AD8B47AEF3BF00D0AD8B492EF3BF017
:10778400C4EF3BF043C0D9FF44C0DAFFDE2A000E49
:10779400DD22E1EF3BF043C0D9FF44C0DAFFDECF86
:1077A400F6FFDDCFF7FF0800F550036E046A41C011
:1077B40005F042C006F035EC32F0C4EF3BF01200A5
:1077C40020EEBBF010EE9AF00F0EDBCFE3FFE806DD
:1077D400FCE20A0E0001BA6F38EC30F0000E026EC3
:1077E400000E016ED9EC2FF0F294F2A4FCEF3BF002
:1077F400FEEF3BF0F7EF3BF0DF0E0001906F7F0EE2
:10780400916F7EEC30F0380E0001906F7F0E916F17
:107814007EEC30F0960E0001906F7F0E916F7EEC3F
:1078240030F0A20E0001906F7D0E916F7EEC30F06F
:107834001F0E0001906F7D0E916F7EEC30F0F40E00
:107844000001906F7D0E916F7EEC30F04C0E0001C4
:10785400906F7D0E916F7EEC30F0F90E0001906F09
:107864007F0E916F7EEC30F0F3EC2FF00009D8B46A
:107874003EEF3CF040EF3CF036EF3CF092EC30F061
:107884000001B56F42EF3EF0EB0E906F7C0E916FEE
:107894007EEC30F01C0E0001906F7E0E916F7EEC3A
:1078A40030F07C0E0001906F7E0E916FBA51986F8C
:1078B400996B050ED89098379937E82E5CEF3CF019
:1078C40098C092F099C093F07EEC30F0EB0E00017A
:1078D400906F7C0E916F7EEC30F0CE0E0001906FB5
:1078E4007F0E916F7EEC30F0E80E0001906F7F0EFA
:1078F400916F7EEC30F0690E0001906F7F0E916FF6
:107904007EEC30F0EC0E0001906F7E0E916F7EECF9
:1079140030F0D20E0001906F7E0E916F7EEC30F04D
:10792400CB0E0001906F7D0E916F7EEC30F0510E06
:107934000001906F7F0E916F7EEC30F0BD0E000160
:10794400906F7F0E916F7EEC30F0EB0E0001906F24
:107954007C0E916F7EEC30F036EF3CF0F10E906FC0
:107964007F0E916F7EEC30F036EF3CF0000EB86F76
:107974003C0E906F7E0E916F7EEC30F00001B82BC0
:10798400270EB865C8EF3CF0CAEF3CF0BAEF3CF004
:10799400FF0036EF3CF0000EB86F3C0E906F7E0E89
:1079A400916F7EEC30F00001B82B270EB865DDEF47
:1079B4003CF0DFEF3CF0CFEF3CF036EF3CF0000E54
:1079C400B96F5D0E906F7E0E916FBA51986F996B7F
:1079D400050ED89098379937E82EEBEF3CF098C015
:1079E40092F099C093F07EEC30F01EEF3DF0000170
:1079F400B951BA25B96FB9390F0BB26F9A0EB225C6
:107A0400D96EDA6A000EDA22DF50986F9851016E4F
:107A1400026AE7EC30F0F80E026EAC0E016ED9EC9F
:107A24002FF0F294FDEC2FF00009D8B41CEF3DF0D8
:107A34001EEF3DF014EF3DF0F3EC2FF00009D8B445
:107A440026EF3DF028EF3DF0F9EF3CF092EC30F0FA
:107A54003E0E0001906F7E0E916F7EEC30F0000EB2
:107A6400026E800E016EE7EC30F036EF3CF02B0E28
:107A7400B519D8A440EF3DF042EF3DF045EF3DF09D
:107A8400BA2B46EF3DF0BA07800E906F7F0E916FD0
:107A9400BAC092F0936B7EEC30F036EF3CF0000EFF
:107AA400B96F060E906F7F0E916F7EEC30F0A0EFF1
:107AB4003DF0030E0001BA6F000E026E000E016E5F
:107AC4006AEC30F09E908CEF3DF00001B951BA257C
:107AD400B96FB9390F0BB26F9A0EB225D96EDA6A43
:107AE400000EDA22DF50986F9851016E026AE7ECBB
:107AF40030F0F80E026EAC0E016ED9EC2FF0F29459
:107B0400FDEC2FF00009D8B48AEF3DF08CEF3DF086
:107B140082EF3DF007EC30F00009D8B494EF3DF06B
:107B240096EF3DF067EF3DF00001BA2B0C0EBA65FD
:107B34009EEF3DF0A0EF3DF05EEF3DF0F3EC2FF053
:107B44000009D8B4A8EF3DF0AAEF3DF05BEF3DF09B
:107B540092EC30F0780E0001906F7D0E916F7EEC08
:107B640030F031EF3DF0000EB46FC80EB36F1F0E4E
:107B7400906F7F0E916F000E936F640E926F000EE4
:107B8400956FC80E946F7EEC30F0640E016E000E9B
:107B9400026E000E036E000E046EF40E056E010EEE
:107BA400066E000E076E000E086EC6EC31F001C0C2
:107BB400AAF002C0ABF003C0ACF004C0ADF0AAC0A0
:107BC40001F0ABC002F0ACC003F0ADC004F0C80ECD
:107BD400056E000E066E000E076E000E086E80EC39
:107BE40032F001C0AEF002C0AFF003C0B0F004C088
:107BF400B1F0AEC0B6F0AFC0B7F09A0E0001906F0E
:107C04007E0E916FB6C092F0B7C093F0B6C094F0F8
:107C1400B7C095F07EEC30F0000E026E640E016E7B
:107C2400010E046EF40E036E57EC30F001C007F041
:107C340002C008F0000E0A6EC80E096EFBEC31F0AB
:107C440007C0B6F008C0B7F0B70E0001906F7E0E03
:107C5400916FB6C092F0B7C093F0B6C094F0B7C0BD
:107C640095F07EEC30F036EF3CF0AC0E906F7F0E6A
:107C7400916FB5C092F0936B7EEC30F036EF3CF030
:107C8400B551986F996B9951000AD8B44CEF3EF0F6
:107C940037EF3EF098512B0AD8B439EF3DF0060A7D
:107CA400D8B439EF3DF0120AD8B446EF3CF0650A77
:107CB400D8B4B8EF3CF0370AD8B4B5EF3DF0020AB7
:107CC400D8B4B0EF3CF01C0AD8B4E1EF3CF0040A9D
:107CD400D8B451EF3DF00D0AD8B4CDEF3CF037EFF6
:107CE4003EF000EF00F0002D2D2D2D2D2D2D2D2DEE
:107CF4002D2D2D2D2D2D2D2D2D2D2D2D2D2D2D2DB0
:107D04002D2D2D2D2D2D2D2D2D2D2D2D2D2D2D2D9F
:107D14002D2D2D2D2D2D2D2D0D0A00436F6E6E65ED
:107D24006374206A756D7065722062657477656529
:107D34006E204C50465F6F757420616E6420414D17
:107D4400505F696E2E0D0A00436F6E6E656374207A
:107D54004368616E6E656C20322073636F706520BA
:107D640070726F626520746F204C50465F6F75743B
:107D74002E0D0A0053746F707065642067656E651C
:107D8400726174696F6E206F6620737765657065C4
:107D9400642073696E6520776176650D0A00436F10
:107DA4006E6E656374206A756D70657220626574A9
:107DB4007765656E2052433220616E64204C5046D4
:107DC4005F696E2E0D0A002B2F2D3A20696E6372A7
:107DD400656173652F64656372656173652070689E
:107DE40061736520696E6372656D656E740D0A005A
:107DF400436F6E6E656374204368616E6E656C20BC
:107E0400312073636F70652070726F626520746FC8
:107E1400205243322E0D0A002D2D094669786564DF
:107E2400202020202020202020202020202020204E
:107E3400202020202020200D0A0053746F707065CC
:107E4400642067656E65726174696E672073696E1C
:107E54006520776176650D0A0047656E6572617409
:107E6400696E67206120256420487A2073696E65F5
:107E740020776176650D0A002D2D0909467265711A
:107E840075656E63793A092564487A20202020209C
:107E94002020200D0A0064313620706172616E6FFB
:107EA4006964203D20307825303478203D202575C4
:107EB4000D0A006431362063617375616C203D20C6
:107EC400307825303478203D2025750D0A00733A2A
:107ED40020202067656E65726174652053696E6544
:107EE40020776176650D0A007A3A202020636C655C
:107EF400617220746865207465726D696E616C0DC1
:107F04000A00507265737320616E79206B65792065
:107F1400746F20657869742E0D0A00506572666F5F
:107F2400726D696E673A2025752A3530302F2575B4
:107F34003A0D0A004444532077617665666F726D8A
:107F44002067656E657261746F720D0A00773A205E
:107F5400202073576565702073696E65207761769C
:107F640065200D0A005A3A2020207265736574203A
:107F740070726F636573736F720D0A00706861735A
:107F840065496E6372656D656E74203D2025640DD0
:107F94000A0044657627323120426F61726420778B
:107FA4006972696E670D0A00556E6B6E6F776E208D
:107FB4006B65792025630D0A006D3A2020204D6100
:107FC40074682074696D650D0A003F3A20202068AA
:107FD400656C70206D656E750D0A004C6162203110
:107FE400320D0A006F3A2020206B0D0A006F3A0907
:0B7FF4006F6B0D0A000D0A3E2000001C
:020000040020DA
:08000000FFFFFFFFFFFFFFFF00
:020000040030CA
:0E000000FF281F3CFFBF85FF0FC00FE00F4021
:00000001FF
