:040000004AEF00F0D3
:100008005182FACF09F0FBCF0AF0D9CF0BF0DACF43
:100018000CF0F3CF0DF0F4CF0EF0F2AA16EF00F0CB
:1000280018EF00F023EF00F0F2A41DEF00F01FEF2F
:1000380000F023EF00F0E1EC08F03CEF00F0F2AC48
:1000480028EF00F02AEF00F03CEF00F09DA02FEF22
:1000580000F031EF00F03CEF00F09EA036EF00F02A
:1000680038EF00F03CEF00F0C2EC08F03CEF00F095
:100078000EC0F4FF0DC0F3FF0CC0DAFF0BC0D9FFB0
:100088000AC0FBFF09C0FAFF5192110002EF08F005
:10009800000E0001996F000E986F000EA46F000EFD
:1000A800A36F000E9A6F000E9B6F000E9C6F000EE0
:1000B8009D6F000E9E6F000E9F6F000EA06F000ECA
:1000C800A16FEDEC09F0000E106E000E0F6E0BEC38
:1000D8000AF0000E106E000E0F6E6DEC09F0F2942F
:1000E800F2A479EF00F07BEF00F074EF00F0C40E9B
:1000F8000F6E0B0E106E15EC0AF0FA0E0F6E0E0E48
:10010800106E10EC0AF0F28EF28CD90E00018A6F94
:100118007F0E8B6F59EC09F00F0E00018A6F7F0E6E
:100128008B6F59EC09F0E40E00018A6F7F0E8B6F1C
:1001380059EC09F0990E00018A6F7F0E8B6F59EC0C
:1001480009F0730E00018A6F7E0E8B6F59EC09F06F
:10015800F90E00018A6F7F0E8B6F59EC09F0FAECEB
:1001680009F00009D8B4BBEF00F0BDEF00F0B3EF21
:1001780000F081EC09F00001A26F9FEF02F0A00EE1
:100188008A6F7E0E8B6F59EC09F0F70E00018A6FAB
:100198007E0E8B6FCEEC09F00FC08CF010C08DF086
:1001A80059EC09F0A00E00018A6F7E0E8B6F59EC96
:1001B80009F0A80E00018A6F7F0E8B6F59EC09F0C9
:1001C800ED0E00018A6F7F0E8B6F59EC09F03A0E25
:1001D80000018A6F7F0E8B6F59EC09F0DF0E00016A
:1001E8008A6F7E0E8B6F59EC09F04F0E00018A6FF3
:1001F8007F0E8B6F59EC09F0250E00018A6F7F0E78
:100208008B6F59EC09F0A00E00018A6F7E0E8B6F80
:1002180059EC09F0B3EF00F0F40E8A6F7F0E8B6F84
:1002280059EC09F0B3EF00F0000EA66FBE0E8A6F0E
:100238007E0E8B6F59EC09F00001A62B270EA665E0
:1002480028EF01F02AEF01F01AEF01F0FF00B3EFF9
:1002580000F0000EA66FBE0E8A6F7E0E8B6F59ECF3
:1002680009F00001A62B270EA6653DEF01F03FEF30
:1002780001F02FEF01F0B3EF00F0760E8A6F7F0EDA
:100288008B6F59EC09F0C30E00018A6F7F0E8B6FDC
:1002980059EC09F0010E0001CD6F030ECC6F010E71
:1002A800CB6FB3EF00F0630E8A6F7F0E8B6F59EC44
:1002B80009F0C10E00018A6F7E0E8B6F59EC09F0B0
:1002C800010E0001CD6F030ECC6F010ECB6FCB0575
:1002D800D8B471EF01F073EF01F06BEF01F0410E4C
:1002E8008A6F7E0E8B6F59EC09F0000E0001A56F26
:1002F80089EF02F0F29EF29C80BA85EF01F087EF59
:1003080001F080EF01F0000E106E000E0F6E0BEC86
:100318000AF0DEEC09F00FC096F010C097F080AA42
:1003280098EF01F09AEF01F093EF01F0DEEC09F09D
:100338000FC098F010C099F0F28EF28C000196511F
:10034800985DA36F97519959A46FA551020DF3CFEA
:100358008EF0F4CF8FF0CD51180D000EF324906F6E
:10036800010EF420916F8E519025D96E8F519121F5
:10037800DA6EDECF92F0DDCF93F0780E9225946F8F
:10038800EC0E9321956F94C09AF095C09BF09C6BEE
:100398009D6BA551020DF3CF8EF0F4CF8FF0CD51A8
:1003A800180D000EF324906F010EF420916F8E51FA
:1003B8009025D96E8F519121DA6EDECF92F0DDCF84
:1003C80093F0880E9225946F130E9321956F94C025
:1003D8009EF095C09FF0A06BA16BA3518E6FA451A6
:1003E8008F6F906B916B8E519A5D8F519B59905185
:1003F8009C5991519D59D8B004EF02F006EF02F0D4
:1004080047EF02F0A3518E6FA4518F6F906B916BE1
:100418009E518E5D9F518F59A0519059A15191596C
:10042800D8B019EF02F01BEF02F047EF02F0A55128
:100438008E6F8F6BFF0ECC25906F916BFF0E912303
:100448008E51901907E18F519119D8A42EEF02F01F
:1004580030EF02F047EF02F0CE0E8A6F7F0E8B6FFF
:1004680059EC09F0000E0001CD6F0C0ECC6F010E97
:10047800CB6FCB05D8B443EF02F045EF02F03DEF68
:1004880002F0B3EF00F0A3518E6FA4518F6F906B01
:10049800916B9A518E5D9B518F599C5190599D51EA
:1004A8009159D8A05AEF02F05CEF02F071EF02F018
:1004B800A3518E6FA4518F6F906B916B8E519E5D7F
:1004C8008F519F599051A0599151A159D8B06FEFB0
:1004D80002F071EF02F088EF02F0B70E8A6F7F0E1C
:1004E8008B6F59EC09F0020E0001CD6F040ECC6F32
:1004F800010ECB6FCB05D8B484EF02F086EF02F083
:100508007EEF02F0B3EF00F0A52BCC51A55DD8A08B
:1005180090EF02F092EF02F07EEF01F0B3EF00F0FF
:10052800880E8A6F7F0E8B6FA2C08CF08D6B59EC92
:1005380009F0B3EF00F0A2518E6F8F6B8F51000A54
:10054800D8B4A9EF02F094EF02F08E513F0AD8B464
:10055800C3EF00F0650AD8B418EF01F0350AD8B433
:1005680010EF01F01F0AD8B441EF01F0020AD8B425
:1005780057EF01F0080AD8B42DEF01F094EF02F01C
:100588004AEF00F073C0D9FF74C0DAFFDECFF6FF80
:10059800DDCFF7FF0800F550250AD8A4D6EF02F002
:1005A800D8EF02F041EF04F073C0D9FF74C0DAFF4E
:1005B800DE2A000EDD22000E456E000E446E44C099
:1005C80048F046684768000E0001816F000E806F92
:1005D80018EF03F0488273C0D9FF74C0DAFFDE2A2F
:1005E800000EDD2218EF03F0000E816F010E806F00
:1005F80018EF03F073C0D9FF74C0DAFFDECFF6FF3F
:10060800DDCFF7FF0800F5503C6E3D6A3D50000A0B
:10061800D8B411EF03F0F8EF02F03C50300AD8B428
:10062800EEEF02F0F8EF02F080518111D8B41FEF1D
:1006380003F021EF03F0FEEF02F073C0D9FF74C09E
:10064800DAFFDECFF6FFDDCFF7FF0800F5502A0A04
:10065800D8A431EF03F033EF03F05CEF03F073C07D
:10066800D9FF74C0DAFFDE2A000EDD2275C0D9FF7B
:1006780076C0DAFFDFCF3CF0020EDE26DFCF3DF09A
:10068800000EDD223CC0D9FF3DC0DAFFDECF44F0CA
:10069800DDCF45F045BE55EF03F053EF03F08FEF84
:1006A80003F04880446C451ED8B0452A8FEF03F00C
:1006B80073C0D9FF74C0DAFFDECF15F0DDCF16F0B6
:1006C8003DEC05F015C044F016C045F073EF03F09B
:1006D80073C0D9FF74C0DAFFDE2A000EDD2273C0B2
:1006E800D9FF74C0DAFFDECFF6FFDDCFF7FF0800D1
:1006F800F5CF3CF0D00E3C243D6E3E6AFF0E3E2204
:100708003E5009E10A0E3D5CD8A08DEF03F08FEF53
:1007180003F06CEF03F073C0D9FF74C0DAFFDECFCB
:10072800F6FFDDCFF7FF0800F550630AD8A49FEF66
:1007380003F0A1EF03F0C5EF03F073C0D9FF74C055
:10074800DAFFDE2A000EDD2275C0D9FF76C0DAFF97
:10075800DFCF3CF0020EDE26DFCF3DF0000EDD22BB
:100768003CC0D9FF3DC0DAFFDF5000017F6F71C088
:1007780018F072C019F07FC01AF079EC06F055EF46
:1007880004F073C0D9FF74C0DAFFDECF82F0DDCF8A
:1007980083F082C0F6FF83C0F7FF0800F550780A9F
:1007A800D8A4D9EF03F0DBEF03F038EF04F075C0FD
:1007B800D9FF76C0DAFFDFCF3CF0020EDE26DFCFAE
:1007C8003DF0000EDD223CC0D9FF3DC0DAFFDECF90
:1007D8003EF0DDCF3FF03EC077F03FC078F000013B
:1007E800796B7A6B7B6B7C6B7D6B7E6B010E8225E4
:1007F8003C6E000E83213D6E73C0D9FF74C0DAFFD2
:100808003CC0DEFF3DC0DDFF22EF04F071C02AF0DE
:1008180072C02BF077C02CF078C02DF079C02EF084
:100828007AC02FF07BC030F07CC031F07DC032F050
:100838007EC033F056EC04F055EF04F082C0F6FFAA
:1008480083C0F7FF0800F5503C6E3D6A3D50000A32
:10085800D8B431EF04F038EF04F03C50780AD8B43B
:100868000AEF04F038EF04F073C0D9FF74C0DAFF60
:10087800DE2A000EDD2255EF04F073C0D9FF74C0E4
:10088800DAFFDECFF6FFDDCFF7FF0800F5500F6E79
:10089800106A71C011F072C012F032EC07F038EF34
:1008A80004F0120047BE5BEF04F05DEF04F05EEF6A
:1008B80004F0489247BE6BEF04F0475006E1460447
:1008C800D8B069EF04F06BEF04F072EF04F0000E9B
:1008D8000001636F010E626F76EF04F046C062F0AC
:1008E80047C063F044C064F045C065F02CC066F0B2
:1008F8002DC067F02EC068F02FC069F030C06AF0D4
:1009080031C06BF032C06CF033C06DF0000E0001E6
:100918006F6F1F0E6E6F000EED6FEEEF04F06E0737
:10092800D8A06F0766510F0B706F090E70659FEFA7
:1009380004F0A1EF04F0A9EF04F0570E7025606FE2
:10094800616B000E6123AFEF04F0300E7025606F0D
:10095800616B000E612360C070F0CE0E6E25D96EFB
:10096800000E6F21DA6E70C0DFFF6207D8A0630740
:100978006407D8A0650766C034F067C035F068C062
:1009880036F069C037F06AC038F06BC039F06CC017
:100998003AF06DC03BF0050EDBEF04F0D8903B3227
:1009A8003A32393238323732363235323432E82E4A
:1009B800D2EF04F034C066F035C067F036C068F096
:1009C80037C069F038C06AF039C06BF03AC06CF0D3
:1009D8003BC06DF06FBFFAEF04F06F5109E1020EF2
:1009E8006E5DD8A0FAEF04F0FCEF04F02CEF05F0F0
:1009F80066516711681169116A116B116C116D11DB
:100A0800D8A409EF05F00BEF05F093EF04F063BFEE
:100A180018EF05F0635106E16205D8B016EF05F04E
:100A280018EF05F093EF04F065BF23EF05F065516B
:100A380008E16405D8A023EF05F025EF05F02CEFB9
:100A480005F048B22AEF05F02CEF05F093EF04F01B
:100A58002AC01FF02BC020F0CE0E6E25216E000E8E
:100A68006F21226E64C023F065C024F0DDEC06F02F
:100A78001200000E1D6E000E1C6E000E1B6E000E86
:100A88001A6E49EF05F0154A162A15C0F6FF16C06A
:100A9800F7FF0800F550200AD8B455EF05F057EFD6
:100AA80005F047EF05F015C0F6FF16C0F7FF080080
:100AB800F5CF17F0F70E1724186E196AFF0E1922D2
:100AC800195009E1050E185CD8A06DEF05F06FEF1D
:100AD80005F047EF05F079EF05F0000E1B6E010EEB
:100AE8001A6E154A162AAEEF05F015C0F6FF16C0A5
:100AF800F7FF0800F550176E186A1850000AD8B4A6
:100B080088EF05F0AEEF05F017502B0AD8B475EF53
:100B180005F0060AD8B471EF05F0AEEF05F01CC079
:100B28000FF01DC010F0000E126E0A0E116EA9EC27
:100B380009F015C0F6FF16C0F7FF0800F5500F5E64
:100B4800000E105A300E0F241C6E000E10201D6E61
:100B580075EF05F015C0F6FF16C0F7FF0800F5CFD2
:100B680017F0D00E1724186E196AFF0E19221950A3
:100B780009E10A0E185CD8A0C4EF05F0C6EF05F02D
:100B880093EF05F01A501B10D8A4CDEF05F0CFEF66
:100B980005F0DDEF05F01CC017F01DC018F0171E9A
:100BA800181E174A182A17C015F018C016F0E1EFDA
:100BB80005F01CC015F01DC016F012005EEF06F01F
:100BC8000001CB05D8A4EBEF05F0EDEF05F077EFCA
:100BD80006F0010E4A6E77EF06F00001CB05D8A4A7
:100BE800F8EF05F0FAEF05F022EF06F0010E4B6E74
:100BF800020E4A6E4C50020DF3CF03F0F4CF04F00E
:100C0800CD51180D000EF324056E010EF420066E6A
:100C180003500524D96E04500620DA6EDECF07F0A3
:100C2800DDCF08F007500008016E0850D8A0E82A68
:100C38000008026E29EC0AF077EF06F0000E4A6E03
:100C480077EF06F00001CB05D8A42DEF06F02FEFC3
:100C580006F054EF06F0FF0ECC25036E046AFF0E73
:100C680004224C50056E066A0350055C0650800A43
:100C7800076E0450800A0758D8B045EF06F047EFD2
:100C880006F054EF06F0000E4B6E4C2A010E4A6E29
:100C9800B10E026EE00E016E29EC0AF077EF06F055
:100CA800000E4B6E000ECB6F000E4C6E000E4A6E9F
:100CB80077EF06F04A50036E046A0450000AD8B46D
:100CC80068EF06F077EF06F00350000AD8B4E4EFB7
:100CD80005F0010AD8B4F1EF05F0030AD8B426EFFD
:100CE80006F077EF06F0F294120044504510D8A4AD
:100CF80080EF06F082EF06F088EF06F044C01EF0A1
:100D080045C01FF08EEF06F0FF0E44241E6EFF0E46
:100D180045201F6E48A093EF06F095EF06F09EEF72
:100D280006F01AC00FF0106A18C011F019C012F0BE
:100D380032EC07F01FBEA3EF06F0A5EF06F0A7EF11
:100D480006F0ABEF06F0000E1F6E000E1E6E000ED2
:100D58001D6E000E1C6EBDEF06F0000E106E200E0C
:100D68000F6E18C011F019C012F032EC07F01C4ACF
:100D78001D2A1E501C5C1D50800A1B6E1F50800AC5
:100D88001B58D8A0CAEF06F0CCEF06F0B1EF06F07A
:100D980048B0D1EF06F0D3EF06F0DCEF06F01AC04A
:100DA8000FF0106A18C011F019C012F032EC07F0F9
:100DB800120048A0E2EF06F0E4EF06F0EEEF06F0CE
:100DC80021C018F022C019F01FC01AF020C01BF073
:100DD80081EC08F024BEF3EF06F0F5EF06F0FBEF28
:100DE80006F023C028F024C029F0FFEF06F0000E1B
:100DF800296E000E286E000E276E000E266E11EF6B
:100E080007F0000E106E200E0F6E1FC011F020C0EC
:100E180012F032EC07F0264A272A2850265C275081
:100E2800800A256E2950800A2558D8A01EEF07F0A1
:100E380020EF07F005EF07F048B025EF07F027EFA0
:100E480007F031EF07F021C018F022C019F01FC0D9
:100E58001AF020C01BF081EC08F01200115012109B
:100E6800D8B439EF07F03BEF07F044EF07F0115023
:100E78001210D8A442EF07F044EF07F049EF07F04B
:100E88000F5030EC0AF07CEF07F020EE09F011501B
:100E9800D9261250DA22DE50DE10D8B456EF07F009
:100EA80058EF07F073EF07F020EE09F01150D9263C
:100EB8001250DA2210EE03F01150E1261250E2220D
:100EC800DE50E65CE650800A176EDE50800A17583E
:100ED800D8B071EF07F073EF07F07CEF07F020EE62
:100EE80003F01150D9261250DA22DE2A000EDD2234
:100EF80012004B04D8A483EF07F085EF07F0BEEF8C
:100F080007F00001CD510C0DA70EF324036E000E5F
:100F1800F420046E4C500324D96E000E0420DA6EBF
:100F2800DF50056E0550020D480EF324D96E010EF0
:100F3800F420DA6EDECF06F0DDCF07F006500008A9
:100F4800016E0750D8A0E82A0008026E95EC09F057
:100F58008ABAB1EF07F0B4EF07F0010EB5EF07F06A
:100F6800000EFF0A036E033A03468A500318DF0B8C
:100F780003188A6E9E901200983A983A60EA983A56
:100F8800983A60EA3075983A983A983A60EA983A06
:100F9800307530753075000000000000000000005A
:100FA80000000000000000003075983A307560EAD3
:100FB8000000000000000000000000000000000029
:100FC80010471043403FC03B703840354032702FC7
:100FD800D02C402AE027A02580239021B01FE01DB7
:100FE800401CA01A2019C01760162015F013D01243
:100FF800D011C010D00FF00E200E500D800EF66EDE
:101008000F0EF76E000EF86E01EE00F010EE84F091
:101018000900F5CFEEFFE550E150FAE1780EF66EE3
:10102800130EF76E000EF86E00EEA7F010EE24F027
:101038000900F5CFEEFFE550E150FAE100EECBF004
:10104800230EEE6AE806FDE100EE44F0090EEE6AB2
:10105800E806FDE151905192000EF86E00014CEF48
:1010680000F086C040F087C041F04AEF08F084C025
:1010780071F085C072F0400E0001736F000E746F3E
:1010880088C075F089C076F0C6EC02F040C0F6FF63
:1010980041C0F7FF0800F5500009D8A456EF08F042
:1010A80058EF08F03BEF08F0000E0001856F000EC6
:1010B800846F1200010E136E200E0F181010D8B492
:1010C80068EF08F06AEF08F07DEF08F0F70E0F24DC
:1010D800116EFF0E1020126E125009E1050E115C00
:1010E800D8A079EF08F07BEF08F07DEF08F0000E4C
:1010F800136E13C00FF0106A1200000E1E6E000E61
:101108001D6E92EF08F01CC00FF0106A1AC011F0A3
:101118001BC012F032EC07F01D4A1E2A1D5018247D
:10112800D96E1E501920DA6EDF501C6E1C50D8A4E0
:10113800A0EF08F0A2EF08F087EF08F01200080E01
:10114800B86E900EAB6E240EAC6E190EAF6E000E1C
:10115800B06E000E0F6E000E106E1FEC0AF0000E3F
:101168000F6E000E106E1AEC0AF0000E0F6E000ED5
:10117800106E24EC0AF0000E496E12009E904DC0CD
:1011880001F04EC002F095EC09F00001F451F511A0
:10119800D8B4D1EF08F0D3EF08F0E0EF08F002D8A8
:1011A800E0EF08F00500FA6EF451FD6EF551FE6EA1
:1011B800F850FF6EFA5012001200F2945050D76E99
:1011C8004FC0D6FF0001F651F711D8B4EEEF08F082
:1011D800F0EF08F0FDEF08F002D8FDEF08F0050089
:1011E800FA6EF651FD6EF751FE6EF850FF6EFA502A
:1011F80012001200D59CD768FD0ED66ED650D7CFF8
:1012080011F0126A11C012F0116A11104F6E1250CB
:10121800506EF294F28A640E0F6E140E106E15EC76
:101228000AF0970ED56E1200D00E0F24116EFF0E25
:101238001020126E12500AE10A0E115CD8A027EF96
:1012480009F02AEF09F0010E2BEF09F0000E0F6EDE
:10125800106A1200000E896E000E8A6E000E8B6EE8
:101268009268DF0E936EBF0E946E3C0E0F013A6FBC
:101278003F0E396F0F0E386F000E616EF18E12003F
:10128800000ECC6E000ECF6E000ECE6ECECF4DF09F
:10129800CFCF4EF09E909D80620E0F6E140E106E92
:1012A80010EC0AF0010ECD6E12008C0E426E000E8C
:1012B800436E000E0001846F000E856F8AC086F0B1
:1012C8008BC087F0420E886F000E896F35EC08F0EE
:1012D8001200CDA472EF09F074EF09F07CEF09F069
:1012E800CD901050CF6E0FC0CEFFCD8080EF09F0AB
:1012F8001050CF6E0FC0CEFF12009EAA86EF09F0E5
:1013080088EF09F081EF09F0000E496EABA28FEF6C
:1013180009F091EF09F093EF09F0AB98AB88AE5064
:101328001200CDA49AEF09F09CEF09F0A4EF09F0A0
:10133800CD900250CF6E01C0CEFFCD80A8EF09F04E
:101348000250CF6E01C0CEFF12000F501102F3CF32
:1013580013F0F4CF14F00F501202F350142610506B
:101368001102F350142613C00FF014C010F012002D
:101378001C08001C081C001A1C08001C061D16006E
:101388000000000000000000020B1715000000001C
:1013980000000000CD82CECF16F0CFCF15F015504B
:1013A800116E1650136E11C014F013C00FF014C054
:1013B80010F01200D6CF15F0D7CF16F01650116ED8
:1013C8001550136E11C014F013C00FF014C010F0B4
:1013D80012002EEC0AF02EEC09F004EC0AF044ECB2
:1013E80009F0FEEC08F0A3EC08F012009EBAFFEF3B
:1013F80009F002EF0AF0010E03EF0AF0000E1200E6
:10140800300ED36E040ED26E000E9B6E120010507A
:10141800D76E0FC0D6FF12000FC0F4F010C0F5F061
:1014280012000FC0F6F010C0F7F012000FC0F0F075
:1014380010C0F1F012000FC0F2F010C0F3F012006B
:101448000FC0EEF010C0EFF012000250D76E01C0CE
:0E145800D6FF1200D09E1200120012001200E9
:107E400000557365207468652075707065722062D6
:107E50007574746F6E20746F20726570726F6475C4
:107E600063652074686973207061747465726E2E26
:107E70000D0A00524235202D3E204C5046696E209E
:107E8000616E6420696E7374616C6C204C50466F37
:107E900075742F414D50696E206A756D7065720062
:107EA0002D2D2D2D2D2D2D2D2D2D2D2D2D2D2D2D02
:107EB0002D2D2D2D2D2D2D2D2D2D2D2D2D2D0D0A35
:107EC000004C697374656E20746F2074686520625D
:107ED000656174207061747465726E2E0D0A007A8B
:107EE0003A20436C65617220746865207465726D18
:107EF000696E616C0D0A0020202020202020205473
:107F00004D5231203D203078253034780D0A00491B
:107F10006E74657272757074204D7573696320425A
:107F20006F780D0A00723A2052687974686D20707B
:107F3000726163746963650D0A005A3A2052657371
:107F400065742070726F636573736F720D0A0070D1
:107F50003A20706C617920736F6E67206F6E636575
:107F60000D0A0052687974686D20707261637469DB
:107F700063652E0D0A00506C617920736F6E672067
:107F80006F6E63652E0D0A00556E6B6E6F776E20F7
:107F90006B65792025630D0A00426F61726420775A
:107FA0006972696E670D0A003F3A2048656C70205F
:107FB0006D656E750D0A00596F75206C6F73652EB7
:107FC0000D0A00506C6179696E672E0D0A00596FB9
:107FD000752077696E2E0D0A00696E4C6162203043
:107FE000340D0A004465762732310D0A006F3A20BD
:0F7FF0006B0D0A006B2E0D0A000D0A3E200000DB
:020000040020DA
:08000000FFFFFFFFFFFFFFFF00
:020000040030CA
:0E000000FF281F3CFFBF85FF0FC00FE00F4021
:00000001FF
