:040000003AEF00F0E3
:100008005882FACF05F0FBCF06F0F2AA0EEF00F007
:1000180010EF00F01BEF00F0F2A415EF00F017EF5F
:1000280000F01BEF00F01AEC09F034EF00F0F2AC2E
:1000380020EF00F022EF00F034EF00F07AA227EF73
:1000480000F029EF00F034EF00F07BA22EEF00F073
:1000580030EF00F034EF00F09CEC09F034EF00F0E2
:1000680006C0FBFF05C0FAFF589211001CEF0AF00A
:10007800CAEC09F0000E086E000E076EC2EC0AF01A
:10008800F294F2A44AEF00F04CEF00F045EF00F0D4
:10009800EA0E076E140E086EC7EC0AF0780E076EAB
:1000A800100E086EDBEC0AF0F28EF28C010E086E70
:1000B800000E076E84EC09F0010E086E000E076E44
:1000C8006CEC09F0AF0E0001716F7F0E726FF4ECEB
:1000D80009F0660E0001716F7F0E726FF4EC09F083
:1000E800DC0E0001716F7E0E726FF4EC09F0EF0EFA
:1000F8000001716F7D0E726FF4EC09F08C0E000137
:10010800716F7F0E726FF4EC09F07A0E0001716F57
:100118007F0E726FF4EC09F0280E0001716F7E0EED
:10012800726FF4EC09F0F70E0001716F7F0E726FB9
:10013800F4EC09F0ABEC0AF00009D8B4A6EF00F033
:10014800A8EF00F09EEF00F008EC0AF00001916FB4
:10015800E80E716F7F0E726F91C073F0746BF4ECE0
:1001680009F00EEF03F05D0E716F7E0E726FF4EC06
:1001780009F0BE0E0001716F7F0E726FF4EC09F08A
:10018800E10E0001716F7F0E726FF4EC09F0510EF1
:100198000001716F7F0E726FF4EC09F0F60E00012A
:1001A800716F7E0E726FF4EC09F0BE0E0001716F74
:1001B8007E0E726FF4EC09F03C0E0001716F7F0E39
:1001C800726FF4EC09F09E0E0001716F7E0E726F73
:1001D800F4EC09F07E0E0001716F7E0E726FF4EC84
:1001E80009F05D0E0001716F7E0E726FF4EC09F07C
:1001F8003CEF03F0E30E716F7F0E726FF4EC09F0C1
:100208003CEF03F0000E966F7C0E716F7E0E726FDE
:10021800F4EC09F00001962B270E966516EF01F015
:1002280018EF01F008EF01F0FF003CEF03F0000EBB
:10023800966FFC0E716F7F0E726FF4EC09F000017F
:10024800962B270E96652BEF01F02DEF01F01DEF91
:1002580001F03CEF03F00E0E716F7F0E726FF4EC3D
:1002680009F0000E0001AC6F57EF01F00001AC512E
:10027800D8B441EF01F043EF01F057EF01F0ED0E74
:10028800716F7F0E726F9DC073F09EC074F09BC03B
:1002980075F09CC076F099C077F09AC078F0F4ECCD
:1002A80009F035EF01F0ABEC0AF00009D8B45FEFC4
:1002B80001F061EF01F03AEF01F008EC0AF07B0E73
:1002C8000001716F7E0E726FF4EC09F03CEF03F0E1
:1002D8000E0E716F7F0E726FF4EC09F0000E0001C4
:1002E800AC6F92EF01F00001AC51D8B47EEF01F091
:1002F80080EF01F092EF01F0ED0E716F7F0E726FDB
:1003080099C013F09AC014F0DBEC08F013C073F036
:1003180014C074F0F4EC09F072EF01F0ABEC0AF0E1
:100328000009D8B49AEF01F09CEF01F077EF01F0E3
:1003380008EC0AF07B0E0001716F7E0E726FF4EC10
:1003480009F03CEF03F0000EAC6F000E966FAC5155
:10035800D8B4B1EF01F0B3EF01F0ABEF01F0965173
:10036800020D7F0EF324D96E000EF420DA6E99C0C8
:10037800DEFF9AC0DDFF000EAC6F962B070E966568
:10038800C8EF01F0CAEF01F0ABEF01F0CD0E716FCD
:100398007F0E726FF4EC09F0000E0001966FF20EFA
:1003A800716F7F0E726F9651020D7F0EF324D96E16
:1003B800000EF420DA6EDECF73F0DDCF74F0F4ECCB
:1003C80009F00001962B070E9665EDEF01F0EFEFAF
:1003D80001F0D3EF01F07B0E716F7E0E726FF4ECBB
:1003E80009F0000E0001966F96C092F096C095F045
:1003F800070E956502EF02F004EF02F006EF02F037
:1004080026EF02F09251020D7F0EF324D96E000EF2
:10041800F420DA6E9551020D7F0EF324E16E000E82
:10042800F420E26EDE50E65CDE50E658D8B01FEFEE
:1004380002F021EF02F023EF02F095C092F0952B25
:10044800FCEF01F09651020D7F0EF324D96E000ED9
:10045800F420DA6EDECF7DF0DDCF7EF09251020D12
:100468007F0EF324D96E000EF420DA6E9651020D39
:100478007F0EF324E16E000EF420E26EDECFE6FF7D
:10048800DDCFE5FF9251020D7F0EF324D96E000EE9
:10049800F420DA6E7DC0DEFF7EC0DDFF962B070EEE
:1004A800966559EF02F05BEF02F0F8EF01F0D80E15
:1004B800716F7F0E726FF4EC09F0000E0001966FF9
:1004C800F20E716F7F0E726F9651020D7F0EF3243C
:1004D800D96E000EF420DA6EDECF73F0DDCF74F043
:1004E800F4EC09F00001962B070E96657EEF02F0FA
:1004F80080EF02F064EF02F07B0E716F7E0E726F78
:10050800F4EC09F03CEF03F00E0E716F7F0E726F82
:10051800F4EC09F0000E0001AC6FE2EF02F000010C
:10052800AC51D8B49AEF02F09CEF02F0E2EF02F07F
:1005380099C079F09AC07AF0060E7B6FD8907A331A
:1005480079337B2FA2EF02F079C093F07AC094F050
:10055800935100088F6F9451D8A0E82A0108906F32
:100568009305010E9459D8A0BCEF02F0BEEF02F03B
:10057800C6EF02F0010E946F000E936F000E906F9D
:10058800000E8F6F260E716F7F0E726F93C073F01F
:1005980094C074F08FC075F090C076F0F4EC09F058
:1005A80093C007F094C008F06CEC09F08FC007F016
:1005B80090C008F084EC09F08EEF02F0ABEC0AF082
:1005C8000009D8B4EAEF02F0ECEF02F093EF02F082
:1005D80008EC0AF0010E086E000E076E6CEC09F0CC
:1005E800010E086E000E076E84EC09F07B0E000108
:1005F800716F7E0E726FF4EC09F03CEF03F09E0E03
:10060800716F7F0E726F91C073F0746BF4EC09F028
:100618003CEF03F000019151796F7A6B7A51000A2F
:10062800D8B419EF03F003EF03F079513F0AD8B4B7
:10063800B7EF00F07C0AD8B488EF02F0100AD8B4FB
:100648006CEF01F0090AD8B406EF01F0390AD8B402
:10065800A7EF01F00C0AD8B4FEEF00F01C0AD8B4DA
:100668002FEF01F0090AD8B41BEF01F003EF03F0F4
:10067800F70E0001716F7F0E726FF4EC09F09EEFB8
:1006880000F03AEF00F046C0D9FF47C0DAFFDECFEE
:10069800F6FFDDCFF7FF0800F550250AD8A457EF7D
:1006A80003F059EF03F089EF04F046C0D9FF47C0C3
:1006B800DAFFDE2A000EDD22000E536E000E526EA7
:1006C80052C056F000019769986946C0D9FF47C0E3
:1006D800DAFFDECFF6FFDDCFF7FF0800F5502A0A74
:1006E800D8A479EF03F07BEF03F0A4EF03F046C042
:1006F800D9FF47C0DAFFDE2A000EDD2248C0D9FF45
:1007080049C0DAFFDFCF4AF0020EDE26DFCF4BF01A
:10071800000EDD224AC0D9FF4BC0DAFFDECF52F00F
:10072800DDCF53F053BE9DEF03F09BEF03F0D7EFFF
:1007380003F05680526C531ED8B0532AD7EF03F0FB
:1007480046C0D9FF47C0DAFFDECF0DF0DDCF0EF08F
:100758007EEC05F00DC052F00EC053F0BBEF03F075
:1007680046C0D9FF47C0DAFFDE2A000EDD2246C0A8
:10077800D9FF47C0DAFFDECFF6FFDDCFF7FF08006D
:10078800F5CF4AF0D00E4A244B6E4C6AFF0E4C222D
:100798004C5009E10A0E4B5CD8A0D5EF03F0D7EF17
:1007A80003F0B4EF03F046C0D9FF47C0DAFFDECF4D
:1007B800F6FFDDCFF7FF0800F550630AD8A4E7EF8E
:1007C80003F0E9EF03F00DEF04F046C0D9FF47C08E
:1007D800DAFFDE2A000EDD2248C0D9FF49C0DAFF61
:1007E800DFCF4AF0020EDE26DFCF4BF0000EDD220F
:1007F8004AC0D9FF4BC0DAFFDF500001686F44C020
:1008080012F045C013F068C014F003EC07F09DEF38
:1008180004F046C0D9FF47C0DAFFDECF69F0DDCF6C
:100828006AF069C0F6FF6AC0F7FF0800F550750A5C
:10083800D8A421EF04F023EF04F080EF04F048C0BF
:10084800D9FF49C0DAFFDFCF4AF0020EDE26DFCF3C
:100858004BF0000EDD224AC0D9FF4BC0DAFFDECFD5
:100868004CF0DDCF4DF04CC060F04DC061F00001A0
:10087800626B636B646B656B666B676B010E6925F6
:100888004A6E000E6A214B6E46C0D9FF47C0DAFF98
:100898004AC0DEFF4BC0DDFF6AEF04F044C024F01D
:1008A80045C025F060C026F061C027F062C028F07E
:1008B80063C029F064C02AF065C02BF066C02CF034
:1008C80067C02DF09EEC04F09DEF04F069C0F6FFC0
:1008D8006AC0F7FF0800F5504A6E4B6A4B50000A91
:1008E800D8B479EF04F080EF04F04A50750AD8B410
:1008F80052EF04F080EF04F046C0D9FF47C0DAFF9A
:10090800DE2A000EDD229DEF04F046C0D9FF47C065
:10091800DAFFDECFF6FFDDCFF7FF0800F550096EEE
:100928000A6A44C00BF045C00CF0BCEC07F080EF3D
:1009380004F01200000198BFACEF04F0985106E1F2
:100948009705D8B0AAEF04F0ACEF04F0B2EF04F0CA
:10095800000E396E010E386EB6EF04F097C038F00D
:1009680098C039F052C036F053C037F026C03AF07C
:1009780027C03BF028C03CF029C03DF02AC03EF01B
:100988002BC03FF02CC040F02DC041F0000E436E4C
:100998001F0E426E000ECC6F48EF05F04206D8A03D
:1009A8004306AD0E4224D96E000E4320DA6E3AC0DB
:1009B80007F03BC008F03CC009F03DC00AF03EC05B
:1009C8000BF03FC00CF040C00DF041C00EF00A0E15
:1009D8000F6E000E106E000E116E000E126E000EDD
:1009E800136E000E146E000E156E000E166E9BEC44
:1009F80006F007C02EF008C02FF009C030F00AC07A
:100A080031F00BC032F00CC033F00DC034F00EC022
:100A180035F02E50300FDF6E3806D8A0390636066E
:100A2800D8A037063AC007F03BC008F03CC009F030
:100A38003DC00AF03EC00BF03FC00CF040C00DF0C6
:100A480041C00EF00A0E0F6E000E106E000E116EF1
:100A5800000E126E000E136E000E146E000E156E50
:100A6800000E166E23EC06F007C03AF008C03BF003
:100A780009C03CF00AC03DF00BC03EF00CC03FF08E
:100A88000DC040F00EC041F042504310D8B44FEFB3
:100A980005F051EF05F06DEF05F03A503B103C10B2
:100AA8003D103E103F1040104110D8A45EEF05F0F5
:100AB80060EF05F0D2EF04F039BE6DEF05F0395064
:100AC80006E13804D8B06BEF05F06DEF05F0D2EF12
:100AD80004F024C019F025C01AF0AD0E42241B6E94
:100AE800000E43201C6E36C01DF037C01EF067ECA8
:100AF80007F01200000E156E000E146E000E136E35
:100B0800000E126E8AEF05F00D4A0E2A0DC0F6FF90
:100B18000EC0F7FF0800F550200AD8B496EF05F08C
:100B280098EF05F088EF05F00DC0F6FF0EC0F7FF4F
:100B38000800F5CF0FF0F70E0F24106E116AFF0EA4
:100B48001122115009E1050E105CD8A0AEEF05F096
:100B5800B0EF05F088EF05F0BAEF05F0000E136E60
:100B6800010E126E0D4A0E2AEFEF05F00DC0F6FFCA
:100B78000EC0F7FF0800F5500F6E106A1050000AFB
:100B8800D8B4C9EF05F0EFEF05F00F502B0AD8B431
:100B9800B6EF05F0060AD8B4B2EF05F0EFEF05F0AE
:100BA80014C007F015C008F0000E0A6E0A0E096E90
:100BB8002FEC0AF00DC0F6FF0EC0F7FF0800F55045
:100BC800075E000E085A300E0724146E000E082027
:100BD800156EB6EF05F00DC0F6FF0EC0F7FF080062
:100BE800F5CF0FF0D00E0F24106E116AFF0E1122F0
:100BF800115009E10A0E105CD8A005EF06F007EFC6
:100C080006F0D4EF05F012501310D8A40EEF06F03A
:100C180010EF06F01EEF06F014C00FF015C010F02C
:100C28000F1E101E0F4A102A0FC00DF010C00EF034
:100C380022EF06F014C00DF015C00EF0120020EEE1
:100C480017F0070EDE6AE806FDE20F5010101110CB
:100C580012101310141015101610D8B436EF06F031
:100C680038EF06F08AEF06F0010E1F6E46EF06F029
:100C7800D8900F361036113612361336143615360C
:100C880016361F2A16AE4BEF06F04DEF06F03CEF76
:100C980006F0D8901736183619361A361B361C3611
:100CA8001D361E360F50075C105008581150095851
:100CB80012500A5813500B5814500C5815500D5810
:100CC80016500E58D8A06BEF06F06DEF06F07EEFC9
:100CD80006F00F50075E1050085A1150095A12506A
:100CE8000A5A13500B5A14500C5A15500D5A1650D4
:100CF8000E5A1780D8901632153214321332123227
:100D0800113210320F321F2E4DEF06F017C007F0C8
:100D180018C008F019C009F01AC00AF01BC00BF07F
:100D28001CC00CF01DC00DF01EC00EF012000F50BC
:100D38001010111012101310141015101610D8B42A
:100D4800A8EF06F0AAEF06F0F2EF06F0010E176E14
:100D5800B8EF06F0D8900F36103611361236133623
:100D6800143615361636172A16AEBDEF06F0BFEF45
:100D780006F0AEEF06F00F50075C105008581150FF
:100D8800095812500A5813500B5814500C58155043
:100D98000D5816500E58D8A0D4EF06F0D6EF06F02E
:100DA800E6EF06F00F50075E1050085A1150095A26
:100DB80012500A5A13500B5A14500C5A15500D5A07
:100DC80016500E5AD8901632153214321332123287
:100DD800113210320F32172EBFEF06F007C007F09E
:100DE80008C008F009C009F00AC00AF00BC00BF0EF
:100DF8000CC00CF00DC00DF00EC00EF012005250D9
:100E08005310D8A40AEF07F00CEF07F012EF07F021
:100E180052C018F053C019F018EF07F0FF0E522413
:100E2800186EFF0E5320196E56A01DEF07F01FEF26
:100E380007F028EF07F014C009F00A6A12C00BF097
:100E480013C00CF0BCEC07F019BE2DEF07F02FEF24
:100E580007F031EF07F035EF07F0000E196E000EBE
:100E6800186E000E176E000E166E47EF07F0000E94
:100E78000A6E200E096E12C00BF013C00CF0BCEC09
:100E880007F0164A172A1850165C1750800A156E74
:100E98001950800A1558D8A054EF07F056EF07F0FC
:100EA8003BEF07F056B05BEF07F05DEF07F066EF3A
:100EB80007F014C009F00A6A12C00BF013C00CF056
:100EC800BCEC07F0120056A06CEF07F06EEF07F0CD
:100ED80078EF07F01BC012F01CC013F019C014F013
:100EE8001AC015F0B9EC08F01EBE7DEF07F07FEFD1
:100EF80007F085EF07F01DC022F01EC023F089EF30
:100F080007F0000E236E000E226E000E216E000EFA
:100F1800206E9BEF07F0000E0A6E200E096E19C0B6
:100F28000BF01AC00CF0BCEC07F0204A212A225022
:100F3800205C2150800A1F6E2350800A1F58D8A0B9
:100F4800A8EF07F0AAEF07F08FEF07F056B0AFEF62
:100F580007F0B1EF07F0BBEF07F01BC012F01CC0A1
:100F680013F019C014F01AC015F0B9EC08F012000B
:100F78000B500C10D8B4C3EF07F0C5EF07F0CEEF55
:100F880007F00B500C10D8A4CCEF07F0CEEF07F009
:100F9800D3EF07F00950BDEC0AF006EF08F020EE99
:100FA80009F00B50D9260C50DA22DE50DE10D8B4E6
:100FB800E0EF07F0E2EF07F0FDEF07F020EE09F0B1
:100FC8000B50D9260C50DA2210EE03F00B50E12614
:100FD8000C50E222DE50E65CE650800A116EDE50CC
:100FE800800A1158D8B0FBEF07F0FDEF07F006EFC5
:100FF80008F020EE03F00B50D9260C50DA22DE2A36
:10100800000EDD221200000E0F6E000E106E000E94
:10101800116E000E126E07A014EF08F016EF08F01C
:101028001EEF08F00B500F260C5010220D50112205
:101038000E501222D8900B360C360D360E36D8903C
:101048000A320932083207320750081009100A100C
:10105800D8A431EF08F033EF08F00FEF08F00FC015
:1010680007F010C008F011C009F012C00AF0120011
:101078000F0157510F0B050AD8A445EF08F047EFA9
:1010880008F051EF08F001C09DF002C09EF05751E2
:10109800F00B0409576F6CEF08F057510F0B040A57
:1010A800D8A459EF08F05BEF08F06CEF08F001C026
:1010B8009BF002C09CF05751F00B0509576F0001D7
:1010C8009D519B5D996F9E519C599A6F010EAC6F13
:1010D8007B9212006DC04EF06EC04FF082EF08F0A8
:1010E8006BC044F06CC045F04E0E466E000E476E65
:1010F8006FC048F070C049F047EC03F04EC0F6FFEF
:101108004FC0F7FF0800F5500009D8A48EEF08F08B
:1011180090EF08F074EF08F0000E00016C6F000EFD
:101128006B6F1200010E0B6E200E07180810D8B452
:10113800A0EF08F0A2EF08F0B5EF08F0F70E0724CB
:10114800096EFF0E08200A6E0A5009E1050E095CB7
:10115800D8A0B1EF08F0B3EF08F0B5EF08F0000E33
:101168000B6E0BC007F0086A1200000E186E000E16
:10117800176ECAEF08F016C009F00A6A14C00BF01F
:1011880015C00CF0BCEC07F0174A182A17501224A7
:10119800D96E18501320DA6EDF50166E1650D8A488
:1011A800D8EF08F0DAEF08F0BFEF08F0120013C02C
:1011B80007F014C008F0096A0A6A230E0B6E020EC3
:1011C8000C6E000E0D6E000E0E6E07EC08F0110E80
:1011D800F3EF08F0D8900A32093208320732E82EC5
:1011E800EEEF08F007C013F008C014F01200080E64
:1011F800B86E900EAB6E240EAC6E820EAF6E060EFD
:10120800B06E000E076E000E086ED1EC0AF0000EEC
:10121800076E000E086ECCEC0AF0000E076E000E8A
:10122800086ED6EC0AF0000E576E1200F294555074
:10123800D76E54C0D6FF0001A551A611D8B427EF28
:1012480009F029EF09F036EF09F002D836EF09F076
:101258000500FA6EA551FD6EA651FE6EF850FF6EA0
:10126800FA5012001200D59C000ED76E230ED66ECF
:10127800D650D7CF09F00A6A09C00AF0096A0910DE
:10128800546E0A50556EF294F28ACE0E076E150E01
:10129800086EC7EC0AF0940ED56E1200000E046EAC
:1012A800000E036E60EF09F000F000F000F000F0AF
:1012B80000F000F0034A042A0150035C025004586D
:1012C800D8A069EF09F06BEF09F058EF09F01200A8
:1012D80007C009F008C00AF0D8900A320932D8903D
:1012E8000A3209320950676E07C009F0030E091661
:1012F800093AF00E09166650CF0B0910666E1200F7
:1013080007C009F008C00AF0D8900A320932D8900C
:101318000A3209320950BE6E07C009F0030E0916D9
:10132800093AF00E0916BD50CF0B0910BD6E120018
:101338007B9258CF03F059CF04F003C001F004C0EA
:1013480002F002D8B3EF09F005000001FA6EA951C6
:10135800FD6EAA51FE6EF850FF6EFA501200120090
:10136800D00E0724096EFF0E08200A6E0A500AE103
:101378000A0E095CD8A0C3EF09F0C6EF09F0010E08
:10138800C7EF09F0000E076E086A1200E5EC0AF0D4
:10139800DFEC09F092EC0AF055EC0AF042EC0AF0A6
:1013A80065EC0AF0B5EC0AF084EC0AF037EC09F0C9
:1013B800FBEC08F01200000E896E000E8A6E000E1B
:1013C8008B6E92689368A90E946E2C0E0F013A6F7B
:1013D8003E0E396F2F0E386F000E616EF18E1200BF
:1013E800730E506E000E516E000E00016B6F000EF2
:1013F8006C6F71C06DF072C06EF0500E6F6F000EA2
:10140800706F6EEC08F012009EAA0DEF0AF00FEF55
:101418000AF008EF0AF0000E576EABA216EF0AF0BA
:1014280018EF0AF01AEF0AF0AB98AB88AE5012002A
:1014380000EE97F0360EEE6AE806FDE1576A566A46
:10144800556A546A536A526A58905892000EF86E58
:1014580000013CEF00F007500902F3CF0BF0F4CF86
:101468000CF007500A02F3500C2608500902F350FA
:101478000C260BC007F00CC008F01200050E0F0177
:10148800576F000E586F000E596FD00E076E150E6D
:10149800086EDBEC0AF0FC0E0F0148177B927A828B
:1014A80012003C0E666E000E646E800E656E010EB4
:1014B800636E000E686E3F0E676EE70E0F014917E8
:1014C80012003C0EBD6E000EB66E800EB76E010E99
:1014D800B96E000EBF6E3F0EBE6EFC0E0F014917AF
:1014E80012008B88000E026E190E016E52EC09F084
:1014F8008B983C0E026EB00E016EE0EC0AF0120002
:10150800000ECC6E060ECF6E000ECE6ECECFA7F0BC
:10151800CFCFA8F09E90310ECD6E1200700ED36E14
:10152800040ED26E400E9B6ED2AE9DEF0AF09FEF76
:101538000AF098EF0AF01200076E9EA8A6EF0AF0CC
:10154800A8EF0AF0A1EF0AF007C0ADFF12009EBA9B
:10155800B0EF0AF0B3EF0AF0010EB4EF0AF0000E94
:1015680012003F0EBB6E000EBC6E9E92060EBA6E47
:101578001200086E0850A0EC0AF012000850D76E4E
:1015880007C0D6FF120007C0A5F008C0A6F01200D9
:1015980007C0A1F008C0A2F0120007C0A3F008C05D
:1015A800A4F0120007C09FF008C0A0F0120007C006
:1015B800A9F008C0AAF012000250D76E01C0D6FFE9
:0A15C8001200D09E12001200120063
:107DEE0000202020205663633A206C656674207054
:107DFE00696E206F6E204A5031206865616465722D
:107E0E002028636C6F7365737420746F206D696EB8
:107E1E006920555342292E0D0A0020202020474E5E
:107E2E00443A20202020474E4420686561646572E4
:107E3E002070696E206F6E2050494320627265611A
:107E4E006B6F7574206865616465722E0D0A002D66
:107E5E002D2D2D2D2D2D2D2D2D2D2D2D2D2D2D2D44
:107E6E002D2D2D2D2D2D2D2D2D2D2D2D2D0D0A00A4
:107E7E00433A20636F6E7665727420646973746121
:107E8E006E63657320746F20636F6C6F720A0D00E2
:107E9E00633A20636F6C6C65637420616E6420734B
:107EAE006F72742064697374616E6365730A0D007A
:107EBE00733A2053747265616D204563686F20704C
:107ECE00756C7365206C656E6774680D0A00556C71
:107EDE00747261736F6E696320436F6E6E65637447
:107EEE00696F6E733A0D0A007A3A20436C656172BF
:107EFE0020746865207465726D696E616C0D0A0080
:107F0E00707265737320616E79206B657920746F62
:107F1E0020657869740D0A000D7265642825337525
:107F2E00292C20677265656E282533752900533A12
:107F3E002053747265616D2064697374616E63653C
:107F4E000D0A005A3A2052657365742070726F6381
:107F5E006573736F720D0A00696E4C616220313366
:107F6E00207465726D696E616C0D0A0020202020F0
:107F7E004563686F3A2020205242300D0A002020BF
:107F8E002020547269673A2020205243340D0A0093
:107F9E00556E6B6E6F776E206B65792025630D0ABB
:107FAE000044657627323120426F6172640D0A00FB
:107FBE003F3A2048656C70206D656E750D0A005550
:107FCE006E736F727465640D0A00536F727465641C
:107FDE000D0A006F3A206B0D0A0025630A0D00256D
:107FEE0038750D0025752020000D0A3E20000A3E32
:027FFE00000081
:020000040020DA
:08000000FFFFFFFFFFFFFFFF00
:020000040030CA
:0E000000FF281F3CFFBF85FF0FC00FE00F4021
:00000001FF
