:040000000CEF37F0DA
:106C300001C064F002C065F0120001C068F002C03B
:106C400069F0120001C066F002C067F012000A503D
:106C5000D76E09C0D6FF1200026E02504DEC36F01E
:106C600012003F0EBB6E000EBC6E9E92050EBA6EF9
:106C700012009EBA3EEF36F041EF36F0010E42EFC1
:106C800036F0000E1200F2B448EF36F04BEF36F05B
:106C9000010E4CEF36F0000E1200016E9EA853EF6D
:106CA00036F055EF36F04EEF36F001C0ADFF120072
:106CB000DFEC36F065EC36F082EC36F031EC36F095
:106CC000A2EC36F027EC37F01200700ED36E040EF3
:106CD000D26E400E9B6ED2AE70EF36F072EF36F091
:106CE0006BEF36F01200D6CF07F0D7CF08F0085080
:106CF000036E0750056E03C006F005C001F006C024
:106D000002F012003C0EBD6E000EB66E800EB76E25
:106D1000010EB96E000EBF6E1F0EBE6EFC0E0F018F
:106D2000491712008099B1C7DBEAF6FEFFFEF6EACA
:106D3000DBC7B19980674F3925160A0200020A168F
:106D400025394F67D59CD768C10ED66ED650D7CFA0
:106D500001F0026A01C002F0016A011000016A6FCD
:106D600002506B6FF294970ED56E12005E0E00010A
:106D70008E6F000E8F6F000E546E000E556E5CC04D
:106D800056F05DC057F08E0E586E000E596E89ECAD
:106D900037F012009EAACFEF36F0D1EF36F0CAEFEF
:106DA00036F0000E00016D6FABA2D9EF36F0DBEFCD
:106DB00036F0DDEF36F0AB98AB88AE501200000E27
:106DC000896E000E8A6E000E8B6E92689368BB0E01
:106DD000946E3C0E0F013A6F3F0E396F2F0E386FD5
:106DE000000E616EF18E120001C003F002C004F0CB
:106DF000D89004320332D890043203320350BE6E6E
:106E000001C003F0030E0316033AF00E0316BD5043
:106E1000CF0B0310BD6E1200240EF66E6D0EF76ED2
:106E2000000EF86E00EEB7F010EE20F00900F5CF7E
:106E3000EEFFE550E150FAE100EE60F02E0EEE6A52
:106E4000E806FDE1000EF86E00013BEF3CF0080E95
:106E5000B86E900EAB6E240EAC6E820EAF6E060E48
:106E6000B06E000E016E000E026E1DEC36F0000ECC
:106E7000016E000E026E22EC36F0000E016E000E66
:106E8000026E18EC36F0000E00016D6F120014BE99
:106E900054EF37F0145006E11304D8B052EF37F036
:106EA00054EF37F062EF37F013C015F014C016F04E
:106EB000151E161E154A162A15C013F016C014F01A
:106EC00066EF37F013C013F014C014F01200000E78
:106ED000126E000E116E78EF37F010C003F0046AE6
:106EE0000EC005F00FC006F0EDEC37F0114A122A83
:106EF00011500C24D96E12500D20DA6EDF50106E36
:106F00001050D8A486EF37F088EF37F06DEF37F0E8
:106F1000120056C05AF057C05BF09DEF37F054C0D6
:106F200041F055C042F05A0E436E000E446E58C0F8
:106F300045F059C046F0FCEC39F05AC0F6FF5BC092
:106F4000F7FF0800F5500009D8A4A9EF37F0ABEF20
:106F500037F08FEF37F0000E556E000E546E1200B2
:106F600018BEB5EF37F0B7EF37F0BDEF37F017C009
:106F70001CF018C01DF0C1EF37F0000E1D6E000EA2
:106F80001C6E000E1B6E000E1A6ED3EF37F0000E53
:106F9000046E200E036E13C005F014C006F0EDEC75
:106FA00037F01A4A1B2A1C501A5C1B50800A196EB3
:106FB0001D50800A1958D8A0E0EF37F0E2EF37F003
:106FC000C7EF37F015C00CF016C00DF013C00EF06F
:106FD00014C00FF067EC37F0120005500610D8B45B
:106FE000F4EF37F0F6EF37F0FFEF37F0055006100B
:106FF000D8A4FDEF37F0FFEF37F004EF38F003507F
:107000002CEC36F037EF38F020EE09F00550D92699
:107010000650DA22DE50DE10D8B411EF38F013EF4C
:1070200038F02EEF38F020EE09F00550D926065042
:10703000DA2210EE03F00550E1260650E222DE507F
:10704000E65CE650800A0B6EDE50800A0B58D8B022
:107050002CEF38F02EEF38F037EF38F020EE03F059
:107060000550D9260650DA22DE2A000EDD22120053
:10707000000160516111D8A440EF38F042EF38F0C0
:1070800048EF38F060C012F061C013F04EEF38F0F6
:10709000FF0E6025126EFF0E6121136E13BE53EFBB
:1070A00038F055EF38F057EF38F05BEF38F0000E5E
:1070B000136E000E126E000E116E000E106E6DEF4C
:1070C00038F0000E046E200E036E0CC005F00DC0EB
:1070D00006F0EDEC37F0104A112A1250105C1150F6
:1070E000800A0F6E1350800A0F58D8A07AEF38F03C
:1070F0007CEF38F061EF38F00EC003F0046A0CC08A
:1071000005F00DC006F0EDEC37F01200000E126E27
:1071100008BE8FEF38F08DEF38F0A1EF38F0081E81
:10712000071E061E051E041E031E021E016C000E15
:107130000222032204220522062207220822010E2F
:10714000126E10BEA8EF38F0A6EF38F0B8EF38F0A6
:10715000101E0F1E0E1E0D1E0C1E0B1E0A1E096C8D
:10716000000E0A220B220C220D220E220F221022C8
:1071700009500A100B100C100D100E100F101010EB
:10718000D8B4C5EF38F0C7EF38F00FEF39F0010E83
:10719000116ED5EF38F0D89009360A360B360C361A
:1071A0000D360E360F361036112A10AEDAEF38F0E3
:1071B000DCEF38F0CBEF38F00950015C0A50025890
:1071C0000B5003580C5004580D5005580E500658DB
:1071D0000F50075810500858D8A0F1EF38F0F3EFCF
:1071E00038F003EF39F00950015E0A50025A0B5093
:1071F000035A0C50045A0D50055A0E50065A0F509F
:10720000075A1050085AD89010320F320E320D32F1
:107210000C320B320A320932112EDCEF38F01250E8
:10722000D8B415EF39F017EF39F027EF39F0081E11
:10723000071E061E051E041E031E021E016C000E04
:10724000022203220422052206220722082201C06C
:1072500001F002C002F003C003F004C004F005C056
:1072600005F006C006F007C007F008C008F01200DD
:10727000000E126E10BE41EF39F03FEF39F053EFC0
:1072800039F0101E0F1E0E1E0D1E0C1E0B1E0A1EA8
:10729000096C000E0A220B220C220D220E220F2254
:1072A0001022010E126E08BE5AEF39F058EF39F075
:1072B0006CEF39F0081E071E061E051E041E031E75
:1072C000021E016C000E0222032204220522062265
:1072D00007220822010E121A20EE13F0070EDE6AB2
:1072E000E806FDE209500A100B100C100D100E10EC
:1072F0000F101010D8B47FEF39F081EF39F0D3EFD1
:1073000039F0010E116E8FEF39F0D89009360A3638
:107310000B360C360D360E360F361036112A10AEDF
:1073200094EF39F096EF39F085EF39F0D8901336B5
:107330001436153616361736183619361A360950D9
:10734000015C0A5002580B5003580C5004580D5061
:1073500005580E5006580F50075810500858D8A01E
:10736000B4EF39F0B6EF39F0C7EF39F00950015EEC
:107370000A50025A0B50035A0C50045A0D50055A29
:107380000E50065A0F50075A1050085A1380D890C2
:1073900010320F320E320D320C320B320A320932F9
:1073A000112E96EF39F01250D8B4D9EF39F0DBEF47
:1073B00039F0EBEF39F01A1E191E181E171E161E93
:1073C000151E141E136C000E1422152216221722ED
:1073D000182219221A2213C001F014C002F015C09D
:1073E00003F016C004F017C005F018C006F019C06D
:1073F00007F01AC008F0120043C0D9FF44C0DAFFFA
:10740000DECFF6FFDDCFF7FF0800F550250AD8A440
:107410000CEF3AF00EEF3AF0E8EF3AF043C0D9FF44
:1074200044C0DAFFDE2A000EDD22000E0001616F8B
:10743000000E606F60C06CF06269636943C0D9FF81
:1074400044C0DAFFDECFF6FFDDCFF7FF0800F550CE
:10745000630AD8A42EEF3AF030EF3AF053EF3AF047
:1074600043C0D9FF44C0DAFFDE2A000EDD2245C04A
:10747000D9FF46C0DAFFDFCF47F0020EDE26DFCFAE
:1074800048F0000EDD2247C0D9FF48C0DAFFDF50C8
:10749000516E41C00CF042C00DF051C00EF038ECFE
:1074A00038F0FCEF3AF043C0D9FF44C0DAFFDECF3A
:1074B00052F0DDCF53F052C0F6FF53C0F7FF080083
:1074C000F550640AD8B467EF3AF069EF3AF077EF15
:1074D0003AF052C0F6FF53C0F7FF0800F550690AB2
:1074E000D8A475EF3AF077EF3AF0BAEF3AF045C02A
:1074F000D9FF46C0DAFFDFCF47F0020EDE26DFCF2E
:1075000048F0000EDD2247C0D9FF48C0DAFFDECFC9
:1075100049F0DDCF4AF0000E4ABEFF0E4B6E4C6EB6
:107520004D6E4E6E4F6E506E010E5224476E000E21
:107530005320486E43C0D9FF44C0DAFF47C0DEFF86
:1075400048C0DDFF41C01EF042C01FF049C020F01E
:107550004AC021F04BC022F04CC023F04DC024F0B3
:107560004EC025F04FC026F050C027F0FDEC3AF099
:10757000FCEF3AF043C0D9FF44C0DAFFDECFF6FF9C
:10758000DDCFF7FF0800F550250AD8A4CAEF3AF07E
:10759000CCEF3AF0DFEF3AF043C0D9FF44C0DAFF56
:1075A000DE2A000EDD22000E046E250E036E41C0A1
:1075B00005F042C006F0EDEC37F0FCEF3AF043C0C6
:1075C000D9FF44C0DAFFDE2A000EDD22FCEF3AF0DC
:1075D00043C0D9FF44C0DAFFDECFF6FFDDCFF7FFAF
:1075E0000800F550036E046A41C005F042C006F081
:1075F000EDEC37F0DFEF3AF0120020C036F021C09A
:1076000037F022C038F023C039F024C03AF025C04A
:107610003BF026C03CF027C03DF03DBE12EF3BF0F2
:1076200015EF3BF0010E16EF3BF0000E406E4050A0
:10763000D8B41DEF3BF01FEF3BF02FEF3BF03D1EAA
:107640003C1E3B1E3A1E391E381E371E366C000E7D
:107650003722382239223A223B223C223D220001A5
:1076600063BF3DEF3BF0635106E16205D8B03BEFED
:107670003BF03DEF3BF043EF3BF0000E336E010E6D
:10768000326E47EF3BF062C032F063C033F060C04F
:1076900034F061C035F04050D8B451EF3BF053EFB7
:1076A0003BF06AEF3BF03406D8A035064050D8A432
:1076B0005CEF3BF05EEF3BF064EF3BF0000E316EB1
:1076C0002B0E306E68EF3BF0000E316E2D0E306EDB
:1076D00030C040F0000E3F6E1F0E3E6E000E8D6FEC
:1076E000EEEF3BF03E06D8A03F066E0E3E24D96E6C
:1076F000000E3F20DA6E36C001F037C002F038C00D
:1077000003F039C004F03AC005F03BC006F03CC0BD
:1077100007F03DC008F00A0E096E000E0A6E000E5A
:107720000B6E000E0C6E000E0D6E000E0E6E000E37
:107730000F6E000E106E86EC38F001C028F002C00B
:1077400029F003C02AF004C02BF005C02CF006C0BD
:107750002DF007C02EF008C02FF028C013F029C06C
:1077600014F047EC37F01350300FDF6E3206D8A01C
:1077700033063406D8A0350636C001F037C002F013
:1077800038C003F039C004F03AC005F03BC006F041
:107790003CC007F03DC008F00A0E096E000E0A6EEC
:1077A000000E0B6E000E0C6E000E0D6E000E0E6EB7
:1077B000000E0F6E000E106E38EC39F001C036F07E
:1077C00002C037F003C038F004C039F005C03AF009
:1077D00006C03BF007C03CF008C03DF03FBEF9EFEB
:1077E0003BF03F5008E13E04D8A0F9EF3BF0FBEF3F
:1077F0003BF017EF3CF036503710381039103A1084
:107800003B103C103D10D8A408EF3CF00AEF3CF0D0
:1078100072EF3BF033BE17EF3CF0335006E1320419
:10782000D8B015EF3CF017EF3CF072EF3BF0405052
:10783000D8B41DEF3CF01FEF3CF02AEF3CF03E06C1
:10784000D8A03F066E0E3E24D96E000E3F20DA6EA1
:1078500040C0DFFF1EC013F01FC014F06E0E3E24A8
:10786000156E000E3F20166E34C017F035C018F0AC
:10787000B0EC37F0120020EEB7F010EE92F01F0ED1
:10788000DBCFE3FFE806FCE2010E0001B26F58EC2B
:1078900036F0000E026E000E016EF4EC36F0000EB3
:1078A0000A6E000E096E27EC36F0F294F2A45BEF3C
:1078B0003CF05DEF3CF056EF3CF0CC0E5C6E7F0E82
:1078C0005D6EB6EC36F0370E5C6E7F0E5D6EB6EC1C
:1078D00036F0E20E5C6E7F0E5D6EB6EC36F0FA0EA0
:1078E0005C6E7F0E5D6EB6EC36F039EC36F000095A
:1078F000D8B47DEF3CF07FEF3CF075EF3CF0CAEC84
:1079000036F00001B36F38EF3EF0880E5C6E7D0EEE
:107910005D6EB6EC36F0880E5C6E7D0E5D6EB6EC7C
:1079200036F0BD0E5C6E7F0E5D6EB6EC36F0F30E7B
:107930005C6E7F0E5D6EB6EC36F0840E5C6E7F0E74
:107940005D6EB6EC36F06C0E5C6E7F0E5D6EB6EC66
:1079500036F0FA0E5C6E7E0E5D6EB6EC36F0530EAF
:107960005C6E7D0E5D6EB6EC36F0EF0E5C6E7D0EDD
:107970005D6EB6EC36F0800E5C6E7E0E5D6EB6EC23
:1079800036F0880E5C6E7D0E5D6EB6EC36F075EFEF
:107990003CF0EB0E5C6E7F0E5D6EB6EC36F075EF74
:1079A0003CF0000EB46FED0E5C6E7D0E5D6EB6ECBD
:1079B00036F00001B42B270EB465E1EF3CF0E3EFA5
:1079C0003CF0D3EF3CF0FF0075EF3CF0000EB46FDD
:1079D000ED0E5C6E7D0E5D6EB6EC36F00001B42BE4
:1079E000270EB465F6EF3CF0F8EF3CF0E8EF3CF022
:1079F00075EF3CF0B20775EF3CF0B22B75EF3CF041
:107A0000220E5C6E7E0E5D6EB6EC36F0D20E5C6EB3
:107A10007E0E5D6EB6EC36F0540E5C6E7E0E5D6EC4
:107A2000B6EC36F0000E026E000E016EF4EC36F08D
:107A3000160E5C6E7D0E5D6EB6EC36F0AA0E5C6EB8
:107A40007E0E5D6EB6EC36F039EC36F00009D8B437
:107A50002CEF3DF02EEF3DF024EF3DF0CAEC36F078
:107A6000010E026E000E016EF4EC36F0D70E5C6E65
:107A70007C0E5D6EB6EC36F0530E5C6E7F0E5D6E66
:107A8000B6EC36F039EC36F00009D8B44AEF3DF0E8
:107A90004CEF3DF042EF3DF0CAEC36F075EF3CF0B4
:107AA000220E5C6E7E0E5D6EB6EC36F0D20E5C6E13
:107AB0007E0E5D6EB6EC36F0540E5C6E7E0E5D6E24
:107AC000B6EC36F0990E5C6E7F0E5D6EB6EC36F05D
:107AD000BC0E5C6E7D0E5D6EB6EC36F0000E0001E5
:107AE000B66F000EB56F920E0001B525D96E000E6F
:107AF000B621DA6EDF50906F9051016E026AF4EC9D
:107B000036F01A0E5C6E7F0E5D6E920E0001B5258A
:107B1000D96E000EB621DA6EDF50906F90515E6E16
:107B20005F6AB6EC36F039EC36F00009D8B49BEF5A
:107B30003DF09DEF3DF093EF3DF0010E0001B525C6
:107B4000906F000EB621916F1F0E9015B56FB66B3A
:107B5000CAEC36F0780AD8A4B0EF3DF0B2EF3DF0B1
:107B600073EF3DF0000E026E000E016EF4EC36F085
:107B7000D70E5C6E7F0E5D6EB6EC36F075EF3CF0A6
:107B8000220E5C6E7E0E5D6EB6EC36F0D20E5C6E32
:107B90007E0E5D6EB6EC36F0540E5C6E7E0E5D6E43
:107BA000B6EC36F0530E5C6E7F0E5D6EB6EC36F0C2
:107BB00013EF3EF073EC36F07F0E0124096EF30EE6
:107BC00002200A6E27EC36F0F29443EC36F00009FE
:107BD000D8B4EDEF3DF0EFEF3DF0E5EF3DF0B2C092
:107BE00090F0920E0001B525D96E000EB621DA6E26
:107BF000DF50916F902BFFEF3DF0D8909133902F95
:107C0000FDEF3DF000019151016E026AF4EC36F097
:107C1000010E0001B525906F000EB621916F1F0E69
:107C20009015B56FB66B39EC36F00009D8B41BEF80
:107C30003EF01DEF3EF0DAEF3DF0000E026E000E5A
:107C4000016EF4EC36F0CAEC36F0D70E5C6E7F0EA7
:107C50005D6EB6EC36F075EF3CF0AC0E5C6E7F0EF0
:107C60005D6EB3C05EF05F6AB6EC36F075EF3CF067
:107C7000B351906F916B9151000AD8B442EF3EF02E
:107C80002DEF3EF090512B0AD8B4FAEF3CF0060AE3
:107C9000D8B4FDEF3CF0120AD8B485EF3CF06C0A82
:107CA000D8B400EF3DF0090AD8B4D1EF3CF0350A62
:107CB000D8B4C9EF3CF01F0AD8B4C0EF3DF0030AB6
:107CC000D8B450EF3DF0090AD8B4E6EF3CF02DEF00
:107CD0003EF000EF00F00043757272656E746C79CF
:107CE0002067656E65726174696E6720612031304E
:107CF0003025252064757479206379636C65205084
:107D0000574D2077617665666F726D206F6E2052D9
:107D100043322E0D0A0043757272656E746C7920C1
:107D200067656E65726174696E6720612030252514
:107D30002064757479206379636C652050574D20F9
:107D400077617665666F726D206F6E205243322EBA
:107D50000D0A00733A2073746570207468726F7531
:107D600067682073696E652077617665207461624B
:107D70006C6520776974682050494320382D62690A
:107D8000742050574D0D0A002D2D2D2D2D2D2D2DEC
:107D90002D2D2D2D2D2D2D2D2D2D2D2D2D2D2D2D13
:107DA0002D2D2D2D2D2D2D2D2D2D2D2D2D2D2D2D03
:107DB0002D2D2D2D2D2D2D2D2D0D0A00507265737D
:107DC0007320616E79206F74686572206B6579200D
:107DD000746F2073746570207468726F75676820A3
:107DE00073696E65207461626C652E0D0A0A00531A
:107DF0003A2073696E676C65207374657020505704
:107E00004D2064757479206379636C652066726FA8
:107E10006D2030252520746F2031303025252E0D22
:107E20000A00436F6E6E656374206A756D706572CB
:107E3000206F76657220746865205243322F4C5053
:107E4000465F696E206865616465722070696E7353
:107E50002E0D0A00436F6E6E656374204368616E79
:107E60006E656C20322073636F70652070726F6274
:107E70006520746F204C50465F6F75742E0D0A009C
:107E8000703A2047656E6572617465206120736980
:107E90006E652077617665207573696E672050572F
:107EA0004D202B204C50460D0A00507265737320F4
:107EB000616E79206B657920746F206368616E67ED
:107EC00065207468697320746F20313030252E0D61
:107ED0000A00436F6E6E656374204368616E6E6561
:107EE0006C20312073636F70652070726F62652043
:107EF000746F205243322E0D0A002B2F2D3A206929
:107F00006E6372656173652F646563726561736525
:107F100020766F6C756D650D0A0043757272656E23
:107F200074204C6F61644475747956616C7565207A
:107F30003D2025640D0A00416E616C6F67207761FA
:107F40007665666F726D2067656E657261746F72BB
:107F50000D0A00507265737320616E79206B65792C
:107F600020746F20657869742E0D0A007A3A2043D8
:107F70006C65617220746865207465726D696E61EC
:107F80006C0D0A005A3A2052657365742070726F46
:107F9000636573736F720D0A005072657373207896
:107FA00020746F20657869742E0D0A00556E6B6E13
:107FB0006F776E206B65792025630D0A003F3A20AC
:107FC00068656C70206D656E750D0A00696E4C6198
:107FD000622031300D0A00457869742050574D0DEC
:107FE0000A004465762732310D0A006F3A096F6B3B
:107FF0000D0A006F3A206B0D0A000D0A3E200000AA
:020000040020DA
:08000000FFFFFFFFFFFFFFFF00
:020000040030CA
:0E000000FF281F3CFFBF85FF0FC00FE00F4021
:00000001FF
