:040000001FEF00F0FE
:100008005082FACF0DF0FBCF0EF0F2AA0EEF00F0FF
:1000180010EF00F019EF00F0F2A415EF00F017EF61
:1000280000F019EF00F03FEC0EF00EC0FBFF0DC022
:10003800FAFF5092110006EF0EF0000E0001A56FB6
:10004800000EA66F000EA76F000EA86F300EA16FEE
:10005800FBEC0EF08A88000E106E000E0F6E33EC6B
:100068000FF0F294F2A43BEF00F03DEF00F036EF12
:1000780000F0CE0E0F6E1B0E106E38EC0FF0F28EE5
:10008800F28CBD0E00018C6F7F0E8D6FA3EC0EF00D
:100098006B0E00018C6F7F0E8D6FA3EC0EF0CA0EF5
:1000A80000018C6F7F0E8D6FA3EC0EF0810E0001A6
:1000B8008C6F7D0E8D6FA3EC0EF058EC0FF0000ED8
:1000C800A9EC0CF020EC0FF00009D8B46EEF00F0AA
:1000D80070EF00F066EF00F0B7EC0EF00001A26FD1
:1000E800E90E8C6F7F0E8D6FA2C08EF08F6BA3EC24
:1000F8000EF017EF03F0370E8C6F7C0E8D6FA3ECAC
:100108000EF0580E00018C6F7F0E8D6FA3EC0EF071
:10011800EE0E00018C6F7F0E8D6FA7C08EF0A8C009
:100128008FF0906B916BA3EC0EF0FC0E00018C6FBE
:100138007F0E8D6FA3EC0EF0EE0E00018C6F7F0E1C
:100148008D6FFF0EA5158E6FFF0EA6158F6F000E13
:10015800A715906F000EA815916FA3EC0EF0AB0ECB
:1001680000018C6F7F0E8D6FA3EC0EF0390E00012D
:100178008C6F7C0E8D6FA3EC0EF0AE0E00018C6FB1
:100188007F0E8D6FA3EC0EF0DC0E00018C6F7F0EDE
:100198008D6FA3EC0EF01B0E00018C6F7F0E8D6F20
:1001A800A3EC0EF0EC0E00018C6F7E0E8D6FA3ECAD
:1001B8000EF06D0E00018C6F7C0E8D6FA3EC0EF0AF
:1001C800D00E00018C6F7D0E8D6FA3EC0EF0A10E8A
:1001D80000018C6F7C0E8D6FA3EC0EF0D40E000125
:1001E8008C6F7E0E8D6FA3EC0EF0AB0E00018C6F42
:1001F8007D0E8D6FA3EC0EF02C0E00018C6F7D0E22
:100208008D6F020E8F6F000E8E6FA3EC0EF0570EDF
:1002180000018C6F7D0E8D6F020E8F6F000E8E6F3A
:10022800A3EC0EF0390E00018C6F7C0E8D6FA3ECE1
:100238000EF04DEF03F0D30E8C6F7F0E8D6FA3EC95
:100248000EF04DEF03F0000EA46F000EA36FF50E35
:100258008C6F7F0E8D6FA3EC0EF00001A34BA42BC7
:10026800A45109E1280EA35DD8A03DEF01F03FEFAE
:1002780001F02BEF01F0FF004DEF03F0000EA46F2B
:10028800000EA36FF50E8C6F7F0E8D6FA3EC0EF032
:100298000001A34BA42BA45109E1280EA35DD8A00B
:1002A80058EF01F05AEF01F046EF01F04DEF03F07F
:1002B800910E8C6F7B0E8D6FA3EC0EF0E40E000197
:1002C8008C6F7B0E8D6FA3EC0EF09F0E00018C6F70
:1002D8007E0E8D6FA3EC0EF0D50E00018C6F7C0E98
:1002E8008D6FA3EC0EF02F0E00018C6F7E0E8D6FBC
:1002F800A3EC0EF020EC0FF00009D8B486EF01F063
:1003080088EF01F07EEF01F0B7EC0EF0120E00015D
:100318008C6F7E0E8D6FA1C08EF08F6BA15108EC93
:100328000FF000019E6F9E51906F916BA3EC0EF041
:100338000001A12B4DEF03F058EC0FF0000EA9ECD3
:100348000CF0010E45EC09F04DEF03F0610EA21917
:10035800D8A4B1EF01F0B3EF01F0DDEF01F0000E2A
:10036800A55F020EA65B000EA75B000EA85B040E3D
:10037800A85DD8A0C2EF01F0C4EF01F0D5EF01F0FD
:10038800F40E8C6F7D0E8D6FA3EC0EF0000E000145
:10039800A56FFE0EA66FFF0EA76F030EA86F05EFE1
:1003A80002F0300E8C6F7F0E8D6FA3EC0EF005EF10
:1003B80002F0000EA527020EA623000EA723000EAA
:1003C800A823040EA85DD8A0ECEF01F0EEEF01F031
:1003D800FFEF01F0680E8C6F7E0E8D6FA3EC0EF0B0
:1003E800000E0001A56F000EA66F000EA76F000E8D
:1003F800A86F05EF02F0440E8C6F7F0E8D6FA3EC93
:100408000EF0580E00018C6F7F0E8D6FA3EC0EF06E
:10041800EE0E00018C6F7F0E8D6FA7C08EF0A8C006
:100428008FF0906B916BA3EC0EF0FC0E00018C6FBB
:100438007F0E8D6FA3EC0EF0EE0E00018C6F7F0E19
:100448008D6FFF0EA5158E6FFF0EA6158F6F000E10
:10045800A715906F000EA815916FA3EC0EF0AB0EC8
:1004680000018C6F7F0E8D6FA3EC0EF04DEF03F043
:10047800000EA46F000EA36FCB0EA325D96E000E3D
:10048800A421DA6EA351FF0ADF6EA34BA42B020E40
:10049800A45DD8A052EF02F054EF02F040EF02F052
:1004A8008B88A5C010F0A6C011F0A7C012F0A8C094
:1004B80013F0CB0E146E000E156EF3EC0CF023EC5B
:1004C8000EF00001A06FA029D8B46DEF02F06FEF15
:1004D80002F063EF02F08B98010E8C6F7D0E8D6F2A
:1004E800A3EC0EF08E0E00018C6F7F0E8D6FA3ECC7
:1004F8000EF0EE0E00018C6F7F0E8D6FA7C08EF090
:10050800A8C08FF0906B916BA3EC0EF0FC0E00016D
:100518008C6F7F0E8D6FA3EC0EF0EE0E00018C6FCA
:100528007F0E8D6FFF0EA5158E6FFF0EA6158F6FB0
:10053800000EA715906F000EA815916FA3EC0EF092
:10054800AB0E00018C6F7F0E8D6FA3EC0EF0040EC6
:1005580000018C6F7F0E8D6FA0C08EF08F6BA3ECA7
:100568000EF04DEF03F08B8AA5C010F0A6C011F075
:10057800A7C012F0A8C013F0CB0E146E000E156EB3
:1005880011EC0CF08B9A9F0E00018C6F7F0E8D6F13
:10059800A3EC0EF08E0E00018C6F7F0E8D6FA3EC16
:1005A8000EF0EE0E00018C6F7F0E8D6FA7C08EF0DF
:1005B800A8C08FF0906B916BA3EC0EF0FC0E0001BD
:1005C8008C6F7F0E8D6FA3EC0EF0EE0E00018C6F1A
:1005D8007F0E8D6FFF0EA5158E6FFF0EA6158F6F00
:1005E800000EA715906F000EA815916FA3EC0EF0E2
:1005F800AB0E00018C6F7F0E8D6FA3EC0EF0CB0E4F
:100608000001946F000E956FA4EC06F04DEF03F017
:100618007D0E8C6F7F0E8D6FA2C08EF08F6BA3EC5A
:100628000EF04DEF03F00001A2519E6F9F6B9F519A
:10063800000AD8B422EF03F00CEF03F09E513F0AF2
:10064800D8B47FEF00F07E0AD8B4AAEF01F01B0AF5
:10065800D8B427EF01F03B0AD8B4AAEF01F0080A92
:10066800D8B4A0EF01F0060AD8B41FEF01F01D0AB4
:10067800D8B4B7EF02F0060AD8B45CEF01F0030A69
:10068800D8B43CEF02F00D0AD8B442EF01F00CEFF9
:1006980003F0A80E00018C6F7D0E8D6FA3EC0EF099
:1006A80066EF00F01FEF00F073C0D9FF74C0DAFFE7
:1006B800DECFF6FFDDCFF7FF0800F550250AD8A4F6
:1006C80068EF03F06AEF03F033EF05F073C0D9FF6A
:1006D80074C0DAFFDE2A000EDD22000E436E000E23
:1006E800426E42C04EF044684568000E0001796FC2
:1006F800000E786FAAEF03F04E8273C0D9FF74C062
:10070800DAFFDE2A000EDD22AAEF03F0000E796F71
:10071800010E786FAAEF03F073C0D9FF74C0DAFF37
:10072800DECFF6FFDDCFF7FF0800F5503E6E3F6ADB
:100738003F50000AD8B4A3EF03F08AEF03F03E500D
:10074800300AD8B480EF03F08AEF03F078517911BA
:10075800D8B4B1EF03F0B3EF03F090EF03F073C038
:10076800D9FF74C0DAFFDECFF6FFDDCFF7FF080050
:10077800F5502A0AD8A4C3EF03F0C5EF03F0EEEF53
:1007880003F073C0D9FF74C0DAFFDE2A000EDD2241
:1007980075C0D9FF76C0DAFFDFCF3EF0020EDE2645
:1007A800DFCF3FF0000EDD223EC0D9FF3FC0DAFFA9
:1007B800DECF42F0DDCF43F043BEE7EF03F0E5EFD5
:1007C80003F021EF04F04E80426C431ED8B0432A58
:1007D80021EF04F073C0D9FF74C0DAFFDECF15F043
:1007E800DDCF16F0B3EC0AF015C042F016C043F0A6
:1007F80005EF04F073C0D9FF74C0DAFFDE2A000EDB
:10080800DD2273C0D9FF74C0DAFFDECFF6FFDDCF7B
:10081800F7FF0800F5CF3EF0D00E3E243F6E406A49
:10082800FF0E4022405009E10A0E3F5CD8A01FEF9E
:1008380004F021EF04F0FEEF03F073C0D9FF74C099
:10084800DAFFDECFF6FFDDCFF7FF0800F550630AC9
:10085800D8A431EF04F033EF04F057EF04F073C07D
:10086800D9FF74C0DAFFDE2A000EDD2275C0D9FF79
:1008780076C0DAFFDFCF3EF0020EDE26DFCF3FF094
:10088800000EDD223EC0D9FF3FC0DAFFDF50000175
:10089800776F71C01AF072C01BF077C01CF058EC6B
:1008A8000BF047EF05F073C0D9FF74C0DAFFDECF55
:1008B80082F0DDCF83F082C0F6FF83C0F7FF080027
:1008C800F550640AD8B46BEF04F06DEF04F07BEFD9
:1008D80004F082C0F6FF83C0F7FF0800F550690AEC
:1008E800D8A479EF04F07BEF04F0BFEF04F075C0F3
:1008F800D9FF76C0DAFFDFCF3EF0020EDE26DFCF6B
:100908003FF0000EDD223EC0D9FF3FC0DAFFDECF48
:100918007AF0DDCF7BF00001000E7BBFFF0E7C6F0D
:100928007D6F7E6F7F6F806F816F010E82253E6EB7
:10093800000E83213F6E73C0D9FF74C0DAFF3EC03A
:10094800DEFF3FC0DDFF71C02CF072C02DF07AC011
:100958002EF07BC02FF07CC030F07DC031F07EC01F
:1009680032F07FC033F080C034F081C035F048ECFD
:1009780005F047EF05F082C0F6FF83C0F7FF0800D7
:10098800F550780AD8A4CBEF04F0CDEF04F02AEFA5
:1009980005F075C0D9FF76C0DAFFDFCF3EF0020E52
:1009A800DE26DFCF3FF0000EDD223EC0D9FF3FC07C
:1009B800DAFFDECF40F0DDCF41F040C07AF041C031
:1009C8007BF000017C6B7D6B7E6B7F6B806B816B3A
:1009D800010E82253E6E000E83213F6E73C0D9FF43
:1009E80074C0DAFF3EC0DEFF3FC0DDFF14EF05F044
:1009F80071C02CF072C02DF07AC02EF07BC02FF0A1
:100A08007CC030F07DC031F07EC032F07FC033F062
:100A180080C034F081C035F09AEC07F047EF05F05C
:100A280082C0F6FF83C0F7FF0800F5503E6E3F6AAC
:100A38003F50000AD8B423EF05F02AEF05F03E50E6
:100A4800780AD8B4FCEF04F02AEF05F073C0D9FF98
:100A580074C0DAFFDE2A000EDD2247EF05F073C00E
:100A6800D9FF74C0DAFFDECFF6FFDDCFF7FF08004D
:100A7800F550116E126A71C013F072C014F05EEC7A
:100A88000CF02AEF05F012002EC066F02FC067F0B8
:100A980030C068F031C069F032C06AF033C06BF022
:100AA80034C06CF035C06DF000016DBF5EEF05F02D
:100AB80061EF05F0010E62EF05F0000E6E6F6E51EA
:100AC800D8B469EF05F06BEF05F07BEF05F06D1F0B
:100AD8006C1F6B1F6A1F691F681F671F666D000EFA
:100AE8006723682369236A236B236C236D2345BE20
:100AF80080EF05F082EF05F083EF05F04E9245BEDA
:100B080090EF05F0455006E14404D8B08EEF05F0AB
:100B180090EF05F096EF05F0000E636F010E626F1F
:100B28009AEF05F044C062F045C063F042C064F03B
:100B380043C065F06E51D8B4A4EF05F0A6EF05F0F8
:100B4800BDEF05F06407D8A065076E51D8A4AFEFD4
:100B580005F0B1EF05F0B7EF05F0000E616F2B0E51
:100B6800606FBBEF05F0000E616F2D0E606F60C007
:100B78006EF0000E706F1F0E6F6F000ECA6F42EF9F
:100B880006F06F07D8A07007AB0E6F25D96E000E60
:100B98007021DA6E66C00FF067C010F068C011F0FF
:100BA80069C012F06AC013F06BC014F06CC015F085
:100BB8006DC016F00A0E176E000E186E000E196E34
:100BC800000E1A6E000E1B6E000E1C6E000E1D6EBF
:100BD800000E1E6E01EC0AF00FC036F010C037F0A0
:100BE80011C038F012C039F013C03AF014C03BF00D
:100BF80015C03CF016C03DF036C021F037C022F0D9
:100C0800A8EC0DF02150300FDF6E00016207D8A06C
:100C180063076407D8A0650766C00FF067C010F0C7
:100C280068C011F069C012F06AC013F06BC014F00C
:100C38006CC015F06DC016F00A0E176E000E186E17
:100C4800000E196E000E1A6E000E1B6E000E1C6E42
:100C5800000E1D6E000E1E6E81EC08F00FC066F0CF
:100C680010C067F011C068F012C069F013C06AF0D4
:100C780014C06BF015C06CF016C06DF0000170BFA9
:100C88004EEF06F0705108E16F05D8A04EEF06F060
:100C980050EF06F080EF06F0665167116811691190
:100CA8006A116B116C116D11D8A45DEF06F05FEF3E
:100CB80006F0C5EF05F063BF6CEF06F0635106E17F
:100CC8006205D8B06AEF06F06CEF06F0C5EF05F0E4
:100CD80065BF77EF06F0655108E16405D8A077EFA6
:100CE80006F079EF06F080EF06F04EB27EEF06F0E0
:100CF80080EF06F0C5EF05F06E51D8B486EF06F028
:100D080088EF06F093EF06F06F07D8A07007AB0ED8
:100D18006F25D96E000E7021DA6E6EC0DFFF2CC011
:100D280021F02DC022F0AB0E6F25236E000E70212E
:100D3800246E64C025F065C026F0BCEC0BF01200F0
:100D4800F30E00018C6F7F0E8D6FA3EC0EF0000E7A
:100D580000019D6F000E9C6F9C519D11D8B4B7EF98
:100D680006F0B9EF06F0CEEF06F0070E9C15966F69
:100D7800000E9D15976F96519711D8A4C6EF06F0EF
:100D8800C8EF06F0CEEF06F09D0E8C6F7F0E8D6FCC
:100D9800A3EC0EF000019C519D11D8B4D6EF06F0DB
:100DA800D8EF06F031EF07F00F0E9C15966F000E86
:100DB8009D15976F96519711D8A4E5EF06F0E7EFC8
:100DC80006F031EF07F09C0E8C6F7F0E8D6FA3EC51
:100DD8000EF0F00E00019C25986FFF0E9D21996F73
:100DE80020EF07F098519425D96E99519521DA6E24
:100DF800200EDF6002EF07F004EF07F00CEF07F0BA
:100E0800FA0E8C6F7F0E8D6FA3EC0EF01DEF07F0BE
:100E1800F70E8C6F7F0E8D6F98519425D96E99516E
:100E28009521DA6EDF50966F96518E6F8F6BA3EC1B
:100E38000EF00001984B992B9C51985D9D51995942
:100E4800D8A029EF07F02BEF07F0F6EF06F0AB0E6E
:100E58008C6F7F0E8D6FA3EC0EF0E30E00018C6F8C
:100E68007F0E8D6F9C519425D96E9D519521DA6E18
:100E7800DF50966F96518E6F8F6BA3EC0EF00001CA
:100E88009C4B9D2B020E9D5DD8A04DEF07F04FEFB8
:100E980007F0B0EF06F09B0E8C6F7F0E8D6FA3EC02
:100EA8000EF0F00E00019C259A6FFF0E9D219B6F9E
:100EB80088EF07F09A519425D96E9B519521DA6EE7
:100EC800200EDF606AEF07F06CEF07F074EF07F0B1
:100ED800FA0E8C6F7F0E8D6FA3EC0EF085EF07F086
:100EE800F70E8C6F7F0E8D6F9A519425D96E9B519A
:100EF8009521DA6EDF50966F96518E6F8F6BA3EC4B
:100F08000EF000019A4B9B2B9C519A5D9D519B5969
:100F1800D8A091EF07F093EF07F05EEF07F0AB0E64
:100F28008C6F7F0E8D6FA3EC0EF0120045BE9FEF05
:100F380007F0A1EF07F0A2EF07F04E9245BEAFEF22
:100F480007F0455006E14404D8B0ADEF07F0AFEF25
:100F580007F0B6EF07F0000E0001636F010E626F35
:100F6800BAEF07F044C062F045C063F042C064F0D5
:100F780043C065F02EC066F02FC067F030C068F03F
:100F880031C069F032C06AF033C06BF034C06CF025
:100F980035C06DF0000E00016F6F1F0E6E6F000EF2
:100FA800CA6F32EF08F06E07D8A06F0766510F0BB3
:100FB800706F090E7065E3EF07F0E5EF07F0EDEFEE
:100FC80007F0570E7025606F616B000E6123F3EF19
:100FD80007F0300E7025606F616B000E612360C0F2
:100FE80070F0AB0E6E25D96E000E6F21DA6E70C0F0
:100FF800DFFF6207D8A063076407D8A0650766C04B
:1010080036F067C037F068C038F069C039F06AC098
:101018003AF06BC03BF06CC03CF06DC03DF0050E83
:101028001FEF08F0D8903D323C323B323A32393229
:10103800383237323632E82E16EF08F036C066F00E
:1010480037C067F038C068F039C069F03AC06AF054
:101058003BC06BF03CC06CF03DC06DF06FBF3EEF25
:1010680008F06F5109E1020E6E5DD8A03EEF08F05E
:1010780040EF08F070EF08F06651671168116911C8
:101088006A116B116C116D11D8A44DEF08F04FEF78
:1010980008F0D7EF07F063BF5CEF08F0635106E193
:1010A8006205D8B05AEF08F05CEF08F0D7EF07F008
:1010B80065BF67EF08F0655108E16405D8A067EFE0
:1010C80008F069EF08F070EF08F04EB26EEF08F024
:1010D80070EF08F0D7EF07F02CC021F02DC022F0F8
:1010E800AB0E6E25236E000E6F21246E64C025F0B2
:1010F80065C026F0BCEC0BF01200000E206E1EBE80
:101108008AEF08F088EF08F09CEF08F01E1E1D1EFD
:101118001C1E1B1E1A1E191E181E176C000E1822E4
:1011280019221A221B221C221D221E22010E206EA9
:1011380016BEA3EF08F0A1EF08F0B5EF08F0161EF1
:10114800151E141E131E121E111E101E0F6C000EEB
:101158001022112212221322142215221622010E05
:10116800201A20EE21F0070EDE6AE806FDE217508D
:10117800181019101A101B101C101D101E10D8B4AE
:10118800C8EF08F0CAEF08F01CEF09F0010E1F6E57
:10119800D8EF08F0D8901736183619361A361B3695
:1011A8001C361D361E361F2A1EAEDDEF08F0DFEF97
:1011B80008F0CEEF08F0D8902136223623362436B0
:1011C800253626362736283617500F5C1850105803
:1011D800195011581A5012581B5013581C501458B3
:1011E8001D5015581E501658D8A0FDEF08F0FFEFF7
:1011F80008F010EF09F017500F5E1850105A1950E8
:10120800115A1A50125A1B50135A1C50145A1D5076
:10121800155A1E50165A2180D8901E321D321C3283
:101228001B321A321932183217321F2EDFEF08F02C
:101238002050D8B422EF09F024EF09F034EF09F078
:10124800281E271E261E251E241E231E221E216C34
:10125800000E222223222422252226222722282287
:1012680021C00FF022C010F023C011F024C012F0EA
:1012780025C013F026C014F027C015F028C016F0BA
:1012880012000001966F000E0001956F000E946F1A
:10129800FF0E08EC0FF00001944B952B95BF5EEF05
:1012A80009F0955109E10A0E945DD8A05EEF09F0A6
:1012B80060EF09F04CEF09F08A98FF0E08EC0FF088
:1012C800400E08EC0FF0000E08EC0FF0000E08ECD2
:1012D8000FF0000E08EC0FF0000E08EC0FF0950E62
:1012E80008EC0FF0FF0E08EC0FF0FF0E08EC0FF003
:1012F8000001976F8A889605D8A485EF09F087EFD3
:1013080009F090EF09F0840E8C6F7E0E8D6F97C0F8
:101318008EF08F6BA3EC0EF08A98FF0E08EC0FF09E
:10132800410E08EC0FF0000E08EC0FF0000E08EC70
:101338000FF0000E08EC0FF0000E08EC0FF0FF0E97
:1013480008EC0FF0FF0E08EC0FF0FF0E08EC0FF0A2
:101358000001976F8A889751D8A4B5EF09F0B7EFC5
:1013680009F090EF09F09605D8A4BDEF09F0BFEF9A
:1013780009F0C8EF09F0BA0E8C6F7E0E8D6F97C01A
:101388008EF08F6BA3EC0EF08A98FF0E08EC0FF02E
:10139800500E08EC0FF0000E08EC0FF0000E08ECF1
:1013A8000FF0020E08EC0FF0000E08EC0FF0FF0E25
:1013B80008EC0FF0FF0E08EC0FF0FF0E08EC0FF032
:1013C8000001976F8A889729D8B4EDEF09F0EFEFFD
:1013D80009F0C8EF09F09605D8A4F5EF09F0F7EF82
:1013E80009F000EF0AF04C0E8C6F7E0E8D6F97C0DF
:1013F8008EF08F6BA3EC0EF01200000E206E16BE5E
:101408000AEF0AF008EF0AF01CEF0AF0161E151E84
:10141800141E131E121E111E101E0F6C000E102219
:10142800112212221322142215221622010E206ED6
:101438001EBE23EF0AF021EF0AF033EF0AF01E1E5A
:101448001D1E1C1E1B1E1A1E191E181E176C000EB0
:10145800182219221A221B221C221D221E22175072
:10146800181019101A101B101C101D101E10D8B4BB
:1014780040EF0AF042EF0AF08AEF0AF0010E1F6E01
:1014880050EF0AF0D8901736183619361A361B3628
:101498001C361D361E361F2A1EAE55EF0AF057EFB2
:1014A8000AF046EF0AF017500F5C18501058195000
:1014B80011581A5012581B5013581C5014581D50CC
:1014C80015581E501658D8A06CEF0AF06EEF0AF0A7
:1014D8007EEF0AF017500F5E1850105A1950115A23
:1014E8001A50125A1B50135A1C50145A1D50155A90
:1014F8001E50165AD8901E321D321C321B321A3218
:101508001932183217321F2E57EF0AF02050D8B46C
:1015180090EF0AF092EF0AF0A2EF0AF0161E151EDD
:10152800141E131E121E111E101E0F6C000E102208
:101538001122122213221422152216220FC00FF094
:1015480010C010F011C011F012C012F013C013F047
:1015580014C014F015C015F016C016F01200000ED5
:101568001D6E000E1C6E000E1B6E000E1A6EBFEF75
:101578000AF0154A162A15C0F6FF16C0F7FF08002C
:10158800F550200AD8B4CBEF0AF0CDEF0AF0BDEF42
:101598000AF015C0F6FF16C0F7FF0800F5CF17F0E0
:1015A800F70E1724186E196AFF0E1922195009E14F
:1015B800050E185CD8A0E3EF0AF0E5EF0AF0BDEFDE
:1015C8000AF0EFEF0AF0000E1B6E010E1A6E154AB4
:1015D800162A24EF0BF015C0F6FF16C0F7FF080017
:1015E800F550176E186A1850000AD8B4FEEF0AF0C2
:1015F80024EF0BF017502B0AD8B4EBEF0AF0060AC9
:10160800D8B4E7EF0AF024EF0BF01CC00FF01DC0B0
:1016180010F0000E126E0A0E116ECBEC0EF015C013
:10162800F6FF16C0F7FF0800F5500F5E000E105ABF
:10163800300E0F241C6E000E10201D6EEBEF0AF00A
:1016480015C0F6FF16C0F7FF0800F5CF17F0D00E4B
:101658001724186E196AFF0E1922195009E10A0E8B
:10166800185CD8A03AEF0BF03CEF0BF009EF0BF049
:101678001A501B10D8A443EF0BF045EF0BF053EFB3
:101688000BF01CC017F01DC018F0171E181E174AC3
:10169800182A17C015F018C016F057EF0BF01CC029
:1016A80015F01DC016F0120042504310D8A45FEF89
:1016B8000BF061EF0BF067EF0BF042C020F043C076
:1016C80021F06DEF0BF0FF0E4224206EFF0E432039
:1016D800216E4EA072EF0BF074EF0BF07DEF0BF064
:1016E8001CC011F0126A1AC013F01BC014F05EEC93
:1016F8000CF021BE82EF0BF084EF0BF086EF0BF0BD
:101708008AEF0BF0000E216E000E206E000E1F6E89
:10171800000E1E6E9CEF0BF0000E126E200E116E66
:101728001AC013F01BC014F05EEC0CF01E4A1F2AFE
:1017380020501E5C1F50800A1D6E2150800A1D58C3
:10174800D8A0A9EF0BF0ABEF0BF090EF0BF04EB079
:10175800B0EF0BF0B2EF0BF0BBEF0BF01CC011F0C9
:10176800126A1AC013F01BC014F05EEC0CF01200E1
:101778004EA0C1EF0BF0C3EF0BF0CDEF0BF023C081
:101788001AF024C01BF021C01CF022C01DF086EC0A
:101798000DF026BED2EF0BF0D4EF0BF0DAEF0BF022
:1017A80025C02AF026C02BF0DEEF0BF0000E2B6EC2
:1017B800000E2A6E000E296E000E286EF0EF0BF058
:1017C800000E126E200E116E21C013F022C014F00C
:1017D8005EEC0CF0284A292A2A50285C2950800AF5
:1017E800276E2B50800A2758D8A0FDEF0BF0FFEF8B
:1017F8000BF0E4EF0BF04EB004EF0CF006EF0CF03A
:1018080010EF0CF023C01AF024C01BF021C01CF00C
:1018180022C01DF086EC0DF012008A98FF0E08EC2D
:101828000FF0510E08EC0FF0135008EC0FF01250A7
:1018380008EC0FF0115008EC0FF0105008EC0FF006
:10184800FF0E08EC0FF0FF0E08EC0FF0FF0AD8B4FB
:1018580030EF0CF032EF0CF027EF0CF0FF0E08EC35
:101868000FF0FF0AD8B43BEF0CF03DEF0CF032EF6D
:101878000CF0000E176E000E166E16501424D96E5A
:1018880017501520DA6EFF0E08EC0FF0DF6E164ABF
:10189800172A020E175CD8A054EF0CF056EF0CF084
:1018A80041EF0CF0FF0E08EC0FF0FF0E08EC0FF004
:1018B8008A88120013501410D8B465EF0CF067EF43
:1018C8000CF070EF0CF013501410D8A46EEF0CF05D
:1018D80070EF0CF075EF0CF011504CEC0FF0A8EF16
:1018E8000CF020EE09F01350D9261450DA22DE50FD
:1018F800DE10D8B482EF0CF084EF0CF09FEF0CF000
:1019080020EE09F01350D9261450DA2210EE03F015
:101918001350E1261450E222DE50E65CE650800ABD
:10192800196EDE50800A1958D8B09DEF0CF09FEF61
:101938000CF0A8EF0CF020EE03F01350D926145049
:10194800DA22DE2A000EDD221200106E6CBAAFEF2A
:101958000CF0B1EF0CF0F2EF0CF01050040D010E8A
:10196800F326000EF4228D0EF324F66E7B0EF4207F
:10197800F76E0800F5CF6DFF1050040D8D0EF3249F
:10198800F66E7B0EF420F76E0800F5CF6CFF000EA4
:101998006B6E1050040D020EF326000EF4228D0E0D
:1019A800F324F66E7B0EF420F76E0800F5CF6EFF79
:1019B8001050040D030EF326000EF4228D0EF324AE
:1019C800F66E7B0EF420F76E0800F5CF0FF00F4689
:1019D80093500F18FD0B0F18936E6C8A12008A989B
:1019E800FF0E08EC0FF0580E08EC0FF0135008EC3F
:1019F8000FF0125008EC0FF0115008EC0FF01050D7
:101A080008EC0FF0FF0E08EC0FF0FF0E08EC0FF0DB
:101A1800FF0AD8B412EF0DF014EF0DF009EF0DF036
:101A2800FF0E08EC0FF0FF0E08EC0FF0FF0E08ECAD
:101A38000FF0FE0E08EC0FF0000E176E000E166E7B
:101A480016501424D96E17501520DA6EDF5008ECA2
:101A58000FF0164A172A020E175CD8A036EF0DF0C1
:101A680038EF0DF024EF0DF08A88120086C08AF056
:101A780087C08BF04FEF0DF084C071F085C072F015
:101A88008A0E0001736F000E746F88C075F089C0EC
:101A980076F058EC03F08AC0F6FF8BC0F7FF080019
:101AA800F5500009D8A45BEF0DF05DEF0DF040EFA5
:101AB8000DF0000E0001856F000E846F1200010EFC
:101AC800136E200E0F181010D8B46DEF0DF06FEFD5
:101AD8000DF082EF0DF0F70E0F24116EFF0E10209F
:101AE800126E125009E1050E115CD8A07EEF0DF0C0
:101AF80080EF0DF082EF0DF0000E136E13C00FF0A3
:101B0800106A1200000E206E000E1F6E97EF0DF087
:101B18001EC011F0126A1CC013F01DC014F05EEC58
:101B28000CF01F4A202A1F501A24D96E20501B205F
:101B3800DA6EDF501E6E1E50D8A4A5EF0DF0A7EF89
:101B48000DF08CEF0DF0120022BEB5EF0DF0225013
:101B580006E12104D8B0B3EF0DF0B5EF0DF0C3EFF7
:101B68000DF021C023F022C024F0231E241E234A96
:101B7800242A23C021F024C022F0C7EF0DF021C091
:101B880021F022C022F01200080EB86E900EAB6E43
:101B9800240EAC6E820EAF6E060EB06E000E0F6E87
:101BA800000E106E42EC0FF0000E0F6E000E106E5D
:101BB8003DEC0FF0000E0F6E000E106E47EC0FF0AC
:101BC800000E4F6E1200898C000E0C6E000E0B6E0C
:101BD8000B4A0C2A0C5009E1280E0B5CD8A0F7EF31
:101BE8000DF0F9EF0DF0ECEF0DF0DEEC0EF0C00E9D
:101BF8000124096EF90E02200A6E51EC0FF0F294DE
:101C0800899C120000EECBF012EE00F0EE6AE5506F
:101C1800E150FCE1E250FAE100EEA9F0220EEE6A92
:101C2800E806FDE100EE42F00E0EEE6AE806FDE180
:101C380050905092000EF86E000121EF00F08A9843
:101C48000D0E08EC0FF0106E8A881028D8A42FEF1C
:101C58000EF031EF0EF034EF0EF0FF0E3EEF0EF007
:101C6800FF0E08EC0FF0FF0E08EC0FF0FF0E08EC6B
:101C78000FF010501200F2944B50D76E4AC0D6FFA6
:101C88004C504D10D8B44BEF0EF04DEF0EF05AEF0C
:101C98000EF002D85AEF0EF00500FA6E4C50FD6EA9
:101CA8004D50FE6EF850FF6EFA5012001200D59C8F
:101CB800000ED76E000ED66ED650D7CF11F0126A2E
:101CC80011C012F0116A11104A6E12504B6EF29444
:101CD800F28AB40E0F6E1E0E106E38EC0FF09F0EC7
:101CE800D56E1200000E896E000E8A6E000E8B6E85
:101CF800BF0E926EE50E936E8F0E946E3C0E0F0122
:101D08003A6F310E396F2F0E386F000E616EF18EFB
:101D18001200D00E0F24116EFF0E1020126E1250FA
:101D28000AE10A0E115CD8A09CEF0EF09FEF0EF0AE
:101D3800010EA0EF0EF0000E0F6E106A12008E0E4C
:101D48000001926F000E936F000E846F000E856F76
:101D58008CC086F08DC087F0920E886F000E896F58
:101D68003AEC0DF012009EAABCEF0EF0BEEF0EF09A
:101D7800B7EF0EF0000E4F6EABA2C5EF0EF0C7EF37
:101D88000EF0C9EF0EF0AB98AB88AE5012000F50B2
:101D98001102F3CF13F0F4CF14F00F501202F350E6
:101DA800142610501102F350142613C00FF014C05B
:101DB80010F01200D6CF07F0D7CF08F00850036E06
:101DC8000750056E03C006F005C001F006C002F01A
:101DD8001200700ED36E040ED26E400E9B6ED2AE01
:101DE800F8EF0EF0FAEF0EF0F3EF0EF0120056ECEB
:101DF8000FF02AEC0FF076EC0EF0EDEC0EF05BEC49
:101E08000EF0C8EC0DF012000F6E0FC06FFFA4AEFD
:101E180010EF0FF012EF0FF00BEF0FF0A49E6F50C2
:101E280012000F6E9EA81BEF0FF01DEF0FF016EFBC
:101E38000FF00FC0ADFF12009EBA25EF0FF028EF8C
:101E48000FF0010E29EF0FF0000E1200400E6D6E1C
:101E5800010E6C6E010E6E6E93926C9A1200105009
:101E6800D76E0FC0D6FF12000FC04CF010C04DF057
:101E780012000FC046F010C047F012000FC048F023
:101E880010C049F012000FC0A9F010C0AAF012004B
:101E9800106E105015EC0FF012000A50D76E09C0E2
:0E1EA800D6FF1200D09E12006C9A120012009B
:107B8C00000140010020202020436F6E6E6563745D
:107B9C00206F7363696C6C6F73636F7065206368BF
:107BAC00616E6E656C203120746F205049432068E3
:107BBC0065616465722070696E20524231202876AE
:107BCC006572746963616C207363616C65203276D5
:107BDC002F646976290D0A0020202020436F6E6ED9
:107BEC00656374206F7363696C6C6F73636F70651E
:107BFC00206368616E6E656C203220746F20504972
:107C0C0043206865616465722070696E205242334E
:107C1C002028766572746963616C207363616C658E
:107C2C002032762F646976290D0A000D0A2D2D2D30
:107C3C002D2D2D2D2D2D2D2D2D2D2D2D2D2D2D2D68
:107C4C002D2D2D2D2D2D2D2D2D2D2D2D2D2D2D2D58
:107C5C002D2D2D2D2D2D2D2D2D2D2D2D2D2D0D0A8B
:107C6C00002D2D2D2D2D2D2D2D2D2D2D2D2D2D2D65
:107C7C002D53504920544553542D2D2D2D2D2D2D44
:107C8C002D2D2D2D2D2D2D2D2D2D2D2D2D2D2D2D18
:107C9C002D2D0D0A002D2D2D2D2D2D2D2D2D2D2D78
:107CAC002D2D2D53442043415244205445535453BD
:107CBC002D2D2D2D2D2D2D2D2D2D2D2D2D2D2D2DE8
:107CCC002D2D2D2D2D2D0D0A0020202020536574D7
:107CDC002074686520686F72697A6F6E74616C20AD
:107CEC007363616C6520746F203530306E732F6454
:107CFC0069760D0A00577269746520626C6F636B4C
:107D0C00206F662064656372656D656E74656420B2
:107D1C00382D6269742076616C7565733A0D0A00B2
:107D2C00723A2072656164206120626C6F636B2013
:107D3C006F662025642062797465732066726F6D9E
:107D4C0020534420636172640D0A00773A207772E5
:107D5C00697465206120626C6F636B206F662025EF
:107D6C006420627974657320746F205344206361BE
:107D7C0072640D0A004E6F20636F6E6669677572D0
:107D8C006174696F6E206F6620646576656C6F70C8
:107D9C006D656E7420626F6172640D0A3E20006125
:107DAC002F412064656372656173652F696E637220
:107DBC0065617365207265616420616464726573CA
:107DCC00730D0A00743A2073656E6420612054654B
:107DDC00737420636861726163746572206F766579
:107DEC0072205350490D0A00556E646572666C6FB3
:107DFC0077656420746F20686967682061646472B9
:107E0C006573730D0A0073656E743A2025303278F1
:107E1C00202072656365697665643A202530327876
:107E2C000D0A002020202048697420616E79206B97
:107E3C006579207768656E2072656164790D0A003A
:107E4C00426C6F636B204C656E677468205265736F
:107E5C00706F6E73653A2025780D0A004F76657247
:107E6C00666C6F77656420746F206C6F772061642B
:107E7C0064726573730D0A00434D44302C205265B7
:107E8C0073657420526573706F6E73653A20257834
:107E9C000D0A002020202054726967676572206FDC
:107EAC006E206368616E6E656C20310D0A00434D67
:107EBC0044312C20496E697420526573706F6E7357
:107ECC00653A2025780D0A00693A20496E69746973
:107EDC00616C697A6520534420636172640D0A00F9
:107EEC007A3A20436C6561722074686520746572FF
:107EFC006D696E616C0D0A00202020205374617432
:107F0C0075733A2020202020253032780D0A005A33
:107F1C003A2052657365742070726F636573736F6A
:107F2C00720D0A0044656372656173656420616457
:107F3C0064726573730D0A00496E637265617365D3
:107F4C006420616464726573730D0A00534420638A
:107F5C0061726420616464726573733A202000530B
:107F6C004420636172642074657374696E670D0AD2
:107F7C0000556E6B6E6F776E206B65792025630DE7
:107F8C000A0020202020416464726573733A20201B
:107F9C002020005265616420626C6F636B3A200D87
:107FAC000A003F3A2068656C70206D656E750D0A8D
:107FBC00000A0D696E4C61622030390D0A0044656F
:107FCC00762732310D0A006F3A20206F6B0D0A00B4
:107FDC006F3A206B0D0A0025303278200025630A99
:107FEC000D0025303478000D0A0A002563002E00A0
:037FFC003A000048
:020000040020DA
:08000000FFFFFFFFFFFFFFFF00
:020000040030CA
:0E000000FF281F3CFFBF85FF0FC00FE00F4021
:00000001FF
