:04000000CCEF3EF013
:107CF300736F732068656C7000D38CD38AD3889BB1
:107D03008C0F0138959284399B939A1200016E016E
:107D1300509F0F026E1A0E026492EF3EF094EF3EF4
:107D2300F097EF3EF0FF0E98EF3EF0025012000086
:107D33000E046E000E036EA6EF3EF000F000F0009E
:107D4300F000F000F0034A042A0150035C025004DF
:107D530058D8A0AFEF3EF0B1EF3EF09FEF3EF012E8
:107D630000000E086E000E076EC0EF3EF0030E0219
:107D73006EE80E016E99EC3EF0074A082A0550079B
:107D83005C06500858D8A0C9EF3EF0CBEF3EF0B8E0
:107D9300EF3EF01200540EF66E7E0EF76E000EF8F4
:107DA3006E01EE00F010EE82F00900F5CFEEFFE574
:107DB30050E150FAE1F30EF66E7C0EF76E000EF80A
:107DC3006E00EE17F010EE09F00900F5CFEEFFE5B7
:107DD30050E150FAE10001EFEF3EF020EE17F01012
:107DE300EE0CF0080EDBCFE3FFE806FCE27EEC3E90
:107DF300F08A8A80B400EF3FF002EF3FF0FBEF3EE2
:107E0300F080A407EF3FF009EF3FF002EF3FF000EF
:107E13000E166E000E156E0C0E1524D96E000E167E
:107E230020DA6EDF506BEC3FF0154A162A16BE249B
:107E3300EF3FF0165009E1090E155CD8A024EF3F7F
:107E4300F026EF3FF00DEF3FF0FAEF3EF000EF00CA
:107E5300F000010200000100000002010001000225
:107E63000100000200000200000000000100020106
:107E730001000200000000000200000200000001F7
:107E830001010201000102000001000002010102E0
:107E930000000100020000010101020000010100D5
:107EA30002010100010200010002000000000200C3
:107EB30001020000000000010200000000010200B6
:107EC30001010200010000010201000101020101A0
:107ED3000000020001E26F21EE00F010EE60F0817D
:107EE3000EDECFE6FFE806FCE2820ED95EE15EC855
:107EF3000E0001E56FE25188EC3EF00001E46F00F3
:107F03000EE36FE429D8A489EF3FF08BEF3FF0E055
:107F1300EF3FF0030E066E200E056EB2EC3EF0FF4F
:107F2300EF3FF0E451050D600EF324096E000EF4EB
:107F3300200A6EE3510924D96E000E0A20DA6EDF9F
:107F430050D8A4A7EF3FF0A9EF3FF0B5EF3FF08A79
:107F53009AE551010DF3CF05F0F4CF06F0B2EC3EF4
:107F6300F08A8AD5EF3FF0E451050D600EF3240942
:107F73006E000EF4200A6EE3510924D96E000E0A36
:107F830020DA6EDE04D8A4C9EF3FF0CBEF3FF0D583
:107F9300EF3FF08A9AE551030DF3CF05F0F4CF06D6
:107FA300F0B2EC3EF08A8A0001E551010DF3CF05F2
:107FB300F0F4CF06F0B2EC3EF00001E32BE4510500
:107FC3000D600EF324096E000EF4200A6EE35109CE
:107FD30024D96E000E0A20DA6E020EDE18D8A4F53C
:107FE300EF3FF0F7EF3FF093EF3FF0E551020DF372
:0D7FF300CF05F0F4CF06F0B2EC3EF0120026
:020000040020DA
:08000000FFFFFFFFFFFFFFFF00
:020000040030CA
:0E000000FF281F3FFFBF85FF0FC00FE00F401E
:00000001FF
