:040000008CEF00F091
:100008005F82FACF6CF0FBCF6DF0E1CF6EF0E2CFFC
:100018006FF0D9CF70F0DACF71F0F3CF72F0F4CF80
:1000280073F0F6CF74F0F7CF75F0F8CF76F0F5CF20
:1000380077F0F2AC22EF00F024EF00F072EF00F05E
:10004800A3A829EF00F02BEF00F042EF00F0A4A8DE
:1000580030EF00F032EF00F042EF00F002D840EF4E
:1000680000F005000101FA6E2851FD6E2951FE6E5F
:10007800F850FF6EFA50120072EF00F0A3AA47EF93
:1000880000F049EF00F060EF00F0A4AA4EEF00F096
:1000980050EF00F060EF00F002D85EEF00F00500CE
:1000A8000101FA6E2651FD6E2751FE6EF850FF6E63
:1000B800FA50120072EF00F09DA065EF00F067EFB4
:1000C80000F072EF00F09EA06CEF00F06EEF00F011
:1000D80072EF00F06EEC1FF072EF00F077C0F5FFE2
:1000E80076C0F8FF75C0F7FF74C0F6FF73C0F4FF61
:1000F80072C0F3FF71C0DAFF70C0D9FF6FC0E2FFB2
:100108006EC0E1FF6DC0FBFF6CC0FAFF5F9211008B
:10011800DCEF1DF0300E01016F6F310E706FF9ECDE
:1001280020F0000E0001796F000E786FE1EC1FF0EF
:10013800000E0001796F000E786F29EC20F09E9078
:100148009EA0A9EF00F0ABEF00F0A4EF00F034ECB4
:1001580021F00009D8B4B3EF00F0B5EF00F0B7EF25
:1001680000F059EC1EF034EC21F00009D8B4BFEFD0
:1001780000F0C1EF00F0C3EF00F059EC1EF0080EDC
:100188000001786F2E0E796F6EEC21F0A39A4E0E57
:100198000001786F2F0E796F78EC21F0A38AF28C2A
:1001A800F28EDC0E01019E6F7F0E9F6F96EC20F0A1
:1001B800560E01019E6F7D0E9F6F96EC20F0B00EDB
:1001C80001019E6F7E0E9F6F96EC20F0B80E010124
:1001D8009E6F7B0E9F6F96EC20F0F30E01019E6FD1
:1001E8007F0E9F6F96EC20F04BEC21F00009D8B4FD
:1001F80000EF01F002EF01F0F8EF00F081EC20F0E1
:100208000101B46F5B0E9E6F7F0E9F6FB4C1A0F1AA
:10021800A16B96EC20F098EF04F03D0E01019E6F63
:100228007C0E9F6F96EC20F0BA0E01019E6F7F0E38
:100238009F6F96EC20F0D20E01019E6F7F0E9F6F8C
:10024800BBCFA0F1A16B96EC20F03D0E01019E6F93
:100258007C0E9F6F96EC20F09D0E01019E6F7F0E25
:100268009F6F96EC20F0EC0E01019E6F7F0E9F6F42
:1002780096EC20F0070E01019E6F7F0E9F6F96ECA3
:1002880020F0980E01019E6F7E0E9F6F96EC20F075
:100298001C0E01019E6F7F0E9F6F96EC20F0FE0EE4
:1002A80001019E6F7B0E9F6F96EC20F0C30E01013B
:1002B8009E6F7D0E9F6F96EC20F07B0E01019E6F66
:1002C8007D0E9F6F96EC20F0E50E01019E6F7D0E6E
:1002D8009F6F96EC20F0A40E01019E6F7C0E9F6F1D
:1002E80096EC20F0430E01019E6F7E0E9F6F96ECF8
:1002F80020F07C0E01019E6F7E0E9F6F96EC20F021
:100308003D0E01019E6F7C0E9F6F96EC20F0DFEF93
:1003180004F0E40E01019E6F7F0E9F6F96EC20F0B3
:10032800DFEF04F0000E0101B66F000EB56F6F0E1F
:100338009E6F7C0E9F6F96EC20F00101B54BB62B9B
:10034800B65109E1280EB55DD8A0ADEF01F0AFEFC9
:1003580001F09BEF01F0FF00DFEF04F0000E010158
:10036800B66F000EB56F6F0E9E6F7C0E9F6F96EC8A
:1003780020F00101B54BB62BB65109E1280EB55D49
:10038800D8A0C9EF01F0CBEF01F0B7EF01F0DFEF34
:1003980004F0040E01019E6F7D0E9F6F96EC20F015
:1003A800AC0E01019E6F7F0E9F6F96EC20F0700ED1
:1003B80001019E6F7F0E9F6F96EC20F07F0E01016A
:1003C8009E6F7F0E9F6F96EC20F08E0E01019E6F40
:1003D8007F0E9F6F96EC20F0400E01019E6F7F0EFE
:1003E8009F6F96EC20F04BEC21F00009D8A4FFEFAA
:1003F80001F001EF02F0F7EF01F081EC20F0D00FEF
:100408000101C86F26EF02F0D00E766E540E756E9D
:1004180048EF02F0340E766E140E756E48EF02F057
:100428001A0E766E0A0E756E48EF02F0060E766E9C
:10043800820E756E48EF02F0030E766E400E756EF2
:1004480048EF02F0C8510001CC6FCD6BCD51000AC6
:10045800D8B431EF02F00EEF02F0CC51000AD8B454
:1004680008EF02F0010AD8B40EEF02F0030AD8B47C
:1004780014EF02F0010AD8B41AEF02F0070AD8B450
:1004880020EF02F00EEF02F0060E01019E6F7E0EC5
:100498009F6F76CFA0F1A16B75CFA2F1A36B96ECFD
:1004A80020F0DFEF04F0000E0101B66F020EB56F09
:1004B80070516F252E6F2F0E9E6F7D0E9F6F96ECDD
:1004C80020F081EC20F00101C96F8FEF02F0B651E6
:1004D80009E11F0EB55DD8A074EF02F076EF02F0C7
:1004E80078EF02F098EF02F06F0EB525D96E010E85
:1004F800B621DA6EC9C1DFFFC9512E27B54BB62B1D
:10050800FC0E9E6F7F0E9F6FC9C1A0F1A16B96EC88
:1005180020F065EF02F00D0EC919D8A496EF02F08D
:1005280098EF02F06BEF02F06F0EB525D96E010E51
:10053800B621DA6E000EDF6EB54BB62B6F0EB52501
:10054800D96E010EB621DA6E2EC1DFFF5B0E9E6FEB
:100558007B0E9F6F710EA06F010EA16F2EC1A2F1CD
:10056800A36B6FC1A4F1A56B70C1A6F1A76B96EC44
:1005780020F0DFEF04F0D60E01019E6F7C0E9F6F16
:1005880096EC20F097EC13F001016F6F250E9E6F2B
:100598007E0E9F6F6FC1A0F1A16B96EC20F0DFEF8C
:1005A80004F0710E01019E6F7C0E9F6F96EC20F097
:1005B80097EC13F00101706FA00E9E6F7D0E9F6F78
:1005C80070C1A0F1A16B96EC20F0DFEF04F0010EF2
:1005D80001012D6F2D05D8B4F4EF02F0F6EF02F00B
:1005E800EEEF02F0FB0E9E6F7A0E9F6F710EA06FFA
:1005F800010EA16F2EC1A2F1A36B6FC1A4F1A56B6F
:1006080070C1A6F1A76B96EC20F0DFEF04F00101B2
:100618002A05D8A412EF03F014EF03F02FEF03F02C
:10062800890E9E6F7A0E9F6F510EA06F010EA16FFB
:100638002CC1A2F1A36B2BC1A4F1A56B4FC1A6F1EC
:10064800A76B50C1A8F1A96B96EC20F0000E010130
:100658002A6FDFEF04F0C60E9E6F7E0E9F6F96EC3A
:1006680020F0DFEF04F0AECFC9F1600E01019E6FFC
:100678007E0E9F6F96EC20F063EF03F02A05D8A456
:1006880048EF03F04AEF03F063EF03F0DC0E9E6FD0
:100698007E0E9F6F4FC1A0F1A16B50C1A2F1A36B59
:1006A8002CC1A4F1A56B2BC1A6F1A76B510EA86FA5
:1006B800010EA96F96EC20F0000E01012A6FAE50D2
:1006C8000101C919D8B46BEF03F06DEF03F042EFE5
:1006D80003F0DFEF04F0000E0101B66F000EB56FF6
:1006E8009DEF03F0C60E9E6F7F0E9F6FB5C1A0F100
:1006F800B6C1A1F16F0EB525D96E010EB621DA6E1D
:10070800DF500001CC6FCC510101A26FA36B6F0EBB
:10071800B525D96E010EB621DA6EDF500001CD6F16
:10072800CD510101A46FA56B96EC20F00101B54BEA
:10073800B62B6F0EB525D96E010EB621DA6EDF50D5
:10074800D8A4A9EF03F0ABEF03F076EF03F0C60EE1
:100758009E6F7F0E9F6FB5C1A0F1B6C1A1F16F0E5C
:10076800B525D96E010EB621DA6EDF500001CC6FC7
:10077800CC510101A26FA36B6F0EB525D96E010E86
:10078800B621DA6EDF500001CD6FCD510101A46FA3
:10079800A56B96EC20F00101B54BB62BC60E9E6FEB
:1007A8007F0E9F6FB5C1A0F1B6C1A1F16F0EB5253F
:1007B800D96E010EB621DA6EDF500001CC6FCC5134
:1007C8000101A26FA36B6F0EB525D96E010EB6217C
:1007D800DA6EDF500001CD6FCD510101A46FA56B1A
:1007E80096EC20F0DFEF04F0000E0101B66F000E6A
:1007F800B56F26EF04F0C60E9E6F7F0E9F6FB5C1D2
:10080800A0F1B6C1A1F14F0EB525D96E010EB621E2
:10081800DA6EDF500001CC6FCC510101A26FA36BDF
:100828004F0EB525D96E010EB621DA6EDF500001E4
:10083800CD6FCD510101A46FA56B96EC20F001019D
:10084800B54BB62B4F0EB525D96E010EB621DA6E13
:10085800DF50D8A432EF04F034EF04F0FFEF03F0D8
:10086800C60E9E6F7F0E9F6FB5C1A0F1B6C1A1F1F4
:100878004F0EB525D96E010EB621DA6EDF50000194
:10088800CC6FCC510101A26FA36B4F0EB525D96E69
:10089800010EB621DA6EDF500001CD6FCD51010196
:1008A800A46FA56B96EC20F00101B54BB62BC60ED4
:1008B8009E6F7F0E9F6FB5C1A0F1B6C1A1F14F0E1B
:1008C800B525D96E010EB621DA6EDF500001CC6F66
:1008D800CC510101A26FA36B4F0EB525D96E010E45
:1008E800B621DA6EDF500001CD6FCD510101A46F42
:1008F800A56B96EC20F0DFEF04F071987188F20E8A
:1009080001019E6F7E0E9F6F96EC20F0DFEF04F0E2
:100918002F0E01019E6F7F0E9F6FB4C1A0F1A16BD6
:1009280096EC20F0DFEF04F00101B4510001CC6F28
:10093800CD6BCD51000AD8B4A4EF04F08CEF04F0CD
:10094800CC513F0AD8B411EF01F0720AD8B437EF8E
:1009580003F01F0AD8B40BEF03F0010AD8B4EBEF89
:1009680002F00B0AD8B4F8EF03F0020AD8B496EFF5
:1009780001F0380AD8B4CDEF01F0060AD8B4D5EFA3
:1009880002F0090AD8B457EF02F0020AD8B48DEF82
:1009980001F01D0AD8B481EF04F0010AD8B4BFEF02
:1009A80002F00B0AD8B46FEF03F0020AD8B4B2EF22
:1009B80001F08CEF04F0F30E01019E6F7F0E9F6F24
:1009C80096EC20F0F8EF00F08CEF00F0BAC0D9FFF9
:1009D800BBC0DAFFDECFF6FFDDCFF7FF0800F5502A
:1009E800250AD8A4FAEF04F0FCEF04F06BEF07F047
:1009F800BAC0D9FFBBC0DAFFDE2A000EDD22000E26
:100A08000001CF6F000ECE6FCEC0D4F0D069D1698F
:100A1800000E0101916F000E906F3FEF05F0D48337
:100A2800BAC0D9FFBBC0DAFFDE2A000EDD223FEFD5
:100A380005F0000E0101916F010E906F3FEF05F078
:100A4800BAC0D9FFBBC0DAFFDECFF6FFDDCFF7FFB4
:100A58000800F5500001BE6FBF6BBF51000AD8B443
:100A680038EF05F01DEF05F0BE51300AD8B413EF8A
:100A780005F01DEF05F0010190519111D8B447EF31
:100A880005F049EF05F024EF05F0BAC0D9FFBBC067
:100A9800DAFFDECFF6FFDDCFF7FF0800F5502A0AB0
:100AA800D8A459EF05F05BEF05F085EF05F0BAC063
:100AB800D9FFBBC0DAFFDE2A000EDD22BCC0D9FF99
:100AC800BDC0DAFFDFCFBEF0020EDE26DFCFBFF0FB
:100AD800000EDD22BEC0D9FFBFC0DAFFDECFCEF0E8
:100AE800DDCFCFF00001CFBF7EEF05F07CEF05F042
:100AF800B9EF05F0D481CE6DCF1FD8B0CF2BB9EFA9
:100B080005F0BAC0D9FFBBC0DAFFDECF7EF0DDCF7B
:100B18007FF0B8EC15F07EC0CEF07FC0CFF09CEF30
:100B280005F0BAC0D9FFBBC0DAFFDE2A000EDD220D
:100B3800BAC0D9FFBBC0DAFFDECFF6FFDDCFF7FFC3
:100B48000800F5CFBEF0D00E0001BE25BF6FC06B08
:100B5800FF0EC023C05109E10A0EBF5DD8A0B7EF50
:100B680005F0B9EF05F095EF05F0BAC0D9FFBBC0A5
:100B7800DAFFDECFF6FFDDCFF7FF0800F550630A96
:100B8800D8A4C9EF05F0CBEF05F0EFEF05F0BAC038
:100B9800D9FFBBC0DAFFDE2A000EDD22BCC0D9FFB8
:100BA800BDC0DAFFDFCFBEF0020EDE26DFCFBFF01A
:100BB800000EDD22BEC0D9FFBFC0DAFFDF50010141
:100BC8008F6FB8C083F0B9C084F08FC185F0C2ECD4
:100BD8001AF080EF07F0BAC0D9FFBBC0DAFFDECF4A
:100BE8009CF1DDCF9DF19CC1F6FF9DC1F7FF080088
:100BF800F550640AD8B403EF06F005EF06F013EFDA
:100C080006F09CC1F6FF9DC1F7FF0800F550690A80
:100C1800D8A411EF06F013EF06F05AEF06F0BCC0A7
:100C2800D9FFBDC0DAFFDFCFBEF0020EDE26DFCF70
:100C3800BFF0000EDD22BEC0D9FFBFC0DAFFDECF95
:100C480094F1DDCF95F10101000E95BFFF0E966F6F
:100C5800976F986F996F9A6F9B6F010E9C25000193
:100C6800BE6F000E01019D210001BF6FBAC0D9FF00
:100C7800BBC0DAFFBEC0DEFFBFC0DDFFB8C095F065
:100C8800B9C096F094C197F095C198F096C199F0C3
:100C980097C19AF098C19BF099C19CF09AC19DF0B8
:100CA8009BC19EF007EC0AF080EF07F09CC1F6FFAD
:100CB8009DC1F7FF0800F550780AD8B466EF06F032
:100CC80068EF06F076EF06F09CC1F6FF9DC1F7FFCE
:100CD8000800F550750AD8A474EF06F076EF06F010
:100CE800F2EF06F0BCC0D9FFBDC0DAFFDFCFBEF01F
:100CF800020EDE26DFCFBFF0000EDD22BEC0D9FF18
:100D0800BFC0DAFFDECFC0F0DDCFC1F0C0C094F1C4
:100D1800C1C095F10101966B976B986B996B9A6BB3
:100D28009B6B010E9C250001BE6F000E01019D21E9
:100D38000001BF6FBAC0D9FFBBC0DAFFBEC0DEFF7B
:100D4800BFC0DDFFD8EF06F0B8C095F0B9C096F087
:100D580094C197F095C198F096C199F097C19AF00F
:100D680098C19BF099C19CF09AC19DF09BC19EF0DF
:100D7800C0EC0CF080EF07F0B8C095F0B9C096F061
:100D880094C197F095C198F096C199F097C19AF0DF
:100D980098C19BF099C19CF09AC19DF09BC19EF0AF
:100DA800BDEC0EF080EF07F09CC1F6FF9DC1F7FF88
:100DB8000800F550BE6FBF6BBF51000AD8B4E7EF0B
:100DC80006F0F2EF06F0BE51750AD8B4A8EF06F0A7
:100DD8000D0AD8B4C0EF06F0F2EF06F0BAC0D9FF9A
:100DE800BBC0DAFFDECFF6FFDDCFF7FF0800F55016
:100DF800730AD8B402EF07F004EF07F020EF07F00A
:100E0800BAC0D9FFBBC0DAFFDECF78F0DDCF79F00A
:100E1800F80E7A6F7F0E7B6F000E7D6F030E7C6F6E
:100E280012EC19F0000178517911D8A41EEF07F0DF
:100E380020EF07F062EF07F0BAC0D9FFBBC0DAFFB6
:100E4800DECFF6FFDDCFF7FF0800F550730AD8B400
:100E580030EF07F032EF07F039EF07F0000E01012D
:100E6800936F030E926F3EEF07F0000E0101936F30
:100E7800010E926FBAC0D9FFBBC0DAFF9251DE26CD
:100E88009351DD22B8C083F0B9C084F0BCC0D9FF4B
:100E9800BDC0DAFFDFCFBEF0020EDE26DFCFBFF027
:100EA800000EDD22BEC0D9FFBFC0DAFFDECF85F05D
:100EB800DDCF86F016EC12F080EF07F0BAC0D9FF4C
:100EC800BBC0DAFFDE2A000EDD2280EF07F0BAC0D1
:100ED800D9FFBBC0DAFFDECFF6FFDDCFF7FF080092
:100EE800F55000017A6F7B6BB8C07CF0B9C07DF01B
:100EF80005EC1DF062EF07F0120043C0D9FF44C0B3
:100F0800DAFFDECFF6FFDDCFF7FF0800F550250A40
:100F1800D8A491EF07F093EF07F0F2EF09F043C080
:100F2800D9FF44C0DAFFDE2A000EDD22000E0001E0
:100F3800CF6F000ECE6FCEC0D4F0D069D169000E4D
:100F48004C6E000E4B6ED4EF07F00001D48343C003
:100F5800D9FF44C0DAFFDE2A000EDD22D4EF07F005
:100F6800000E4C6E010E4B6ED4EF07F043C0D9FF54
:100F780044C0DAFFDECFF6FFDDCFF7FF0800F550FB
:100F8800476E486A4850000AD8B4CDEF07F0B4EF6E
:100F980007F04750300AD8B4A9EF07F0B4EF07F0CC
:100FA8004B504C10D8B4DBEF07F0DDEF07F0BAEF89
:100FB80007F043C0D9FF44C0DAFFDECFF6FFDDCF2C
:100FC800F7FF0800F5502A0AD8A4EDEF07F0EFEF75
:100FD80007F019EF08F043C0D9FF44C0DAFFDE2A52
:100FE800000EDD2245C0D9FF46C0DAFFDFCF47F04B
:100FF800020EDE26DFCF48F0000EDD2247C0D9FF03
:1010080048C0DAFFDECFCEF0DDCFCFF00001CFBF92
:1010180012EF08F010EF08F04CEF08F0D481CE6D15
:10102800CF1FD8B0CF2B4CEF08F043C0D9FF44C036
:10103800DAFFDECF07F0DDCF08F05FEC16F007C06F
:10104800CEF008C0CFF030EF08F043C0D9FF44C05D
:10105800DAFFDE2A000EDD2243C0D9FF44C0DAFFE2
:10106800DECFF6FFDDCFF7FF0800F5CF47F0D00E53
:101078004724486E496AFF0E4922495009E10A0E81
:10108800485CD8A04AEF08F04CEF08F029EF08F0C8
:1010980043C0D9FF44C0DAFFDECFF6FFDDCFF7FF4C
:1010A8000800F550630AD8A45CEF08F05EEF08F07A
:1010B80081EF08F043C0D9FF44C0DAFFDE2A000EF2
:1010C800DD2245C0D9FF46C0DAFFDFCF47F0020E68
:1010D800DE26DFCF48F0000EDD2247C0D9FF48C02A
:1010E800DAFFDF504F6E41C00CF042C00DF04FC028
:1010F8000EF029EC1BF006EF0AF043C0D9FF44C0FC
:10110800DAFFDECF58F0DDCF59F058C0F6FF59C0EE
:10111800F7FF0800F550640AD8B495EF08F097EF88
:1011280008F0A5EF08F058C0F6FF59C0F7FF08000F
:10113800F550690AD8A4A3EF08F0A5EF08F0E8EF86
:1011480008F045C0D9FF46C0DAFFDFCF47F0020EEE
:10115800DE26DFCF48F0000EDD2247C0D9FF48C0A9
:10116800DAFFDECF50F0DDCF51F0000E51BEFF0E9A
:10117800526E536E546E556E566E576E010E58244D
:10118800476E000E5920486E43C0D9FF44C0DAFFAD
:1011980047C0DEFF48C0DDFF41C01EF042C01FF05F
:1011A80050C020F051C021F052C022F053C023F0AB
:1011B80054C024F055C025F056C026F057C027F07B
:1011C80064EC0BF006EF0AF058C0F6FF59C0F7FFC1
:1011D8000800F550780AD8B4F4EF08F0F6EF08F0F4
:1011E80004EF09F058C0F6FF59C0F7FF0800F550A2
:1011F800750AD8A402EF09F004EF09F07CEF09F0B2
:1012080045C0D9FF46C0DAFFDFCF47F0020EDE2621
:10121800DFCF48F0000EDD2247C0D9FF48C0DAFF13
:10122800DECF49F0DDCF4AF049C050F04AC051F056
:10123800526A536A546A556A566A576A010E5824A4
:10124800476E000E5920486E43C0D9FF44C0DAFFEC
:1012580047C0DEFF48C0DDFF62EF09F041C01EF065
:1012680042C01FF050C020F051C021F052C022F0FF
:1012780053C023F054C024F055C025F056C026F0C2
:1012880057C027F0BFEC0DF006EF0AF041C01EF082
:1012980042C01FF050C020F051C021F052C022F0CF
:1012A80053C023F054C024F055C025F056C026F092
:1012B80057C027F0A5EC0FF006EF0AF058C0F6FF6C
:1012C80059C0F7FF0800F550476E486A4850000AB1
:1012D800D8B471EF09F07CEF09F04750750AD8B41B
:1012E80032EF09F00D0AD8B44AEF09F07CEF09F0A3
:1012F80043C0D9FF44C0DAFFDECFF6FFDDCFF7FFEA
:101308000800F550730AD8B48CEF09F08EEF09F095
:10131800A9EF09F043C0D9FF44C0DAFFDECF01F0DE
:10132800DDCF02F0F80E036E7F0E046E000E066E1F
:10133800030E056E82EC19F001500210D8A4A7EF35
:1013480009F0A9EF09F0E9EF09F043C0D9FF44C05B
:10135800DAFFDECFF6FFDDCFF7FF0800F550730A9E
:10136800D8B4B9EF09F0BBEF09F0C1EF09F0000EEE
:101378004E6E030E4D6EC5EF09F0000E4E6E010E57
:101388004D6E43C0D9FF44C0DAFF4D50DE264E50A3
:10139800DD2241C00CF042C00DF045C0D9FF46C067
:1013A800DAFFDFCF47F0020EDE26DFCF48F0000E6F
:1013B800DD2247C0D9FF48C0DAFFDECF0EF0DDCF0F
:1013C8000FF0D8EC12F006EF0AF043C0D9FF44C082
:1013D800DAFFDE2A000EDD2206EF0AF043C0D9FF4D
:1013E80044C0DAFFDECFF6FFDDCFF7FF0800F55087
:1013F800036E046A41C005F042C006F051EC1DF0CE
:10140800E9EF09F0120097C0ADF098C0AEF099C0AE
:10141800AFF09AC0B0F09BC0B1F09CC0B2F09DC0D4
:10142800B3F09EC0B4F00001B4BF1DEF0AF020EF86
:101438000AF0010E21EF0AF0000EB56FB551D8B4CD
:1014480028EF0AF02AEF0AF03AEF0AF0B41FB31FA8
:10145800B21FB11FB01FAF1FAE1FAD6D000EAE2380
:10146800AF23B023B123B223B323B423D1BF3FEFBB
:101478000AF041EF0AF042EF0AF0D493D1BF4FEFE0
:101488000AF0D15106E1D005D8B04DEF0AF04FEF80
:101498000AF055EF0AF0000EAA6F010EA96F59EF76
:1014A8000AF0D0C0A9F0D1C0AAF0CEC0ABF0CFC02E
:1014B800ACF0B551D8B463EF0AF065EF0AF07CEFF1
:1014C8000AF0AB07D8A0AC07B551D8A46EEF0AF064
:1014D80070EF0AF076EF0AF0000EA86F2B0EA76FD8
:1014E8007AEF0AF0000EA86F2D0EA76FA7C0B5F00F
:1014F800000EB76F1F0EB66F000E01014E6F02EFA0
:101508000BF0B607D8A0B7072F0EB625D96E010E77
:10151800B721DA6EADC078F0AEC079F0AFC07AF01E
:10152800B0C07BF0B1C07CF0B2C07DF0B3C07EF03B
:10153800B4C07FF00A0E806F000E816F000E826FBC
:10154800000E836F000E846F000E856F000E866F8D
:10155800000E876F53EC14F078C09FF079C0A0F0AC
:101568007AC0A1F07BC0A2F07CC0A3F07DC0A4F03B
:101578007EC0A5F07FC0A6F09FC08AF0A0C08BF007
:101588000CEC1FF000018A51300FDF6EA907D8A0BC
:10159800AA07AB07D8A0AC07ADC078F0AEC079F009
:1015A800AFC07AF0B0C07BF0B1C07CF0B2C07DF0C3
:1015B800B3C07EF0B4C07FF00A0E806F000E816F5A
:1015C800000E826F000E836F000E846F000E856F11
:1015D800000E866F000E876F8DEC10F078C0ADF0AE
:1015E80079C0AEF07AC0AFF07BC0B0F07CC0B1F08B
:1015F8007DC0B2F07EC0B3F07FC0B4F00001B7BFC9
:101608000EEF0BF0B75108E1B605D8A00EEF0BF0BE
:1016180010EF0BF040EF0BF0AD51AE11AF11B01160
:10162800B111B211B311B411D8A41DEF0BF01FEF13
:101638000BF085EF0AF0AABF2CEF0BF0AA5106E1D8
:10164800A905D8B02AEF0BF02CEF0BF085EF0AF0C4
:10165800ACBF37EF0BF0AC5108E1AB05D8A037EFC2
:101668000BF039EF0BF040EF0BF0D4B33EEF0BF07B
:1016780040EF0BF085EF0AF0B551D8B446EF0BF008
:1016880048EF0BF053EF0BF0B607D8A0B7072F0EB3
:10169800B625D96E010EB721DA6EB5C0DFFF95C049
:1016A8008AF096C08BF02F0EB6258C6F010EB721ED
:1016B8008D6FABC08EF0ACC08FF056EC1CF01200F2
:1016C80020C036F021C037F022C038F023C039F0EE
:1016D80024C03AF025C03BF026C03CF027C03DF0BE
:1016E8003DBE79EF0BF07CEF0BF0010E7DEF0BF0B8
:1016F800000E406E4050D8B484EF0BF086EF0BF02C
:1017080096EF0BF03D1E3C1E3B1E3A1E391E381E3E
:10171800371E366C000E3722382239223A223B22F5
:101728003C223D220001D1BF9CEF0BF09EEF0BF055
:101738009FEF0BF0D493D1BFACEF0BF0D15106E182
:10174800D005D8B0AAEF0BF0ACEF0BF0B2EF0BF06E
:10175800000E336E010E326EB6EF0BF0D0C032F0D1
:10176800D1C033F0CEC034F0CFC035F04050D8B43B
:10177800C0EF0BF0C2EF0BF0D9EF0BF03406D8A096
:1017880035064050D8A4CBEF0BF0CDEF0BF0D3EFDC
:101798000BF0000E316E2B0E306ED7EF0BF0000EF3
:1017A800316E2D0E306E30C040F0000E3F6E1F0EB1
:1017B8003E6E000E01014E6F5EEF0CF03E06D8A0A3
:1017C8003F062F0E3E24D96E010E3F20DA6E36C03A
:1017D80001F037C002F038C003F039C004F03AC055
:1017E80005F03BC006F03CC007F03DC008F00A0E0B
:1017F800096E000E0A6E000E0B6E000E0C6E000EC7
:101808000D6E000E0E6E000E0F6E000E106E06ECC2
:1018180015F001C028F002C029F003C02AF004C066
:101828002BF005C02CF006C02DF007C02EF008C024
:101838002FF028C013F029C014F04EEC1FF01350FD
:10184800300FDF6E3206D8A033063406D8A035062E
:1018580036C001F037C002F038C003F039C004F0D8
:101868003AC005F03BC006F03CC007F03DC008F0A8
:101878000A0E096E000E0A6E000E0B6E000E0C6E3C
:10188800000E0D6E000E0E6E000E0F6E000E106E26
:1018980052EC11F001C036F002C037F003C038F046
:1018A80004C039F005C03AF006C03BF007C03CF070
:1018B80008C03DF03FBE69EF0CF03F5008E13E0420
:1018C800D8A069EF0CF06BEF0CF09CEF0CF03650E1
:1018D8003710381039103A103B103C103D10D8A47E
:1018E80078EF0CF07AEF0CF0E2EF0BF033BE87EFF5
:1018F8000CF0335006E13204D8B085EF0CF087EFD6
:101908000CF0E2EF0BF035BE92EF0CF0355008E129
:101918003404D8A092EF0CF094EF0CF09CEF0CF08C
:101928000001D4B39AEF0CF09CEF0CF0E2EF0BF04F
:101938004050D8B4A2EF0CF0A4EF0CF0AFEF0CF0CD
:101948003E06D8A03F062F0E3E24D96E010E3F203A
:10195800DA6E40C0DFFF1EC013F01FC014F02F0E58
:101968003E24156E010E3F20166E34C017F035C0A8
:1019780018F0AEEC1CF012000001D1BFC6EF0CF05D
:10198800C8EF0CF0C9EF0CF0D493D1BFD6EF0CF030
:10199800D15106E1D005D8B0D4EF0CF0D6EF0CF059
:1019A800DCEF0CF0000EA86F010EA76FE0EF0CF053
:1019B800D0C0A7F0D1C0A8F0CEC0A9F0CFC0AAF07F
:1019C80097C0ABF098C0ACF099C0ADF09AC0AEF03B
:1019D8009BC0AFF09CC0B0F09DC0B1F09EC0B2F00B
:1019E800000EB46F1F0EB36F000E01014E6F74EF3F
:1019F8000DF0B307D8A0B4072F0EB325D96E010E8A
:101A0800B421DA6EABC078F0ACC079F0ADC07AF032
:101A1800AEC07BF0AFC07CF0B0C07DF0B1C07EF04E
:101A2800B2C07FF00A0E806F000E816F000E826FC9
:101A3800000E836F000E846F000E856F000E866F98
:101A4800000E876FF1EC19F078C09FF079C0A0F014
:101A58007AC0A1F07BC0A2F07CC0A3F07DC0A4F046
:101A68007EC0A5F07FC0A6F000019F51300FDF6E49
:101A7800A707D8A0A807A907D8A0AA07ABC078F0DD
:101A8800ACC079F0ADC07AF0AEC07BF0AFC07CF0EE
:101A9800B0C07DF0B1C07EF0B2C07FF00A0E806F9A
:101AA800000E816F000E826F000E836F000E846F30
:101AB800000E856F000E866F000E876F21EC18F000
:101AC80078C0ABF079C0ACF07AC0ADF07BC0AEF0B6
:101AD8007CC0AFF07DC0B0F07EC0B1F07FC0B2F086
:101AE8000001B351B411D8B47CEF0DF07EEF0DF0C6
:101AF800AEEF0DF0AB51AC11AD11AE11AF11B0118D
:101B0800B111B211D8A48BEF0DF08DEF0DF0FDEFF0
:101B18000CF0A8BF9AEF0DF0A85106E1A705D8B0C0
:101B280098EF0DF09AEF0DF0FDEF0CF0AABFA5EFBE
:101B38000DF0AA5108E1A905D8A0A5EF0DF0A7EF6F
:101B48000DF0AEEF0DF0D4B3ACEF0DF0AEEF0DF03D
:101B5800FDEF0CF095C08AF096C08BF02F0EB325E0
:101B68008C6F010EB4218D6FA9C08EF0AAC08FF0C2
:101B780056EC1CF012000001D1BFC5EF0DF0C7EF05
:101B88000DF0C8EF0DF0D493D1BFD5EF0DF0D151C2
:101B980006E1D005D8B0D3EF0DF0D5EF0DF0DBEFAF
:101BA8000DF0000E316E010E306EDFEF0DF0D0C07B
:101BB80030F0D1C031F0CEC032F0CFC033F020C009
:101BC80034F021C035F022C036F023C037F024C0ED
:101BD80038F025C039F026C03AF027C03BF0000E97
:101BE8003D6E1F0E3C6E000E01014E6F72EF0EF03F
:101BF8003C06D8A03D062F0E3C24D96E010E3D2090
:101C0800DA6E34C001F035C002F036C003F037C0D8
:101C180004F038C005F039C006F03AC007F03BC000
:101C280008F00A0E096E000E0A6E000E0B6E000E0A
:101C38000C6E000E0D6E000E0E6E000E0F6E000E76
:101C4800106E5AEC1AF001C028F002C029F003C047
:101C58002AF004C02BF005C02CF006C02DF007C0F8
:101C68002EF008C02FF02850300FDF6E3006D8A0B5
:101C780031063206D8A0330634C001F035C002F070
:101C880036C003F037C004F038C005F039C006F09C
:101C98003AC007F03BC008F00A0E096E000E0A6E43
:101CA800000E0B6E000E0C6E000E0D6E000E0E6E0A
:101CB800000E0F6E000E106E9AEC18F001C034F092
:101CC80002C035F003C036F004C037F005C038F064
:101CD80006C039F007C03AF008C03BF03C503D1050
:101CE800D8B479EF0EF07BEF0EF0ACEF0EF0345075
:101CF800351036103710381039103A103B10D8A468
:101D080088EF0EF08AEF0EF0FCEF0DF031BE97EF82
:101D18000EF0315006E13004D8B095EF0EF097EF91
:101D28000EF0FCEF0DF033BEA2EF0EF0335008E1D9
:101D38003204D8A0A2EF0EF0A4EF0EF0ACEF0EF034
:101D48000001D4B3AAEF0EF0ACEF0EF0FCEF0DF0EB
:101D58001EC013F01FC014F02F0E3C24156E010E88
:101D68003D20166E32C017F033C018F0AEEC1CF0F0
:101D780012000001D1BFC3EF0EF0C5EF0EF0C6EFA1
:101D88000EF0D493D1BFD3EF0EF0D15106E1D005B8
:101D9800D8B0D1EF0EF0D3EF0EF0D9EF0EF0000E61
:101DA800AA6F010EA96FDDEF0EF0D0C0A9F0D1C067
:101DB800AAF0CEC0ABF0CFC0ACF097C0ADF098C0E1
:101DC800AEF099C0AFF09AC0B0F09BC0B1F09CC023
:101DD800B2F09DC0B3F09EC0B4F0000EB66F1F0EF7
:101DE800B56F000E01014E6F55EF0FF0B507D8A083
:101DF800B607AD510F0BB76F090EB76506EF0FF0B9
:101E080008EF0FF010EF0FF0570EB725A76FA86B6C
:101E1800000EA82316EF0FF0300EB725A76FA86B9A
:101E2800000EA823A7C0B7F02F0EB525D96E010E56
:101E3800B621DA6EB7C0DFFFA907D8A0AA07AB079B
:101E4800D8A0AC07ADC09FF0AEC0A0F0AFC0A1F065
:101E5800B0C0A2F0B1C0A3F0B2C0A4F0B3C0A5F066
:101E6800B4C0A6F0050E42EF0FF0D890A633A53304
:101E7800A433A333A233A133A0339F33E82E39EF21
:101E88000FF09FC0ADF0A0C0AEF0A1C0AFF0A2C0EF
:101E9800B0F0A3C0B1F0A4C0B2F0A5C0B3F0A6C022
:101EA800B4F00001B6BF62EF0FF0B65109E1020EBF
:101EB800B55DD8A062EF0FF064EF0FF094EF0FF06C
:101EC800AD51AE11AF11B011B111B211B311B411BE
:101ED800D8A471EF0FF073EF0FF0FAEF0EF0AABF6E
:101EE80080EF0FF0AA5106E1A905D8B07EEF0FF0F8
:101EF80080EF0FF0FAEF0EF0ACBF8BEF0FF0AC51A4
:101F080008E1AB05D8A08BEF0FF08DEF0FF094EF41
:101F18000FF0D4B392EF0FF094EF0FF0FAEF0EF04A
:101F280095C08AF096C08BF02F0EB5258C6F010EE8
:101F3800B6218D6FABC08EF0ACC08FF056EC1CF0A4
:101F480012000001D1BFABEF0FF0ADEF0FF0AEEF15
:101F58000FF0D493D1BFBBEF0FF0D15106E1D005FC
:101F6800D8B0B9EF0FF0BBEF0FF0C1EF0FF0000ED4
:101F7800336E010E326EC5EF0FF0D0C032F0D1C013
:101F880033F0CEC034F0CFC035F020C036F021C0D9
:101F980037F022C038F023C039F024C03AF025C009
:101FA8003BF026C03CF027C03DF0000E3F6E1F0EF0
:101FB8003E6E000E01014E6F3DEF10F03E06D8A0B8
:101FC8003F0636500F0B406E090E4064EEEF0FF0DF
:101FD800F0EF0FF0F8EF0FF0570E4024306E316A33
:101FE800000E3122FEEF0FF0300E4024306E316AC1
:101FF800000E312230C040F02F0E3E24D96E010E63
:102008003F20DA6E40C0DFFF3206D8A03306340620
:10201800D8A0350636C028F037C029F038C02AF0D5
:1020280039C02BF03AC02CF03BC02DF03CC02EF04C
:102038003DC02FF0050E2AEF10F0D8902F322E3227
:102048002D322C322B322A3229322832E82E21EF37
:1020580010F028C036F029C037F02AC038F02BC05D
:1020680039F02CC03AF02DC03BF02EC03CF02FC008
:102078003DF03FBE49EF10F03F5009E1020E3E5CD3
:10208800D8A049EF10F04BEF10F07CEF10F036506D
:102098003710381039103A103B103C103D10D8A4B6
:1020A80058EF10F05AEF10F0E2EF0FF033BE67EF81
:1020B80010F0335006E13204D8B065EF10F067EF46
:1020C80010F0E2EF0FF035BE72EF10F0355008E176
:1020D8003404D8A072EF10F074EF10F07CEF10F019
:1020E8000001D4B37AEF10F07CEF10F0E2EF0FF0BC
:1020F8001EC013F01FC014F02F0E3E24156E010EE3
:102108003F20166E34C017F035C018F0AEEC1CF046
:102118001200000E0001896F87BF97EF10F095EF4E
:1021280010F0A9EF10F0871F861F851F841F831FDB
:10213800821F811F806D000E8123822383238423C5
:10214800852386238723010E896F7FBFB0EF10F0A8
:10215800AEEF10F0C2EF10F07F1F7E1F7D1F7C1FB7
:102168007B1F7A1F791F786D000E79237A237B23D2
:102178007C237D237E237F23010E891B20EE8AF09A
:10218800070EDE6AE806FDE2805181118211831193
:102198008411851186118711D8B4D5EF10F0D7EFC7
:1021A80010F029EF11F0010E886FE5EF10F0D890CC
:1021B8008037813782378337843785378637873743
:1021C800882B87AFEAEF10F0ECEF10F0DBEF10F0A0
:1021D800D8908A378B378C378D378E378F37903733
:1021E80091378051785D8151795982517A5983515B
:1021F8007B5984517C5985517D5986517E59875127
:102208007F59D8A00AEF11F00CEF11F01DEF11F073
:102218008051785F8151795B82517A5B83517B5B16
:1022280084517C5B85517D5B86517E5B87517F5BEA
:102238008A81D890873386338533843383338233D6
:1022480081338033882FECEF10F08951D8B42FEF09
:1022580011F031EF11F041EF11F0911F901F8F1F16
:102268008E1F8D1F8C1F8B1F8A6D000E8B238C2356
:102278008D238E238F23902391238AC078F08BC0DF
:1022880079F08CC07AF08DC07BF08EC07CF08FC066
:102298007DF090C07EF091C07FF01200000E126EAB
:1022A80010BE5BEF11F059EF11F06DEF11F0101E39
:1022B8000F1E0E1E0D1E0C1E0B1E0A1E096C000E94
:1022C8000A220B220C220D220E220F221022010EAE
:1022D800126E08BE74EF11F072EF11F086EF11F074
:1022E800081E071E061E051E041E031E021E016C84
:1022F800000E0222032204220522062207220822B7
:10230800010E121A20EE13F0070EDE6AE806FDE24F
:1023180009500A100B100C100D100E100F10101091
:10232800D8B499EF11F09BEF11F0EDEF11F0010E19
:10233800116EA9EF11F0D89009360A360B360C3613
:102348000D360E360F361036112A10AEAEEF11F0DC
:10235800B0EF11F09FEF11F0D89013361436153600
:1023680016361736183619361A360950015C0A50CF
:1023780002580B5003580C5004580D5005580E5075
:1023880006580F50075810500858D8A0CEEF11F033
:10239800D0EF11F0E1EF11F00950015E0A50025A36
:1023A8000B50035A0C50045A0D50055A0E50065A39
:1023B8000F50075A1050085A1380D89010320F3215
:1023C8000E320D320C320B320A320932112EB0EFB6
:1023D80011F01250D8B4F3EF11F0F5EF11F005EF4A
:1023E80012F01A1E191E181E171E161E151E141E70
:1023F800136C000E142215221622172218221922F5
:102408001A2213C001F014C002F015C003F016C060
:1024180004F017C005F018C006F019C007F01AC07C
:1024280008F0120021EEC1F010EE88F0060EDBCFA6
:10243800E3FFE806FCE285C093F086C094F0000153
:1024480093519411D8A42BEF12F02DEF12F031EF25
:1024580012F0880E936F000E946F93C078F094C0BA
:1024680079F08DEC1FF078C097F079C098F0D0C063
:1024780095F0D1C096F0000196BF45EF12F047EFF6
:1024880012F05CEF12F09751955D9651800A876FB4
:102498009851800A8759D8A054EF12F056EF12F0DD
:1024A80058EF12F05CEF12F095C097F096C098F0D4
:1024B80097C095F098C096F0CEC091F0CFC092F03A
:1024C800D4B169EF12F06BEF12F089EF12F07AEFE6
:1024D80012F0000E7B6F200E7A6F83C07CF084C0F0
:1024E8007DF005EC1DF00001974B982B9151975DFD
:1024F8009851800A876F9251800A8759D8A087EF30
:1025080012F089EF12F06DEF12F0000E906F000ECE
:102518008F6FA3EF12F093C0D9FF94C0DAFFDF509A
:10252800876F87517A6F7B6B83C07CF084C07DF0A6
:1025380005EC1DF00001934B942B8F4B902B95517C
:102548008F5D9051800A876F9651800A8759D8A06D
:10255800B0EF12F0B2EF12F08FEF12F0D4A1B7EF94
:1025680012F0B9EF12F0D7EF12F0C8EF12F0000E28
:102578007B6F200E7A6F83C07CF084C07DF005EC01
:102588001DF00001974B982B9151975D9851800A47
:10259800876F9251800A8759D8A0D5EF12F0D7EFEC
:1025A80012F0BBEF12F0120021EEC1F010EE11F0A4
:1025B800060EDBCFE3FFE806FCE20EC01CF00FC0FE
:1025C8001DF01C501D10D8A4ECEF12F0EEEF12F025
:1025D800F2EF12F0110E1C6E000E1D6E1CC001F001
:1025E8001DC002F0C6EC1FF001C020F002C021F0AF
:1025F800D0C01EF0D1C01FF01FBE05EF13F007EFCB
:1026080013F01CEF13F020501E5C1F50800A106E50
:102618002150800A1058D8A014EF13F016EF13F0C9
:1026280018EF13F01CEF13F01EC020F01FC021F0AC
:1026380020C01EF021C01FF0CEC01AF0CFC01BF082
:102648000001D4B12AEF13F02CEF13F049EF13F087
:102658003AEF13F0000E046E200E036E0CC005F066
:102668000DC006F051EC1DF0204A212A1A50205CBA
:102678002150800A106E1B50800A1058D8A047EFCE
:1026880013F049EF13F02EEF13F0000E196E000E41
:10269800186E62EF13F01CC0D9FF1DC0DAFFDF50BF
:1026A800106E1050036E046A0CC005F00DC006F0E1
:1026B80051EC1DF01C4A1D2A184A192A1E50185C94
:1026C8001950800A106E1F50800A1058D8A06FEF5A
:1026D80013F071EF13F04FEF13F00001D4A177EF6F
:1026E80013F079EF13F096EF13F087EF13F0000E65
:1026F800046E200E036E0CC005F00DC006F051EC00
:102708001DF0204A212A1A50205C2150800A106EA0
:102718001B50800A1058D8A094EF13F096EF13F0CE
:102728007BEF13F01200000E0101B36FAF69000ECA
:10273800B26F000EB06F48EF14F081EC20F0010189
:10274800B26F7F0EB219D8A4ACEF13F0AEEF13F04E
:10275800D9EF13F0FC0E9E6F7F0E9F6FB2C1A0F1F0
:10276800A16B96EC20F00101B351D8B4BEEF13F081
:10277800C0EF13F0CEEF13F0B3C178F00001796B1E
:10278800000E7B6F0A0E7A6FF3EC1BF00001785194
:102798000101B36FB051D8B4D4EF13F0D6EF13F0F2
:1027A80048EF14F0B00748EF14F0B251D00FB16FF2
:1027B8000A0EB161E2EF13F0E4EF13F048EF14F002
:1027C800B3510A0DF3CFAAF1F4CFABF1B151AA2757
:1027D800000EAB23AF51AC6FAD6BAA51AC5DAD51E0
:1027E800800AAE6FAB51800AAE59D8B0FEEF13F035
:1027F80000EF14F002EF14F048EF14F0B351D8A42E
:1028080008EF14F00AEF14F01CEF14F0B151D8A43B
:1028180010EF14F012EF14F01CEF14F0B051D8B40C
:1028280018EF14F01AEF14F01CEF14F048EF14F03E
:10283800B351D8A422EF14F024EF14F036EF14F0BB
:10284800B051D8B42AEF14F02CEF14F036EF14F08E
:10285800FC0E9E6F7F0E9F6F000EA16F7F0EA06F04
:1028680096EC20F0FC0E01019E6F7F0E9F6FB2C1A7
:10287800A0F1A16B96EC20F00A0E0101B303F3500E
:10288800B36FB151B327B02B0D0EB219D8A44FEFC7
:1028980014F051EF14F0A1EF13F0B3511200000E31
:1028A8000001896F7FBF5DEF14F05BEF14F06FEFED
:1028B80014F07F1F7E1F7D1F7C1F7B1F7A1F791FCF
:1028C800786D000E79237A237B237C237D237E2356
:1028D8007F23010E896F87BF76EF14F074EF14F031
:1028E80086EF14F0871F861F851F841F831F821F92
:1028F800811F806D000E81238223832384238523F7
:1029080086238723805181118211831184118511B7
:1029180086118711D8B493EF14F095EF14F0DDEF1A
:1029280014F0010E886FA3EF14F0D8908037813728
:10293800823783378437853786378737882B87AF41
:10294800A8EF14F0AAEF14F099EF14F08051785D15
:102958008151795982517A5983517B5984517C59D3
:1029680085517D5986517E5987517F59D8A0BFEF2F
:1029780014F0C1EF14F0D1EF14F08051785F815159
:10298800795B82517A5B83517B5B84517C5B855197
:102998007D5B86517E5B87517F5BD890873386331A
:1029A800853384338333823381338033882FAAEF8E
:1029B80014F08951D8B4E3EF14F0E5EF14F0F5EF13
:1029C80014F07F1F7E1F7D1F7C1F7B1F7A1F791FBE
:1029D800786D000E79237A237B237C237D237E2345
:1029E8007F2378C078F079C079F07AC07AF07BC01C
:1029F8007BF07CC07CF07DC07DF07EC07EF07FC027
:102A08007FF01200000E126E08BE0FEF15F00DEFEA
:102A180015F021EF15F0081E071E061E051E041EE0
:102A2800031E021E016C000E02220322042205224C
:102A3800062207220822010E126E10BE28EF15F09A
:102A480026EF15F038EF15F0101E0F1E0E1E0D1E86
:102A58000C1E0B1E0A1E096C000E0A220B220C22E9
:102A68000D220E220F22102209500A100B100C10F2
:102A78000D100E100F101010D8B445EF15F047EFD9
:102A880015F08FEF15F0010E116E55EF15F0D89077
:102A980009360A360B360C360D360E360F3610361A
:102AA800112A10AE5AEF15F05CEF15F04BEF15F048
:102AB8000950015C0A5002580B5003580C50045836
:102AC8000D5005580E5006580F500758105008580A
:102AD800D8A071EF15F073EF15F083EF15F00950DA
:102AE800015E0A50025A0B50035A0C50045A0D50FA
:102AF800055A0E50065A0F50075A1050085AD890C7
:102B080010320F320E320D320C320B320A320932C9
:102B1800112E5CEF15F01250D8B495EF15F097EF21
:102B280015F0A7EF15F0081E071E061E051E041E49
:102B3800031E021E016C000E02220322042205223B
:102B480006220722082201C001F002C002F003C0D9
:102B580003F004C004F005C005F006C006F007C085
:102B680007F008C008F01200000E0001866F000E82
:102B7800856F000E846F000E836FC5EF15F07E4BD6
:102B88007F2B7EC0F6FF7FC0F7FF0800F550200AB4
:102B9800D8B4D1EF15F0D3EF15F0C3EF15F07EC020
:102BA800F6FF7FC0F7FF0800F5CF80F0F70E80250D
:102BB800816F826BFF0E8223825109E1050E815DD0
:102BC800D8A0E9EF15F0EBEF15F0C3EF15F0F5EF2E
:102BD80015F0000E846F010E836F7E4B7F2B2BEF59
:102BE80016F07EC0F6FF7FC0F7FF0800F550806F33
:102BF800816B8151000AD8B404EF16F02BEF16F060
:102C080080512B0AD8B4F1EF15F0060AD8B4EDEFCD
:102C180015F02BEF16F085C078F086C079F0000E1D
:102C28007B6F0A0E7A6FAAEC20F07EC0F6FF7FC099
:102C3800F7FF0800F5500001785F000E795B300E51
:102C48007825856F000E7921866FF1EF15F07EC02B
:102C5800F6FF7FC0F7FF0800F5CF80F0D00E802583
:102C6800816F826BFF0E8223825109E10A0E815D1A
:102C7800D8A041EF16F043EF16F00FEF16F083518E
:102C88008411D8A44AEF16F04CEF16F05AEF16F05C
:102C980085C080F086C081F0801F811F804B812B0A
:102CA80080C07EF081C07FF05EEF16F085C07EF0B8
:102CB80086C07FF01200000E0F6E000E0E6E000E22
:102CC8000D6E000E0C6E6BEF16F0074A082A07C04F
:102CD800F6FF08C0F7FF0800F550200AD8B477EFD0
:102CE80016F079EF16F069EF16F007C0F6FF08C086
:102CF800F7FF0800F5CF09F0F70E09240A6E0B6AF2
:102D0800FF0E0B220B5009E1050E0A5CD8A08FEFCD
:102D180016F091EF16F069EF16F09BEF16F0000E23
:102D28000D6E010E0C6E074A082AD0EF16F007C088
:102D3800F6FF08C0F7FF0800F550096E0A6A0A5046
:102D4800000AD8B4AAEF16F0D0EF16F009502B0AF3
:102D5800D8B497EF16F0060AD8B493EF16F0D0EF70
:102D680016F00EC001F00FC002F0000E046E0A0E3D
:102D7800036EE6EC20F007C0F6FF08C0F7FF080076
:102D8800F550015E000E025A300E01240E6E000E40
:102D980002200F6E97EF16F007C0F6FF08C0F7FF86
:102DA8000800F5CF09F0D00E09240A6E0B6AFF0E51
:102DB8000B220B5009E10A0E0A5CD8A0E6EF16F0C8
:102DC800E8EF16F0B5EF16F00C500D10D8A4EFEFA1
:102DD80016F0F1EF16F0FFEF16F00EC009F00FC075
:102DE8000AF0091E0A1E094A0A2A09C007F00AC081
:102DF80008F003EF17F00EC007F00FC008F012003C
:102E080001012D05D8A40BEF17F00DEF17F08EEF89
:102E180017F074EF17F0010EE56F000E026E190E31
:102E2800016EFAEC1FF0010E0001D76F8EEF17F05C
:102E38006F0ED825D96EDA6A010EDA22DF50E51551
:102E48000009D8B42AEF17F02CEF17F034EF17F079
:102E5800000E026E000E016EFAEC1FF03AEF17F04A
:102E6800000E026E190E016EFAEC1FF00001E5511A
:102E7800E525E56FE551D8A444EF17F046EF17F0C4
:102E88008EEF17F0020ED76F8EEF17F0000E026E5E
:102E9800000E016EFAEC1FF06E0E0001D825D96EF7
:102EA800DA6A010EDA22DF50D8A45DEF17F05FEF7F
:102EB80017F06EEF17F0D851D8B465EF17F067EF39
:102EC80017F06EEF17F0000ED86F000E01012D6F8E
:102ED8006FEF17F0D82B000E0001D76F8EEF17F0A9
:102EE8000001D751056E066A0650000AD8B47FEF74
:102EF80017F08EEF17F00550000AD8B40FEF17F04F
:102F0800010AD8B41CEF17F0030AD8B44AEF17F037
:102F18008EEF17F00101C851020DB70EF324D96ED8
:102F2800010EF420DA6EDECF05F0DDCF06F0055095
:102F38000008016E0650D8A0E82A0008026ED2ECFC
:102F480020F09E90120074CF5EF001012A51D8A49F
:102F5800B0EF17F0B2EF17F020EF18F00AEF18F003
:102F6800500E666F7F0E676F5EC068F0696BBEECCF
:102F780020F04F0E0001D625D96EDA6A010EDA224A
:102F88005EC0DFFFD651D8A4CCEF17F0CEEF17F014
:102F9800D2EF17F05EC02CF1D5EF17F05E500101AB
:102FA8002C270001D62B5E50D8B4DDEF17F0DFEFE9
:102FB80017F0E8EF17F01F0ED619D8A4E6EF17F0B0
:102FC800E8EF17F020EF18F0010ED56F20EF18F09A
:102FD800600E666F7F0E676F5EC068F0696BBEEC4F
:102FE80020F04F0E0001D625D96EDA6A010EDA22DA
:102FF8005EC0DFFF5EC02BF1000ED66F010E01012F
:103008002A6F000E0001D56F20EF18F00001D5518E
:103018006A6F6B6B6B51000AD8B415EF18F020EF8C
:1030280018F06A51000AD8B4B4EF17F0010AD8B4FE
:10303800ECEF17F020EF18F0120020EE88F0070EE2
:10304800DE6AE806FDE200018051811182118311D8
:103058008411851186118711D8B435EF18F037EF30
:1030680018F089EF18F0010E906F45EF18F0D8901E
:103078008037813782378337843785378637873774
:10308800902B87AF4AEF18F04CEF18F03BEF18F091
:10309800D890883789378A378B378C378D378E3772
:1030A8008F378051785D8151795982517A5983518E
:1030B8007B5984517C5985517D5986517E59875158
:1030C8007F59D8A06AEF18F06CEF18F07DEF18F070
:1030D8008051785F8151795B82517A5B83517B5B48
:1030E80084517C5B85517D5B86517E5B87517F5B1C
:1030F8008881D8908733863385338433833382330A
:1031080081338033902F4CEF18F088C078F089C055
:1031180079F08AC07AF08BC07BF08CC07CF08DC0CF
:103128007DF08EC07EF08FC07FF0120020EE11F08F
:10313800070EDE6AE806FDE209500A100B100C10B3
:103148000D100E100F101010D8B4ADEF18F0AFEF2F
:1031580018F001EF19F0010E196EBDEF18F0D890B4
:1031680009360A360B360C360D360E360F36103643
:10317800192A10AEC2EF18F0C4EF18F0B3EF18F028
:10318800D8901136123613361436153616361736C9
:1031980018360950015C0A5002580B5003580C505D
:1031A80004580D5005580E5006580F500758105027
:1031B8000858D8A0E2EF18F0E4EF18F0F5EF18F08F
:1031C8000950015E0A50025A0B50035A0C50045A17
:1031D8000D50055A0E50065A0F50075A1050085AEB
:1031E8001180D89010320F320E320D320C320B3261
:1031F8000A320932192EC4EF18F011C001F012C0BA
:1032080002F013C003F014C004F015C005F016C096
:1032180006F017C007F018C008F0120078C07FF059
:1032280079C080F07AC081F07BC082F000017C0711
:10323800D8A07D077C2906E17D29D8A426EF19F0BE
:1032480028EF19F035EF19F0000E796F000E786F3E
:1032580081EF19F07F4B802B814B822B7C07D8A004
:103268007D077FC0F6FF80C0F7FF0800F550000912
:10327800D8B441EF19F043EF19F06FEF19F081C09E
:10328800F6FF82C0F7FF0800F5500009D8B44FEFE9
:1032980019F051EF19F06FEF19F07C517D11D8B486
:1032A80058EF19F05AEF19F06FEF19F07FC0F6FFD9
:1032B80080C0F7FF0800F5CF7EF081C0F6FF82C01E
:1032C800F7FF0800F5507E19D8B46DEF19F06FEFCD
:1032D80019F02EEF19F07FC0F6FF80C0F7FF080045
:1032E800F5CF7EF081C0F6FF82C0F7FF0800F550E9
:1032F8007E5D786F796BD8A07907120001C008F05D
:1033080002C009F003C00AF004C00BF00506D8A0FB
:103318000606052806E10628D8A495EF19F097EFC8
:1033280019F0A4EF19F0000E026E000E016EF0EF16
:1033380019F0084A092A0A4A0B2A0506D8A00606DF
:1033480008C0F6FF09C0F7FF0800F5500009D8B417
:10335800B0EF19F0B2EF19F0DEEF19F00AC0F6FF7E
:103368000BC0F7FF0800F5500009D8B4BEEF19F0FC
:10337800C0EF19F0DEEF19F005500610D8B4C7EF0A
:1033880019F0C9EF19F0DEEF19F008C0F6FF09C00F
:10339800F7FF0800F5CF07F00AC0F6FF0BC0F7FFEC
:1033A8000800F5500718D8B4DCEF19F0DEEF19F073
:1033B8009DEF19F008C0F6FF09C0F7FF0800F5CF28
:1033C80007F00AC0F6FF0BC0F7FF0800F550075CCE
:1033D800016E026AD8A00206120000018051811114
:1033E800821183118411851186118711D8B4FFEFDA
:1033F80019F001EF1AF049EF1AF0010E886F0FEF7C
:103408001AF0D890803781378237833784378537E9
:1034180086378737882B87AF14EF1AF016EF1AF024
:1034280005EF1AF08051785D8151795982517A59A6
:1034380083517B5984517C5985517D5986517E59D8
:1034480087517F59D8A02BEF1AF02DEF1AF03DEFD6
:103458001AF08051785F8151795B82517A5B835190
:103468007B5B84517C5B85517D5B86517E5B87519C
:103478007F5BD890873386338533843383338233B5
:1034880081338033882F16EF1AF078C078F079C02E
:1034980079F07AC07AF07BC07BF07CC07CF07DC08C
:1034A8007DF07EC07EF07FC07FF0120009500A10C8
:1034B8000B100C100D100E100F101010D8B467EF71
:1034C8001AF069EF1AF0B1EF1AF0010E116E77EFEA
:1034D8001AF0D89009360A360B360C360D360E36E9
:1034E8000F361036112A10AE7CEF1AF07EEF1AF064
:1034F8006DEF1AF00950015C0A5002580B5003583E
:103508000C5004580D5005580E5006580F500758C7
:1035180010500858D8A093EF1AF095EF1AF0A5EFBD
:103528001AF00950015E0A50025A0B50035A0C5007
:10353800045A0D50055A0E50065A0F50075A10508B
:10354800085AD89010320F320E320D320C320B322C
:103558000A320932112E7EEF1AF001C001F002C0C2
:1035680002F003C003F004C004F005C005F006C073
:1035780006F007C007F008C008F012000001CE519D
:10358800CF11D8A4CAEF1AF0CCEF1AF0D2EF1AF084
:10359800CEC089F0CFC08AF0D8EF1AF0FF0ECE2542
:1035A800896FFF0ECF218A6FD4A1DDEF1AF0DFEF0C
:1035B8001AF0E8EF1AF085C07AF07B6B83C07CF0D4
:1035C80084C07DF005EC1DF000018ABFEEEF1AF013
:1035D800F0EF1AF0F2EF1AF0F6EF1AF0000E8A6F19
:1035E800000E896F000E886F000E876F09EF1BF0C1
:1035F800000E7B6F200E7A6F83C07CF084C07DF054
:1036080005EC1DF00001874B882B8951875D885197
:10361800800A866F8A51800A8659D8A016EF1BF057
:1036280018EF1BF0FCEF1AF0D4B11DEF1BF01FEFE1
:103638001BF028EF1BF085C07AF07B6B83C07CF011
:1036480084C07DF005EC1DF012000001CE51CF11B1
:10365800D8A431EF1BF033EF1BF039EF1BF0CEC0CD
:1036680012F0CFC013F03FEF1BF0FF0ECE25126E05
:10367800FF0ECF21136ED4A144EF1BF046EF1BF0D1
:103688004FEF1BF00EC003F0046A0CC005F00DC02C
:1036980006F051EC1DF013BE54EF1BF056EF1BF073
:1036A80058EF1BF05CEF1BF0000E136E000E126E4D
:1036B800000E116E000E106E6EEF1BF0000E046E01
:1036C800200E036E0CC005F00DC006F051EC1DF085
:1036D800104A112A1250105C1150800A0F6E1350B4
:1036E800800A0F58D8A07BEF1BF07DEF1BF062EF2C
:1036F8001BF00001D4B183EF1BF085EF1BF08EEFB8
:103708001BF00EC003F0046A0CC005F00DC006F0F3
:1037180051EC1DF01200000E0001E125D96EDA6AA5
:10372800010EDA22000EDF6E71A49DEF1BF09FEFF1
:103738001BF0B4EF1BF0000EE125D96EDA6A010E1A
:10374800DA220101DF8202D8B4EF1BF00500FA6E1D
:103758002451FD6E2551FE6EF850FF6EFA5012008E
:1037680071A2B9EF1BF0BBEF1BF0D1EF1BF0000EFD
:103778000001E125D96EDA6A010EDA220101DF843F
:1037880002D8D1EF1BF00500FA6E2251FD6E2351CD
:10379800FE6EF850FF6EFA501200000E0001E1258F
:1037A800D96EDA6A010EDA22DF50D8B4DEEF1BF0E8
:1037B800E0EF1BF0F0EF1BF002D8EEEF1BF0050076
:1037C8000101FA6E2051FD6E2151FE6EF850FF6E18
:1037D800FA501200F2EF1BF06BEC20F01200000E12
:1037E80000017D6F7BBFFDEF1BF0FBEF1BF003EFCC
:1037F8001CF07A6D7B1FD8B07B2B010E7D6F79BFD3
:103808000AEF1CF008EF1CF010EF1CF0786D791F20
:10381800D8B0792B010E7D1B000E7F6F000E7E6FD6
:103828007A517B11D8B41BEF1CF01DEF1CF045EF4B
:103838001CF0010E7C6F25EF1CF0D8907A377B378F
:103848007C2B7BAF2AEF1CF02CEF1CF021EF1CF037
:10385800D8907E377F377A51785D7B517959D8A0D7
:1038680038EF1CF03AEF1CF03FEF1CF07A51785F0C
:103878007B51795B7E81D8907B337A337C2F2CEF18
:103888001CF07D51D8B44BEF1CF04DEF1CF051EFFC
:103898001CF07E6D7F1FD8B07F2B7EC078F07FC074
:1038A80079F012000001D4A15CEF1CF05EEF1CF06F
:1038B80068EF1CF08CC083F08DC084F08AC085F05E
:1038C8008BC086F07FEC1EF000018FBF6EEF1CF0FE
:1038D80070EF1CF076EF1CF08EC093F08FC094F060
:1038E8007AEF1CF0000E946F000E936F000E926F2B
:1038F800000E916F8DEF1CF0000E7B6F200E7A6F1B
:103908008AC07CF08BC07DF005EC1DF00001914B66
:10391800922B9351915D9251800A906F9451800A35
:103928009059D8A09AEF1CF09CEF1CF080EF1CF087
:10393800D4B1A1EF1CF0A3EF1CF0ADEF1CF08CC0CC
:1039480083F08DC084F08AC085F08BC086F07FEC50
:103958001EF012000001D4A1B4EF1CF0B6EF1CF069
:10396800C0EF1CF015C00CF016C00DF013C00EF01F
:1039780014C00FF0EAEC1EF018BEC5EF1CF0C7EF3C
:103988001CF0CDEF1CF017C01CF018C01DF0D1EFD3
:103998001CF0000E1D6E000E1C6E000E1B6E000E3D
:1039A8001A6EE3EF1CF0000E046E200E036E13C0B7
:1039B80005F014C006F051EC1DF01A4A1B2A1C50E1
:1039C8001A5C1B50800A196E1D50800A1958D8A01D
:1039D800F0EF1CF0F2EF1CF0D7EF1CF00001D4B1AF
:1039E800F8EF1CF0FAEF1CF004EF1DF015C00CF016
:1039F80016C00DF013C00EF014C00FF0EAEC1EF064
:103A0800120000017C517D11D8B40DEF1DF00FEFAD
:103A18001DF018EF1DF07C517D11D8A416EF1DF094
:103A280018EF1DF01DEF1DF07A5167EC21F050EFF3
:103A38001DF020EE09F07C51D9267D51DA22DE50A6
:103A4800DE10D8B42AEF1DF02CEF1DF047EF1DF063
:103A580020EE09F07C51D9267D51DA2210EE03F0D0
:103A68007C51E1267D51E222DE50E65CE650800A78
:103A7800826FDE50800A8259D8B045EF1DF047EFBB
:103A88001DF050EF1DF020EE03F07C51D9267D513A
:103A9800DA22DE2A000EDD22120005500610D8B404
:103AA80058EF1DF05AEF1DF063EF1DF0055006109A
:103AB800D8A461EF1DF063EF1DF068EF1DF003500F
:103AC8009BEC21F09BEF1DF020EE09F00550D92664
:103AD8000650DA22DE50DE10D8B475EF1DF077EF0D
:103AE8001DF092EF1DF020EE09F00550D926065082
:103AF800DA2210EE03F00550E1260650E222DE50ED
:103B0800E65CE650800A0B6EDE50800A0B58D8B08F
:103B180090EF1DF092EF1DF09BEF1DF020EE03F0EB
:103B28000550D9260650DA22DE2A000EDD221200C0
:103B3800A39A1E0E0001786F370E796F78EC21F08A
:103B4800A3985A0E0001786F3E0E796F73EC21F03E
:103B5800080E706E900E716E240E726E0A0E756EDF
:103B68001A0E766E540E0001786F430E796F82EC50
:103B780021F0400E0001786F430E796F7DEC21F043
:103B8800460E0001786F430E796F87EC21F0000E26
:103B98000001DE6F000EE46F000EE36F080EE26FA7
:103BA800000EE16F000EE06F000EDF6FA38A1200B7
:103BB800AA0EF66E420EF76E000EF86E01EEB7F022
:103BC80010EE13F00900F5CFEEFFE550E150FAE1F1
:103BD800560EF66E430EF76E000EF86E0900F5CF1E
:103BE800E5F001EE00F08F0EEE6AE806FDE100EE6A
:103BF800CEF0170EEE6AE806FDE15F905F92000EC8
:103C0800F86E00018EEF00F0C4C0C8F0C5C0C9F05E
:103C18001DEF1EF0C2C0B8F0C3C0B9F0C80E000155
:103C2800BA6F000EBB6FC6C0BCF0C7C0BDF0EAECEF
:103C380004F0C8C0F6FFC9C0F7FF0800F550000936
:103C4800D8A429EF1EF02BEF1EF00EEF1EF0000E89
:103C58000001C36F000EC26F120062C05AF063C049
:103C68005BF045EF1EF060C041F061C042F05A0EB3
:103C7800436E000E446E64C045F065C046F081ECAA
:103C880007F05AC0F6FF5BC0F7FF0800F5500009BF
:103C9800D8A451EF1EF053EF1EF037EF1EF0000EC0
:103CA8000001616F000E606F12000001DF51D8B48F
:103CB80060EF1EF062EF1EF059EF1EF0000EE025D7
:103CC800D96EDA6A010EDA22DF50DE6F080EE025BF
:103CD800D96EDA6A010EDA22E02B070EE06577EF7B
:103CE8001EF079EF1EF07BEF1EF0000EE06FA39A36
:103CF800DF07A38A1200000E0001896F000E886F8B
:103D080092EF1EF087C07AF07B6B85C07CF086C08E
:103D18007DF005EC1DF00001884B892B8851832527
:103D2800D96E89518421DA6EDF50876F8751D8A404
:103D3800A0EF1EF0A2EF1EF086EF1EF01200010E9B
:103D480000017C6F200E78197911D8B4AEEF1EF0FF
:103D5800B0EF1EF0C3EF1EF0F70E78257A6FFF0E56
:103D680079217B6F7B5109E1050E7A5DD8A0BFEF01
:103D78001EF0C1EF1EF0C3EF1EF0000E7C6F7CC07A
:103D880078F0796B1200080EB86E900EAB6E240EA8
:103D9800AC6E820EAF6E060EB06E000E0001786F2C
:103DA800000E796F91EC21F0000E0001786F000E83
:103DB800796F8CEC21F0000E0001786F000E796F9E
:103DC80096EC21F0000E0001DD6F1200000E126E5D
:103DD800000E116EFBEF1EF010C003F0046A0EC057
:103DE80005F00FC006F051EC1DF0114A122A1150CF
:103DF8000C24D96E12500D20DA6EDF50106E105060
:103E0800D8A409EF1FF00BEF1FF0F0EF1EF012001F
:103E180000018BBF1AEF1FF08B5106E18A05D8B05D
:103E280018EF1FF01AEF1FF028EF1FF08AC08CF070
:103E38008BC08DF08C1F8D1F8C4B8D2B8CC08AF006
:103E48008DC08BF02CEF1FF08AC08AF08BC08BF0EE
:103E58001200080E0001E26134EF1FF036EF1FF088
:103E68004CEF1FF0100EE325D96EDA6A010EDA2244
:103E7800DF50736EE32B070EE36545EF1FF047EF46
:103E88001FF049EF1FF0000EE36FE22B4DEF1FF01C
:103E9800A398120014BE5BEF1FF0145006E1130440
:103EA800D8B059EF1FF05BEF1FF069EF1FF013C098
:103EB80015F014C016F0151E161E154A162A15C040
:103EC80013F016C014F06DEF1FF013C013F014C0F8
:103ED80014F012009E90D2C001F0D3C002F0D2ECD0
:103EE80020F0010118511911D8B47DEF1FF07FEFB0
:103EF8001FF08CEF1FF002D88CEF1FF00500FA6E50
:103F08001851FD6E1951FE6EF850FF6EFA501200EE
:103F1800120078C07AF079C07BF096EF1FF00001AC
:103F2800784B792B78C0D9FF79C0DAFFDF50D8A455
:103F3800A0EF1FF0A2EF1FF093EF1FF000017A51DE
:103F4800785D786F7B517959796F1200200E0118CE
:103F58000210D8B4B2EF1FF0B4EF1FF0C5EF1FF096
:103F6800F70E0124036EFF0E0220046E045009E1CF
:103F7800050E035CD8A0C3EF1FF0C5EF1FF0C5EF17
:103F88001FF0120001C003F002C004F0CEEF1FF0D2
:103F9800014A022A01C0D9FF02C0DAFFDF50D8A4C3
:103FA800D8EF1FF0DAEF1FF0CCEF1FF00350015CE1
:103FB800016E04500258026E120078C07AF079C07F
:103FC8007BF00001D8907B337A33D8907B337A33F7
:103FD8007A51676E78C07AF0030E7A177A3BF00E42
:103FE8007A176650CF0B7A11666E120001C003F083
:103FF80002C004F0D89004320332D890043203325D
:104008000350676E01C003F0030E0316033AF00E67
:1040180003166650CF0B0310666E1200D00E000117
:1040280078257A6FFF0E79217B6F7B510AE10A0EA2
:104038007A5DD8A022EF20F025EF20F0010E26EFC0
:1040480020F0000E786F796B1200CDA42EEF20F0CF
:1040580030EF20F039EF20F0CD9000017951CF6E8C
:1040680078C0CEFFCD803EEF20F000017951CF6EB1
:1040780078C0CEFF1200000ECC6E000ECF6E000E80
:10408800CE6ECECFD2F0CFCFD3F09E909D80520E81
:104098000001786F430E796F6EEC21F0010ECD6E42
:1040A8001200000E896E000E8A6E000E8B6E9268EA
:1040B800BF0E936EBD0E946E3C0E0F013A6F3F0E0D
:1040C800396F2F0E386F000E616EF18E1200080ED8
:1040D8000001E125D96EDA6A010EDA2274CFDFFF1A
:1040E800E12B070EE1657BEF20F07DEF20F07FEFFD
:1040F80020F0000EE16FDF2B12009EAA86EF20F061
:1041080088EF20F081EF20F0000E0001DD6FABA2F8
:1041180090EF20F092EF20F094EF20F0AB98AB886E
:10412800AE501200A00E0001CA6F010ECB6F000E38
:10413800C26F000EC36F9EC1C4F09FC1C5F0CA0E06
:10414800C66F000EC76F08EC1EF012000001785110
:104158007A03F3CF7CF0F4CF7DF078517B03F350F2
:104168007D2779517A03F3507D277CC078F07DC094
:1041780079F01200680E5C6E000E5D6E000E000194
:10418800606F000E616F66C062F067C063F05C0E1E
:10419800646F000E656F31EC1EF01200CDA4D7EFEE
:1041A80020F0D9EF20F0E1EF20F0CD900250CF6E53
:1041B80001C0CEFFCD80E5EF20F00250CF6E01C0E8
:1041C800CEFF120001500302F3CF05F0F4CF06F042
:1041D80001500402F350062602500302F35006264B
:1041E80005C001F006C002F01200A6EC21F055EC63
:1041F80020F01AEC21F00AEC21F05FEC21F03FEC02
:1042080020F0C7EC1EF09CEC1DF012001C0E666E30
:10421800000E646E800E656E010E636E000E686E91
:10422800340E676EE70E0F0149171200700ED36E39
:10423800040ED26E400E9B6ED2AE25EF21F027EF12
:1042480021F020EF21F012000001786F9EA82FEFD7
:1042580021F031EF21F02AEF21F078C0ADFF1200F4
:104268000001DF51D8A43BEF21F03EEF21F0010E11
:104278003FEF21F0000E1200016E9EA846EF21F0DC
:1042880048EF21F041EF21F001C0ADFF12009EBAC6
:1042980050EF21F053EF21F0010E54EF21F0000E02
:1042A800120055D015340A1A82064103286E756C1F
:0542B8006C290002303A
:1042BE00680EBB6E000EBC6E9E92050EBA6E12009C
:1042CE000001796F0001795128EC21F0120078C0BD
:1042DE0018F179C019F1120078C028F179C029F1CE
:1042EE00120078C026F179C027F1120078C022F1B1
:1042FE0079C023F1120078C024F179C025F11200A3
:10430E0078C020F179C021F1120078C01CF179C07B
:10431E001DF1120078C01EF179C01FF1120078C095
:10432E001AF179C01BF11200026E025040EC21F01E
:10433E0012007198718812006BEC20F01200D09E62
:09434E001200120012001200011D
:107A88000052656365697665640A0D20206D65732B
:107A9800736167653A2025730A0D20206368656362
:107AA8006B73756D3A2061637475616C282575294F
:107AB8002C206578706563746564282575290A0D1E
:107AC8002020736F757263652061646472657373D7
:107AD8003A2025750A0D202064657374696E7461F7
:107AE80074696F6E20616464726573733A202575DA
:107AF8000A0D005472616E736D697474696E670A59
:107B08000D20206D6573736167653A2025730A0D32
:107B18002020636865636B73756D3A2025750A0DBF
:107B28002020736F75726365206164647265737376
:107B38003A2025750A0D202064657374696E746196
:107B480074696F6E20616464726573733A20257579
:107B58000A0D000A0D437265617465640A0D2020E0
:107B68006D6573736167653A2025730A0D2020637C
:107B78006865636B73756D3A2025750A0D2020734F
:107B88006F7572636520616464726573733A20254A
:107B9800750A0D202064657374696E746174696F69
:107BA8006E20616464726573733A2025750A0D004E
:107BB800496E7374616C6C2061206A756D706572B2
:107BC80020776972652066726F6D20524330207489
:107BD8006F20524237204F4E4C592041465445524F
:107BE80020756E706C756767696E67205049434BE6
:107BF8006974330D0A006D3A2063726561746520FB
:107C080061204E554C4C207465726D696E617465C7
:107C180064206D65737361676520776974682053A4
:107C2800524320616E642044455354207072656647
:107C380069780A0D002D2D2D2D2D2D2D2D2D2D2D55
:107C48002D2D2D2D2D2D2D2D2D2D2D2D2D2D2D2D5C
:107C58002D2D2D2D2D2D2D2D2D2D2D2D2D2D2D2D4C
:107C68002D2D2D2D2D2D0D0A00456E746572206465
:107C7800657374696E6174696F6E2061646472659E
:107C880073732C206869742072657475726E20771E
:107C980068656E20646F6E652E0A0D00523A205298
:107CA800656365697665206D6573736167652075C1
:107CB80073696E6720455553415254322076696185
:107CC800204952206465636F6465720A0D00456E31
:107CD80074657220736F7572636520616464726580
:107CE80073732C206869742072657475726E2077BE
:107CF80068656E20646F6E652E0A0D0043686F6FAD
:107D080073652074686520696E646578206F6620E5
:107D18007468652074617267657420626175642097
:107D2800726174650D0A00456E746572206D657325
:107D3800736167652C206869742072657475726E4A
:107D4800207768656E20646F6E652E0A0D00526597
:107D5800636569766520616E64206465636F646538
:107D680020616E2049522063686172616374657294
:107D78000D0A00643A207365742044657374696E53
:107D88006174696F6E207472616E736D69742074AA
:107D980061726765740A0D000A0D5365740A0D2037
:107DA8002064657374696E6174696F6E20616464C0
:107DB800726573733A2025750A0D00733A2073654E
:107DC8007420536F75726365207472616E736D6988
:107DD80074206964656E746974790A0D00533A20D9
:107DE80053656E64206D657373616765207573698B
:107DF8006E6720544D5231204953520A0D0042619A
:107E0800756420726174652061737369676E656457
:107E180020253032783A253032780D0A000A0D5381
:107E280065740A0D2020736F757263652061646440
:107E3800726573733A2025750A0D004D3A20204D5E
:107E48006F6E69746F7220616C6C20495220747275
:107E580061666669630A0D005352432044535420F7
:107E680053554D20434845434B204D4553534147B7
:107E7800450A0D00782F583A206465636F646520C1
:107E880074782F5258206D6573736167650A0D0009
:107E98007A3A20436C656172207468652074657253
:107EA8006D696E616C0D0A00446576273231204297
:107EB8006F61726420776972696E670D0A004E6F90
:107EC800206D6573736167652072656365697665A2
:107ED800640A0D002020257520257520257520258C
:107EE800752020202025730A0D004A7573742072AE
:107EF8006573657420455553415254320D0A005A32
:107F08003A2052657365742070726F636573736F7E
:107F1800720D0A00623A207365742042617564200C
:107F2800726174650A0D00556E6B6E6F776E206B0B
:107F380065792025630D0A00343A20313932303012
:107F480020626175640D0A003E3E205278446174D7
:107F5800613A2025630A0D003E3E2052784353754E
:107F68006D3A2025750A0D00313A20313230302023
:107F7800626175640D0A00323A2032343030206272
:107F88006175640D0A00333A203936303020626159
:107F980075640D0A003F3A2068656C70206D656E47
:107FA800750D0A00303A2033303020626175640D57
:107FB8000A003234303020426175640D0A0025759C
:107FC8003A2025782025630A0D005052323A2025A0
:107FD800640D0A004C616220370D0A006F3A096F80
:107FE8006B0D0A006F3A206B0D0A000A0D3E200047
:087FF8006C6C730025630000AE
:020000040020DA
:08000000FFFFFFFFFFFFFFFF00
:020000040030CA
:0E000000FF281F3CFFBF85FF0FC00FE00F4021
:00000001FF
