:040000007AEF00F0A3
:100008005F82FACF6CF0FBCF6DF0E1CF6EF0E2CFFC
:100018006FF0D9CF70F0DACF71F0F3CF72F0F4CF80
:1000280073F0F6CF74F0F7CF75F0F8CF76F0F5CF20
:1000380077F0F2AC22EF00F024EF00F060EF00F070
:10004800A3A829EF00F02BEF00F042EF00F0A4A8DE
:1000580030EF00F032EF00F042EF00F002D840EF4E
:1000680000F005000001FA6ED651FD6ED751FE6E04
:10007800F850FF6EFA50120060EF00F0A3AA47EFA5
:1000880000F049EF00F060EF00F0A4AA4EEF00F096
:1000980050EF00F060EF00F002D85EEF00F00500CE
:1000A8000001FA6ED451FD6ED551FE6EF850FF6E08
:1000B800FA50120060EF00F077C0F5FF76C0F8FF45
:1000C80075C0F7FF74C0F6FF73C0F4FF72C0F3FF8A
:1000D80071C0DAFF70C0D9FF6FC0E2FF6EC0E1FFE8
:1000E8006DC0FBFF6CC0FAFF5F921100D2EF15F0F4
:1000F800010E0101A86F21EEACF011EE9DF0090E82
:10010800DBCFE3FFE806FCE285EC17F0000E000108
:10011800796F000E786FAFEC16F0000E0001796F62
:10012800000E786FDFEC16F09E90E5EC17F00009F2
:10013800D8B4A1EF00F0A3EF00F099EF00F0CEECF7
:1001480017F00009D8B4ABEF00F0ADEF00F0AFEF57
:1001580000F064EC15F0CEEC17F00009D8B4B7EF56
:1001680000F0B9EF00F0BBEF00F064EC15F0A39AD3
:10017800760E0001786F1F0E796F16EC18F0A38ABF
:10018800F28CF28ED50E0101956F7F0E966F36ECCC
:1001980017F00C0E0101956F7E0E966F36EC17F076
:1001A800850E0101956F7E0E966F36EC17F0190ECD
:1001B8000101956F7C0E966F36EC17F0BB0E0101AE
:1001C800956F7D0E966F36EC17F0EE0E0101956F68
:1001D8007F0E966F36EC17F0EFEC17F00009D8B4E5
:1001E800F8EF00F0FAEF00F0F0EF00F021EC17F074
:1001F8000101A76F770E956F7F0E966FA7C197F1D4
:10020800986B36EC17F094EF03F0D70E0101956F59
:100218007C0E966F36EC17F048EF01F0CA0E01011C
:10022800956F7F0E966F36EC17F06BEF01F0A60E08
:100238000101956F7F0E966F36EC17F06BEF01F0AA
:10024800B20E0101956F7F0E966F36EC17F06BEFCB
:1002580001F0BE0E0101956F7F0E966F36EC17F018
:100268006BEF01F0990E0101956F7F0E966F36ECDA
:1002780017F06BEF01F0A60E0101956F7F0E966FD8
:1002880036EC17F06BEF01F00101A8510001CC6FBB
:10029800CD6BCD51000AD8B454EF01F03FEF01F017
:1002A800CC51000AD8B412EF01F0010AD8B41BEF00
:1002B80001F0030AD8B424EF01F0010AD8B42DEFF5
:1002C80001F0070AD8B436EF01F03FEF01F0D70E7E
:1002D8000101956F7C0E966F36EC17F04F0E0101F9
:1002E800956F7F0E966F36EC17F0E70E0101956F4C
:1002F8007F0E966F36EC17F0C60E0101956F7E0ED5
:10030800966F36EC17F06D0E0101956F7E0E966FA5
:1003180036EC17F00B0E0101956F7D0E966F36ECDB
:1003280017F0EE0E0101956F7E0E966F36EC17F002
:100338002E0E0101956F7E0E966F36EC17F09F0E0C
:100348000101956F7C0E966F36EC17F0DB0E0101FC
:10035800956F7E0E966F36EC17F0D70E0101956FEC
:100368007C0E966F36EC17F0C7EF03F0DF0E010135
:10037800956F7F0E966F36EC17F0C7EF03F0000EFF
:100388000101AB6F000EAA6F090E956F7D0E966F77
:1003980036EC17F00101AA4BAB2BAB5109E1280E43
:1003A800AA5DD8A0DAEF01F0DCEF01F0C8EF01F0A8
:1003B800FF00C7EF03F0000E0101AB6F000EAA6F3C
:1003C800090E956F7D0E966F36EC17F00101AA4B5A
:1003D800AB2BAB5109E1280EAA5DD8A0F6EF01F0CE
:1003E800F8EF01F0E4EF01F0C7EF03F0650E01014B
:1003F800956F7D0E966F36EC17F08B0E0101956F99
:100408007F0E966F36EC17F0220E0101956F7F0E66
:10041800966F36EC17F0310E0101956F7F0E966FCF
:1004280036EC17F0400E0101956F7F0E966F36EC93
:1004380017F0120E0101956F7F0E966F36EC17F0CC
:10044800EFEC17F00009D8A42CEF02F02EEF02F021
:1004580024EF02F021EC17F0D00F0101A86F53EF41
:1004680002F0D00E766E540E756E75EF02F0340EF3
:10047800766E140E756E75EF02F01A0E766E0A0E11
:10048800756E75EF02F0060E766E820E756E75EF5C
:1004980002F0030E766E400E756E75EF02F0A851ED
:1004A8000001CC6FCD6BCD51000AD8B45EEF02F0DD
:1004B8003BEF02F0CC51000AD8B435EF02F0010A44
:1004C800D8B43BEF02F0030AD8B441EF02F0010AB6
:1004D800D8B447EF02F0070AD8B44DEF02F03BEF6B
:1004E80002F04E0E0101956F7E0E966F76CF97F152
:1004F800986B75CF99F19A6B36EC17F0C7EF03F04C
:10050800000E0101AB6F000EAA6F000E236FE50EFF
:10051800956F7D0E966F36EC17F021EC17F0010100
:10052800A96FD1EF02F0080EA919D8A49EEF02F026
:10053800A0EF02F0ADEF02F0AA07D8A0AB07460E75
:10054800AA25D96E010EAB21DA6EDF50235FC6EF04
:1005580002F0AB5109E11F0EAA5DD8A0B6EF02F078
:10056800B8EF02F0BAEF02F0DAEF02F0460EAA2571
:10057800D96E010EAB21DA6EA9C1DFFFA95123277D
:10058800AA4BAB2BFC0E956F7F0E966FA9C197F106
:10059800986B36EC17F091EF02F00D0EA919D8A45C
:1005A800D8EF02F0DAEF02F097EF02F0460EAA2534
:1005B800D96E010EAB21DA6E000EDF6EAA4BAB2BA3
:1005C800460EAA25D96E010EAB21DA6E23C1DFFFD4
:1005D800900E956F7D0E966F460E976F010E986F71
:1005E80023C199F19A6B36EC17F0C7EF03F0000EB0
:1005F8000101AB6F000EAA6F1AEF03F0A851020DAC
:100608009D0EF324D96E010EF420DA6EDECF7CF055
:10061800DDCF7DF0460EAA25D96E010EAB21DA6E2C
:10062800DF50C7EC0EF00101AA4BAB2B460EAA25F2
:10063800D96E010EAB21DA6EDF50D8A426EF03F095
:1006480028EF03F002EF03F0A851020D9D0EF324EA
:10065800D96E010EF420DA6EDECF7CF0DDCF7DF0AE
:10066800000EC7EC0EF00101A851020D9D0EF324F7
:10067800D96E010EF420DA6EDECF7CF0DDCF7DF08E
:100688002351C7EC0EF0390E0101956F7D0E966F60
:10069800460E976F010E986F23C199F19A6B36EC4D
:1006A80017F0C7EF03F001012505D8A45EEF03F0AA
:1006B80060EF03F075EF03F05F0E956F7C0E966F99
:1006C800660E976F010E986F24C199F19A6B22C13B
:1006D8009BF19C6B36EC17F0000E0101256FC7EFFC
:1006E80003F09B0E956F7E0E966F36EC17F0C7EFF2
:1006F80003F071987188B10E0101956F7E0E966FA7
:1007080036EC17F0C7EF03F0010E0101956F7F0E6D
:10071800966FA7C197F1986B36EC17F0C7EF03F007
:100728000101A7510001CC6FCD6BCD51000AD8B49F
:10073800A0EF03F088EF03F0CC513F0AD8B409EFDB
:1007480001F06D0AD8B457EF03F0010AD8B4FBEFF3
:1007580002F0090AD8B4C3EF01F0380AD8B4FAEFA6
:1007680001F00F0AD8B484EF02F0020AD8B4BAEF45
:1007780001F01D0AD8B47DEF03F0080AD8B4DFEF02
:1007880001F088EF03F0F30E0101956F7F0E966F6D
:1007980036EC17F0F0EF00F07AEF00F0BAC0D9FFAE
:1007A800BBC0DAFFDECFF6FFDDCFF7FF0800F5505C
:1007B800250AD8A4E2EF03F0E4EF03F0F0EF05F028
:1007C800BAC0D9FFBBC0DAFFDE2A000EDD22000E58
:1007D8000001CF6F000ECE6FCEC0DAF0D069D169BC
:1007E800000E0101886F000E876F27EF04F0DA838F
:1007F800BAC0D9FFBBC0DAFFDE2A000EDD2227EF20
:1008080004F0000E0101886F010E876F27EF04F0D6
:10081800BAC0D9FFBBC0DAFFDECFF6FFDDCFF7FFE6
:100828000800F5500001BE6FBF6BBF51000AD8B475
:1008380020EF04F005EF04F0BE51300AD8B4FBEF06
:1008480003F005EF04F0010187518811D8B42FEFA8
:1008580004F031EF04F00CEF04F0BAC0D9FFBBC0CC
:10086800DAFFDECFF6FFDDCFF7FF0800F5502A0AE2
:10087800D8A441EF04F043EF04F06DEF04F0BAC0E0
:10088800D9FFBBC0DAFFDE2A000EDD22BCC0D9FFCB
:10089800BDC0DAFFDFCFBEF0020EDE26DFCFBFF02D
:1008A800000EDD22BEC0D9FFBFC0DAFFDECFCEF01A
:1008B800DDCFCFF00001CFBF66EF04F064EF04F0A6
:1008C800A1EF04F0DA81CE6DCF1FD8B0CF2BA1EF06
:1008D80004F0BAC0D9FFBBC0DAFFDECF7EF0DDCFAF
:1008E8007FF07BEC0DF07EC0CEF07FC0CFF084EFC0
:1008F80004F0BAC0D9FFBBC0DAFFDE2A000EDD2241
:10090800BAC0D9FFBBC0DAFFDECFF6FFDDCFF7FFF5
:100918000800F5CFBEF0D00E0001BE25BF6FC06B3A
:10092800FF0EC023C05109E10A0EBF5DD8A09FEF9A
:1009380004F0A1EF04F07DEF04F0BAC0D9FFBBC00A
:10094800DAFFDECFF6FFDDCFF7FF0800F550630AC8
:10095800D8A4B1EF04F0B3EF04F0D7EF04F0BAC0B5
:10096800D9FFBBC0DAFFDE2A000EDD22BCC0D9FFEA
:10097800BDC0DAFFDFCFBEF0020EDE26DFCFBFF04C
:10098800000EDD22BEC0D9FFBFC0DAFFDF50010173
:10099800866FB8C083F0B9C084F086C185F05BEC7F
:1009A80012F005EF06F0BAC0D9FFBBC0DAFFDECF00
:1009B80093F1DDCF94F193C1F6FF94C1F7FF0800DE
:1009C800F550780AD8B4EBEF04F0EDEF04F0FBEF44
:1009D80004F093C1F6FF94C1F7FF0800F550750ABB
:1009E800D8A4F9EF04F0FBEF04F077EF05F0BCC0F2
:1009F800D9FFBDC0DAFFDFCFBEF0020EDE26DFCFA3
:100A0800BFF0000EDD22BEC0D9FFBFC0DAFFDECFC7
:100A1800C0F0DDCFC1F0C0C08BF1C1C08CF10101C5
:100A28008D6B8E6B8F6B906B916B926B010E932518
:100A38000001BE6F000E010194210001BF6FBAC012
:100A4800D9FFBBC0DAFFBEC0DEFFBFC0DDFF5DEF70
:100A580005F0B8C095F0B9C096F08BC197F08CC17D
:100A680098F08DC199F08EC19AF08FC19BF090C11A
:100A78009CF091C19DF092C19EF02DEC08F005EF1D
:100A880006F0B8C095F0B9C096F08BC197F08CC14C
:100A980098F08DC199F08EC19AF08FC19BF090C1EA
:100AA8009CF091C19DF092C19EF02AEC0AF005EFEE
:100AB80006F093C1F6FF94C1F7FF0800F550BE6F2A
:100AC800BF6BBF51000AD8B46CEF05F077EF05F0A3
:100AD800BE51750AD8B42DEF05F00D0AD8B445EF0C
:100AE80005F077EF05F0BAC0D9FFBBC0DAFFDECF5B
:100AF800F6FFDDCFF7FF0800F550730AD8B487EF8B
:100B080005F089EF05F0A5EF05F0BAC0D9FFBBC025
:100B1800DAFFDECF78F0DDCF79F0F80E7A6F7F0E4E
:100B28007B6F000E7D6F030E7C6FABEC10F0000145
:100B380078517911D8A4A3EF05F0A5EF05F0E7EFF8
:100B480005F0BAC0D9FFBBC0DAFFDECFF6FFDDCFB4
:100B5800F7FF0800F550730AD8B4B5EF05F0B7EF02
:100B680005F0BEEF05F0000E01018A6F030E896FD4
:100B7800C3EF05F0000E01018A6F010E896FBAC03C
:100B8800D9FFBBC0DAFF8951DE268A51DD22B8C001
:100B980083F0B9C084F0BCC0D9FFBDC0DAFFDFCF95
:100BA800BEF0020EDE26DFCFBFF0000EDD22BEC093
:100BB800D9FFBFC0DAFFDECF85F0DDCF86F0FAECD3
:100BC8000BF005EF06F0BAC0D9FFBBC0DAFFDE2A8A
:100BD800000EDD2205EF06F0BAC0D9FFBBC0DAFF70
:100BE800DECFF6FFDDCFF7FF0800F55000017A6F82
:100BF8007B6BB8C07CF0B9C07DF03CEC14F0E7EF3B
:100C080005F0120043C0D9FF44C0DAFFDECFF6FF7B
:100C1800DDCFF7FF0800F550250AD8A416EF06F037
:100C280018EF06F018EF08F043C0D9FF44C0DAFF08
:100C3800DE2A000EDD22000E0001CF6F000ECE6FFF
:100C4800CEC0DAF0D069D169000E4C6E000E4B6E42
:100C580059EF06F00001DA8343C0D9FF44C0DAFF38
:100C6800DE2A000EDD2259EF06F0000E4C6E010E52
:100C78004B6E59EF06F043C0D9FF44C0DAFFDECF10
:100C8800F6FFDDCFF7FF0800F550476E486A485079
:100C9800000AD8B452EF06F039EF06F04750300A90
:100CA800D8B42EEF06F039EF06F04B504C10D8B4FC
:100CB80060EF06F062EF06F03FEF06F043C0D9FFA1
:100CC80044C0DAFFDECFF6FFDDCFF7FF0800F550AE
:100CD8002A0AD8A472EF06F074EF06F09EEF06F029
:100CE80043C0D9FF44C0DAFFDE2A000EDD2245C02A
:100CF800D9FF46C0DAFFDFCF47F0020EDE26DFCF8E
:100D080048F0000EDD2247C0D9FF48C0DAFFDECF29
:100D1800CEF0DDCFCFF00001CFBF97EF06F095EF13
:100D280006F0D1EF06F0DA81CE6DCF1FD8B0CF2B09
:100D3800D1EF06F043C0D9FF44C0DAFFDECF07F099
:100D4800DDCF08F022EC0EF007C0CEF008C0CFF0DF
:100D5800B5EF06F043C0D9FF44C0DAFFDE2A000E23
:100D6800DD2243C0D9FF44C0DAFFDECFF6FFDDCF76
:100D7800F7FF0800F5CF47F0D00E4724486E496AC0
:100D8800FF0E4922495009E10A0E485CD8A0CFEF6E
:100D980006F0D1EF06F0AEEF06F043C0D9FF44C02D
:100DA800DAFFDECFF6FFDDCFF7FF0800F550630A64
:100DB800D8A4E1EF06F0E3EF06F006EF07F043C032
:100DC800D9FF44C0DAFFDE2A000EDD2245C0D9FF74
:100DD80046C0DAFFDFCF47F0020EDE26DFCF48F04D
:100DE800000EDD2247C0D9FF48C0DAFFDF504F6E42
:100DF80041C00CF042C00DF04FC00EF0C2EC12F032
:100E08002CEF08F043C0D9FF44C0DAFFDECF58F01A
:100E1800DDCF59F058C0F6FF59C0F7FF0800F5506C
:100E2800780AD8B41AEF07F01CEF07F02AEF07F09A
:100E380058C0F6FF59C0F7FF0800F550750AD8A446
:100E480028EF07F02AEF07F0A2EF07F045C0D9FF17
:100E580046C0DAFFDFCF47F0020EDE26DFCF48F0CC
:100E6800000EDD2247C0D9FF48C0DAFFDECF49F0C7
:100E7800DDCF4AF049C050F04AC051F0526A536A77
:100E8800546A556A566A576A010E5824476E000E0E
:100E98005920486E43C0D9FF44C0DAFF47C0DEFF7F
:100EA80048C0DDFF88EF07F041C01EF042C01FF0C8
:100EB80050C020F051C021F052C022F053C023F09E
:100EC80054C024F055C025F056C026F057C027F06E
:100ED8002CEC09F02CEF08F041C01EF042C01FF0C6
:100EE80050C020F051C021F052C022F053C023F06E
:100EF80054C024F055C025F056C026F057C027F03E
:100F080012EC0BF02CEF08F058C0F6FF59C0F7FFB1
:100F18000800F550476E486A4850000AD8B497EF61
:100F280007F0A2EF07F04750750AD8B458EF07F05A
:100F38000D0AD8B470EF07F0A2EF07F043C0D9FF4D
:100F480044C0DAFFDECFF6FFDDCFF7FF0800F5502B
:100F5800730AD8B4B2EF07F0B4EF07F0CFEF07F099
:100F680043C0D9FF44C0DAFFDECF01F0DDCF02F085
:100F7800F80E036E7F0E046E000E066E030E056EED
:100F88001BEC11F001500210D8A4CDEF07F0CFEF01
:100F980007F00FEF08F043C0D9FF44C0DAFFDECFF7
:100FA800F6FFDDCFF7FF0800F550730AD8B4DFEF7E
:100FB80007F0E1EF07F0E7EF07F0000E4E6E030EC3
:100FC8004D6EEBEF07F0000E4E6E010E4D6E43C0F6
:100FD800D9FF44C0DAFF4D50DE264E50DD2241C015
:100FE8000CF042C00DF045C0D9FF46C0DAFFDFCF94
:100FF80047F0020EDE26DFCF48F0000EDD2247C0A4
:10100800D9FF48C0DAFFDECF0EF0DDCF0FF0BCEC21
:101018000CF02CEF08F043C0D9FF44C0DAFFDE2AF9
:10102800000EDD222CEF08F043C0D9FF44C0DAFFE0
:10103800DECFF6FFDDCFF7FF0800F550036E046A38
:1010480041C005F042C006F088EC14F00FEF08F03C
:1010580012000001D1BF33EF08F035EF08F036EF8A
:1010680008F0DA93D1BF43EF08F0D15106E1D0057B
:10107800D8B041EF08F043EF08F049EF08F0000E50
:10108800A86F010EA76F4DEF08F0D0C0A7F0D1C030
:10109800A8F0CEC0A9F0CFC0AAF097C0ABF098C016
:1010A800ACF099C0ADF09AC0AEF09BC0AFF09CC058
:1010B800B0F09DC0B1F09EC0B2F0000EB46F1F0E2C
:1010C800B36F000E0101456FE1EF08F0B307D8A038
:1010D800B407260EB325D96E010EB421DA6EABC063
:1010E80078F0ACC079F0ADC07AF0AEC07BF0AFC09C
:1010F8007CF0B0C07DF0B1C07EF0B2C07FF00A0EC7
:10110800806F000E816F000E826F000E836F000EDD
:10111800846F000E856F000E866F000E876F8AEC55
:1011280011F078C09FF079C0A0F07AC0A1F07BC020
:10113800A2F07CC0A3F07DC0A4F07EC0A5F07FC063
:10114800A6F000019F51300FDF6EA707D8A0A807AF
:10115800A907D8A0AA07ABC078F0ACC079F0ADC099
:101168007AF0AEC07BF0AFC07CF0B0C07DF0B1C00B
:101178007EF0B2C07FF00A0E806F000E816F000E05
:10118800826F000E836F000E846F000E856F000E55
:10119800866F000E876F42EC0FF078C0ABF079C015
:1011A800ACF07AC0ADF07BC0AEF07CC0AFF07DC0D3
:1011B800B0F07EC0B1F07FC0B2F00001B351B411FD
:1011C800D8B4E9EF08F0EBEF08F01BEF09F0AB51EA
:1011D800AC11AD11AE11AF11B011B111B211D8A44B
:1011E800F8EF08F0FAEF08F06AEF08F0A8BF07EF89
:1011F80009F0A85106E1A705D8B005EF09F007EFF7
:1012080009F06AEF08F0AABF12EF09F0AA5108E145
:10121800A905D8A012EF09F014EF09F01BEF09F0A7
:10122800DAB319EF09F01BEF09F06AEF08F095C07F
:101238008AF096C08BF0260EB3258C6F010EB42170
:101248008D6FA9C08EF0AAC08FF08DEC13F012003C
:101258000001D1BF32EF09F034EF09F035EF09F0A2
:10126800DA93D1BF42EF09F0D15106E1D005D8B0E9
:1012780040EF09F042EF09F048EF09F0000E316E37
:10128800010E306E4CEF09F0D0C030F0D1C031F013
:10129800CEC032F0CFC033F020C034F021C035F0DA
:1012A80022C036F023C037F024C038F025C039F00A
:1012B80026C03AF027C03BF0000E3D6E1F0E3C6E74
:1012C800000E0101456FDFEF09F03C06D8A03D068E
:1012D800260E3C24D96E010E3D20DA6E34C001F092
:1012E80035C002F036C003F037C004F038C005F04E
:1012F80039C006F03AC007F03BC008F00A0E096E84
:10130800000E0A6E000E0B6E000E0C6E000E0D6EB7
:10131800000E0E6E000E0F6E000E106EF3EC11F044
:1013280001C028F002C029F003C02AF004C02BF045
:1013380005C02CF006C02DF007C02EF008C02FF015
:101348002850300FDF6E3006D8A031063206D8A0FC
:10135800330634C001F035C002F036C003F037C0A0
:1013680004F038C005F039C006F03AC007F03BC0B9
:1013780008F00A0E096E000E0A6E000E0B6E000EC3
:101388000C6E000E0D6E000E0E6E000E0F6E000E2F
:10139800106E33EC10F001C034F002C035F003C019
:1013A80036F004C037F005C038F006C039F007C081
:1013B8003AF008C03BF03C503D10D8B4E6EF09F0D5
:1013C800E8EF09F019EF0AF03450351036103710ED
:1013D800381039103A103B10D8A4F5EF09F0F7EFA0
:1013E80009F069EF09F031BE04EF0AF0315006E167
:1013F8003004D8B002EF0AF004EF0AF069EF09F000
:1014080033BE0FEF0AF0335008E13204D8A00FEFD3
:101418000AF011EF0AF019EF0AF00001DAB317EF3A
:101428000AF019EF0AF069EF09F01EC013F01FC0A7
:1014380014F0260E3C24156E010E3D20166E32C0A7
:1014480017F033C018F0E5EC13F012000001D1BF1B
:1014580030EF0AF032EF0AF033EF0AF0DA93D1BF37
:1014680040EF0AF0D15106E1D005D8B03EEF0AF0BE
:1014780040EF0AF046EF0AF0000EAA6F010EA96FBE
:101488004AEF0AF0D0C0A9F0D1C0AAF0CEC0ABF0A4
:10149800CFC0ACF097C0ADF098C0AEF099C0AFF037
:1014A8009AC0B0F09BC0B1F09CC0B2F09DC0B3F040
:1014B8009EC0B4F0000EB66F1F0EB56F000E01018E
:1014C800456FC2EF0AF0B507D8A0B607AD510F0BAC
:1014D800B76F090EB76573EF0AF075EF0AF07DEF85
:1014E8000AF0570EB725A76FA86B000EA82383EF45
:1014F8000AF0300EB725A76FA86B000EA823A7C067
:10150800B7F0260EB525D96E010EB621DA6EB7C032
:10151800DFFFA907D8A0AA07AB07D8A0AC07ADC0C2
:101528009FF0AEC0A0F0AFC0A1F0B0C0A2F0B1C0B3
:10153800A3F0B2C0A4F0B3C0A5F0B4C0A6F0050EE5
:10154800AFEF0AF0D890A633A533A433A333A23360
:10155800A133A0339F33E82EA6EF0AF09FC0ADF069
:10156800A0C0AEF0A1C0AFF0A2C0B0F0A3C0B1F06F
:10157800A4C0B2F0A5C0B3F0A6C0B4F00001B6BFD5
:10158800CFEF0AF0B65109E1020EB55DD8A0CFEF52
:101598000AF0D1EF0AF001EF0BF0AD51AE11AF1127
:1015A800B011B111B211B311B411D8A4DEEF0AF021
:1015B800E0EF0AF067EF0AF0AABFEDEF0AF0AA51D0
:1015C80006E1A905D8B0EBEF0AF0EDEF0AF067EFF6
:1015D8000AF0ACBFF8EF0AF0AC5108E1AB05D8A0AF
:1015E800F8EF0AF0FAEF0AF001EF0BF0DAB3FFEFC9
:1015F8000AF001EF0BF067EF0AF095C08AF096C089
:101608008BF0260EB5258C6F010EB6218D6FABC001
:101618008EF0ACC08FF08DEC13F012000001D1BF3A
:1016280018EF0BF01AEF0BF01BEF0BF0DA93D1BFAA
:1016380028EF0BF0D15106E1D005D8B026EF0BF01A
:1016480028EF0BF02EEF0BF0000E336E010E326E0A
:1016580032EF0BF0D0C032F0D1C033F0CEC034F04E
:10166800CFC035F020C036F021C037F022C038F0A6
:1016780023C039F024C03AF025C03BF026C03CF026
:1016880027C03DF0000E3F6E1F0E3E6E000E01019A
:10169800456FAAEF0BF03E06D8A03F0636500F0B59
:1016A800406E090E40645BEF0BF05DEF0BF065EFE9
:1016B8000BF0570E4024306E316A000E31226BEF6A
:1016C8000BF0300E4024306E316A000E312230C0EB
:1016D80040F0260E3E24D96E010E3F20DA6E40C03F
:1016E800DFFF3206D8A033063406D8A0350636C048
:1016F80028F037C029F038C02AF039C02BF03AC09A
:101708002CF03BC02DF03CC02EF03DC02FF0050E54
:1017180097EF0BF0D8902F322E322D322C322B32FD
:101728002A3229322832E82E8EEF0BF028C036F004
:1017380029C037F02AC038F02BC039F02CC03AF055
:101748002DC03BF02EC03CF02FC03DF03FBEB6EFA1
:101758000BF03F5009E1020E3E5CD8A0B6EF0BF04B
:10176800B8EF0BF0E9EF0BF036503710381039109E
:101778003A103B103C103D10D8A4C5EF0BF0C7EF52
:101788000BF04FEF0BF033BED4EF0BF0335006E104
:101798003204D8B0D2EF0BF0D4EF0BF04FEF0BF0D0
:1017A80035BEDFEF0BF0355008E13404D8A0DFEF89
:1017B8000BF0E1EF0BF0E9EF0BF00001DAB3E7EF24
:1017C8000BF0E9EF0BF04FEF0BF01EC013F01FC04A
:1017D80014F0260E3E24156E010E3F20166E34C0FE
:1017E80017F035C018F0E5EC13F0120021EEB6F052
:1017F80010EE88F0060EDBCFE3FFE806FCE285C0BA
:1018080093F086C094F0000193519411D8A40FEF7F
:101818000CF011EF0CF015EF0CF0880E936F000E22
:10182800946F93C078F094C079F05BEC16F078C0B0
:1018380097F079C098F0D0C095F0D1C096F000012B
:1018480096BF29EF0CF02BEF0CF040EF0CF09751FE
:10185800955D9651800A876F9851800A8759D8A05C
:1018680038EF0CF03AEF0CF03CEF0CF040EF0CF0D6
:1018780095C097F096C098F097C095F098C096F0EC
:10188800CEC091F0CFC092F0DAB14DEF0CF04FEF2F
:101898000CF06DEF0CF05EEF0CF0000E7B6F200E7D
:1018A8007A6F83C07CF084C07DF03CEC14F00001BA
:1018B800974B982B9151975D9851800A876F925159
:1018C800800A8759D8A06BEF0CF06DEF0CF051EF40
:1018D8000CF0000E906F000E8F6F87EF0CF093C026
:1018E800D9FF94C0DAFFDF50876F87517A6F7B6B1F
:1018F80083C07CF084C07DF03CEC14F00001934B75
:10190800942B8F4B902B95518F5D9051800A876F48
:101918009651800A8759D8A094EF0CF096EF0CF0F6
:1019280073EF0CF0DAA19BEF0CF09DEF0CF0BBEF1E
:101938000CF0ACEF0CF0000E7B6F200E7A6F83C0BA
:101948007CF084C07DF03CEC14F00001974B982BA0
:101958009151975D9851800A876F9251800A8759F3
:10196800D8A0B9EF0CF0BBEF0CF09FEF0CF0120011
:1019780021EEB6F010EE11F0060EDBCFE3FFE8061D
:10198800FCE20EC01CF00FC01DF01C501D10D8A4A6
:10199800D0EF0CF0D2EF0CF0D6EF0CF0110E1C6E5D
:1019A800000E1D6E1CC001F01DC002F094EC16F074
:1019B80001C020F002C021F0D0C01EF0D1C01FF03D
:1019C8001FBEE9EF0CF0EBEF0CF000EF0DF020502C
:1019D8001E5C1F50800A106E2150800A1058D8A033
:1019E800F8EF0CF0FAEF0CF0FCEF0CF000EF0DF054
:1019F8001EC020F01FC021F020C01EF021C01FF023
:101A0800CEC01AF0CFC01BF00001DAB10EEF0DF016
:101A180010EF0DF02DEF0DF01EEF0DF0000E046E1F
:101A2800200E036E0CC005F00DC006F088EC14F013
:101A3800204A212A1A50205C2150800A106E1B501F
:101A4800800A1058D8A02BEF0DF02DEF0DF012EFF3
:101A58000DF0000E196E000E186E46EF0DF01CC04A
:101A6800D9FF1DC0DAFFDF50106E1050036E046AF4
:101A78000CC005F00DC006F088EC14F01C4A1D2AB5
:101A8800184A192A1E50185C1950800A106E1F50E7
:101A9800800A1058D8A053EF0DF055EF0DF033EF32
:101AA8000DF00001DAA15BEF0DF05DEF0DF07AEFBC
:101AB8000DF06BEF0DF0000E046E200E036E0CC0DF
:101AC80005F00DC006F088EC14F0204A212A1A50BF
:101AD800205C2150800A106E1B50800A1058D8A034
:101AE80078EF0DF07AEF0DF05FEF0DF01200000EB9
:101AF8000001866F000E856F000E846F000E836FE5
:101B080088EF0DF07E4B7F2B7EC0F6FF7FC0F7FF7E
:101B18000800F550200AD8B494EF0DF096EF0DF0B8
:101B280086EF0DF07EC0F6FF7FC0F7FF0800F5CF07
:101B380080F0F70E8025816F826BFF0E8223825121
:101B480009E1050E815DD8A0ACEF0DF0AEEF0DF008
:101B580086EF0DF0B8EF0DF0000E846F010E836F65
:101B68007E4B7F2BEEEF0DF07EC0F6FF7FC0F7FFB8
:101B78000800F550806F816B8151000AD8B4C7EF17
:101B88000DF0EEEF0DF080512B0AD8B4B4EF0DF044
:101B9800060AD8B4B0EF0DF0EEEF0DF085C078F07E
:101BA80086C079F0000E7B6F0A0E7A6F4AEC17F048
:101BB8007EC0F6FF7FC0F7FF0800F5500001785F90
:101BC800000E795B300E7825856F000E7921866FBF
:101BD800B4EF0DF07EC0F6FF7FC0F7FF0800F5CF29
:101BE80080F0D00E8025816F826BFF0E8223825198
:101BF80009E10A0E815DD8A004EF0EF006EF0EF0A1
:101C0800D2EF0DF083518411D8A40DEF0EF00FEF31
:101C18000EF01DEF0EF085C080F086C081F0801FA9
:101C2800811F804B812B80C07EF081C07FF021EF27
:101C38000EF085C07EF086C07FF01200000E0F6E99
:101C4800000E0E6E000E0D6E000E0C6E2EEF0EF0D6
:101C5800074A082A07C0F6FF08C0F7FF0800F55032
:101C6800200AD8B43AEF0EF03CEF0EF02CEF0EF04D
:101C780007C0F6FF08C0F7FF0800F5CF09F0F70E18
:101C880009240A6E0B6AFF0E0B220B5009E1050EA0
:101C98000A5CD8A052EF0EF054EF0EF02CEF0EF0C5
:101CA8005EEF0EF0000E0D6E010E0C6E074A082A4C
:101CB80093EF0EF007C0F6FF08C0F7FF0800F550D5
:101CC800096E0A6A0A50000AD8B46DEF0EF093EF55
:101CD8000EF009502B0AD8B45AEF0EF0060AD8B401
:101CE80056EF0EF093EF0EF00EC001F00FC002F0A9
:101CF800000E046E0A0E036E72EC17F007C0F6FFB2
:101D080008C0F7FF0800F550015E000E025A300EB9
:101D180001240E6E000E02200F6E5AEF0EF007C05F
:101D2800F6FF08C0F7FF0800F5CF09F0D00E092428
:101D38000A6E0B6AFF0E0B220B5009E10A0E0A5CB1
:101D4800D8A0A9EF0EF0ABEF0EF078EF0EF00C5024
:101D58000D10D8A4B2EF0EF0B4EF0EF0C2EF0EF0F3
:101D68000EC009F00FC00AF0091E0A1E094A0A2A05
:101D780009C007F00AC008F0C6EF0EF00EC007F061
:101D88000FC008F0120000017E6F000E0001796F8D
:101D9800190E786FAFEC16F000017C510008786FCF
:101DA8007D51D8A0E82A0008796FDFEC16F09E90E4
:101DB800E5EC17F00009D8B4E4EF0EF0E6EF0EF00A
:101DC800DCEF0EF0010E00017F6F1CEF0FF07E516B
:101DD8007F150009D8B4F3EF0EF0F5EF0EF0FDEF24
:101DE8000EF0000E796F000E786FAFEC16F003EF6F
:101DF8000FF0000E796F190E786FAFEC16F0000136
:101E08007F517F257F6F7C510008786F7D51D8A066
:101E1800E82A0008796FDFEC16F09E90E5EC17F0E1
:101E28000009D8B41AEF0FF01CEF0FF012EF0FF003
:101E380000017F51D8A423EF0FF025EF0FF0EBEF4F
:101E48000EF0000E796F000E786FAFEC16F00001FF
:101E58007C510008786F7D51D8A0E82A0008796F76
:101E6800DFEC16F09E90E5EC17F00009D8B43FEFD0
:101E78000FF041EF0FF037EF0FF0120020EE88F06F
:101E8800070EDE6AE806FDE2000180518111821129
:101E980083118411851186118711D8B456EF0FF07C
:101EA80058EF0FF0AAEF0FF0010E906F66EF0FF0EA
:101EB800D89080378137823783378437853786379C
:101EC8008737902B87AF6BEF0FF06DEF0FF05CEF5C
:101ED8000FF0D890883789378A378B378C378D370A
:101EE8008E378F378051785D8151795982517A596F
:101EF80083517B5984517C5985517D5986517E592E
:101F080087517F59D8A08BEF0FF08DEF0FF09EEF20
:101F18000FF08051785F8151795B82517A5B8351F0
:101F28007B5B84517C5B85517D5B86517E5B8751F1
:101F38007F5B8881D89087338633853384338333B6
:101F4800823381338033902F6DEF0FF088C078F0A3
:101F580089C079F08AC07AF08BC07BF08CC07CF0A5
:101F68008DC07DF08EC07EF08FC07FF012005E0EB7
:101F78000001666F7F0E676F5EEC17F074CF5EF03E
:101F880001012551D8A4CBEF0FF0CDEF0FF032EFC0
:101F980010F01CEF10F06D0E666F7F0E676F5EC05D
:101FA80068F0696B5EEC17F0660E0001DC25D96EEF
:101FB800DA6A010EDA225EC0DFFFDC51D8A4E7EF4F
:101FC8000FF0E9EF0FF0EDEF0FF05EC024F1F0EF46
:101FD8000FF05E50010124270001DC2B5E50D8A4CD
:101FE800F8EF0FF0FAEF0FF032EF10F0010EDB6FA1
:101FF80032EF10F07C0E666F7F0E676F5EC068F080
:10200800696B5EEC17F0660E0001DC25D96EDA6AA2
:10201800010EDA225EC0DFFF5EC022F1000EDC6F27
:10202800010E0101256F000E0001DB6F32EF10F089
:102038000001DB516A6F6B6B6B51000AD8B427EF54
:1020480010F032EF10F06A51000AD8B4CFEF0FF059
:10205800010AD8B4FEEF0FF032EF10F0120020EEB4
:1020680011F0070EDE6AE806FDE209500A100B10AF
:102078000C100D100E100F101010D8B446EF10F001
:1020880048EF10F09AEF10F0010E196E56EF10F0AD
:10209800D89009360A360B360C360D360E360F3602
:1020A8001036192A10AE5BEF10F05DEF10F04CEF10
:1020B80010F0D890113612361336143615361636F7
:1020C800173618360950015C0A5002580B5003584D
:1020D8000C5004580D5005580E5006580F5007580C
:1020E80010500858D8A07BEF10F07DEF10F08EEF5D
:1020F80010F00950015E0A50025A0B50035A0C5056
:10210800045A0D50055A0E50065A0F50075A1050CF
:10211800085A1180D89010320F320E320D320C321C
:102128000B320A320932192E5DEF10F011C001F09E
:1021380012C002F013C003F014C004F015C005F07B
:1021480016C006F017C007F018C008F0120078C0D3
:102158007FF079C080F07AC081F07BC082F0000106
:102168007C07D8A07D077C2906E17D29D8A4BFEF8C
:1021780010F0C1EF10F0CEEF10F0000E796F000EE6
:10218800786F1AEF11F07F4B802B814B822B7C07E5
:10219800D8A07D077FC0F6FF80C0F7FF0800F55084
:1021A8000009D8B4DAEF10F0DCEF10F008EF11F006
:1021B80081C0F6FF82C0F7FF0800F5500009D8B4C7
:1021C800E8EF10F0EAEF10F008EF11F07C517D1104
:1021D800D8B4F1EF10F0F3EF10F008EF11F07FC072
:1021E800F6FF80C0F7FF0800F5CF7EF081C0F6FF4C
:1021F80082C0F7FF0800F5507E19D8B406EF11F039
:1022080008EF11F0C7EF10F07FC0F6FF80C0F7FFAE
:102218000800F5CF7EF081C0F6FF82C0F7FF080006
:10222800F5507E5D786F796BD8A07907120001C0F0
:1022380008F002C009F003C00AF004C00BF005065C
:10224800D8A00606052806E10628D8A42EEF11F026
:1022580030EF11F03DEF11F0000E026E000E016E2E
:1022680089EF11F0084A092A0A4A0B2A0506D8A05C
:10227800060608C0F6FF09C0F7FF0800F550000978
:10228800D8B449EF11F04BEF11F077EF11F00AC015
:10229800F6FF0BC0F7FF0800F5500009D8B457EF58
:1022A80011F059EF11F077EF11F005500610D8B47E
:1022B80060EF11F062EF11F077EF11F008C0F6FF50
:1022C80009C0F7FF0800F5CF07F00AC0F6FF0BC0FA
:1022D800F7FF0800F5500718D8B475EF11F077EF3D
:1022E80011F036EF11F008C0F6FF09C0F7FF08003B
:1022F800F5CF07F00AC0F6FF0BC0F7FF0800F5504E
:10230800075C016E026AD8A0020612000001805123
:102318008111821183118411851186118711D8B416
:1023280098EF11F09AEF11F0E2EF11F0010E886FBB
:10233800A8EF11F0D89080378137823783378437F8
:10234800853786378737882B87AFADEF11F0AFEF2A
:1023580011F09EEF11F08051785D815179598251C9
:102368007A5983517B5984517C5985517D598651BD
:102378007E5987517F59D8A0C4EF11F0C6EF11F0EC
:10238800D6EF11F08051785F8151795B82517A5B89
:1023980083517B5B84517C5B85517D5B86517E5B81
:1023A80087517F5BD8908733863385338433833373
:1023B800823381338033882FAFEF11F078C078F003
:1023C80079C079F07AC07AF07BC07BF07CC07CF071
:1023D8007DC07DF07EC07EF07FC07FF01200095086
:1023E8000A100B100C100D100E100F101010D8B48E
:1023F80000EF12F002EF12F04AEF12F0010E116E28
:1024080010EF12F0D89009360A360B360C360D3616
:102418000E360F361036112A10AE15EF12F017EFE0
:1024280012F006EF12F00950015C0A5002580B50E6
:1024380003580C5004580D5005580E5006580F50AC
:10244800075810500858D8A02CEF12F02EEF12F0B1
:102458003EEF12F00950015E0A50025A0B50035A1F
:102468000C50045A0D50055A0E50065A0F50075A70
:102478001050085AD89010320F320E320D320C32EA
:102488000B320A320932112E17EF12F001C001F097
:1024980002C002F003C003F004C004F005C005F058
:1024A80006C006F007C007F008C008F012000001D7
:1024B800CE51CF11D8A463EF12F065EF12F06BEF95
:1024C80012F0CEC089F0CFC08AF071EF12F0FF0E83
:1024D800CE25896FFF0ECF218A6FDAA176EF12F031
:1024E80078EF12F081EF12F085C07AF07B6B83C031
:1024F8007CF084C07DF03CEC14F000018ABF87EFCB
:1025080012F089EF12F08BEF12F08FEF12F0000E3D
:102518008A6F000E896F000E886F000E876FA2EF1A
:1025280012F0000E7B6F200E7A6F83C07CF084C09F
:102538007DF03CEC14F00001874B882B8951875DB6
:102548008851800A866F8A51800A8659D8A0AFEFD1
:1025580012F0B1EF12F095EF12F0DAB1B6EF12F017
:10256800B8EF12F0C1EF12F085C07AF07B6B83C030
:102578007CF084C07DF03CEC14F012000001CE51D8
:10258800CF11D8A4CAEF12F0CCEF12F0D2EF12F0AC
:10259800CEC012F0CFC013F0D8EF12F0FF0ECE2548
:1025A800126EFF0ECF21136EDAA1DDEF12F0DFEF0E
:1025B80012F0E8EF12F00EC003F0046A0CC005F048
:1025C8000DC006F088EC14F013BEEDEF12F0EFEF3B
:1025D80012F0F1EF12F0F5EF12F0000E136E000E8C
:1025E800126E000E116E000E106E07EF13F0000E43
:1025F800046E200E036E0CC005F00DC006F088ECCA
:1026080014F0104A112A1250105C1150800A0F6EF3
:102618001350800A0F58D8A014EF13F016EF13F0D8
:10262800FBEF12F00001DAB11CEF13F01EEF13F00C
:1026380027EF13F00EC003F0046A0CC005F00DC0BC
:1026480006F088EC14F01200000E0001E425D96EA3
:10265800DA6A010EDA22000EDF6E71A436EF13F08B
:1026680038EF13F04EEF13F0000EE425D96EDA6A56
:10267800010EDA220101DF8202D84EEF13F00500C5
:102688000001FA6ED251FD6ED351FE6EF850FF6E06
:10269800FA50120071A253EF13F055EF13F06BEFDD
:1026A80013F0000E0001E425D96EDA6A010EDA2271
:1026B8000101DF8402D86BEF13F00500FA6E205198
:1026C800FD6E2151FE6EF850FF6EFA501200000E9A
:1026D8000001E425D96EDA6A010EDA22DF50D8B497
:1026E80078EF13F07AEF13F08AEF13F002D888EF3F
:1026F80013F005000101FA6E1E51FD6E1F51FE6EAA
:10270800F850FF6EFA5012008CEF13F00BEC17F034
:1027180012000001DAA193EF13F095EF13F09FEF89
:1027280013F08CC083F08DC084F08AC085F08BC014
:1027380086F08AEC15F000018FBFA5EF13F0A7EF24
:1027480013F0ADEF13F08EC093F08FC094F0B1EF9B
:1027580013F0000E946F000E936F000E926F000E30
:10276800916FC4EF13F0000E7B6F200E7A6F8AC052
:102778007CF08BC07DF03CEC14F00001914B922B67
:102788009351915D9251800A906F9451800A9059AB
:10279800D8A0D1EF13F0D3EF13F0B7EF13F0DAB1FD
:1027A800D8EF13F0DAEF13F0E4EF13F08CC083F0F6
:1027B8008DC084F08AC085F08BC086F08AEC15F055
:1027C80012000001DAA1EBEF13F0EDEF13F0F7EFD1
:1027D80013F015C00CF016C00DF013C00EF014C0A5
:1027E8000FF018EC16F018BEFCEF13F0FEEF13F024
:1027F80004EF14F017C01CF018C01DF008EF14F017
:10280800000E1D6E000E1C6E000E1B6E000E1A6E62
:102818001AEF14F0000E046E200E036E13C005F0BC
:1028280014C006F088EC14F01A4A1B2A1C501A5CD3
:102838001B50800A196E1D50800A1958D8A027EF1E
:1028480014F029EF14F00EEF14F00001DAB12FEFB5
:1028580014F031EF14F03BEF14F015C00CF016C073
:102868000DF013C00EF014C00FF018EC16F01200A3
:1028780000017C517D11D8B444EF14F046EF14F0F8
:102888004FEF14F07C517D11D8A44DEF14F04FEFA9
:1028980014F054EF14F07A510AEC18F087EF14F0A2
:1028A80020EE09F07C51D9267D51DA22DE50DE1067
:1028B800D8B461EF14F063EF14F07EEF14F020EE5B
:1028C80009F07C51D9267D51DA2210EE03F07C51B3
:1028D800E1267D51E222DE50E65CE650800A826FF6
:1028E800DE50800A8259D8B07CEF14F07EEF14F0E5
:1028F80087EF14F020EE03F07C51D9267D51DA22BF
:10290800DE2A000EDD22120005500610D8B48FEF23
:1029180014F091EF14F09AEF14F005500610D8A4B3
:1029280098EF14F09AEF14F09FEF14F0035039EC7D
:1029380018F0D2EF14F020EE09F00550D926065011
:10294800DA22DE50DE10D8B4ACEF14F0AEEF14F09B
:10295800C9EF14F020EE09F00550D9260650DA2206
:1029680010EE03F00550E1260650E222DE50E65C48
:10297800E650800A0B6EDE50800A0B58D8B0C7EFBD
:1029880014F0C9EF14F0D2EF14F020EE03F0055064
:10299800D9260650DA22DE2A000EDD221200A39A7A
:1029A800500E0001786F260E796F16EC18F0A39878
:1029B800740E0001786F2C0E796F11EC18F0080E68
:1029C800706E900E716E240E726E140E756E340E4B
:1029D800766E8E0E0001786F300E796F20EC18F04D
:1029E8007C0E0001786F300E796F1BEC18F0820EA8
:1029F8000001786F300E796F25EC18F0000E000199
:102A0800E16F000EE76F000EE66F080EE56F000E2F
:102A1800E46F000EE36F000EE26FA38A1200C4C0D9
:102A2800C8F0C5C0C9F028EF15F0C2C0B8F0C3C0DF
:102A3800B9F0C80E0001BA6F000EBB6FC6C0BCF07B
:102A4800C7C0BDF0D2EC03F0C8C0F6FFC9C0F7FF9D
:102A58000800F5500009D8A434EF15F036EF15F04A
:102A680019EF15F0000E0001C36F000EC26F1200BF
:102A780062C05AF063C05BF050EF15F060C041F0DF
:102A880061C042F05A0E436E000E446E64C045F0B9
:102A980065C046F006EC06F05AC0F6FF5BC0F7FFCB
:102AA8000800F5500009D8A45CEF15F05EEF15F0AA
:102AB80042EF15F0000E0001616F000E606F12000A
:102AC8000001E251D8B46BEF15F06DEF15F064EF2B
:102AD80015F0000EE325D96EDA6A010EDA22DF500E
:102AE800E16F080EE325D96EDA6A010EDA22E32BCC
:102AF800070EE36582EF15F084EF15F086EF15F009
:102B0800000EE36FA39AE207A38A1200000E0001E9
:102B1800896F000E886F9DEF15F087C07AF07B6B88
:102B280085C07CF086C07DF03CEC14F00001884B39
:102B3800892B88518325D96E89518421DA6EDF501B
:102B4800876F8751D8A4ABEF15F0ADEF15F091EF73
:102B580015F01200010E00017C6F200E7819791112
:102B6800D8B4B9EF15F0BBEF15F0CEEF15F0F70EAE
:102B780078257A6FFF0E79217B6F7B5109E1050E6D
:102B88007A5DD8A0CAEF15F0CCEF15F0CEEF15F0AE
:102B9800000E7C6F7CC078F0796B1200F20EF66E36
:102BA8002F0EF76E000EF86E01EEACF010EE11F07D
:102BB8000900F5CFEEFFE550E150FAE101EE00F033
:102BC800860EEE6AE806FDE100EECEF01A0EEE6A19
:102BD800E806FDE15F905F92000EF86E00017CEF61
:102BE80000F0080EB86E900EAB6E240EAC6E820E1E
:102BF800AF6E060EB06E000E0001786F000E796F92
:102C08002FEC18F0000E0001786F000E796F2AEC97
:102C180018F0000E0001786F000E796F34EC18F090
:102C2800000E0001E06F1200000E126E000E116E11
:102C380029EF16F010C003F0046A0EC005F00FC0AB
:102C480006F088EC14F0114A122A11500C24D96E9F
:102C580012500D20DA6EDF50106E1050D8A437EFE6
:102C680016F039EF16F01EEF16F01200080E0001EC
:102C7800E56141EF16F043EF16F059EF16F0100E2C
:102C8800E625D96EDA6A010EDA22DF50736EE62B7A
:102C9800070EE66552EF16F054EF16F056EF16F0F1
:102CA800000EE66FE52B5AEF16F0A398120078C0D5
:102CB8007AF079C07BF064EF16F00001784B792B3D
:102CC80078C0D9FF79C0DAFFDF50D8A46EEF16F0CC
:102CD80070EF16F061EF16F000017A51785D786FA9
:102CE8007B517959796F1200200E01180210D8B45F
:102CF80080EF16F082EF16F093EF16F0F70E01242E
:102D0800036EFF0E0220046E045009E1050E035CF9
:102D1800D8A091EF16F093EF16F093EF16F012008B
:102D280001C003F002C004F09CEF16F0014A022A29
:102D380001C0D9FF02C0DAFFDF50D8A4A6EF16F011
:102D4800A8EF16F09AEF16F00350015C016E0450DC
:102D58000258026E120078C07AF079C07BF0000148
:102D6800D8907B337A33D8907B337A337A51676E35
:102D780078C07AF0030E7A177A3BF00E7A1766500D
:102D8800CF0B7A11666E1200D00E000178257A6F8B
:102D9800FF0E79217B6F7B510AE10A0E7A5DD8A07C
:102DA800D8EF16F0DBEF16F0010EDCEF16F0000E90
:102DB800786F796B1200CDA4E4EF16F0E6EF16F009
:102DC800EFEF16F0CD9000017951CF6E78C0CEFFAD
:102DD800CD80F4EF16F000017951CF6E78C0CEFFA8
:102DE8001200000E896E000E8A6E000E8B6E9268BD
:102DF800BF0E936EBD0E946E3C0E0F013A6F3F0EE0
:102E0800396F2F0E386F000E616EF18E1200080EAA
:102E18000001E425D96EDA6A010EDA2274CFDFFFE9
:102E2800E42B070EE4651BEF17F01DEF17F01FEFFB
:102E380017F0000EE46FE22B12009EAA26EF17F09F
:102E480028EF17F021EF17F0000E0001E06FABA29A
:102E580030EF17F032EF17F034EF17F0AB98AB887C
:102E6800AE501200970E0001CA6F010ECB6F000E14
:102E7800C26F000EC36F95C1C4F096C1C5F0CA0EEB
:102E8800C66F000EC76F13EC15F0120000017851E1
:102E98007A03F3CF7CF0F4CF7DF078517B03F350C5
:102EA8007D2779517A03F3507D277CC078F07DC067
:102EB80079F01200680E5C6E000E5D6E000E000167
:102EC800606F000E616F66C062F067C063F05C0EF1
:102ED800646F000E656F3CEC15F0120001500302A0
:102EE800F3CF05F0F4CF06F001500402F3500626A4
:102EF80002500302F350062605C001F006C002F096
:102F0800120044EC18F0F5EC16F0B4EC17F096EC5F
:102F180017F002EC18F0A6EC17F0F5EC15F0D3EC6E
:102F280014F012000C0E666E000E646E800E656E54
:102F3800010E636E000E686E000E676EE70E0F01DD
:102F480049171200000ECC6E000ECF6E000ECE6E2A
:102F5800CECFD8F0CFCFD9F09E90010ECD6E120013
:102F6800700ED36E040ED26E400E9B6ED2AEBFEFC3
:102F780017F0C1EF17F0BAEF17F012000001786FE1
:102F88009EA8C9EF17F0CBEF17F0C4EF17F078C081
:102F9800ADFF12000001E251D8A4D5EF17F0D8EF29
:102FA80017F0010ED9EF17F0000E1200016E9EA85F
:102FB800E0EF17F0E2EF17F0DBEF17F001C0ADFF1D
:102FC80012009EB0EAEF17F0EDEF17F0010EEEEFEA
:102FD80017F0000E12009EBAF4EF17F0F7EF17F093
:102FE800010EF8EF17F0000E120055D015340A1A2A
:0B2FF80082064103286E756C6C2900F6
:10300400670EBB6E000EBC6E9E92050EBA6E120069
:103014000001796F00017951C2EC17F0120078C0F9
:10302400D6F079C0D7F0120078C0D4F079C0D5F0CA
:10303400120078C020F179C021F1120078C0D2F0DA
:1030440079C0D3F0120078C01EF179C01FF11200CC
:1030540078C01AF179C01BF1120078C01CF179C054
:103064001DF1120078C018F179C019F11200026E36
:103074000250DAEC17F012007198718812000BEC10
:0C30840017F01200D09E12001200120083
:107C180000496E7374616C6C2061206A756D7065C3
:107C28007220776972652066726F6D20524330202A
:107C3800746F20524237204F4E4C592041465445CC
:107C48005220756E706C756767696E67205049437E
:107C58004B6974330D0A0052656365697665640A79
:107C68000D20206D6573736167653A2025730A0DD1
:107C78002020636865636B73756D3A206163747562
:107C8800616C282575292C20657870656374656496
:107C9800282575290A0D00523A20726563697665B0
:107CA800206D657373616765207573696E6720451C
:107CB80055534152543220696E74657272757074EE
:107CC80073202866726F6D20495229200A0D002DF5
:107CD8002D2D2D2D2D2D2D2D2D2D2D2D2D2D2D2DCC
:107CE8002D2D2D2D2D2D2D2D2D2D2D2D2D2D2D2DBC
:107CF8002D2D2D2D2D2D2D2D2D2D2D2D2D2D2D2DAC
:107D08000D0A00623A207365742074686520426128
:107D180075642072617465206F66207468652073CD
:107D2800656E7420636861726163746572730D0AAD
:107D3800005472616E6D69747465640A0D20206D5B
:107D48006573736167653A2025730A0D202063689F
:107D580065636B73756D3A2025750A0D0043686F6E
:107D68006F73652074686520696E646578206F6636
:107D78002074686520746172676574206261756437
:107D880020726174650D0A000A0D4372656174659D
:107D9800640A0D20206D6573736167653A20257349
:107DA8000A0D2020636865636B73756D3A2025752D
:107DB8000A0D00496E7374616C6C2061206A756DE0
:107DC800706572206F7665722049525F545820683A
:107DD80065616465722070696E730D0A00456E7482
:107DE8006572206D6573736167652C2068697420FE
:107DF80072657475726E207768656E20646F6E6543
:107E08002E0A0D005265636569766520616E6420EF
:107E18006465636F646520616E20495220706163F8
:107E28006B65740D0A00533A207472616E736D6944
:107E380074206D657373616765207573696E67205B
:107E48004952200A0D0042617564207261746520F0
:107E580061737369676E656420253032783A25301E
:107E680032780D0A007A3A20436C65617220746892
:107E780065207465726D696E616C0D0A00446576E3
:107E880027323120426F61726420776972696E67A8
:107E98000D0A004E6F206D6573736167652072650A
:107EA8006365697665640A0D004A757374207265A6
:107EB80073657420455553415254320D0A005A3A9D
:107EC8002052657365742070726F636573736F7287
:107ED8000D0A00723A207265736574204555534146
:107EE8005254320D0A006D3A20656E746572206D29
:107EF8006573736167650A0D00556E6B6E6F776EFB
:107F0800206B65792025630D0A00343A2031393217
:107F1800303020626175640D0A00313A2031323008
:107F28003020626175640D0A00323A2032343030F4
:107F380020626175640D0A00333A203936303020EA
:107F4800626175640D0A003F3A2068656C70206DA7
:107F5800656E750D0A0052784555534152543249A1
:107F680053520A0D0020205278446174613A20254A
:107F7800630A0D00202052784353756D3A20257509
:107F88000A0D00303A2033303020626175640D0AE2
:107F980000313932303020426175640D0A003132C7
:107FA800303020426175640D0A003234303020428E
:107FB8006175640D0A003936303020426175640DF0
:107FC8000A0033303020426175640D0A00696E4C36
:107FD800616220360D0A006F3A206F6B0D0A006F40
:107FE8003A206B0D0A000D0A3E20000A0D3E2000C3
:087FF8006C6C730025630000AE
:020000040020DA
:08000000FFFFFFFFFFFFFFFF00
:020000040030CA
:0E000000FF281F3CFFBF85FF0FC00FE00F4021
:00000001FF
