:040000004EEF00F0CF
:100008005E82FACF6EF0FBCF6FF0E1CF70F0E2CFF7
:1000180071F0D9CF72F0DACF73F0F3CF74F0F4CF78
:1000280075F0F6CF76F0F7CF77F0F8CF78F0F5CF18
:1000380079F0F2AC22EF00F024EF00F034EF00F09A
:100048009DA029EF00F02BEF00F034EF00F09EA008
:1000580030EF00F032EF00F034EF00F093EC0BF0EB
:1000680079C0F5FF78C0F8FF77C0F7FF76C0F6FFD4
:1000780075C0F4FF74C0F3FF73C0DAFF72C0D9FF14
:1000880071C0E2FF70C0E1FF6FC0FBFF6EC0FAFFF6
:100098005E9211002BEF0BF0BCC0D9FFBDC0DAFF98
:1000A800DECFF6FFDDCFF7FF0800F550250AD8A40C
:1000B80060EF00F062EF00F0D4EF01F0BCC0D9FFB0
:1000C800BDC0DAFFDE2A000EDD22000E0001CD6F72
:1000D800000ECC6FCCC0DAF0CE69CF69000E0101FA
:1000E8002A6F000E296FA5EF00F0DA83BCC0D9FF94
:1000F800BDC0DAFFDE2A000EDD22A5EF00F0000EFB
:1001080001012A6F010E296FA5EF00F0BCC0D9FFCD
:10011800BDC0DAFFDECFF6FFDDCFF7FF0800F550F0
:100128000001C06FC16BC151000AD8B49EEF00F046
:1001380083EF00F0C051300AD8B479EF00F083EFB4
:1001480000F0010129512A11D8B4ADEF00F0AFEF4A
:1001580000F08AEF00F0BCC0D9FFBDC0DAFFDECFE7
:10016800F6FFDDCFF7FF0800F5502A0AD8A4BFEF45
:1001780000F0C1EF00F0EBEF00F0BCC0D9FFBDC04C
:10018800DAFFDE2A000EDD22BEC0D9FFBFC0DAFFCB
:10019800DFCFC0F0020EDE26DFCFC1F0000EDD2279
:1001A800C0C0D9FFC1C0DAFFDECFCCF0DDCFCDF0C3
:1001B8000001CDBFE4EF00F0E2EF00F01FEF01F027
:1001C800DA81CC6DCD1FD8B0CD2B1FEF01F0BCC0AC
:1001D800D9FFBDC0DAFFDECF80F0DDCF81F0D3ECF0
:1001E80006F080C0CCF081C0CDF002EF01F0BCC0B9
:1001F800D9FFBDC0DAFFDE2A000EDD22BCC0D9FF60
:10020800BDC0DAFFDECFF6FFDDCFF7FF0800F5CF80
:10021800C0F0D00E0001C025C16FC26BFF0EC22313
:10022800C25109E10A0EC15DD8A01DEF01F01FEF10
:1002380001F0FBEF00F0BCC0D9FFBDC0DAFFDECF94
:10024800F6FFDDCFF7FF0800F550630AD8A42FEFBB
:1002580001F031EF01F055EF01F0BCC0D9FFBDC08E
:10026800DAFFDE2A000EDD22BEC0D9FFBFC0DAFFEA
:10027800DFCFC0F0020EDE26DFCFC1F0000EDD2298
:10028800C0C0D9FFC1C0DAFFDF500101286FBAC072
:1002980085F0BBC086F028C187F01FEC08F0E9EFB5
:1002A80001F0BCC0D9FFBDC0DAFFDECF2BF1DDCF36
:1002B8002CF12BC1F6FF2CC1F7FF0800F550780A86
:1002C800D8A469EF01F06BEF01F0CBEF01F0BEC0ED
:1002D800D9FFBFC0DAFFDFCFC0F0020EDE26DFCFC6
:1002E800C1F0000EDD22C0C0D9FFC1C0DAFFDECFE9
:1002F800C2F0DDCFC3F0C2C020F1C3C021F10101BB
:10030800226B236B246B256B266B276B010E2B2529
:100318000001C06F000E01012C210001C16FBCC09B
:10032800D9FFBDC0DAFFC0C0DEFFC1C0DDFFB5EF39
:1003380001F0BAC097F0BBC098F020C199F021C174
:100348009AF022C19BF023C19CF024C19DF025C1E5
:100358009EF026C19FF027C1A0F003EC05F0E9EF5D
:1003680001F02BC1F6FF2CC1F7FF0800F550C06F54
:10037800C16BC151000AD8B4C4EF01F0CBEF01F052
:10038800C051780AD8B49DEF01F0CBEF01F0BCC0A2
:10039800D9FFBDC0DAFFDE2A000EDD22E9EF01F049
:1003A800BCC0D9FFBDC0DAFFDECFF6FFDDCFF7FF57
:1003B8000800F55000017C6F7D6BBAC07EF0BBC0B1
:1003C8007FF0FCEC09F0CBEF01F0120043C0D9FF3D
:1003D80044C0DAFFDECFF6FFDDCFF7FF0800F550A7
:1003E800250AD8A4FAEF01F0FCEF01F065EF03F05D
:1003F80043C0D9FF44C0DAFFDE2A000EDD22000E1A
:100408000001CD6F000ECC6FCCC0DAF0CE69CF6999
:10041800000E556E000E546E3DEF02F00001DA83B7
:1004280043C0D9FF44C0DAFFDE2A000EDD223DEFCB
:1004380002F0000E556E010E546E3DEF02F043C0FF
:10044800D9FF44C0DAFFDECFF6FFDDCFF7FF0800A3
:10045800F550476E486A4850000AD8B436EF02F0A3
:100468001DEF02F04750300AD8B412EF02F01DEF2A
:1004780002F054505510D8B444EF02F046EF02F0A1
:1004880023EF02F043C0D9FF44C0DAFFDECFF6FF06
:10049800DDCFF7FF0800F5502A0AD8A456EF02F07E
:1004A80058EF02F082EF02F043C0D9FF44C0DAFFF0
:1004B800DE2A000EDD2245C0D9FF46C0DAFFDFCFB5
:1004C80047F0020EDE26DFCF48F0000EDD2247C0DF
:1004D800D9FF48C0DAFFDECFCCF0DDCFCDF0000188
:1004E800CDBF7BEF02F079EF02F0B5EF02F0DA81D1
:1004F800CC6DCD1FD8B0CD2BB5EF02F043C0D9FFDE
:1005080044C0DAFFDECF07F0DDCF08F07AEC07F061
:1005180007C0CCF008C0CDF099EF02F043C0D9FF76
:1005280044C0DAFFDE2A000EDD2243C0D9FF44C0F2
:10053800DAFFDECFF6FFDDCFF7FF0800F5CF47F093
:10054800D00E4724486E496AFF0E4922495009E1F6
:100558000A0E485CD8A0B3EF02F0B5EF02F092EFB4
:1005680002F043C0D9FF44C0DAFFDECFF6FFDDCF8B
:10057800F7FF0800F550630AD8A4C5EF02F0C7EFEB
:1005880002F0EAEF02F043C0D9FF44C0DAFFDE2AE6
:10059800000EDD2245C0D9FF46C0DAFFDFCF47F0A5
:1005A800020EDE26DFCF48F0000EDD2247C0D9FF5D
:1005B80048C0DAFFDF50536E41C00CF042C00DF066
:1005C80053C00EF086EC08F079EF03F043C0D9FF72
:1005D80044C0DAFFDECF56F0DDCF57F056C0F6FF45
:1005E80057C0F7FF0800F550780AD8A4FEEF02F0CC
:1005F80000EF03F05CEF03F045C0D9FF46C0DAFF17
:10060800DFCF47F0020EDE26DFCF48F0000EDD22F6
:1006180047C0D9FF48C0DAFFDECF49F0DDCF4AF046
:1006280049C04BF04AC04CF04D6A4E6A4F6A506A56
:10063800516A526A010E5624476E000E5720486EC2
:1006480043C0D9FF44C0DAFF47C0DEFF48C0DDFF22
:1006580046EF03F041C01EF042C01FF04BC020F02F
:100668004CC021F04DC022F04EC023F04FC024F002
:1006780050C025F051C026F052C027F0EBEC05F031
:1006880079EF03F056C0F6FF57C0F7FF0800F550A2
:10069800476E486A4850000AD8B455EF03F05CEF3B
:1006A80003F04750780AD8B42EEF03F05CEF03F05C
:1006B80043C0D9FF44C0DAFFDE2A000EDD2279EFFD
:1006C80003F043C0D9FF44C0DAFFDECFF6FFDDCF29
:1006D800F7FF0800F550036E046A41C005F042C0F8
:1006E80006F048EC0AF05CEF03F01200CCEC0CF0DA
:1006F800000E00017B6F000E7A6FFCEC0BF09E90F1
:100708009EA089EF03F08BEF03F084EF03F0D80E7F
:1007180000017A6F110E7B6FF3EC0CF0D90E01011A
:100728002D6F7F0E2E6F28EC0CF0550E01012D6FEA
:100738007F0E2E6F28EC0CF0E40E01012D6F7F0E5A
:100748002E6F28EC0CF0BB0E01012D6F7F0E2E6F63
:1007580028EC0CF03E0E01012D6F7E0E2E6F28EC5A
:100768000CF0F90E01012D6F7F0E2E6F28EC0CF0A6
:10077800E2EC0CF00009D8B4C4EF03F0C6EF03F0C4
:10078800BCEF03F03DEC0CF00101356FCCEF04F049
:10079800920E2D6F7E0E2E6F28EC0CF0270E0101A5
:1007A8002D6F7F0E2E6FA1EC0CF07AC02FF17BC05D
:1007B80030F128EC0CF0920E01012D6F7E0E2E6F99
:1007C80028EC0CF0CA0E01012D6F7F0E2E6F28EC5D
:1007D8000CF0ED0E01012D6F7F0E2E6F28EC0CF042
:1007E800950E01012D6F7F0E2E6F28EC0CF00F0E69
:1007F80001012D6F7F0E2E6F28EC0CF0B30E010156
:100808002D6F7E0E2E6F28EC0CF0F20E01012D6F6D
:100818007E0E2E6F28EC0CF06B0E01012D6F7E0EF4
:100828002E6F28EC0CF0D30E01012D6F7E0E2E6F6B
:1008380028EC0CF0920E01012D6F7E0E2E6F28EC25
:100848000CF0BCEF03F03F0E2D6F7F0E2E6F28ECDF
:100858000CF0010E0001DF6FBCEF03F06B0E2D6F83
:100868007F0E2E6F28EC0CF0000E0001DF6FBCEF3E
:1008780003F0800E2D6F7F0E2E6F28EC0CF0010E0A
:100888000001DE6FBCEF03F0620E3519D8A44FEFFC
:1008980004F051EF04F054EF04F0010E0001DD6F95
:1008A800420E01013519D8A45CEF04F05EEF04F0A4
:1008B800BCEF03F0000E0001DD6FBCEF03F0F29E09
:1008C800ED0E2D6F7D0E2E6F28EC0CF0E2EC0CF087
:1008D8000009D8B472EF04F074EF04F06AEF04F082
:1008E8003DEC0CF0898CE40E01012D6F7E0E2E6F0D
:1008F80028EC0CF0899CE2EC0CF00009D8B487EFE6
:1009080004F089EF04F07FEF04F03DEC0CF03DECCF
:100918000CF0F28EBCEF03F0F40E2D6F7F0E2E6FED
:1009280028EC0CF0BCEF03F0000E366FB00E2D6F04
:100938007E0E2E6F28EC0CF00101362B270E366543
:10094800A8EF04F0AAEF04F09AEF04F0FF00BCEF60
:1009580003F0000E366FB00E2D6F7E0E2E6F28EC52
:100968000CF00101362B270E3665BDEF04F0BFEF02
:1009780004F0AFEF04F0BCEF03F0AA0E2D6F7F0E6A
:100988002E6F35C12FF1306B28EC0CF0BCEF03F063
:100998003551336F346B3451000AD8B4D6EF04F0B4
:1009A800C1EF04F033513F0AD8B4CCEF03F07D0A0D
:1009B800D8B448EF04F00C0AD8B432EF04F0140AA3
:1009C800D8B498EF04F0380AD8B448EF04F00B0A0A
:1009D800D8B43DEF04F0070AD8B427EF04F0010AB1
:1009E800D8B490EF04F01B0AD8B463EF04F00E0AF1
:1009F800D8B4ADEF04F0C1EF04F04EEF00F0000101
:100A0800CFBF09EF05F00BEF05F00CEF05F0DA9317
:100A1800CFBF19EF05F0CF5106E1CE05D8B017EFDB
:100A280005F019EF05F01FEF05F0000EAC6F010E91
:100A3800AB6F23EF05F0CEC0ABF0CFC0ACF0CCC0AD
:100A4800ADF0CDC0AEF099C0AFF09AC0B0F09BC089
:100A5800B1F09CC0B2F09DC0B3F09EC0B4F09FC08E
:100A6800B5F0A0C0B6F0000EB86F1F0EB76F000E3D
:100A780001011F6F9BEF05F0B707D8A0B807AF516A
:100A88000F0BB96F090EB9654CEF05F04EEF05F085
:100A980056EF05F0570EB925A96FAA6B000EAA23C9
:100AA8005CEF05F0300EB925A96FAA6B000EAA23DA
:100AB800A9C0B9F0000EB725D96E010EB821DA6EBB
:100AC800B9C0DFFFAB07D8A0AC07AD07D8A0AE0709
:100AD800AFC0A1F0B0C0A2F0B1C0A3F0B2C0A4F002
:100AE800B3C0A5F0B4C0A6F0B5C0A7F0B6C0A8F0D2
:100AF800050E88EF05F0D890A833A733A633A533A1
:100B0800A433A333A233A133E82E7FEF05F0A1C0AD
:100B1800AFF0A2C0B0F0A3C0B1F0A4C0B2F0A5C0BD
:100B2800B3F0A6C0B4F0A7C0B5F0A8C0B6F00001F5
:100B3800B8BFA8EF05F0B85109E1020EB75DD8A01B
:100B4800A8EF05F0AAEF05F0DAEF05F0AF51B01104
:100B5800B111B211B311B411B511B611D8A4B7EFD0
:100B680005F0B9EF05F040EF05F0ACBFC6EF05F0B2
:100B7800AC5106E1AB05D8B0C4EF05F0C6EF05F0FF
:100B880040EF05F0AEBFD1EF05F0AE5108E1AD057D
:100B9800D8A0D1EF05F0D3EF05F0DAEF05F0DAB31E
:100BA800D8EF05F0DAEF05F040EF05F097C08CF0CC
:100BB80098C08DF0000EB7258E6F010EB8218F6F8B
:100BC800ADC090F0AEC091F04DEC09F012000001FC
:100BD800CFBFF1EF05F0F3EF05F0F4EF05F0DA938E
:100BE800CFBF01EF06F0CF5106E1CE05D8B0FFEF39
:100BF80005F001EF06F007EF06F0000E336E010E68
:100C0800326E0BEF06F0CEC032F0CFC033F0CCC05E
:100C180034F0CDC035F020C036F021C037F022C006
:100C280038F023C039F024C03AF025C03BF026C084
:100C38003CF027C03DF0000E3F6E1F0E3E6E000ECA
:100C480001011F6F83EF06F03E06D8A03F0636501D
:100C58000F0B406E090E406434EF06F036EF06F0D5
:100C68003EEF06F0570E4024306E316A000E3122F6
:100C780044EF06F0300E4024306E316A000E312207
:100C880030C040F0000E3E24D96E010E3F20DA6ECF
:100C980040C0DFFF3206D8A033063406D8A0350698
:100CA80036C028F037C029F038C02AF039C02BF0F8
:100CB8003AC02CF03BC02DF03CC02EF03DC02FF0C8
:100CC800050E70EF06F0D8902F322E322D322C32CE
:100CD8002B322A3229322832E82E67EF06F028C054
:100CE80036F029C037F02AC038F02BC039F02CC0B4
:100CF8003AF02DC03BF02EC03CF02FC03DF03FBE77
:100D08008FEF06F03F5009E1020E3E5CD8A08FEF4E
:100D180006F091EF06F0C2EF06F0365037103810A3
:100D280039103A103B103C103D10D8A49EEF06F045
:100D3800A0EF06F028EF06F033BEADEF06F0335013
:100D480006E13204D8B0ABEF06F0ADEF06F028EFBD
:100D580006F035BEB8EF06F0355008E13404D8A0E7
:100D6800B8EF06F0BAEF06F0C2EF06F00001DAB30A
:100D7800C0EF06F0C2EF06F028EF06F01EC013F031
:100D88001FC014F0000E3E24156E010E3F20166E93
:100D980034C017F035C018F0A5EC09F01200000EA9
:100DA8000001886F000E876F000E866F000E856F3A
:100DB800E0EF06F0804B812B80C0F6FF81C0F7FF83
:100DC8000800F550200AD8B4ECEF06F0EEEF06F074
:100DD800DEEF06F080C0F6FF81C0F7FF0800F5CF10
:100DE80082F0F70E8225836F846BFF0E8423845173
:100DF80009E1050E835DD8A004EF07F006EF07F0C0
:100E0800DEEF06F010EF07F0000E866F010E856F1B
:100E1800804B812B46EF07F080C0F6FF81C0F7FFBB
:100E28000800F550826F836B8351000AD8B41FEF16
:100E380007F046EF07F082512B0AD8B40CEF07F001
:100E4800060AD8B408EF07F046EF07F087C07AF033
:100E580088C07BF0000E7D6F0A0E7C6F52EC0CF0A0
:100E680080C0F6FF81C0F7FF0800F55000017A5FE7
:100E7800000E7B5B300E7A25876F000E7B21886F12
:100E88000CEF07F080C0F6FF81C0F7FF0800F5CF30
:100E980082F0D00E8225836F846BFF0E84238451E9
:100EA80009E10A0E835DD8A05CEF07F05EEF07F05A
:100EB8002AEF07F085518611D8A465EF07F067EF90
:100EC80007F075EF07F087C082F088C083F0821FB3
:100ED800831F824B832B82C080F083C081F079EF1F
:100EE80007F087C080F088C081F01200000E0F6EF6
:100EF800000E0E6E000E0D6E000E0C6E86EF07F0E3
:100F0800074A082A07C0F6FF08C0F7FF0800F5508F
:100F1800200AD8B492EF07F094EF07F084EF07F0B7
:100F280007C0F6FF08C0F7FF0800F5CF09F0F70E75
:100F380009240A6E0B6AFF0E0B220B5009E1050EFD
:100F48000A5CD8A0AAEF07F0ACEF07F084EF07F02F
:100F5800B6EF07F0000E0D6E010E0C6E074A082A58
:100F6800EBEF07F007C0F6FF08C0F7FF0800F550E1
:100F7800096E0A6A0A50000AD8B4C5EF07F0EBEF09
:100F880007F009502B0AD8B4B2EF07F0060AD8B414
:100F9800AEEF07F0EBEF07F00EC001F00FC002F064
:100FA800000E046E0A0E036E8EEC0CF007C0F6FFFE
:100FB80008C0F7FF0800F550015E000E025A300E17
:100FC80001240E6E000E02200F6EB2EF07F007C06C
:100FD800F6FF08C0F7FF0800F5CF09F0D00E092486
:100FE8000A6E0B6AFF0E0B220B5009E10A0E0A5C0F
:100FF800D8A001EF08F003EF08F0D0EF07F00C508D
:101008000D10D8A40AEF08F00CEF08F01AEF08F05A
:101018000EC009F00FC00AF0091E0A1E094A0A2A62
:1010280009C007F00AC008F01EEF08F00EC007F06C
:101038000FC008F012000001CC51CD11D8A427EF41
:1010480008F029EF08F02FEF08F0CCC08BF0CDC0E6
:101058008CF035EF08F0FF0ECC258B6FFF0ECD21FD
:101068008C6FDAA13AEF08F03CEF08F045EF08F092
:1010780087C07CF07D6B85C07EF086C07FF0FCEC7D
:1010880009F000018CBF4BEF08F04DEF08F04FEF6F
:1010980008F053EF08F0000E8C6F000E8B6F000EF7
:1010A8008A6F000E896F66EF08F0000E7D6F200EC4
:1010B8007C6F85C07EF086C07FF0FCEC09F00001F3
:1010C800894B8A2B8B51895D8A51800A886F8C5194
:1010D800800A8859D8A073EF08F075EF08F059EF27
:1010E80008F0DAB17AEF08F07CEF08F085EF08F045
:1010F80087C07CF07D6B85C07EF086C07FF0FCECFD
:1011080009F012000001CC51CD11D8A48EEF08F0DF
:1011180090EF08F096EF08F0CCC012F0CDC013F0B5
:101128009CEF08F0FF0ECC25126EFF0ECD21136E3A
:10113800DAA1A1EF08F0A3EF08F0ACEF08F00EC0B9
:1011480003F0046A0CC005F00DC006F048EC0AF084
:1011580013BEB1EF08F0B3EF08F0B5EF08F0B9EF40
:1011680008F0000E136E000E126E000E116E000EC7
:10117800106ECBEF08F0000E046E200E036E0CC04C
:1011880005F00DC006F048EC0AF0104A112A12507A
:10119800105C1150800A0F6E1350800A0F58D8A0A7
:1011A800D8EF08F0DAEF08F0BFEF08F00001DAB185
:1011B800E0EF08F0E2EF08F0EBEF08F00EC003F004
:1011C800046A0CC005F00DC006F048EC0AF01200E5
:1011D80020EEE0F010EE68F0050EDBCFE3FFE80646
:1011E800FCE2898C0001DE05D8A4FDEF08F0FFEFD2
:1011F80008F00CEF09F0DC2B020EDC6506EF09F0B5
:1012080008EF09F00AEF09F0000EDC6F000EDE6F40
:10121800DF05D8A412EF09F014EF09F03DEF09F04B
:10122800DC51020D680EF324D96E000EF420DA6E3C
:10123800DECF66F0DDCF67F066510008016E6751BA
:10124800D8A0E82A0008026E7AEC0CF08ABA2FEFD0
:1012580009F032EF09F0010E33EF09F0000EFF0A32
:101268000001666F663B66478A506619DF0B661990
:101278008A6EDD05D8A443EF09F045EF09F04BEF7E
:1012880009F0E40E626F7E0E636F66EC0CF0899CC9
:1012980012000001DAA153EF09F055EF09F05FEFF2
:1012A80009F08EC085F08FC086F08CC087F08DC0A5
:1012B80088F0E3EC0AF0000191BF65EF09F067EFF1
:1012C80009F06DEF09F090C095F091C096F071EFBC
:1012D80009F0000E966F000E956F000E946F000EC9
:1012E800936F84EF09F0000E7D6F200E7C6F8CC029
:1012F8007EF08DC07FF0FCEC09F00001934B942B3D
:101308009551935D9451800A926F9651800A925933
:10131800D8A091EF09F093EF09F077EF09F0DAB16F
:1013280098EF09F09AEF09F0A4EF09F08EC085F064
:101338008FC086F08CC087F08DC088F0E3EC0AF08F
:1013480012000001DAA1ABEF09F0ADEF09F0B7EF39
:1013580009F015C00CF016C00DF013C00EF014C043
:101368000FF071EC0BF018BEBCEF09F0BEEF09F0FE
:10137800C4EF09F017C01CF018C01DF0C8EF09F041
:10138800000E1D6E000E1C6E000E1B6E000E1A6EF7
:10139800DAEF09F0000E046E200E036E13C005F09C
:1013A80014C006F048EC0AF01A4A1B2A1C501A5CB2
:1013B8001B50800A196E1D50800A1958D8A0E7EFF3
:1013C80009F0E9EF09F0CEEF09F00001DAB1EFEF2B
:1013D80009F0F1EF09F0FBEF09F015C00CF016C0A9
:1013E8000DF013C00EF014C00FF071EC0BF01200EA
:1013F80000017E517F11D8B404EF0AF006EF0AF01D
:101408000FEF0AF07E517F11D8A40DEF0AF00FEF0D
:101418000AF014EF0AF07C51ECEC0CF047EF0AF0FC
:1014280020EE09F07E51D9267F51DA22DE50DE10F7
:10143800D8B421EF0AF023EF0AF03EEF0AF020EECD
:1014480009F07E51D9267F51DA2210EE03F07E5141
:10145800E1267F51E222DE50E65CE650800A846F86
:10146800DE50800A8459D8B03CEF0AF03EEF0AF00B
:1014780047EF0AF020EE03F07E51D9267F51DA2299
:10148800DE2A000EDD22120005500610D8B44FEFF8
:101498000AF051EF0AF05AEF0AF005500610D8A4E6
:1014A80058EF0AF05AEF0AF05FEF0AF0035007EC22
:1014B8000DF092EF0AF020EE09F00550D9260650FB
:1014C800DA22DE50DE10D8B46CEF0AF06EEF0AF0C4
:1014D80089EF0AF020EE09F00550D9260650DA22E5
:1014E80010EE03F00550E1260650E222DE50E65CDD
:1014F800E650800A0B6EDE50800A0B58D8B087EF92
:101508000AF089EF0AF092EF0AF020EE03F0055096
:10151800D9260650DA22DE2A000EDD221200C6C0C5
:10152800CAF0C7C0CBF0A8EF0AF0C4C0BAF0C5C073
:10153800BBF0CA0E0001BC6F000EBD6FC8C0BEF084
:10154800C9C0BFF050EC00F0CAC0F6FFCBC0F7FF2F
:101558000800F5500009D8A4B4EF0AF0B6EF0AF075
:1015680099EF0AF0000E0001C56F000EC46F12005B
:101578005AC060F05BC061F0D0EF0AF058C041F08B
:1015880059C042F0600E436E000E446E5CC045F0D8
:101598005DC046F0EAEC01F060C0F6FF61C0F7FFFD
:1015A8000800F5500009D8A4DCEF0AF0DEEF0AF0D5
:1015B800C2EF0AF0000E596E000E586E1200000EAF
:1015C80000018B6F000E8A6FF6EF0AF089C07CF07D
:1015D8007D6B87C07EF088C07FF0FCEC09F00001CD
:1015E8008A4B8B2B8A518525D96E8B518621DA6ED1
:1015F800DF50896F8951D8A404EF0BF006EF0BF088
:10160800EAEF0AF01200010E00017E6F200E7A192F
:101618007B11D8B412EF0BF014EF0BF027EF0BF09F
:10162800F70E7A257C6FFF0E7B217D6F7D5109E1D6
:10163800050E7C5DD8A023EF0BF025EF0BF027EF0C
:101648000BF0000E7E6F7EC07AF07B6B1200180ED6
:10165800F66E1A0EF76E000EF86E00EEE0F010EE61
:1016680006F00900F5CFEEFFE550E150FAE101EE92
:1016780000F0200EEE6AE806FDE100EECCF0140E54
:10168800EE6AE806FDE15E905E92000EF86E0001DB
:101698007AEF03F0080EB86E900EAB6E240EAC6EA7
:1016A800820EAF6E060EB06E000E00017A6F000E4D
:1016B8007B6FFDEC0CF0000E00017A6F000E7B6F63
:1016C800F8EC0CF0000E00017A6F000E7B6F02EC54
:1016D8000DF0000E0001DB6F1200000E126E000EFE
:1016E800116E82EF0BF010C003F0046A0EC005F013
:1016F8000FC006F048EC0AF0114A122A11500C24C7
:10170800D96E12500D20DA6EDF50106E1050D8A42A
:1017180090EF0BF092EF0BF077EF0BF012009E902A
:10172800D2C001F0D3C002F07AEC0CF00001D05125
:10173800D111D8B4A2EF0BF0A4EF0BF0B1EF0BF07E
:1017480002D8B1EF0BF00500FA6ED051FD6ED15101
:10175800FE6EF850FF6EFA5012001200200E0118AB
:101768000210D8B4BAEF0BF0BCEF0BF0CDEF0BF0D2
:10177800F70E0124036EFF0E0220046E045009E1E7
:10178800050E035CD8A0CBEF0BF0CDEF0BF0CDEF3F
:101798000BF01200D00E00017A257C6FFF0E7B2122
:1017A8007D6F7D510AE10A0E7C5DD8A0DEEF0BF05B
:1017B800E1EF0BF0010EE2EF0BF0000E7A6F7B6B9E
:1017C8001200000E896E000E8A6E000E8B6EBF0E20
:1017D800926EDF0E936EBF0E946E3C0E0F013A6F41
:1017E8003F0E396F2F0E386F000E616EF18E1200AA
:1017F800CDA401EF0CF003EF0CF00CEF0CF0CD9042
:1018080000017B51CF6E7AC0CEFFCD8011EF0CF076
:1018180000017B51CF6E7AC0CEFF1200000ECC6E55
:10182800000ECF6E000ECE6ECECFD2F0CFCFD3F05B
:101838009E909D80220E00017A6F1A0E7B6FF3EC4A
:101848000CF0010ECD6E12002F0E0101316F010E4A
:10185800326F000E0001C46F000EC56F2DC1C6F0B7
:101868002EC1C7F0310EC86F010EC96F93EC0AF094
:1018780012009EAA42EF0CF044EF0CF03DEF0CF082
:10188800000E0001DB6FABA24CEF0CF04EEF0CF03A
:1018980050EF0CF0AB98AB88AE50120000017A51B3
:1018A8007C03F3CF7EF0F4CF7FF07A517D03F350C1
:1018B8007F277B517C03F3507F277EC07AF07FC05F
:1018C8007BF01200640E0001646F000E656F000E5D
:1018D800586E000E596E62C05AF063C05BF0640E19
:1018E8005C6E000E5D6EBCEC0AF01200CDA47FEFBA
:1018F8000CF081EF0CF089EF0CF0CD900250CF6E18
:1019080001C0CEFFCD808DEF0CF00250CF6E01C02C
:10191800CEFF120001500302F3CF05F0F4CF06F01A
:1019280001500402F350062602500302F350062623
:1019380005C001F006C002F01200CD82CECF81F0C2
:10194800CFCF80F0000180517C6F81517E6F7CC0C9
:101958007FF07EC07AF07FC07BF01200700ED36EED
:10196800040ED26E400E9B6ED2AEBDEF0CF0BFEFF0
:101978000CF0B8EF0CF0120000017A6F9EA8C7EFC8
:101988000CF0C9EF0CF0C2EF0CF07AC0ADFF1200FA
:101998000FEC0DF0E5EC0BF0B2EC0CF012EC0CF0E7
:1019A8004EEC0BF01200016E9EA8DDEF0CF0DFEF9D
:1019B8000CF0D8EF0CF001C0ADFF12009EBAE7EFB3
:1019C8000CF0EAEF0CF0010EEBEF0CF0000E120039
:1019D80000017B6F00017B51C0EC0CF012007AC053
:1019E800D0F07BC0D1F012007AC0D6F07BC0D7F01F
:1019F80012007AC0D8F07BC0D9F012007AC0D4F0B7
:101A08007BC0D5F01200026E0250D7EC0CF0120029
:0E1A1800B01F8023E027D09E120012001200A3
:107DEC0000436F6E6E656374206F73636F706520F4
:107DFC00746F205243312E202050726573732061B2
:107E0C006E79206B6579207768656E207265616488
:107E1C0079207468656E20707265737320616E7959
:107E2C00206B657920746F20726573756D652E0DEE
:107E3C000A00524235202D3E204C5046696E20617E
:107E4C006E6420696E7374616C6C204C50466F7557
:107E5C00742F414D50696E206A756D7065720062A9
:107E6C002F423A2073746172742F73746F70207088
:107E7C0072696E74696E6720696E20544D523120A0
:107E8C004953520D0A002D2D2D2D2D2D2D2D2D2D1F
:107E9C002D2D2D2D2D2D2D2D2D2D2D2D2D2D2D2D06
:107EAC002D2D2D2D0D0A006E2F4E3A20706C617900
:107EBC002F53746F7020706C6179696E672061202C
:107ECC006E6F74650D0A00743A2074696D652074C8
:107EDC006F207072696E742068656C6C6F20776FA0
:107EEC00726C640D0A00693A20696E6372656D6587
:107EFC006E74206E6F746520696E20736F6E672EC2
:107F0C000D0A007A3A20436C656172207468652012
:107F1C007465726D696E616C0D0A00202020202042
:107F2C00202020544D5231203D203078253034789B
:107F3C000D0A00537461727420706C6179696E67FC
:107F4C00206E6F74652E0D0A00496E746572727521
:107F5C007074204D7573696320426F780D0A00535D
:107F6C00746F7020706C6179696E67206E6F7465C8
:107F7C002E0D0A00506C6179696E67206E657874FD
:107F8C00206E6F74652E0D0A005A3A205265736587
:107F9C00742070726F636573736F720D0A00556E87
:107FAC006B6E6F776E206B65792025630D0A00422E
:107FBC006F61726420776972696E670D0A003F3ACF
:107FCC002048656C70206D656E750D0A00696E4CED
:107FDC0061622030340D0A004465762732310D0A77
:107FEC00006F3A206B0D0A006B2E0D0A000D0A3E35
:037FFC0020000062
:020000040020DA
:08000000FFFFFFFFFFFFFFFF00
:020000040030CA
:0E000000FF281F3CFFBF85FF0FC00FE00F4021
:00000001FF
