:040000006DEF3AF076
:107346000250D76E01C0D6FF120039EC3AF0C5ECF8
:1073560039F0D3EC39F0FFEC39F01200F2B4B6EFA5
:1073660039F0B9EF39F0010EBAEF39F0000E12001C
:107376009EB0C0EF39F0C3EF39F0010EC4EF39F01B
:10738600000E1200700ED36E040ED26E400E9B6E6F
:10739600D2AED0EF39F0D2EF39F0CBEF39F01200A0
:1073A600000ECC6E000ECF6E000ECE6ECECF5AF013
:1073B600CFCF5BF09E90010ECD6E1200000102034E
:1073C6000405060708090A0B0C0D0E0F10111213FF
:1073D6001415161718191A1B1C1D010101010101AC
:1073E6000101010101010101010101010101010187
:1073F6000101010101010101D59CD7685F0ED66E1E
:10740600D650D7CF01F0026A01C002F0016A01101E
:10741600586E0250596EF294970ED56E12000150B6
:107426000302F3CF05F0F4CF06F001500402F35047
:10743600062602500302F350062605C001F006C0D8
:1074460002F01200CDA42AEF3AF02CEF3AF034EF16
:107456003AF0CD900250CF6E01C0CEFFCD8038EF0E
:107466003AF00250CF6E01C0CEFF1200000E896EB8
:10747600000E8A6E000E8B6E9268DF0E936E946815
:10748600FC0E0F013A6F1F0E396F230E386F000E78
:10749600616EF18E120003C005F004C006F0053AD5
:1074A600063AF00E061605500F0B0612F00E0516DC
:1074B60005C007F006C008F0096A0A6A0750000806
:1074C600016E0850D8A0E82A0008026E25EC3AF0B2
:1074D6009E901200C20EF66E730EF76E000EF86ED8
:1074E60000EEDFF010EE1EF00900F5CFEEFFE550DE
:1074F600E150FAE1E00EF66E730EF76E000EF86ECE
:1075060000EE3AF010EE1EF00900F5CFEEFFE55062
:10751600E150FAE101EE00F03C0EEE6AE806FDE10C
:107526005B6A5A6A596A586A0001ECEF3CF0000E31
:10753600136E000E146E7A0E156E420E166E32C063
:1075460001F033C002F0036A046A000E12EC3CF04C
:1075560001C00FF002C010F003C011F004C012F019
:10756600EBEC3DF00FC028F010C029F011C02AF056
:1075760012C02BF009EC3BF028C034F029C035F0DE
:1075860034500008016E3550D8A0E82A0008026E73
:10759600A3EC39F0F2941200000E0C6E000E0B6E86
:1075A60009500A10D8B4DAEF3AF0DCEF3AF004EFFB
:1075B6003BF0010E0D6EE4EF3AF0D89009360A362C
:1075C6000D2A0AAEE9EF3AF0EBEF3AF0E0EF3AF0C7
:1075D600D8900B360C360950075C0A500858D8A0CC
:1075E600F7EF3AF0F9EF3AF0FEEF3AF00950075E9E
:1075F6000A50085A0B80D8900A3209320D2EEBEF4A
:107606003AF00BC007F00CC008F012002A342B34F5
:10761600316E3150D8A412EF3BF014EF3BF01EEF61
:107626003BF0000E286E000E296E000E2A6E000E2C
:107636002B6E8BEF3BF028C02CF029C02DF02AC012
:107646002EF02BC02FF0200E2EEF3BF0D8902F32CD
:107656002E322D322C32E82E29EF3BF02C50306E94
:107666002A8EFF0E2816FF0E2916FF0E2A16000E6A
:107676002B16960E315E31BE45EF3BF043EF3BF0E5
:107686005BEF3BF03150800A970FD8B04DEF3BF0DF
:107696004FEF3BF051EF3BF014EF3BF0D8902B321D
:1076A6002A3229322832313E51EF3BF073EF3BF05C
:1076B6001F0E316461EF3BF063EF3BF06BEF3BF085
:1076C60014EF3BF0D890283629362A362B36310669
:1076D6003150D8A471EF3BF073EF3BF065EF3BF010
:1076E6003050D8B479EF3BF07BEF3BF083EF3BF0C3
:1076F6002B1E2A1E291E286C000E29222A222B2226
:1077060028C028F029C029F02AC02AF02BC02BF067
:107716001200000E0A6E08BE95EF3BF093EF3BF0A9
:107726009FEF3BF0081E071E061E056C000E062284
:1077360007220822010E0A6E04BEA6EF3BF0A4EF54
:107746003BF0B0EF3BF0041E031E021E016C000E60
:10775600022203220422010E0A1A000E0B6E000EEC
:107766000C6E000E0D6E000E0E6E05500610071004
:107776000810D8B4C1EF3BF0C3EF3BF0F9EF3BF094
:10778600010E096ECDEF3BF0D8900536063607366A
:107796000836092A08AED2EF3BF0D4EF3BF0C7EF2C
:1077A6003BF0D8900B360C360D360E360550015C84
:1077B600065002580750035808500458D8A0E6EF60
:1077C6003BF0E8EF3BF0F1EF3BF00550015E065071
:1077D600025A0750035A0850045A0B80D8900832B0
:1077E600073206320532092ED4EF3BF00A50D8B4E0
:1077F600FFEF3BF001EF3CF009EF3CF00E1E0D1ED3
:107806000C1E0B6C000E0C220D220E220BC001F07A
:107816000CC002F00DC003F00EC004F01200096E99
:107826000950D8B419EF3CF01BEF3CF03DEF3CF0AB
:1078360004BE22EF3CF020EF3CF03DEF3CF001C0EF
:1078460005F002C006F003C007F004C008F0051EEC
:10785600061E071E081E052A000E062207220822FB
:1078660005C00BF006C00CF007C00DF008C00EF006
:1078760045EF3CF001C00BF002C00CF003C00DF068
:1078860004C00EF00150021003100410D8A44EEFED
:107896003CF050EF3CF05AEF3CF0000E016E000E4B
:1078A600026E000E036E000E046EEBEF3CF0960EB9
:1078B6000A6E64EF3CF00A2AD8900E320D320C3272
:1078C6000B32000E0B14056E000E0C14066E000E25
:1078D6000D14076EFE0E0E14086E055006100710E6
:1078E6000810D8A479EF3CF07BEF3CF05EEF3CF05B
:1078F60089EF3CF00A2A010E0B26000E0C220D22FF
:107906000E22D8900E320D320C320B32000E0B14B2
:10791600056E000E0C14066E000E0D14076EFF0E9B
:107926000E14086E0550061007100810D8A49EEF16
:107936003CF0A0EF3CF07DEF3CF0A8EF3CF00A06EF
:10794600D8900B360C360D360E360DBEADEF3CF02C
:10795600AFEF3CF0B7EF3CF0020E0A60B5EF3CF03B
:10796600B7EF3CF0A2EF3CF00AB0BCEF3CF0BEEF44
:107976003CF0BFEF3CF00D9ED8900A320AC005F0ED
:10798600066A076A086A05C008F0076A066A056A91
:1079960005500B1206500C1207500D1208500E120D
:1079A6000950D8B4D9EF3CF0DBEF3CF0E3EF3CF004
:1079B60004BEE2EF3CF0E0EF3CF0E3EF3CF00E8E6D
:1079C6000BC001F00CC002F00DC003F00EC004F0B5
:1079D6001200000E0001DD6F000EDC6F000ED86F86
:1079E600000ED96F000EDA6F000EDB6F20EE9CF0F2
:1079F6003B0EDE6AE806FDE220EEDFF010EE60F0F8
:107A06001D0EDBCFE3FFE806FCE220EE3AF010EEB7
:107A16007EF01D0EDBCFE3FFE806FCE2A8EC39F0B2
:107A2600010E0001DD6FB80EDC6F000EDE6FDCC0EC
:107A360001F0DDC002F0000E046E6A0E036E12EC59
:107A46003AF001C007F002C008F0000E0A6E640E9C
:107A5600096ECFEC3AF007C0DCF008C0DDF0400E4E
:107A6600016E420E026E0F0E036E000E046EDCC037
:107A760005F0DDC006F0076A086A8CEC3BF001C031
:107A8600D8F002C0D9F003C0DAF004C0DBF0D8C0E9
:107A960036F0D9C037F0DAC038F0DBC039F0D8900C
:107AA60039323832373236320001DE51020D9C0E41
:107AB600F324D96E000EF420DA6E36C0DEFF37C02E
:107AC600DDFFDE2B1D0EDE656BEF3DF06DEF3DF04D
:107AD6001AEF3DF080B472EF3DF074EF3DF06DEFBC
:107AE6003DF080A479EF3DF07BEF3DF074EF3DF083
:107AF600000E0001DE6F7E0EDE25D96EDA6A000EFC
:107B0600DA22DF50366E3650640DF3CF32F0F4CF02
:107B160033F09AEC3AF0C3EF3DF0600E0001DE253B
:107B2600D96EDA6A000EDA22DF50366E3650020D52
:107B36009C0EF324D96E000EF420DA6EDECF03F02D
:107B4600DDCF04F04EEC3AF0BBEC39F00009D8B4C6
:107B5600AFEF3DF0B1EF3DF0A7EF3DF08ABAB6EFDB
:107B66003DF0B9EF3DF0010EBAEF3DF0000EFF0A11
:107B7600366E363A36468A503618DF0B36188A6E17
:107B8600B1EC39F00009D8B4CBEF3DF0CDEF3DF0C4
:107B960090EF3DF0000E336E640E326E9AEC3AF0C2
:107BA600B1EC39F00009D8B4DBEF3DF0DDEF3DF084
:107BB600D3EF3DF00001DE2B1D0EDE65E5EF3DF057
:107BC600E7EF3DF07EEF3DF06DEF3DF000EF00F0AA
:107BD6001250800B1B6E12501224216E11AEF6EF5E
:107BE6003DF0F8EF3DF0F9EF3DF021802150D8B49B
:107BF600FFEF3DF001EF3EF014EF3EF02128D8A450
:107C060007EF3EF009EF3EF011EF3EF0000E0F6E6B
:107C1600000E106E000E116E000E126E118E1CEF0D
:107C26003EF0000E0F6E000E106E000E116E000E6E
:107C3600126E1650800B1B1A16501624206E15AEA7
:107C460027EF3EF029EF3EF02AEF3EF0208020504D
:107C5600D8B430EF3EF032EF3EF045EF3EF020284C
:107C6600D8A438EF3EF03AEF3EF042EF3EF0000E79
:107C7600136E000E146E000E156E000E166E158E27
:107C86004DEF3EF0000E136E000E146E000E156ED4
:107C9600000E166E2050D8B453EF3EF055EF3EF06E
:107CA6005DEF3EF02150D8A45BEF3EF05DEF3EF075
:107CB60067EF3EF0000E0F6E000E106E000E116E96
:107CC600000E126EFFEF3FF015500F02F3CF26F0B5
:107CD600F4CF27F026501C6E1D6A1E6A1F6A2750B5
:107CE600226E236A246A256A14501002F3CF26F006
:107CF600F4CF27F026501C26000E1D221E221F221E
:107D060027502226000E2322242225221350110258
:107D1600F3CF26F0F4CF27F026501C26000E1D22A6
:107D26001E221F2227502226000E2322242225222D
:107D36001EC01FF01DC01EF01CC01DF01C6A135093
:107D46001002F3CF26F0F4CF27F026501C2627503A
:107D56001D22000E1E22000E1F2214500F02F3CF0A
:107D660026F0F4CF27F026501C2627501D22000EA1
:107D76001E22000E1F221EC01FF01DC01EF01CC0BA
:107D86001DF01C6A13500F02F3CF26F0F4CF27F034
:107D960026501C2627501D22000E1E22000E1F22D2
:107DA60015501002F3CF26F0F4CF27F026502226E6
:107DB60027502322000E2422000E252214501102E1
:107DC600F3CF26F0F4CF27F0265022262750232281
:107DD600000E2422000E252215501102F3CF26F0A4
:107DE600F4CF27F02650176E2750186E196A1A6AB4
:107DF60019C01AF018C019F017C018F0176A1750F2
:107E0600222618502322195024221A5025221CC03B
:107E160017F01DC018F01EC019F01FC01AF0190E79
:107E26001AEF3FF0D8901A32193218321732E82E6C
:107E360015EF3FF0175022261850232219502422FE
:107E46001A5025221EC01FF01DC01EF01CC01DF0BA
:107E56001C6A205021C017F0186A1726000E182237
:107E6600820E1724266EFF0E1820276E50EF3FF065
:107E7600D89022362336243625361FAE45EF3FF0FE
:107E860047EF3FF048EF3FF02280D8901C361D3672
:107E96001E361F362606D8A0270624AE55EF3FF01D
:107EA60057EF3FF03BEF3FF0000E206E1FAE5EEF48
:107EB6003FF060EF3FF084EF3FF0FF0E1C14176EAB
:107EC600FF0E1D14186EFF0E1E14196E7F0E1F1462
:107ED6001A6E1750181019101A10D8B475EF3FF013
:107EE60077EF3FF07BEF3FF0010E206E84EF3FF01F
:107EF60022A080EF3FF082EF3FF084EF3FF077EF74
:107F06003FF02050D8B48AEF3FF08CEF3FF0B0EF4F
:107F16003FF0010E2226000E23222422252225A030
:107F260097EF3FF099EF3FF0B0EF3FF022C017F028
:107F360023C018F024C019F025C01AF01A341A32DA
:107F460019321832173217C022F018C023F019C0A0
:107F560024F01AC025F0264A272A27BEBBEF3FF099
:107F6600275008E12628D8A0BBEF3FF0BDEF3FF031
:107F7600C7EF3FF0000E226E000E236E800E246EB9
:107F86007F0E256EF5EF3FF027BED4EF3FF027506A
:107F960006E12604D8B0D2EF3FF0D4EF3FF0E0EF91
:107FA6003FF0000E226E000E236E000E246E000EB1
:107FB600256E000E1B6EF5EF3FF026C021F0FF0E7A
:107FC6002216FF0E23167F0E2416000E251621A05C
:107FD600EFEF3FF0F1EF3FF0F2EF3FF0248ED89055
:107FE6002130256E1B50251222C00FF023C010F041
:0A7FF60024C011F025C012F01200A3
:020000040020DA
:08000000FFFFFFFFFFFFFFFF00
:020000040030CA
:0E000000FF281F3CFFBF85FF0FC00FE00F4021
:00000001FF
