:040000002FEF00F0EE
:100008005282FACF07F0FBCF08F0D9CF09F0DACF48
:100018000AF0F3CF0BF0F4CF0CF0F2AA16EF00F0D1
:1000280018EF00F021EF00F0F2A41DEF00F01FEF31
:1000380000F021EF00F0B5EC06F00CC0F4FF0BC0A7
:10004800F3FF0AC0DAFF09C0D9FF08C0FBFF07C0E9
:10005800FAFF5292110051EF06F0BBEC07F0000EC8
:100068000E6E000E0D6E37EC08F0F294F2A43FEF1E
:1000780000F041EF00F03AEF00F0C1C00DF00E6A59
:1000880035EC07F0C2C00DF00E6A1DEC07F0C3C0D6
:100098000DF00E6AEBEC06F02C0E0D6E090E0E6ECE
:1000A8003CEC08F0F28EF28CE30E0001816F7F0EBB
:1000B800826F93EC07F0D60E0001816F7F0E826F7E
:1000C80093EC07F07B0E0001816F7F0E826F93EC3B
:1000D80007F0B70E0001816F7F0E826F93EC07F077
:1000E800FA0E0001816F7F0E826F93EC07F017EC18
:1000F80008F00009D8B483EF00F085EF00F07BEF3B
:1001080000F0A7EC07F00001896FA4EF01F00E0ED4
:10011800816F7F0E826F93EC07F0C70E0001816F2D
:100128007F0E826F93EC07F0EE0E0001816F7F0E59
:10013800826F93EC07F0910E0001816F7F0E826F42
:1001480093EC07F0630E0001816F7F0E826F93ECD2
:1001580007F0930E0001816F7E0E826F93EC07F01B
:10016800E70E0001816F7E0E826F93EC07F0490E57
:100178000001816F7F0E826F93EC07F02F0E000154
:10018800816F7F0E826F93EC07F0BF0E0001816FC5
:100198007E0E826F93EC07F00E0E0001816F7F0ECA
:1001A800826F93EC07F07BEF00F0000E8A6F2D0E44
:1001B800816F7F0E826F93EC07F000018A2B270E68
:1001C8008A65E9EF00F0EBEF00F0DBEF00F0FF00ED
:1001D8007BEF00F0000E8A6F2D0E816F7F0E826F0D
:1001E80093EC07F000018A2B270E8A65FEEF00F0DA
:1001F80000EF01F0F0EF00F07BEF00F0C151D8B450
:1002080008EF01F00AEF01F07BEF00F0C1077BEF88
:1002180000F0C251D8B413EF01F015EF01F07BEFF5
:1002280000F0C2077BEF00F0C351D8B41EEF01F015
:1002380020EF01F07BEF00F0C3077BEF00F0C1294E
:10024800D8B429EF01F02BEF01F07BEF00F0C12BC0
:100258007BEF00F0C229D8B434EF01F036EF01F09B
:100268007BEF00F0C22B7BEF00F0C329D8B43FEF3F
:1002780001F041EF01F07BEF00F0C32B7BEF00F0C2
:10028800BEC0C1F0BFC0C2F0C0C0C3F09451030DDE
:10029800B50EF324D96E000EF420DA6EDF508B6FA2
:1002A8009451030DB60EF324D96E000EF420DA6EC5
:1002B800DF508C6F9451030DB70EF324D96E000EE6
:1002C800F420DA6EDF508D6F000E946F000E4F6EC3
:1002D800010E506E7BEF00F0000E506E7BEF00F0C9
:1002E800C80EC427000EC523F50E816F7F0E826FDE
:1002F800C4C083F0C5C084F093EC07F07BEF00F036
:10030800C80EC45F000EC55BF50E816F7F0E826F4D
:10031800C4C083F0C5C084F093EC07F07BEF00F015
:10032800C169C269C36970EF01F0A60E816F7F0EC3
:10033800826F89C083F0846B93EC07F07BEF00F049
:100348008951876F886B8851000AD8B4AEEF01F0E5
:1003580099EF01F087512B0AD8B474EF01F0060A1F
:10036800D8B484EF01F0120AD8B48BEF00F07D0AFC
:10037800D8B418EF01F0010AD8B444EF01F0040A28
:10038800D8B40DEF01F0150AD8B402EF01F0080A4D
:10039800D8B4D9EF00F03B0AD8B494EF01F0030ABF
:1003A800D8B439EF01F0010AD8B470EF01F0040AAB
:1003B800D8B42EEF01F0150AD8B423EF01F0080ADB
:1003C800D8B4EEEF00F099EF01F02FEF00F03EC047
:1003D800D9FF3FC0DAFFDECFF6FFDDCFF7FF080019
:1003E800F550250AD8A4FBEF01F0FDEF01F0BEEFB0
:1003F80002F03EC0D9FF3FC0DAFFDE2A000EDD2240
:10040800000E476E000E466E46C04EF048684968BA
:100418003EC0D9FF3FC0DAFFDECFF6FFDDCFF7FFE2
:100428000800F550630AD8A41CEF02F01EEF02F092
:1004380042EF02F03EC0D9FF3FC0DAFFDE2A000ECD
:10044800DD2240C0D9FF41C0DAFFDFCF42F0020E03
:10045800DE26DFCF43F0000EDD2242C0D9FF43C0C5
:10046800DAFFDF500001766F3CC018F03DC019F08C
:1004780076C01AF054EC05F0D2EF02F03EC0D9FF76
:100488003FC0DAFFDECF77F0DDCF78F077C0F6FF38
:1004980078C0F7FF0800F550750AD8A456EF02F0A7
:1004A80058EF02F0B5EF02F040C0D9FF41C0DAFFC3
:1004B800DFCF42F0020EDE26DFCF43F0000EDD2252
:1004C80042C0D9FF43C0DAFFDECF44F0DDCF45F0AC
:1004D80044C06EF045C06FF00001706B716B726BB9
:1004E800736B746B756B010E7725426E000E782165
:1004F800436E3EC0D9FF3FC0DAFF42C0DEFF43C0B3
:10050800DDFF9FEF02F03CC02AF03DC02BF06EC02B
:100518002CF06FC02DF070C02EF071C02FF072C09B
:1005280030F073C031F074C032F075C033F0D3ECE2
:1005380002F0D2EF02F077C0F6FF78C0F7FF0800AC
:10054800F550426E436A4350000AD8B4AEEF02F049
:10055800B5EF02F04250750AD8B487EF02F0B5EF54
:1005680002F03EC0D9FF3FC0DAFFDE2A000EDD22CE
:10057800D2EF02F03EC0D9FF3FC0DAFFDECFF6FF70
:10058800DDCFF7FF0800F5500F6E106A3CC011F080
:100598003DC012F0A1EC05F0B5EF02F0120049BE23
:1005A800E0EF02F0495006E14804D8B0DEEF02F06F
:1005B800E0EF02F0E7EF02F0000E0001636F010EBA
:1005C800626FEBEF02F048C062F049C063F046C0CA
:1005D80060F047C061F02CC064F02DC065F02EC0FB
:1005E80066F02FC067F030C068F031C069F032C0E3
:1005F8006AF033C06BF0000E00016D6F1F0E6C6F58
:10060800000EB46F7FEF03F06C07D8A06D07950E4E
:100618006C25D96E000E6D21DA6E64C00DF065C0D0
:100628000EF066C00FF067C010F068C011F069C026
:1006380012F06AC013F06BC014F00A0E156E000EAB
:10064800166E000E176E000E186E000E196E000E54
:100658001A6E000E1B6E000E1C6E2EEC04F00DC000
:1006680034F00EC035F00FC036F010C037F011C0AE
:1006780038F012C039F013C03AF014C03BF03450CF
:10068800300FDF6E00016207D8A063076007D8A0AB
:10069800610764C00DF065C00EF066C00FF067C05A
:1006A80010F068C011F069C012F06AC013F06BC096
:1006B80014F00A0E156E000E166E000E176E000E60
:1006C800186E000E196E000E1A6E000E1B6E000ECC
:1006D8001C6EB6EC03F00DC064F00EC065F00FC0E0
:1006E80066F010C067F011C068F012C069F013C05E
:1006F8006AF014C06BF000016C516D11D8B487EF2B
:1007080003F089EF03F0A5EF03F06451651166115A
:100718006711681169116A116B11D8A496EF03F07B
:1007280098EF03F008EF03F063BFA5EF03F0635100
:1007380006E16205D8B0A3EF03F0A5EF03F008EFD8
:1007480003F02AC01FF02BC020F0950E6C25216EF7
:10075800000E6D21226E60C023F061C024F0ECEC25
:1007680005F0120020EE1DF0070EDE6AE806FDE235
:10077800155016101710181019101A101B101C10ED
:10078800D8B4C9EF03F0CBEF03F01DEF04F0010E6E
:10079800256ED9EF03F0D890153616361736183669
:1007A80019361A361B361C36252A1CAEDEEF03F026
:1007B800E0EF03F0CFEF03F0D8901D361E361F365A
:1007C8002036213622362336243615500D5C165035
:1007D8000E5817500F5818501058195011581A50D1
:1007E80012581B5013581C501458D8A0FEEF03F091
:1007F80000EF04F011EF04F015500D5E16500E5A7C
:1008080017500F5A1850105A1950115A1A50125A94
:100818001B50135A1C50145A1D80D8901C321B327E
:100828001A3219321832173216321532252EE0EFE5
:1008380003F01DC00DF01EC00EF01FC00FF020C049
:1008480010F021C011F022C012F023C013F024C010
:1008580014F01200155016101710181019101A104D
:100868001B101C10D8B43BEF04F03DEF04F085EFEB
:1008780004F0010E1D6E4BEF04F0D89015361636B5
:100888001736183619361A361B361C361D2A1CAE72
:1008980050EF04F052EF04F041EF04F015500D5CF6
:1008A80016500E5817500F58185010581950115804
:1008B8001A5012581B5013581C501458D8A067EFE0
:1008C80004F069EF04F079EF04F015500D5E16504E
:1008D8000E5A17500F5A1850105A1950115A1A50C8
:1008E800125A1B50135A1C50145AD8901C321B32DF
:1008F8001A32193218321732163215321D2E52EFAB
:1009080004F00DC00DF00EC00EF00FC00FF010C0B7
:1009180010F011C011F012C012F013C013F014C07F
:1009280014F012005050D8B49CEF04F09EEF04F07D
:10093800E0EF04F04F28D8B4A4EF04F0A6EF04F0D9
:10094800B0EF04F000018B51C1278C51C2278D51A3
:10095800C3274F2AE0EF04F0000E4F6E010E00018E
:100968009425016E026A000E0222000E046E030E28
:10097800036EFCEC04F001500001946F9451030DD8
:10098800B50EF324D96E000EF420DA6EDF508B6FAB
:100998009451030DB60EF324D96E000EF420DA6ECE
:1009A800DF508C6F9451030DB70EF324D96E000EEF
:1009B800F420DA6EDF508D6FC1C001F0026A65EC79
:1009C80007F0C2C001F0026A4DEC07F0C3C001F0A5
:1009D800026A04EC07F00001C4510008016EC55119
:1009E800D8A0E82A0008026E50EC08F0F294120031
:1009F800000E066E02BE05EF05F003EF05F00BEFE3
:100A080005F0016C021ED8B0022A010E066E04BE63
:100A180012EF05F010EF05F016EF05F0036C041E59
:100A2800D8B0042A03500410D8B41DEF05F01FEF06
:100A380005F043EF05F0010E056E27EF05F0D8909D
:100A480003360436052A04AE2CEF05F02EEF05F028
:100A580023EF05F00350015C04500258D8A037EF8B
:100A680005F039EF05F03DEF05F00350015E045045
:100A7800025AD89004320332052E2EEF05F00650A4
:100A8800D8B449EF05F04BEF05F04FEF05F0016CD6
:100A9800021ED8B0022A01C001F002C002F0120002
:100AA80046504710D8A45BEF05F05DEF05F063EF03
:100AB80005F046C01EF047C01FF069EF05F0FF0EB5
:100AC80046241E6EFF0E47201F6E1FBE6EEF05F0F8
:100AD80070EF05F072EF05F076EF05F0000E1F6E6F
:100AE800000E1E6E000E1D6E000E1C6E88EF05F0C7
:100AF800000E106E200E0F6E18C011F019C012F003
:100B0800A1EC05F01C4A1D2A1E501C5C1D50800AD1
:100B18001B6E1F50800A1B58D8A095EF05F097EF61
:100B280005F07CEF05F01AC00FF0106A18C011F03C
:100B380019C012F0A1EC05F0120011501210D8B42F
:100B4800A8EF05F0AAEF05F0B3EF05F01150121069
:100B5800D8A4B1EF05F0B3EF05F0B8EF05F00F50EA
:100B680032EC08F0EBEF05F020EE09F01150D92631
:100B78001250DA22DE50DE10D8B4C5EF05F0C7EF08
:100B880005F0E2EF05F020EE09F01150D9261250D9
:100B9800DA2210EE03F01150E1261250E222DE5064
:100BA800E65CE650800A176EDE50800A1758D8B007
:100BB800E0EF05F0E2EF05F0EBEF05F020EE03F0D3
:100BC8001150D9261250DA22DE2A000EDD22120038
:100BD80024BEF1EF05F0F3EF05F0F9EF05F023C0BF
:100BE80028F024C029F0FDEF05F0000E296E000E54
:100BF800286E000E276E000E266E0FEF06F0000E10
:100C0800106E200E0F6E1FC011F020C012F0A1EC64
:100C180005F0264A272A2850265C2750800A256E88
:100C28002950800A2558D8A01CEF06F01EEF06F0C0
:100C380003EF06F021C018F022C019F01FC01AF007
:100C480020C01BF074EC06F012007BC07FF07CC063
:100C580080F03DEF06F079C03CF07AC03DF07F0EA1
:100C68003E6E000E3F6E7DC040F07EC041F0EBEC62
:100C780001F07FC0F6FF80C0F7FF0800F5500009BB
:100C8800D8A449EF06F04BEF06F02FEF06F0000E60
:100C980000017A6F000E796F1200420EF66E100E88
:100CA800F76E000EF86E00EEB5F010EE11F00900C8
:100CB800F5CFEEFFE550E150FAE100EE8BF02A0E99
:100CC800EE6AE806FDE100EE46F00C0EEE6AE80674
:100CD800FDE152905292000EF86E000131EF00F0E3
:100CE800000E1E6E000E1D6E85EF06F01CC00FF084
:100CF800106A1AC011F01BC012F0A1EC05F01D4AD1
:100D08001E2A1D501824D96E1E501920DA6EDF5085
:100D18001C6E1C50D8A493EF06F095EF06F07AEFFE
:100D280006F01200080EB86E900EAB6E240EAC6E74
:100D3800820EAF6E060EB06E000E0D6E000E0E6EB9
:100D480046EC08F0000E0D6E000E0E6E41EC08F039
:100D5800000E0D6E000E0E6E4BEC08F0000E516E7C
:100D68001200F2944B50D76E4AC0D6FF4C504D102B
:100D7800D8B4C1EF06F0C3EF06F0D0EF06F002D802
:100D8800D0EF06F00500FA6E4C50FD6E4D50FE6E29
:100D9800F850FF6EFA5012001200D59CF50ED76E6F
:100DA800D668D650D7CF0FF0106A0FC010F00F6A70
:100DB8000F104A6E10504B6EF294F28AAE0E0D6E02
:100DC800100E0E6E3CEC08F0930ED56E12000DC09E
:100DD8000FF00EC010F0D89010320F32D8901032A9
:100DE8000F320F500F015E6F0DC00FF0030E0F167C
:100DF8000F3AF00E0F165D51CF0B0F105D6F1200FA
:100E080001C003F002C004F0D89004320332D89035
:100E18000432033203500F015E6F01C003F0030E6A
:100E28000316033AF00E03165D51CF0B03105D6FE6
:100E380012000DC00FF00EC010F0D89010320F3213
:100E4800D89010320F320F50676E0DC00FF0030E9E
:100E58000F160F3AF00E0F166650CF0B0F10666E76
:100E680012000DC00FF00EC010F0D89010320F32E3
:100E7800D89010320F320F50BE6E0DC00FF0030E17
:100E88000F160F3AF00E0F16BD50CF0B0F10BD6E98
:100E9800120001C003F002C004F0D89004320332FB
:100EA800D890043203320350676E01C003F0030E7A
:100EB8000316033AF00E03166650CF0B0310666E46
:100EC800120001C003F002C004F0D89004320332CB
:100ED800D890043203320350BE6E01C003F0030EF3
:100EE8000316033AF00E0316BD50CF0B0310BD6E68
:100EF8001200000E896E000E8A6E000E8B6E9268CC
:100F0800DF0E936EB90E946E3C0E0F013A6F3F0ED2
:100F1800396F2F0E386F000E616EF18E1200830E3E
:100F28000001856F000E866F000E796F000E7A6FD4
:100F380081C07BF082C07CF0850E7D6F000E7E6FD5
:100F480029EC06F012009EAAACEF07F0AEEF07F00E
:100F5800A7EF07F0000E516EABA2B5EF07F0B7EFA1
:100F680007F0B9EF07F0AB98AB88AE50120055EC1C
:100F780008F07DEC07F0FEEC07F0DEEC07F0CEECB5
:100F880007F0EEEC07F02AEC08F0D1EC06F096EC4E
:100F980006F012003C0E0F015D6F000E5B6F800EB5
:100FA8005C6F010E5A6F000E5F6F1F0E5E6F3F0E73
:100FB800491712003C0E666E000E646E800E656E58
:100FC800010E636E000E686E1F0E676EE70E0F014E
:100FD800491712003C0EBD6E000EB66E800EB76E3D
:100FE800010EB96E000EBF6E1F0EBE6EFC0E0F0115
:100FF80049171200700ED36E040ED26E400E9B6E0F
:10100800D2AE09EF08F00BEF08F004EF08F0120079
:101018000D6E9EA812EF08F014EF08F00DEF08F01F
:101028000DC0ADFF12009EBA1CEF08F01FEF08F0CC
:10103800010E20EF08F0000E120001FF00FF000172
:0B1048000001FF00FF00FFFFFF10276A
:101054003F0EBB6E000EBC6E9E92060EBA6E120060
:101064000E6E0E500CEC08F012000E50D76E0DC030
:10107400D6FF12000DC04CF00EC04DF012000DC092
:1010840090F00EC091F012000DC092F00EC093F0DB
:1010940012000DC08EF00EC08FF012000250D76EF9
:0C10A40001C0D6FF1200D09E1200120006
:107E920000663A207072696E74207573696E67208D
:107EA2007365766572616C20666F726D61742073A2
:107EB2007065636966696572732E0D0A00702F50D2
:107EC2003A2064656372656173652F696E637265DA
:107ED2006173652050574D2064757479206379630E
:107EE2006C650D0A00653A207072696E74207365C4
:107EF200766572616C206573636170656420636886
:107F020061726163746572732E0D0A002D2D2D2D21
:107F12002D2D2D2D2D2D2D2D2D2D2D2D2D2D2D2D8F
:107F22002D2D2D2D2D2D2D2D2D2D0D0A00543A20C8
:107F3200446973706C61792063757272656E742026
:107F4200544D52300D0A00743A20446973706C61CA
:107F5200792063757272656E7420544D52320D0A27
:107F6200007A3A20436C65617220746865207465FA
:107F7200726D696E616C0D0A00446576273231209C
:107F8200626F61726420776972696E670D0A005AC6
:107F92003A2052657365742070726F636573736FF4
:107FA200720D0A00556E6B6E6F776E206B657920CD
:107FB20025630D0A00524332203C2D3E2052656457
:107FC200204C4544003F3A2048656C70206D656E38
:107FD200750D0A00436F6C6F7220437562650D0A5E
:107FE20000696E4C61622030350D0A006F3A206BD9
:0E7FF2000D0A0025750A0D000D0A3E20000044
:020000040020DA
:08000000FFFFFFFFFFFFFFFF00
:020000040030CA
:0E000000FF281F3CFFBF85FF0FC00FE00F4021
:00000001FF
