:040000002FEF00F0EE
:100008004A82FACF0FF0FBCF10F0D9CF11F0DACF38
:1000180012F0F3CF13F0F4CF14F0F2AA16EF00F0B9
:1000280018EF00F021EF00F0F2A41DEF00F01FEF31
:1000380000F021EF00F008EC13F014C0F4FF13C037
:10004800F3FF12C0DAFF11C0D9FF10C0FBFF0FC0C9
:10005800FAFF4A9211000BEF12F0000E0101236F14
:10006800000E246F000E256F000E266F000E286FFD
:10007800000E276F000E1E6F000E1D6F000E1A6F08
:100088007F0EF66E790EF76E21EE00F0190E09005C
:10009800F5CFDEFFE806FBE2000E1C6F84EC13F0E0
:1000A8008A88000E166E000E156E7AEC14F0F29423
:1000B800F2A461EF00F063EF00F05CEF00F06C0E6B
:1000C800156E1C0E166E7FEC14F0F28EF28C9FECFF
:1000D80014F0000E7AEC11F0930E0001A46F7F0E5D
:1000E800A56FADEC13F0020E0001A46F7F0EA56F93
:1000F800ADEC13F0B50E0001A46F7F0EA56FADEC4B
:1001080013F07F0E0001A46F7C0EA56FADEC13F009
:1001180059EC14F00009D8B494EF00F096EF00F011
:100128008CEF00F0C1EC13F001011B6FE00E000131
:10013800A46F7F0EA56F1BC1A6F0A76BADEC13F0E3
:10014800AFEF06F09C0EA46F7A0EA56FADEC13F01E
:10015800750E0001A46F7F0EA56FADEC13F0C70EEE
:100168000001A46F7F0EA56FADEC13F08B0E00019C
:10017800A46F7E0EA56FADEC13F02E0E0001A46FD8
:100188007E0EA56FADEC13F0D20E0001A46F7A0EAF
:10019800A56FADEC13F0160E0001A46F7E0EA56FCF
:1001A800ADEC13F0D20E0001A46F7A0EA56FADEC82
:1001B80013F0F30E0001A46F7C0EA56FADEC13F0E5
:1001C800280E0001A46F7C0EA56FADEC13F0460E4F
:1001D8000001A46F7E0EA56FADEC13F0060E0001B2
:1001E800A46F7B0EA56FADEC13F0D20E0001A46FC7
:1001F8007A0EA56FADEC13F03A0E0001A46F7B0EDA
:10020800A56FADEC13F0FB0E0001A46F7B0EA56F7C
:10021800ADEC13F0CD0E0001A46F7B0EA56FADEC15
:1002280013F0390E0001A46F7D0EA56FADEC13F02D
:100238009E0E0001A46F7A0EA56FADEC13F0FEEFD1
:1002480006F0BE0EA46F7F0EA56FADEC13F0FEEFA7
:1002580006F0000E0101286F000E276FF50E000151
:10026800A46F7F0EA56FADEC13F00101274B282B6F
:10027800285109E1280E275DD8A045EF01F047EF86
:1002880001F032EF01F0FF00FEEF06F0000E010171
:10029800286F000E276FF50E0001A46F7F0EA56F63
:1002A800ADEC13F00101274B282B285109E1280E4A
:1002B800275DD8A062EF01F064EF01F04FEF01F085
:1002C800FEEF06F09FEC14F0000E7AEC11F0010E30
:1002D800D5EC0CF0FEEF06F0000E0101235F020ED4
:1002E800245B000E255B000E265B040E265DD8A05D
:1002F80080EF01F082EF01F094EF01F0590E000158
:10030800A46F7D0EA56FADEC13F0000E0101236FF5
:10031800FE0E246FFF0E256F030E266F9BEF01F074
:10032800A00E0001A46F7E0EA56FADEC13F0EF0ECA
:100338000001A46F7E0EA56FADEC13F0EA0E00016C
:10034800A46F7F0EA56F25C1A6F026C1A7F0A86BE4
:10035800A96BADEC13F0DE0E0001A46F7F0EA56F44
:10036800ADEC13F0EA0E0001A46F7F0EA56FFF0E2F
:10037800010123150001A66FFF0E010124150001DC
:10038800A76F000E010125150001A86F000E0101DD
:1003980026150001A96FADEC13F0630E0001A46FE0
:1003A8007F0EA56FADEC13F0FEEF06F0000E010115
:1003B8002327020E2423000E2523000E2623040ED5
:1003C800265DD8A0EAEF01F0ECEF01F0FEEF01F0B6
:1003D800930E0001A46F7D0EA56FADEC13F0000E17
:1003E8000101236F000E246F000E256F000E266F8B
:1003F80005EF02F0B40E0001A46F7E0EA56FADEC00
:1004080013F0EF0E0001A46F7E0EA56FADEC13F094
:10041800EA0E0001A46F7F0EA56F25C1A6F026C1C4
:10042800A7F0A86BA96BADEC13F0DE0E0001A46F6A
:100438007F0EA56FADEC13F0EA0E0001A46F7F0EDE
:10044800A56FFF0E010123150001A66FFF0E010124
:1004580024150001A76F000E010125150001A86FE2
:10046800000E010126150001A96FADEC13F0630E13
:100478000001A46F7F0EA56FADEC13F0FEEF06F040
:100488008B8A23C11BF024C11CF025C11DF026C195
:100498001EF0290E1F6E010E206EE2EC10F08B9AF2
:1004A800570E0001A46F7F0EA56FADEC13F0360E4A
:1004B8000001A46F7F0EA56FADEC13F0EA0E0001EA
:1004C800A46F7F0EA56F25C1A6F026C1A7F0A86B63
:1004D800A96BADEC13F0DE0E0001A46F7F0EA56FC3
:1004E800ADEC13F0EA0E0001A46F7F0EA56FFF0EAE
:1004F800010123150001A66FFF0E0101241500015B
:10050800A76F000E010125150001A86F000E01015B
:1005180026150001A96FADEC13F0630E0001A46F5E
:100528007F0EA56FADEC13F0290E0001B06F010E20
:10053800B16F30EC0AF0FEEF06F0000E0101286FF3
:10054800000E276F290E2725D96E010E2821DA6E95
:100558002751FF0ADF6E274B282B020E285DD8A0F3
:10056800B8EF02F0BAEF02F0A6EF02F08B8823C1D1
:100578001BF024C11CF025C11DF026C11EF0290E58
:100588001F6E010E206EC4EC11F0ECEC12F00101AC
:100598001A6F1A29D8B4D3EF02F0D5EF02F0C9EFD9
:1005A80002F08B98540E0001A46F7C0EA56FADEC81
:1005B80013F0360E0001A46F7F0EA56FADEC13F09B
:1005C800EA0E0001A46F7F0EA56F25C1A6F026C113
:1005D800A7F0A86BA96BADEC13F0DE0E0001A46FB9
:1005E8007F0EA56FADEC13F0EA0E0001A46F7F0E2D
:1005F800A56FFF0E010123150001A66FFF0E010173
:1006080024150001A76F000E010125150001A86F30
:10061800000E010126150001A96FADEC13F0630E61
:100628000001A46F7F0EA56FADEC13F05E0E000104
:10063800A46F7E0EA56F1AC1A6F0A76BADEC13F0E0
:10064800FEEF06F023C11FF124C120F125C121F1DD
:1006580026C122F1840EA46F7F0EA56F25C1A6F0D6
:1006680026C1A7F0A86BA96BFF0E01012315000195
:10067800AA6FFF0E010124150001AB6F000E0101E6
:1006880025150001AC6F000E010126150001AD6FA4
:10069800ADEC13F0000E0101286F000E276F290E34
:1006A8002725D96E010E2821DA6E000EDF6E1C2B6D
:1006B800190E1C6562EF03F064EF03F066EF03F0B8
:1006C800000E1C6F274B282B020E285DD8A06FEF59
:1006D80003F071EF03F053EF03F0000E286F000EE4
:1006E800276FAB0E0001A46F7F0EA56FADEC13F062
:1006F800DA0E0001A46F7F0EA56F21C1A6F022C1FA
:10070800A7F0A86BA96BADEC13F0D40E0001A46F91
:100718007F0EA56FFF0E01011F150001A66FFF0ECA
:10072800010120150001A76F000E0101211500012C
:10073800A86F000E010122150001A96FADEC13F09E
:100748001FC11BF020C11CF021C11DF022C11EF0E9
:10075800290E1F6E010E206EC4EC11F0ECEC12F0A5
:10076800FF0AD8B4BAEF03F0BCEF03F0B2EF03F01E
:10077800000E166E000E156E99EC13F09E909EA05A
:10078800C8EF03F0CAEF03F0C3EF03F0000E010156
:100798001F27020E2023000E2123000E2223A00E65
:1007A8000001A46F7F0EA56FADEC13F00101274B7C
:1007B800282B020E285DD8A0E4EF03F0E6EF03F043
:1007C80075EF03F0470E0001A46F7F0EA56FADEC27
:1007D80013F0FEEF06F023C11FF124C120F125C15B
:1007E80021F126C122F1000E0101286F000E276FAA
:1007F800AB0E0001A46F7F0EA56FADEC13F0DA0EFF
:100808000001A46F7F0EA56F21C1A6F022C1A7F039
:10081800A86BA96BADEC13F0D40E0001A46F7F0E8A
:10082800A56FFF0E01011F150001A66FFF0E010144
:1008380020150001A76F000E010121150001A86F06
:10084800000E010122150001A96FADEC13F0000E96
:1008580001011E6F000E1D6F000E1C25D96EDA6A8D
:10086800010EDA22290E1D25E16E010E1E21E26E0F
:10087800DFCFE7FF1C2B190E1C6545EF04F047EF8F
:1008880004F049EF04F0000E1C6F1D4B1E2B020EE6
:100898001E5DD8A052EF04F054EF04F030EF04F0DE
:1008A8001FC11BF020C11CF021C11DF022C11EF088
:1008B800290E1F6E010E206EC4EC11F0ECEC12F044
:1008C800FF0AD8B46AEF04F06CEF04F062EF04F0AA
:1008D800000E166E000E156E99EC13F09E909EA0F9
:1008E80078EF04F07AEF04F073EF04F0000E0101E2
:1008F8001F27020E2023000E2123000E2223A00E04
:100908000001A46F7F0EA56FADEC13F00101274B1A
:10091800282B020E285DD8A094EF04F096EF04F07F
:10092800FCEF03F0DC0E0001A46F7E0EA56FADECAA
:1009380013F0FEEF06F0A00EEB25BA6F000EEC21C7
:10094800BB6FBA51EB5DBB51EC59D8B0AEEF04F0B8
:10095800B0EF04F0B4EF04F0A00EEB27000EEC2388
:10096800E40EA46F7D0EA56FEBC0A6F0ECC0A7F057
:10097800ADEC13F0FEEF06F0600EEB25BA6FFF0E3C
:10098800EC21BB6FEB51BA5DEC51BB59D8B0CFEF3E
:1009980004F0D1EF04F0D5EF04F0A00EEB5F000EE9
:1009A800EC5BE40EA46F7D0EA56FEBC0A6F0ECC067
:1009B800A7F0ADEC13F0FEEF06F0000EC36F23C1F5
:1009C8001FF124C120F125C121F126C122F1010E18
:1009D800486E35EF05F00001C351D8B4F6EF04F0C6
:1009E800F8EF04F035EF05F01FC11BF020C11CF033
:1009F80021C11DF022C11EF0EEC015F0166A020ECC
:100A0800186E000E176ED5EC13F0290E15241F6E04
:100A1800010E1620206EC4EC11F0ECEC12F0FF0A67
:100A2800D8B419EF05F01BEF05F011EF05F0000E33
:100A3800166E000E156E99EC13F09E909EA027EF8F
:100A480005F029EF05F022EF05F0000E01011F2740
:100A5800020E2023000E2123000E2223000E000187
:100A6800C36F59EC14F00009D8B43DEF05F03FEF1F
:100A780005F0EFEF04F0C1EC13F0000E486E250E00
:100A88000001A46F7F0EA56FADEC13F0FEEF06F02A
:100A9800000EC26F23C11FF124C120F125C121F12D
:100AA80026C122F1010E476E88EF05F00001C25100
:100AB800D8B461EF05F063EF05F088EF05F01FC1CA
:100AC8001BF020C11CF021C11DF022C11EF0EDC099
:100AD80015F0166A020E186E000E176ED5EC13F09C
:100AE800290E15241F6E010E1620206EE2EC10F060
:100AF800000E01011F27020E2023000E2123000EE5
:100B08002223000E0001C26F59EC14F00009D8B47A
:100B180090EF05F092EF05F05AEF05F0C1EC13F0F5
:100B2800000E476E660E0001A46F7F0EA56FADEC38
:100B380013F0FEEF06F0630EA46F7A0EA56FADEC0E
:100B480013F0E50E0001A46F790EA56FADEC13F05C
:100B5800030E0001A46F7B0EA56FADEC13F0290EF8
:100B68000001A46F7A0EA56FADEC13F0180E00010A
:100B7800A46F7D0EA56FADEC13F0750E0001A46F88
:100B88007E0EA56FADEC13F06C0E0001A46F7B0E0A
:100B9800A56FADEC13F09D0E0001A46F790EA56F43
:100BA800ADEC13F0C80E0001A46F7E0EA56FADEC7E
:100BB80013F0FD0E0001A46F7D0EA56FADEC13F0D0
:100BC80059EC14F00009D8B4ECEF05F0EEEF05F09D
:100BD800E4EF05F0C1EC13F023C11FF124C120F1AB
:100BE80025C121F126C122F1000E0101286F000E56
:100BF800276F1FC11BF020C11CF021C11DF022C1AD
:100C08001EF0290E1F6E010E206EE2EC10F0000E91
:100C180001011E6F000E1D6FE50E0001A46F7F0E0F
:100C2800A56F290E01011D25D96E010E1E21DA6E50
:100C3800DF500001BA6FBA51A66FA76BFC0EA86F00
:100C48007F0EA96FADEC13F059EC14F0E806D8A4A8
:100C580030EF06F032EF06F034EF06F040EF06F022
:100C680001011D4B1E2B020E1E5DD8A03EEF06F0A3
:100C780040EF06F010EF06F059EC14F0E806D8A49F
:100C880048EF06F04AEF06F04CEF06F060EF06F08A
:100C9800000E01011F27020E2023000E2123000E43
:100CA8002223274B282B020E285DD8A05EEF06F0E2
:100CB80060EF06F0FDEF05F0C1EC13F0A90E00019E
:100CC800A46F7C0EA56F27C1A6F028C1A7F0020E5D
:100CD800A96F000EA86FADEC13F09E0E0001A46F73
:100CE8007B0EA56FADEC13F0030E0001A46F7B0E15
:100CF800A56FADEC13F0290E0001A46F7A0EA56F55
:100D0800ADEC13F0180E0001A46F7D0EA56FADECCD
:100D180013F0750E0001A46F7E0EA56FADEC13F0F5
:100D2800CE0E0001A46F7C0EA56FADEC13F0C80EBB
:100D38000001A46F7E0EA56FADEC13F0FEEF06F078
:100D4800140EA46F7F0EA56F1BC1A6F0A76BADECA8
:100D580013F0FEEF06F001011B510001BA6FBB6BE7
:100D6800BB51000AD8B4BBEF06F0A4EF06F0BA51A5
:100D78002B0AD8B49FEF04F0060AD8B4C0EF04F0E9
:100D88001D0AD8B426EF03F0010AD8B4EFEF03F038
:100D98000E0AD8B4A6EF00F07E0AD8B4DAEF01F054
:100DA800110AD8B44CEF05F0020AD8B4E1EF04F008
:100DB800080AD8B42DEF01F03B0AD8B470EF01F05F
:100DC800080AD8B466EF01F0060AD8B425EF01F096
:100DD8001D0AD8B444EF02F0010AD8B49FEF05F019
:100DE800040AD8B4A1EF02F00D0AD8B44AEF01F012
:100DF800A4EF06F0A60E0001A46F7C0EA56FADEC63
:100E080013F08CEF00F02FEF00F085C0D9FF86C0FB
:100E1800DAFFDECFF6FFDDCFF7FF0800F550250A31
:100E2800D8A419EF07F01BEF07F01CEF09F085C0F5
:100E3800D9FF86C0DAFFDE2A000EDD22000E376EEB
:100E4800000E366E36C044F038683968000E00016E
:100E58008F6F000E8E6F5BEF07F0448285C0D9FF5D
:100E680086C0DAFFDE2A000EDD225BEF07F0000EF7
:100E78008F6F010E8E6F5BEF07F085C0D9FF86C0BC
:100E8800DAFFDECFF6FFDDCFF7FF0800F550896FF8
:100E98008A6B8A51000AD8B454EF07F03BEF07F089
:100EA8008951300AD8B431EF07F03BEF07F08E5183
:100EB8008F11D8B462EF07F064EF07F041EF07F045
:100EC80085C0D9FF86C0DAFFDECFF6FFDDCFF7FF9A
:100ED8000800F5502A0AD8A474EF07F076EF07F057
:100EE8009FEF07F085C0D9FF86C0DAFFDE2A000E23
:100EF800DD2287C0D9FF88C0DAFFDFCF89F0020E74
:100F0800DE26DFCF8AF0000EDD2289C0D9FF8AC035
:100F1800DAFFDECF36F0DDCF37F037BE98EF07F0D7
:100F280096EF07F0D3EF07F04480366C371ED8B041
:100F3800372AD3EF07F085C0D9FF86C0DAFFDECFA6
:100F48001BF0DDCF1CF091EC0DF01BC036F01CC07F
:100F580037F0B6EF07F085C0D9FF86C0DAFFDE2A82
:100F6800000EDD2285C0D9FF86C0DAFFDECFF6FF8E
:100F7800DDCFF7FF0800F5CF89F0D00E00018925F5
:100F88008A6F8B6BFF0E8B238B5109E10A0E8A5DEA
:100F9800D8A0D1EF07F0D3EF07F0AFEF07F085C087
:100FA800D9FF86C0DAFFDECFF6FFDDCFF7FF0800F6
:100FB800F550630AD8A4E3EF07F0E5EF07F008EF70
:100FC80008F085C0D9FF86C0DAFFDE2A000EDD22D0
:100FD80087C0D9FF88C0DAFFDFCF89F0020EDE268E
:100FE800DFCF8AF0000EDD2289C0D9FF8AC0DAFF80
:100FF800DF508D6F83C020F084C021F08DC022F0B7
:1010080029EC10F030EF09F085C0D9FF86C0DAFF6F
:10101800DECF9AF0DDCF9BF09AC0F6FF9BC0F7FFBA
:101028000800F550780AD8B41CEF08F01EEF08F055
:101038002CEF08F09AC0F6FF9BC0F7FF0800F550A8
:10104800750AD8A42AEF08F02CEF08F0A4EF08F0EE
:1010580087C0D9FF88C0DAFFDFCF89F0020EDE260D
:10106800DFCF8AF0000EDD2289C0D9FF8AC0DAFFFF
:10107800DECF8BF0DDCF8CF08BC092F08CC093F07C
:10108800946B956B966B976B986B996B010E9A2581
:10109800896F000E9B218A6F85C0D9FF86C0DAFF51
:1010A80089C0DEFF8AC0DDFF8AEF08F083C060F0E8
:1010B80084C061F092C062F093C063F094C064F0A1
:1010C80095C065F096C066F097C067F098C068F064
:1010D80099C069F031EC09F030EF09F083C060F095
:1010E80084C061F092C062F093C063F094C064F071
:1010F80095C065F096C066F097C067F098C068F034
:1011080099C069F026EC0BF030EF09F09AC0F6FFB1
:101118009BC0F7FF0800F550896F8A6B8A51000A57
:10112800D8B499EF08F0A4EF08F08951750AD8B43B
:101138005AEF08F00D0AD8B472EF08F0A4EF08F0DF
:1011480085C0D9FF86C0DAFFDECFF6FFDDCFF7FF17
:101158000800F550730AD8B4B4EF08F0B6EF08F0F9
:10116800D1EF08F085C0D9FF86C0DAFFDECF15F0D1
:10117800DDCF16F0EF0E176E7F0E186E000E1A6E8A
:10118800030E196E52EC0FF015501610D8A4CFEFBD
:1011980008F0D1EF08F013EF09F085C0D9FF86C039
:1011A800DAFFDECFF6FFDDCFF7FF0800F550730A50
:1011B800D8B4E1EF08F0E3EF08F0EAEF08F0000E2A
:1011C8000001916F030E906FEFEF08F0000E000121
:1011D800916F010E906F85C0D9FF86C0DAFF9051DC
:1011E800DE269151DD2283C020F084C021F087C023
:1011F800D9FF88C0DAFFDFCF89F0020EDE26DFCF05
:101208008AF0000EDD2289C0D9FF8AC0DAFFDECF5E
:1012180022F0DDCF23F00DEC0CF030EF09F085C0A3
:10122800D9FF86C0DAFFDE2A000EDD2230EF09F092
:1012380085C0D9FF86C0DAFFDECFF6FFDDCFF7FF26
:101248000800F550176E186A83C019F084C01AF0A8
:101258002FEC11F013EF09F0120039BE36EF09F048
:1012680038EF09F039EF09F0449239BE46EF09F03A
:10127800395006E13804D8B044EF09F046EF09F0D8
:101288004DEF09F0000E0001736F010E726F51EF00
:1012980009F038C072F039C073F036C074F037C046
:1012A80075F062C076F063C077F064C078F065C00E
:1012B80079F066C07AF067C07BF068C07CF069C0DE
:1012C8007DF0000E00017F6F1F0E7E6F000EE36F32
:1012D800E5EF09F07E07D8A07F07C40E7E25D96EFA
:1012E800000E7F21DA6E76C015F077C016F078C050
:1012F80017F079C018F07AC019F07BC01AF07CC0DA
:101308001BF07DC01CF00A0E1D6E000E1E6E000E36
:101318001F6E000E206E000E216E000E226E000E53
:10132800236E000E246EC1EC0FF015C06AF016C0D3
:101338006BF017C06CF018C06DF019C06EF01AC0D1
:101348006FF01BC070F01CC071F000016A51300FC3
:10135800DF6E7207D8A073077407D8A0750776C028
:1013680015F077C016F078C017F079C018F07AC079
:1013780019F07BC01AF07CC01BF07DC01CF00A0E6F
:101388001D6E000E1E6E000E1F6E000E206E000EEB
:10139800216E000E226E000E236E000E246EDAEC13
:1013A8000EF015C076F016C077F017C078F018C0A8
:1013B80079F019C07AF01AC07BF01BC07CF01CC011
:1013C8007DF000017E517F11D8B4EDEF09F0EFEF09
:1013D80009F01FEF0AF076517711781179117A1117
:1013E8007B117C117D11D8A4FCEF09F0FEEF09F008
:1013F8006EEF09F073BF0BEF0AF0735106E1720547
:10140800D8B009EF0AF00BEF0AF06EEF09F075BFDC
:1014180016EF0AF0755108E17405D8A016EF0AF026
:1014280018EF0AF01FEF0AF044B21DEF0AF01FEFA1
:101438000AF06EEF09F060C027F061C028F0C40E12
:101448007E25296E000E7F212A6E74C02BF075C090
:101458002CF08DEC10F01200F30E0001A46F7F0E3B
:10146800A56FADEC13F0000E0001B96F000EB86F58
:10147800B851B911D8B443EF0AF045EF0AF05AEF62
:101488000AF0070EB815B26F000EB915B36FB25156
:10149800B311D8A452EF0AF054EF0AF05AEF0AF049
:1014A800450EA46F7F0EA56FADEC13F00001B85187
:1014B800B911D8B462EF0AF064EF0AF0BDEF0AF090
:1014C8000F0EB815B26F000EB915B36FB251B31144
:1014D800D8A471EF0AF073EF0AF0BDEF0AF0440EDA
:1014E800A46F7F0EA56FADEC13F0F00E0001B825C8
:1014F800B46FFF0EB921B56FACEF0AF0B451B02547
:10150800D96EB551B121DA6E200EDF608EEF0AF088
:1015180090EF0AF098EF0AF0FA0EA46F7F0EA56F0D
:10152800ADEC13F0A9EF0AF0F70EA46F7F0EA56FCC
:10153800B451B025D96EB551B121DA6EDF50B26F12
:10154800B251A66FA76BADEC13F00001B44BB52BED
:10155800B851B45DB951B559D8A0B5EF0AF0B7EF95
:101568000AF082EF0AF0630EA46F7F0EA56FADEC50
:1015780013F0CE0E0001A46F7F0EA56FB851B025F1
:10158800D96EB951B121DA6EDF50B26FB251A66F80
:10159800A76BADEC13F00001B84BB92B020EB95D87
:1015A800D8A0D9EF0AF0DBEF0AF03CEF0AF0430EBF
:1015B800A46F7F0EA56FADEC13F0F00E0001B825F7
:1015C800B66FFF0EB921B76F14EF0BF0B651B02507
:1015D800D96EB751B121DA6E200EDF60F6EF0AF04E
:1015E800F8EF0AF000EF0BF0FA0EA46F7F0EA56F6C
:1015F800ADEC13F011EF0BF0F70EA46F7F0EA56F93
:10160800B651B025D96EB751B121DA6EDF50B26F3D
:10161800B251A66FA76BADEC13F00001B64BB72B18
:10162800B851B65DB951B759D8A01DEF0BF01FEFEF
:101638000BF0EAEF0AF0630EA46F7F0EA56FADEC16
:1016480013F0120039BE2BEF0BF02DEF0BF02EEF3D
:101658000BF0449239BE3BEF0BF0395006E13804E9
:10166800D8B039EF0BF03BEF0BF042EF0BF0000E68
:101678000001756F010E746F46EF0BF038C074F0FF
:1016880039C075F036C076F037C077F062C078F0B0
:1016980063C079F064C07AF065C07BF066C07CF006
:1016A80067C07DF068C07EF069C07FF0000E000161
:1016B800816F1F0E806F000EE36FBEEF0BF0800787
:1016C800D8A0810778510F0B826F090E82656FEFE2
:1016D8000BF071EF0BF079EF0BF0570E8225726F5C
:1016E800736B000E73237FEF0BF0300E8225726F41
:1016F800736B000E732372C082F0C40E8025D96EFE
:10170800000E8121DA6E82C0DFFF7407D8A075074A
:101718007607D8A0770778C06AF079C06BF07AC0EE
:101728006CF07BC06DF07CC06EF07DC06FF07EC049
:1017380070F07FC071F0050EABEF0BF0D8907133ED
:1017480070336F336E336D336C336B336A33E82E1B
:10175800A2EF0BF06AC078F06BC079F06CC07AF039
:101768006DC07BF06EC07CF06FC07DF070C07EF005
:1017780071C07FF081BFCAEF0BF0815109E1020E01
:10178800805DD8A0CAEF0BF0CCEF0BF0FCEF0BF0AC
:10179800785179117A117B117C117D117E117F119D
:1017A800D8A4D9EF0BF0DBEF0BF063EF0BF075BFAC
:1017B800E8EF0BF0755106E17405D8B0E6EF0BF0D1
:1017C800E8EF0BF063EF0BF077BFF3EF0BF0775117
:1017D80008E17605D8A0F3EF0BF0F5EF0BF0FCEF7E
:1017E8000BF044B2FAEF0BF0FCEF0BF063EF0BF0E9
:1017F80060C027F061C028F0C40E8025296E000E55
:1018080081212A6E76C02BF077C02CF08DEC10F079
:10181800120020EEE4F010EE25F0060EDBCFE3FF19
:10182800E806FCE222C030F023C031F0305031101D
:10183800D8A421EF0CF023EF0CF027EF0CF0250EC5
:10184800306E000E316E30C015F031C016F061EC0C
:1018580012F015C034F016C035F038C032F039C077
:1018680033F033BE3AEF0CF03CEF0CF051EF0CF0D4
:101878003450325C3350800A246E3550800A245824
:10188800D8A049EF0CF04BEF0CF04DEF0CF051EFF6
:101898000CF032C034F033C035F034C032F035C00B
:1018A80033F036C02EF037C02FF044B05EEF0CF0A6
:1018B80060EF0CF07DEF0CF06EEF0CF0000E186E80
:1018C800200E176E20C019F021C01AF02FEC11F06D
:1018D800344A352A2E50345C3550800A246E2F50F5
:1018E800800A2458D8A07BEF0CF07DEF0CF062EF53
:1018F8000CF0000E2D6E000E2C6EA1EF0CF030C017
:10190800F6FF31C0F7FFF86A050EF76403D0080048
:10191800F55005D0F6CFE1FFF7CFE2FFE750246E90
:101928002450176E186A20C019F021C01AF02FEC45
:1019380011F0304A312A2C4A2D2A32502C5C2D5075
:10194800800A246E3350800A2458D8A0AEEF0CF0D9
:10195800B0EF0CF083EF0CF044A0B5EF0CF0B7EF4C
:101968000CF0D4EF0CF0C5EF0CF0000E186E200E42
:10197800176E20C019F021C01AF02FEC11F0344A6C
:10198800352A2E50345C3550800A246E2F50800A38
:101998002458D8A0D2EF0CF0D4EF0CF0B9EF0CF02B
:1019A80012000001B26F000E0001B16F000EB06F9F
:1019B800FF0E36EC14F00001B04BB12BB1BFEEEFC7
:1019C8000CF0B15109E10A0EB05DD8A0EEEF0CF0B1
:1019D800F0EF0CF0DCEF0CF08A98FF0E36EC14F008
:1019E800400E36EC14F0000E36EC14F0000E36EC17
:1019F80014F0000E36EC14F0000E36EC14F0950ED0
:101A080036EC14F0FF0E36EC14F0FF0E36EC14F042
:101A18000001B36F8A88B205D8A415EF0DF017EF4F
:101A28000DF020EF0DF0AF0EA46F7D0EA56FB3C0C3
:101A3800A6F0A76BADEC13F08A98FF0E36EC14F005
:101A4800410E36EC14F0000E36EC14F0000E36ECB5
:101A580014F0000E36EC14F0000E36EC14F0FF0E05
:101A680036EC14F0FF0E36EC14F0FF0E36EC14F0E2
:101A78000001B36F8A88B351D8A445EF0DF047EF42
:101A88000DF020EF0DF0B205D8A44DEF0DF04FEF9B
:101A98000DF058EF0DF0CA0EA46F7D0EA56FB3C000
:101AA800A6F0A76BADEC13F08A98FF0E36EC14F095
:101AB800500E36EC14F0000E36EC14F0000E36EC36
:101AC80014F0020E36EC14F0000E36EC14F0FF0E93
:101AD80036EC14F0FF0E36EC14F0FF0E36EC14F072
:101AE8000001B36F8A88B329D8B47DEF0DF07FEF7A
:101AF8000DF058EF0DF0B205D8A485EF0DF087EF83
:101B08000DF090EF0DF0770EA46F7D0EA56FB3C0AA
:101B1800A6F0A76BADEC13F01200000E236E000EBA
:101B2800226E000E216E000E206E9DEF0DF01B4AF6
:101B38001C2A1BC0F6FF1CC0F7FF0800F550200A3E
:101B4800D8B4A9EF0DF0ABEF0DF09BEF0DF01BC073
:101B5800F6FF1CC0F7FF0800F5CF1DF0F70E1D2497
:101B68001E6E1F6AFF0E1F221F5009E1050E1E5C24
:101B7800D8A0C1EF0DF0C3EF0DF09BEF0DF0CDEF46
:101B88000DF0000E216E010E206E1B4A1C2A02EF7A
:101B98000EF01BC0F6FF1CC0F7FF0800F5501D6EC5
:101BA8001E6A1E50000AD8B4DCEF0DF002EF0EF0EA
:101BB8001D502B0AD8B4C9EF0DF0060AD8B4C5EFEA
:101BC8000DF002EF0EF022C015F023C016F0000E43
:101BD800186E0A0E176ED5EC13F01BC0F6FF1CC06A
:101BE800F7FF0800F550155E000E165A300E152442
:101BF800226E000E1620236EC9EF0DF01BC0F6FFF3
:101C08001CC0F7FF0800F5CF1DF0D00E1D241E6E76
:101C18001F6AFF0E1F221F5009E10A0E1E5CD8A082
:101C280018EF0EF01AEF0EF0E7EF0DF0205021102C
:101C3800D8A421EF0EF023EF0EF031EF0EF022C002
:101C48001DF023C01EF01D1E1E1E1D4A1E2A1DC08B
:101C58001BF01EC01CF035EF0EF022C01BF023C095
:101C68001CF012004850D8B43CEF0EF03EEF0EF0D6
:101C780081EF0EF0C282C4CF0EF046C001F0026AB6
:101C8800020E046E000E036EE8EC13F0290E012418
:101C98000B6E010E02200C6E3A500B24D96E3B508D
:101CA8000C20DA6E0EC0DFFF3A4A3B2A3A04020ED5
:101CB8003B58D8A062EF0EF064EF0EF081EF0EF003
:101CC8004650D8B46AEF0EF06DEF0EF0010E6EEFCD
:101CD8000EF0000E466E0001EE51D8B476EF0EF00D
:101CE80079EF0EF0010E7AEF0EF0000EEE6F010E96
:101CF800C36F000E3B6E000E3A6E4750D8B487EFA4
:101D08000EF089EF0EF0CEEF0EF045C001F0026A3A
:101D1800020E046E000E036EE8EC13F0290E012487
:101D28000B6E010E02200C6E3A500B24D96E3B50FC
:101D38000C20DA6EDF500D6E0D50076E086A3FEC0E
:101D480013F03A4A3B2A3A04020E3B58D8A0AFEFA8
:101D58000EF0B1EF0EF0CEEF0EF04550D8B4B7EF5D
:101D68000EF0BAEF0EF0010EBBEF0EF0000E456E4E
:101D78000001ED51D8B4C3EF0EF0C6EF0EF0010E1E
:101D8800C7EF0EF0000EED6F010EC26F000E3B6E36
:101D9800000E3A6E0BEC14F00001EB51015C096E79
:101DA800EC5102580A6E98EC14F0120020EE25F05F
:101DB800070EDE6AE806FDE21D501E101F102010F7
:101DC8002110221023102410D8B4EDEF0EF0EFEFFD
:101DD8000EF041EF0FF0010E2D6EFDEF0EF0D890D2
:101DE8001D361E361F362036213622362336243637
:101DF8002D2A24AE02EF0FF004EF0FF0F3EF0EF0F0
:101E0800D890253626362736283629362A362B36D0
:101E18002C361D50155C1E5016581F501758205050
:101E280018582150195822501A5823501B5824501A
:101E38001C58D8A022EF0FF024EF0FF035EF0FF069
:101E48001D50155E1E50165A1F50175A2050185A0A
:101E58002150195A22501A5A23501B5A24501C5ADE
:101E68002580D890243223322232213220321F3268
:101E78001E321D322D2E04EF0FF025C015F026C09E
:101E880016F027C017F028C018F029C019F02AC08A
:101E98001AF02BC01BF02CC01CF0120015C01CF04F
:101EA80016C01DF017C01EF018C01FF01906D8A0E4
:101EB8001A06192806E11A28D8A465EF0FF067EF6B
:101EC8000FF074EF0FF0000E166E000E156EC0EFD7
:101ED8000FF01C4A1D2A1E4A1F2A1906D8A01A06E6
:101EE8001CC0F6FF1DC0F7FF0800F5500009D8B464
:101EF80080EF0FF082EF0FF0AEEF0FF01EC0F6FF8D
:101F08001FC0F7FF0800F5500009D8B48EEF0FF096
:101F180090EF0FF0AEEF0FF019501A10D8B497EFFA
:101F28000FF099EF0FF0AEEF0FF01CC0F6FF1DC0D9
:101F3800F7FF0800F5CF1BF01EC0F6FF1FC0F7FF24
:101F48000800F5501B18D8B4ACEF0FF0AEEF0FF047
:101F58006DEF0FF01CC0F6FF1DC0F7FF0800F5CFAE
:101F68001BF01EC0F6FF1FC0F7FF0800F5501B5CF2
:101F7800156E166AD8A0160612001D501E101F10E6
:101F880020102110221023102410D8B4CEEF0FF007
:101F9800D0EF0FF018EF10F0010E256EDEEF0FF006
:101FA800D8901D361E361F36203621362236233667
:101FB8002436252A24AEE3EF0FF0E5EF0FF0D4EF37
:101FC8000FF01D50155C1E5016581F501758205002
:101FD80018582150195822501A5823501B58245069
:101FE8001C58D8A0FAEF0FF0FCEF0FF00CEF10F030
:101FF8001D50155E1E50165A1F50175A2050185A59
:102008002150195A22501A5A23501B5A24501C5A2C
:10201800D890243223322232213220321F321E320B
:102028001D32252EE5EF0FF015C015F016C016F07D
:1020380017C017F018C018F019C019F01AC01AF014
:102048001BC01BF01CC01CF0120036503710D8A45F
:1020580030EF10F032EF10F038EF10F036C026F005
:1020680037C027F03EEF10F0FF0E3624266EFF0E25
:102078003720276E44A043EF10F045EF10F04EEFE5
:1020880010F022C017F0186A20C019F021C01AF009
:102098002FEC11F027BE53EF10F055EF10F057EF6B
:1020A80010F05BEF10F0000E276E000E266E000E8B
:1020B800256E000E246E6DEF10F0000E186E200EC7
:1020C800176E20C019F021C01AF02FEC11F0244A25
:1020D800252A2650245C2550800A236E2750800A22
:1020E8002358D8A07AEF10F07CEF10F061EF10F0D1
:1020F80044B081EF10F083EF10F08CEF10F022C0A5
:1021080017F0186A20C019F021C01AF02FEC11F04E
:10211800120044A092EF10F094EF10F09EEF10F030
:1021280029C020F02AC021F027C022F028C023F0BF
:10213800ABEC12F02CBEA3EF10F0A5EF10F0ABEF54
:1021480010F02BC030F02CC031F0AFEF10F0000EC3
:10215800316E000E306E000E2F6E000E2E6EC1EF27
:1021680010F0000E186E200E176E27C019F028C048
:102178001AF02FEC11F02E4A2F2A30502E5C2F50D7
:10218800800A2D6E3150800A2D58D8A0CEEF10F05D
:10219800D0EF10F0B5EF10F044B0D5EF10F0D7EF56
:1021A80010F0E1EF10F029C020F02AC021F027C07C
:1021B80022F028C023F0ABEC12F012008A98FF0E30
:1021C80036EC14F0510E36EC14F01E5036EC14F0C8
:1021D8001D5036EC14F01C5036EC14F01B5036EC45
:1021E80014F0FF0E36EC14F0FF0E36EC14F0FF0A74
:1021F800D8B401EF11F003EF11F0F8EF10F0FF0E73
:1022080036EC14F0FF0AD8B40CEF11F00EEF11F011
:1022180003EF11F0000E226E000E216E21501F24D4
:10222800D96E22502020DA6EFF0E36EC14F0DF6EE5
:10223800214A222A020E225CD8A025EF11F027EFAE
:1022480011F012EF11F0FF0E36EC14F0FF0E36EC21
:1022580014F08A88120019501A10D8B436EF11F009
:1022680038EF11F041EF11F019501A10D8A43FEFD0
:1022780011F041EF11F046EF11F0175093EC14F004
:1022880079EF11F020EE09F01950D9261A50DA2208
:10229800DE50DE10D8B453EF11F055EF11F070EFA7
:1022A80011F020EE09F01950D9261A50DA2210EE52
:1022B80003F01950E1261A50E222DE50E65CE6509F
:1022C800800A1F6EDE50800A1F58D8B06EEF11F0DA
:1022D80070EF11F079EF11F020EE03F01950D926C4
:1022E8001A50DA22DE2A000EDD221200166E6CBAAF
:1022F80080EF11F082EF11F0C3EF11F01650040DCA
:10230800010EF326000EF422990EF324F66E790ED0
:10231800F420F76E0800F5CF6DFF1650040D990EE6
:10232800F324F66E790EF420F76E0800F5CF6CFFF3
:10233800000E6B6E1650040D020EF326000EF422EA
:10234800990EF324F66E790EF420F76E0800F5CF97
:102358006EFF1650040D030EF326000EF422990E9C
:10236800F324F66E790EF420F76E0800F5CF15F019
:10237800154693501518FD0B1518936E6C8A1200AC
:102388008A98FF0E36EC14F0580E36EC14F01E50F6
:1023980036EC14F01D5036EC14F01C5036EC14F0EA
:1023A8001B5036EC14F0FF0E36EC14F0FF0E36EC32
:1023B80014F0FF0AD8B4E3EF11F0E5EF11F0DAEF0B
:1023C80011F0FF0E36EC14F0FF0E36EC14F0FF0E91
:1023D80036EC14F0FE0E36EC14F0000E226E000EF1
:1023E800216E21501F24D96E22502020DA6EDF5032
:1023F80036EC14F0214A222A020E225CD8A007EFFC
:1024080012F009EF12F0F5EF11F08A881200E80EC9
:10241800F66E280EF76E000EF86E00EEE4F010EE81
:102428000BF00900F5CFEEFFE550E150FAE101EEBF
:1024380029F014EE00F0EE6AE550E150FCE1E250BC
:10244800FAE100EEBCF0280EEE6AE806FDE100EEC7
:1024580036F0140EEE6AE806FDE14A904A92000E44
:10246800F86E000131EF00F09EC0A2F09FC0A3F00B
:102478004DEF12F09CC083F09DC084F0A20E0001C5
:10248800856F000E866FA0C087F0A1C088F009ECA8
:1024980007F0A2C0F6FFA3C0F7FF0800F550000937
:1024A800D8A459EF12F05BEF12F03EEF12F0000ED5
:1024B80000019D6F000E9C6F120015C017F016C02A
:1024C80018F069EF12F0154A162A15C0F6FF16C063
:1024D800F7FFF86A050EF76403D00800F55005D039
:1024E800F6CFE1FFF7CFE2FFE7500009D8A47FEF6E
:1024F80012F081EF12F067EF12F01750155C156EAD
:1025080018501658166E1200010E196E200E151866
:102518001610D8B492EF12F094EF12F0A7EF12F061
:10252800F70E1524176EFF0E1620186E185009E1C5
:10253800050E175CD8A0A3EF12F0A5EF12F0A7EFD5
:1025480012F0000E196E19C015F0166A1200000E6E
:10255800266E000E256EBCEF12F024C017F0186A24
:1025680022C019F023C01AF02FEC11F0254A262AB0
:1025780025502024D96E26502120DA6EDF50246E93
:102588002450D8A4CAEF12F0CCEF12F0B1EF12F039
:102598001200080EB86E900EAB6E240EAC6E8A0E4A
:1025A800AF6E000EB06E000E156E000E166E89EC42
:1025B80014F0000E156E000E166E84EC14F0000E6A
:1025C800156E000E166E8EEC14F0000E496E120099
:1025D8008A980D0E36EC14F0166E8A881628D8A440
:1025E800F8EF12F0FAEF12F0FDEF12F0FF0E07EF1E
:1025F80013F0FF0E36EC14F0FF0E36EC14F0FF0E5D
:1026080036EC14F016501200F2944150D76E40C0C8
:10261800D6FF42504310D8B414EF13F016EF13F05E
:1026280023EF13F002D823EF13F00500FA6E42509F
:10263800FD6E4350FE6EF850FF6EFA501200120005
:10264800D59C000ED76E000ED66ED650D7CF17F099
:10265800186A17C018F0176A1710406E1850416EA4
:10266800F294F28A420E156E290E166E7FEC14F063
:102678009F0ED56E120007C009F008C00AF0D89066
:102688000A320932D8900A3209320950BE6E07C0A0
:1026980009F0030E0916093AF00E0916BD50CF0BC2
:1026A8000910BD6E1200000E896E000E8A6E000EB3
:1026B8008B6EBF0E926EE50E936E8B0E946E3C0E73
:1026C8000F013A6F310E396F2F0E386F000E616EA1
:1026D800F18E1200D00E1524176EFF0E1620186EFC
:1026E80018500AE10A0E175CD8A07DEF13F080EFAE
:1026F80013F0010E81EF13F0000E156E166A12002A
:102708009DEC14F063EC14F057EC13F028EC14F083
:1027180043EC14F0FBEC13F06CEC14F01AEC14F02E
:1027280024EC13F0CDEC12F01200CDA49EEF13F0C0
:10273800A0EF13F0A8EF13F0CD901650CF6E15C090
:10274800CEFFCD80ACEF13F01650CF6E15C0CEFF84
:102758001200A60E0001AE6F000EAF6F000E9C6F48
:10276800000E9D6FA4C09EF0A5C09FF0AE0EA06F96
:10277800000EA16F38EC12F012009EAAC6EF13F0FB
:10278800C8EF13F0C1EF13F0000E496EABA2CFEF04
:1027980013F0D1EF13F0D3EF13F0AB98AB88AE5032
:1027A800120015501702F3CF19F0F4CF1AF0155094
:1027B8001802F3501A2616501702F3501A2619C099
:1027C80015F01AC016F0120001500302F3CF05F0FD
:1027D800F4CF06F001500402F3500626025003021B
:1027E800F350062605C001F006C002F012003C0EA8
:1027F800BD6E000EB66E800EB76E010EB96E000E7D
:10280800BF6E1F0EBE6EFC0E0F0149171200D6CF09
:1028180007F0D7CF08F00850036E0750056E03C0C5
:1028280006F005C001F006C002F01200000ECC6EE2
:10283800440ECF6E800ECE6ECECF3CF0CFCF3DF0A3
:102848009E90310ECD6E1200700ED36E040ED26EB5
:10285800400E9B6ED2AE33EF14F035EF14F02EEF2E
:1028680014F01200156E15C06FFFA4AE3EEF14F001
:1028780040EF14F039EF14F0A49E6F501200000ED0
:10288800C16E260EC06E000EC36E000EC46E110E11
:10289800C26E1200156E9EA854EF14F056EF14F095
:1028A8004FEF14F015C0ADFF12009EBA5EEF14F0A2
:1028B80061EF14F0010E62EF14F0000E1200400EEA
:1028C8006D6E010E6C6E010E6E6E93926C9A120014
:1028D8003F0EBB6E000EBC6E9E92050EBA6E1200C5
:0B28E800286E756C6C29004006010191
:1028F4001650D76E15C0D6FF120015C042F016C090
:1029040043F0120015C0C0F016C0C1F0120015C08B
:102914003EF016C03FF0120015C0BEF016C0BFF066
:102924001200166E16504EEC14F012000A50D76EB8
:1029340009C0D6FF1200D09E12006C9A1200120039
:10797E0000809FBBD5E9F8FFFFF8E9D5BB9F80617A
:10798E00452B1708010108172B4561014001004CDA
:10799E006F672066696C65206E616D653A202042C6
:1079AE00726F77736520616E642070726F76696492
:1079BE00652061202E63737620657874656E736919
:1079CE006F6E20746F20796F75722066696C6520FA
:1079DE006E616D650A0D00546F2073706F6F6C20B1
:1079EE007465726D696E616C20636F6E74656E7412
:1079FE007320696E746F20612066696C6520666FF6
:107A0E006C6C6F7720746865736520696E73747221
:107A1E00756374696F6E733A0A0D00526967687404
:107A2E00206D6F75736520636C69636B206F6E20BC
:107A3E00746865207570706572206C656674206F51
:107A4E0066207468652050755454592077696E64A9
:107A5E006F770A0D00596F75206D6179207465720C
:107A6E006D696E6174652073706F6F6C696E6720DF
:107A7E00617420616E7974696D6520776974682010
:107A8E0061206B657970726573732E0A0D000D0A95
:107A9E002D2D2D2D2D2D2D2D2D2D2D2D2D2D2D2D08
:107AAE002D2D2D2D2D2D2D2D2D2D2D2D2D2D2D2DF8
:107ABE002D2D2D2D2D2D2D2D2D2D2D2D2D2D2D2DE8
:107ACE002D0D0A002D2D2D2D2D2D2D2D2D2D2D2D48
:107ADE002D2D2D2D2D2D2D2D2D2D2D2D2D2D2D2DC8
:107AEE002D2D2D2D2D2D2D2D2D2D2D2D2D2D2D2DB8
:107AFE002D2D2D2D2D0A0D00313A207772697465CA
:107B0E0020706572666563742032362076616C75FE
:107B1E00652073696E65207761766520746F2031FC
:107B2E00323820626C6F636B730A0D002B2F2D3A67
:107B3E0020496E6372656173652F4465637265617A
:107B4E007365207468652073616D706C6520726159
:107B5E0074652062792031302075730A0D005365EB
:107B6E006C6563743A202020202053657373696F0F
:107B7E006E206C6F6767696E673A20416C6C20737C
:107B8E00657373696F6E206F75747075740A0D006E
:107B9E00546F20636C6F7365207468652066696C22
:107BAE006520666F6C6C6F772074686573652069ED
:107BBE006E737472756374696F6E733A0A0D00504A
:107BCE003A20506C61792066726F6D2053442063A9
:107BDE0061726420746F2050574D202D3E204C5002
:107BEE0046202D3E20417564696F0A0D00523A20E1
:107BFE005265636F7264206D6963726F70686F6E29
:107C0E0065203D3E205344206361726420617420E0
:107C1E00313630302075730A0D00723A207265616C
:107C2E0064206120626C6F636B206F662035313289
:107C3E002062797465732066726F6D2053442063E1
:107C4E006172640A0D00577269746520626C6F630D
:107C5E006B206F662064656372656D656E74656416
:107C6E0020382D6269742076616C7565733A0D0A41
:107C7E00004E6F20636F6E66696775726174696F0F
:107C8E006E206F6620646576656C6F706D656E74C0
:107C9E0020626F6172640D0A3E20000A0D53706FF0
:107CAE006F6C6564202575206F7574206F66207467
:107CBE00686520257520626C6F636B732E0A0D004C
:107CCE0053656C6563743A202020202053657373CE
:107CDE00696F6E20206C6F6767696E673A204E6F12
:107CEE006E650A0D00612F412064656372656173D4
:107CFE00652F696E637265617365207265616420BC
:107D0E00616464726573730A0D0053656C65637408
:107D1E003A20202020204368616E676520736574C9
:107D2E0074696E67732E2E2E0A0D00733A207370CF
:107D3E006F6F6C206D656D6F727920746F2061208E
:107D4E006373762066696C650A0D00556E64657204
:107D5E00666C6F77656420746F2068696768206150
:107D6E006464726573730D0A00426C6F636B204C12
:107D7E00656E67746820526573706F6E73653A2016
:107D8E0025780D0A004F766572666C6F77656420F4
:107D9E00746F206C6F7720616464726573730D0A63
:107DAE0000434D44302C2052657365742052657328
:107DBE00706F6E73653A2025780D0A00434D44317D
:107DCE002C20496E697420526573706F6E73653A1C
:107DDE002025780D0A0073616D706C652074696DD5
:107DEE00653A20257520636F756E74730A0D005009
:107DFE007265737320616E79206B657920746F20C4
:107E0E0073746172740A0D00693A20496E6974695F
:107E1E00616C697A6520534420636172640A0D00B7
:107E2E007A3A20436C6561722074686520746572BD
:107E3E006D696E616C0A0D00303A207A65726F20A2
:107E4E00746F2031323820626C6F636B730A0D00D1
:107E5E00202020205374617475733A202020202036
:107E6E00253032780D0A0053656C6563743A202014
:107E7E002020204C6F6767696E670A0D005A3A2002
:107E8E0052657365742070726F636573736F720AD7
:107E9E000D0044656372656173656420616464728C
:107EAE006573730D0A00496E6372656173656420B4
:107EBE00616464726573730D0A0053656C65637457
:107ECE003A20202020204170706C790A0D007369D1
:107EDE006E2077617665207772697474656E0A0D0F
:107EEE00005344206361726420616464726573732D
:107EFE003A202000534420636172642074657374C9
:107F0E00696E670D0A00556E6B6E6F776E206B652E
:107F1E00792025630D0A00617564696F20726563AF
:107F2E006F726465640A0D00202020204164647223
:107F3E006573733A20202020007A65726F73207764
:107F4E0072697474656E0A0D005265616420626C0C
:107F5E006F636B3A200D0A00617564696F20706C57
:107F6E00617965640A0D003F3A2068656C70206D7A
:107F7E00656E750A0D00616464726573733A20252F
:107F8E00753A2575000A0D696E4C61622030390D07
:107F9E000A00636F6D706C6574650A0D0077726907
:107FAE00746520746F20004465762732310D0A0007
:107FBE006F3A20206F6B0D0A006F3A206B0A0D008E
:107FCE002530327820002530347820002530347862
:107FDE003A0025630A0D0025752573002530347887
:107FEE00006C6C73000D0A0A002563002E003B0026
:017FFE000082
:020000040020DA
:08000000FFFFFFFFFFFFFFFF00
:020000040030CA
:0E000000FF281F3CFFBF85FF0FC00FE00F4021
:00000001FF
