:040000002FEF00F0EE
:100008005082FACF09F0FBCF0AF0D9CF0BF0DACF44
:100018000CF0F3CF0DF0F4CF0EF0F2AA16EF00F0CB
:1000280018EF00F021EF00F0F2A41DEF00F01FEF31
:1000380000F021EF00F05FEC08F00EC0F4FF0DC0F7
:10004800F3FF0CC0DAFF0BC0D9FF0AC0FBFF09C0E1
:10005800FAFF50921100A8EF07F0000E0101076F98
:10006800010E066F100E0A6F000E096F0F0E056F56
:10007800A00E046F2AEC09F0000E106E000E0F6E31
:1000880093EC09F0F294F2A44CEF00F04EEF00F07C
:1000980047EF00F0F28EF28CEE0E0F6E0D0E106E22
:1000A80098EC09F0CA0E0001C96F7F0ECA6FDBEC2D
:1000B80008F0920E0001C96F7E0ECA6FDBEC08F0E3
:1000C800F30E0001C96F7E0ECA6FDBEC08F0DC0E80
:1000D8000001C96F7C0ECA6FDBEC08F0570E0001F7
:1000E800C96F7C0ECA6FDBEC08F0050E0001C96F02
:1000F8007D0ECA6FDBEC08F0840E0001C96F7C0E20
:10010800CA6FDBEC08F0F60E0001C96F7F0ECA6FEC
:10011800DBEC08F07CEC09F00009D8B496EF00F0AD
:1001280098EF00F08EEF00F0EFEC08F00101086F97
:10013800F10E0001C96F7F0ECA6F08C1CBF0CC6BFE
:10014800DBEC08F08CEF02F0EF0E0001C96F7B0EBC
:10015800CA6FDBEC08F0B20E0001C96F7F0ECA6FE0
:10016800DBEC08F05E0E0001C96F7E0ECA6FDBEC97
:1001780008F0F00E0001C96F7D0ECA6F000ECC6F3B
:10018800CB69DBEC08F0A50E0001C96F7F0ECA6FC2
:10019800DBEC08F0430E0001C96F7E0ECA6F06C182
:1001A800CBF007C1CCF0DBEC08F0280E0001C96FDA
:1001B8007E0ECA6F09C1CBF00AC1CCF0DBEC08F0A7
:1001C800940E0001C96F7D0ECA6FDBEC08F0EF0ECC
:1001D8000001C96F7B0ECA6FDBEC08F0960E0001B8
:1001E800C96F7F0ECA6FDBEC08F0E40E0001C96F1F
:1001F8007F0ECA6FDBEC08F0330E0001C96F7F0E6B
:10020800CA6FDBEC08F0C40E0001C96F7E0ECA6F1E
:10021800DBEC08F0B00E0001C96F7C0ECA6FDBEC96
:1002280008F0480E0001C96F7F0ECA6FDBEC08F0BA
:10023800230E0001C96F7C0ECA6FDBEC08F01E0E9E
:100248000001C96F7F0ECA6FDBEC08F0D20E000107
:10025800C96F7D0ECA6FDBEC08F00C0E0001C96F88
:100268007E0ECA6FDBEC08F05D0E0001C96F7F0ED1
:10027800CA6FDBEC08F0EF0E0001C96F7B0ECA6F86
:10028800DBEC08F0CAEF02F0D30E0001C96F7F0E55
:10029800CA6FDBEC08F0CAEF02F0000E0B6F2B0EF2
:1002A8000001C96F7D0ECA6FDBEC08F001010B2B52
:1002B800270E0B6562EF01F064EF01F053EF01F0D8
:1002C800FF00CAEF02F0000E0B6F2B0E0001C96F82
:1002D8007D0ECA6FDBEC08F001010B2B270E0B65B6
:1002E80078EF01F07AEF01F069EF01F0CAEF02F060
:1002F800010E4D6EBC0E0001C96F7D0ECA6FDBEC9E
:1003080008F0CAEF02F0000E4D6EB40E0001C96F7E
:100318007D0ECA6FDBEC08F0CAEF02F0710E000127
:10032800C96F7F0ECA6FDBEC08F07F0E0001D06F3B
:10033800CF69A0EC04F00001D890CF37D037D8901F
:10034800CF37D037CFC0A0F0D0C0A1F0EB0EC96F27
:100358007F0ECA6FDBEC08F0CAEF02F0090E00014D
:10036800C96F7F0ECA6FDBEC08F0000E0001D06F7A
:10037800100ECF6FA0EC04F00001CF514F6EBE0EEF
:10038800C96F7F0ECA6FDBEC08F0CAEF02F0A0C09D
:1003980002F1A1C003F1000E0001D76F000ED66F65
:1003A800AB0EC96F7E0ECA6FDBEC08F0790E000148
:1003B800C96F7E0ECA6FDBEC08F015EF02F006C1BC
:1003C800A0F007C1A1F006EF02F0010104510008F6
:1003D8000F6E0551D8A0E82A0008106E03EC09F04A
:1003E8009E90010E4D6E72EC09F00009D8B4FFEF33
:1003F80001F001EF02F0F7EF01F0000E4D6E000181
:10040800A04BA12B010109510001A05D01010A5176
:100418000001A159D8A013EF02F015EF02F0E9EF9F
:1004280001F07CEC09F00009D8B41DEF02F01FEFD1
:1004380002F0E3EF01F0EFEC08F002C1A0F003C115
:10044800A1F02D0E0001C96F7D0ECA6FDBEC08F01C
:10045800000E106E800E0F6E96EC08F0CAEF02F0D8
:10046800500E0001C96F7D0ECA6FDBEC08F009C1A0
:10047800CFF00AC1D0F0A0EC04F0CFC006F1D0C094
:1004880007F1EB0E0001C96F7F0ECA6FDBEC08F0B5
:10049800730E0001C96F7D0ECA6FDBEC08F0FF0E0A
:1004A8000001D06FCF69A0EC04F0CFC009F1D0C033
:1004B8000AF1EB0E0001C96F7F0ECA6FDBEC08F082
:1004C800CAEF02F0DC0E0001C96F7E0ECA6FDBECCA
:1004D80008F0000E0001D06FCF69A0EC04F0CFC087
:1004E80004F1D0C005F1DC0E0001C96F7F0ECA6FA0
:1004F800DBEC08F0CAEF02F0850E0001C96F7F0E31
:10050800CA6F08C1CBF0CC6BDBEC08F0CAEF02F085
:1005180001010851006F016B0151000AD8B497EF2F
:1005280002F080EF02F000513F0AD8B4A8EF00F0C3
:100538006C0AD8B47CEF01F0090AD8B451EF01F085
:100548003B0AD8B4B2EF01F0050AD8B466EF02F05E
:10055800010AD8B44CEF02F0030AD8B492EF01F0C4
:10056800090AD8B448EF01F01C0AD8B487EF01F0A3
:10057800070AD8B434EF02F0030AD8B4CBEF01F07D
:100588000D0AD8B467EF01F080EF02F0F80E000111
:10059800C96F7F0ECA6FDBEC08F08EEF00F02FEF0B
:1005A80000F0B2C0D9FFB3C0DAFFDECFF6FFDDCF6F
:1005B800F7FF0800F550250AD8A4E5EF02F0E7EFA9
:1005C80002F0A8EF03F0B2C0D9FFB3C0DAFFDE2A09
:1005D800000EDD22000E436E000E426E42C0DEF0B9
:1005E80044684568B2C0D9FFB3C0DAFFDECFF6FF72
:1005F800DDCFF7FF0800F550630AD8A406EF03F033
:1006080008EF03F02CEF03F0B2C0D9FFB3C0DAFF54
:10061800DE2A000EDD22B4C0D9FFB5C0DAFFDFCF75
:100628003EF0020EDE26DFCF3FF0000EDD223EC098
:10063800D9FF3FC0DAFFDF500001BE6FB0C01AF02B
:10064800B1C01BF0BEC01CF05FEC06F0BCEF03F0BD
:10065800B2C0D9FFB3C0DAFFDECFBFF0DDCFC0F044
:10066800BFC0F6FFC0C0F7FF0800F550750AD8A450
:1006780040EF03F042EF03F09FEF03F0B4C0D9FF5F
:10068800B5C0DAFFDFCF3EF0020EDE26DFCF3FF047
:10069800000EDD223EC0D9FF3FC0DAFFDECF40F0BA
:1006A800DDCF41F040C0B6F041C0B7F00001B86BF3
:1006B800B96BBA6BBB6BBC6BBD6B010EBF253E6ED5
:1006C800000EC0213F6EB2C0D9FFB3C0DAFF3EC0F2
:1006D800DEFF3FC0DDFF89EF03F0B0C02CF0B1C0F2
:1006E8002DF0B6C02EF0B7C02FF0B8C030F0B9C0AA
:1006F80031F0BAC032F0BBC033F0BCC034F0BDC07A
:1007080035F0BDEC03F0BCEF03F0BFC0F6FFC0C08E
:10071800F7FF0800F5503E6E3F6A3F50000AD8B414
:1007280098EF03F09FEF03F03E50750AD8B471EFCD
:1007380003F09FEF03F0B2C0D9FFB3C0DAFFDE2A9F
:10074800000EDD22BCEF03F0B2C0D9FFB3C0DAFF60
:10075800DECFF6FFDDCFF7FF0800F550116E126A05
:10076800B0C013F0B1C014F0ACEC06F09FEF03F08A
:10077800120045BECAEF03F0455006E14404D8B064
:10078800C8EF03F0CAEF03F0D1EF03F0000E000149
:10079800A56F010EA46FD5EF03F044C0A4F045C0C7
:1007A800A5F042C0A2F043C0A3F02EC0A6F02FC00F
:1007B800A7F030C0A8F031C0A9F032C0AAF033C009
:1007C800ABF034C0ACF035C0ADF0000E0001AF6F37
:1007D8001F0EAE6F000EFE6F69EF04F0AE07D8A0D3
:1007E800AF07DF0EAE25D96E000EAF21DA6EA6C0B8
:1007F8000FF0A7C010F0A8C011F0A9C012F0AAC04D
:1008080013F0ABC014F0ACC015F0ADC016F00A0E72
:10081800176E000E186E000E196E000E1A6E000E7E
:100828001B6E000E1C6E000E1D6E000E1E6EF7EC89
:1008380005F00FC036F010C037F011C038F012C004
:1008480039F013C03AF014C03BF015C03CF016C0A4
:100858003DF03650300FDF6E0001A407D8A0A50781
:10086800A207D8A0A307A6C00FF0A7C010F0A8C081
:1008780011F0A9C012F0AAC013F0ABC014F0ACC0BC
:1008880015F0ADC016F00A0E176E000E186E000EA9
:10089800196E000E1A6E000E1B6E000E1C6E000EF6
:1008A8001D6E000E1E6E7FEC05F00FC0A6F010C086
:1008B800A7F011C0A8F012C0A9F013C0AAF014C084
:1008C800ABF015C0ACF016C0ADF00001AE51AF11E1
:1008D800D8B471EF04F073EF04F08FEF04F0A65171
:1008E800A711A811A911AA11AB11AC11AD11D8A467
:1008F80080EF04F082EF04F0F2EF03F0A5BF8FEF72
:1009080004F0A55106E1A405D8B08DEF04F08FEFEF
:1009180004F0F2EF03F02CC021F02DC022F0DF0E1E
:10092800AE25236E000EAF21246EA2C025F0A3C011
:1009380026F036EC07F01200000E0001D56F000E0D
:10094800D46F000ED36F000ED16F71EF05F0EFEC8E
:1009580008F00001D36F7F0ED319D8A4B6EF04F0C6
:10096800B8EF04F0F6EF04F0FB0EC96F7F0ECA6F04
:10097800D3C0CBF0CC6BDBEC08F00001D451D5111F
:10098800D8B4C9EF04F0CBEF04F0EAEF04F0D4C018
:100998000FF0D5C010F0116A126A9A0E136E190E74
:1009A800146E000E156E000E166E73EC07F0110E25
:1009B800E3EF04F0D8901232113210320F32E82EE1
:1009C800DEEF04F00FC0D4F010C0D5F00001D15113
:1009D800D8B4F1EF04F0F3EF04F071EF05F0D107AC
:1009E80071EF05F0D351D00FD26F0A0ED261FFEF2D
:1009F80004F001EF05F071EF05F0D4C00FF0D5C099
:100A080010F0000E126E0A0E116E17EC09F00001BC
:100A1800D2510F26000E10220F50CF5D1050D05922
:100A2800D8B019EF05F01BEF05F01DEF05F071EFD9
:100A380005F0D451D511D8A424EF05F026EF05F020
:100A480038EF05F0D251D8A42CEF05F02EEF05F0C1
:100A580038EF05F0D151D8B434EF05F036EF05F092
:100A680038EF05F071EF05F0D451D511D8A43FEF58
:100A780005F041EF05F053EF05F0D151D8B447EF39
:100A880005F049EF05F053EF05F0FB0EC96F7F0E37
:100A9800CA6F000ECC6F7F0ECB6FDBEC08F0FB0E3D
:100AA8000001C96F7F0ECA6FD3C0CBF0CC6BDBECF3
:100AB80008F0D4C00FF0D5C010F0000E126E0A0E68
:100AC800116E17EC09F00FC0D4F010C0D5F000017A
:100AD800D251D427000ED523D12B0D0ED319D8A46B
:100AE80078EF05F07AEF05F0ABEF04F0D4C0CFF063
:100AF800D5C0D0F0120020EE1FF0070EDE6AE8061F
:100B0800FDE21750181019101A101B101C101D1098
:100B18001E10D8B492EF05F094EF05F0E6EF05F05B
:100B2800010E276EA2EF05F0D89017361836193641
:100B38001A361B361C361D361E36272A1EAEA7EF60
:100B480005F0A9EF05F098EF05F0D8901F3620368C
:100B580021362236233624362536263617500F5CA2
:100B680018501058195011581A5012581B50135831
:100B78001C5014581D5015581E501658D8A0C7EFB1
:100B880005F0C9EF05F0DAEF05F017500F5E1850C1
:100B9800105A1950115A1A50125A1B50135A1C50F5
:100BA800145A1D50155A1E50165A1F80D8901E32BE
:100BB8001D321C321B321A32193218321732272EC4
:100BC800A9EF05F01FC00FF020C010F021C011F0F0
:100BD80022C012F023C013F024C014F025C015F071
:100BE80026C016F012001750181019101A101B10F2
:100BF8001C101D101E10D8B404EF06F006EF06F006
:100C08004EEF06F0010E1F6E14EF06F0D89017365F
:100C1800183619361A361B361C361D361E361F2A4C
:100C28001EAE19EF06F01BEF06F00AEF06F017509C
:100C38000F5C18501058195011581A5012581B5060
:100C480013581C5014581D5015581E501658D8A02B
:100C580030EF06F032EF06F042EF06F017500F5E65
:100C68001850105A1950115A1A50125A1B50135A28
:100C78001C50145A1D50155A1E50165AD8901E3220
:100C88001D321C321B321A321932183217321F2EFB
:100C98001BEF06F00FC00FF010C010F011C011F0DC
:100CA80012C012F013C013F014C014F015C015F0E0
:100CB80016C016F0120042504310D8A466EF06F092
:100CC80068EF06F06EEF06F042C020F043C021F056
:100CD80074EF06F0FF0E4224206EFF0E4320216EB3
:100CE80021BE79EF06F07BEF06F07DEF06F081EF8D
:100CF80006F0000E216E000E206E000E1F6E000E14
:100D08001E6E93EF06F0000E126E200E116E1AC0C2
:100D180013F01BC014F0ACEC06F01E4A1F2A20503A
:100D28001E5C1F50800A1D6E2150800A1D58D8A0D5
:100D3800A0EF06F0A2EF06F087EF06F01CC011F056
:100D4800126A1AC013F01BC014F0ACEC06F01200C3
:100D580013501410D8B4B3EF06F0B5EF06F0BEEF99
:100D680006F013501410D8A4BCEF06F0BEEF06F03E
:100D7800C3EF06F011508EEC09F0F6EF06F020EE06
:100D880009F01350D9261450DA22DE50DE10D8B4F8
:100D9800D0EF06F0D2EF06F0EDEF06F020EE09F006
:100DA8001350D9261450DA2210EE03F01350E1261E
:100DB8001450E222DE50E65CE650800A196EDE50DE
:100DC800800A1958D8B0EBEF06F0EDEF06F0F6EF11
:100DD80006F020EE03F01350D9261450DA22DE2A4A
:100DE800000EDD2212004D50D8B4FDEF06F0FFEFE3
:100DF80006F02EEF07F00001A051D627A151D72306
:100E0800D6C005F0D7C006F00A0E076ED890063295
:100E18000532072E0AEF07F005504C6E600E4C2481
:100E2800D96EDA6A000EDA22DF50056E05504F02DD
:100E3800F3CF06F0F4CF07F0040E086ED89007320F
:100E48000632082E22EF07F006C001F007C002F0B4
:100E5800AEEC08F0FD0E026E040E016EACEC09F06B
:100E6800F294120026BE3BEF07F03DEF07F043EF88
:100E780007F025C02AF026C02BF047EF07F0000E38
:100E88002B6E000E2A6E000E296E000E286E59EF8A
:100E980007F0000E126E200E116E21C013F022C052
:100EA80014F0ACEC06F0284A292A2A50285C29506C
:100EB800800A276E2B50800A2758D8A066EF07F0C3
:100EC80068EF07F04DEF07F023C01AF024C01BF0BD
:100ED80021C01CF022C01DF0FDEC07F01200000E2E
:100EE800176E000E186E000E196E000E1A6E0FA007
:100EF80080EF07F082EF07F08AEF07F0135017260C
:100F0800145018221550192216501A22D890133648
:100F1800143615361636D8901232113210320F3276
:100F28000F50101011101210D8A49DEF07F09FEF6A
:100F380007F07BEF07F017C00FF018C010F019C0CA
:100F480011F01AC012F012003E0EF66E100EF76E77
:100F5800000EF86E00EE60F010EE42F00900F5CFDA
:100F6800EEFFE550E150FAE1680EF66E130EF76EEB
:100F7800000EF86E0900F5CF4FF000EED6F0290EFE
:100F8800EE6AE806FDE100EE42F00D0EEE6AE806B4
:100F9800FDE150905092000EF86E000131EF00F024
:100FA800C3C0C7F0C4C0C8F0E9EF07F0C1C0B0F0D3
:100FB800C2C0B1F0C70E0001B26F000EB36FC5C05A
:100FC800B4F0C6C0B5F0D5EC02F0C7C0F6FFC8C093
:100FD800F7FF0800F5500009D8A4F5EF07F0F7EF80
:100FE80007F0DAEF07F0000E0001C26F000EC16FC4
:100FF8001200000E206E000E1F6E0EEF08F01EC0CD
:1010080011F0126A1CC013F01DC014F0ACEC06F00D
:101018001F4A202A1F501A24D96E20501B20DA6E2E
:10102800DF501E6E1E50D8A41CEF08F01EEF08F00B
:1010380003EF08F01200808C98A5B0BCC6D0DAE2A5
:10104800EAF0F5FAFDFEFFFEFDFAF5F0EAE2DAD085
:10105800C6BCB0A5988C8073675A4F43392F251D9D
:10106800150F0A050201000102050A0F151D252F9B
:1010780039434F5A67730100080EB86E900EAB6E75
:10108800240EAC6E820EAF6E060EB06E000E0F6EA2
:10109800000E106EA2EC09F0000E0F6E000E106E1E
:1010A8009DEC09F0000E0F6E000E106EA7EC09F013
:1010B800000E4E6E1200F2944950D76E48C0D6FF0B
:1010C8004A504B10D8B46BEF08F06DEF08F07AEF88
:1010D80008F002D87AEF08F00500FA6E4A50FD6E63
:1010E8004B50FE6EF850FF6EFA5012001200D59C5D
:1010F800E00ED76EBF0ED66ED650D7CF11F0126A5B
:1011080011C012F0116A1110486E1250496EF29413
:10111800F28A660E0F6E130E106E98EC09F0980E98
:10112800D56E12000FC011F010C012F0D890123214
:101138001132D890123211321150BE6E0FC011F018
:10114800030E1116113AF00E1116BD50CF0B1110E7
:10115800BD6E120001C003F002C004F0D890043242
:101168000332D890043203320350BE6E01C003F03C
:10117800030E0316033AF00E0316BD50CF0B0310EF
:10118800BD6E1200000E896E000E8A6E000E8B6E08
:1011980092689368BB0E946E3C0E0F013A6F3F0E37
:1011A800396F2F0E386F000E616EF18E1200CB0E64
:1011B8000001CD6F000ECE6F000EC16F000EC26F22
:1011C800C9C0C3F0CAC0C4F0CD0EC56F000EC66F4B
:1011D800D4EC07F012009EAAF4EF08F0F6EF08F03E
:1011E800EFEF08F0000E4E6EABA2FDEF08F0FFEF38
:1011F80008F001EF09F0AB98AB88AE501200CDA40F
:1012080008EF09F00AEF09F012EF09F0CD9010503D
:10121800CF6E0FC0CEFFCD8016EF09F01050CF6E05
:101228000FC0CEFF12000F501102F3CF13F0F4CF0E
:1012380014F00F501202F350142610501102F350FC
:10124800142613C00FF014C010F01200B1EC09F00E
:10125800C6EC08F059EC09F03BEC09F086EC09F013
:101268004BEC09F07BEC08F040EC08F012003C0E67
:10127800BD6E000EB66E800EB76E010EB96E000E12
:10128800BF6E1F0EBE6EFC0E0F0149171200000E36
:10129800CC6EE00ECF6E000ECE6ECECF46F0CFCF26
:1012A80047F09E90310ECD6E1200700ED36E040E74
:1012B800D26E400E9B6ED2AE64EF09F066EF09F075
:1012C8005FEF09F012000F6E9EA86DEF09F06FEF47
:1012D80009F068EF09F00FC0ADFF12009EB077EF7C
:1012E80009F07AEF09F0010E7BEF09F0000E120009
:1012F8009EBA81EF09F084EF09F0010E85EF09F03D
:10130800000E12003F0EBB6E000EBC6E9E92050EC4
:10131800BA6E1200106E105067EC09F012001050EF
:10132800D76E0FC0D6FF12000FC04AF010C04BF0A6
:1013380012000FC0DAF010C0DBF012000FC0DCF0B2
:1013480010C0DDF012000FC0D8F010C0D9F01200A4
:101358000250D76E01C0D6FF1200D09E12001200B4
:011368001074
:107BEE00002D2D2D2D2D2D2D2D2D2D2D2D2D2D2DE4
:107BFE002D2D2D2D2D2D2D2D2D2D2D2D2D2D2D2DA7
:107C0E002D2D2D2D2D2D2D2D2D2D2D2D2D2D2D2D96
:107C1E002D2D0A0D00412F613A20696E6372656148
:107C2E0073652F646563726561736520416D706C59
:107C3E0069747564652073656C65637420616D701D
:107C4E006C69747564650A0D00436F6E6E656374BE
:107C5E00206A756D706572206265747765656E2039
:107C6E004C50465F6F757420616E6420414D505FBD
:107C7E00696E2E0D0A00436F6E6E65637420436845
:107C8E00616E6E656C20322073636F70652070724A
:107C9E006F626520746F204C50465F6F75742E0DA9
:107CAE000A00532F733A2053746172742F73746FDA
:107CBE0070206669786564206672657175656E639D
:107CCE00792073696E6520776176650A0D00436FC2
:107CDE006E6E656374206A756D7065722062657470
:107CEE007765656E2052433220616E64204C50469B
:107CFE005F696E2E0D0A00436F6E6E6563742043CE
:107D0E0068616E6E656C20312073636F70652070D4
:107D1E00726F626520746F205243322E0D0A00730B
:107D2E00746F707065642067656E65726174696EDC
:107D3E0067207377656570696E6720776176650D6C
:107D4E000A00656E746572206120737461727469C5
:107D5E006E67207377656570206672657175656EE6
:107D6E0063790A0D00656E746572206120656E641C
:107D7E00696E6720737765657020667265717565CB
:107D8E006E63790A0D002D2D2020202020204475B1
:107D9E00726174696F6E3A202020257520736563B9
:107DAE006F6E640A0D0073746F7070656420676582
:107DBE006E65726174696E672073696E2077617685
:107DCE00650A0D00743A20656E74657220735461F5
:107DDE007274696E67206672657175656E63790A75
:107DEE000D002D2D202020202020416D706C6974F7
:107DFE007564653A202025752F25750A0D00653AA4
:107E0E0020656E74657220456E64696E67206672B9
:107E1E00657175656E63790A0D002D2D2020202069
:107E2E002020456E64696E673A202020202025753B
:107E3E00487A0A0D002D2D20202020202053746119
:107E4E007274696E673A2020202575487A0A0D00F3
:107E5E002D2D2020202020204672657175656E63C1
:107E6E00793A20202575487A0A0D00707265737371
:107E7E0020616E79206B657920746F206578697446
:107E8E002E0D0A004444532077617665666F726D3D
:107E9E002067656E657261746F720D0A0067656E9C
:107EAE0065726174696E67207377656570696E6758
:107EBE002077617665007A3A20636C656172207472
:107ECE006865207465726D696E616C0A0D00656E71
:107EDE0074657220612073776565702070657269B4
:107EEE006F640A0D0044657627323120426F61724D
:107EFE006420776972696E670D0A00656E7465722B
:107F0E0020616E20616D706C69747564650A0D0078
:107F1E00573A2073576565702073696E65207761D7
:107F2E0076650A0D005A3A20726573657420707278
:107F3E006F636573736F720A0D00663A20656E7417
:107F4E006572204672657175656E63790A0D0064FF
:107F5E003A20656E746572204475726174696F6E35
:107F6E000A0D00656E74657220612066726571750A
:107F7E00656E63790A0D00756E6B6E6F776E206B92
:107F8E0065792025630D0A003F3A2068656C7020E4
:107F9E006D656E750A0D002D2D2020537765657069
:107FAE003A0A0D002D2D202046697865640A0D00D1
:107FBE002F31362073746570730A0D004C61622088
:107FCE0031320D0A006F3A20206F6B0D0A002074BB
:107FDE006D72730A0D006F3A206B0A0D0020487AFD
:107FEE000A0D0025630A0D000A0D3E2000256300D0
:017FFE000082
:020000040020DA
:08000000FFFFFFFFFFFFFFFF00
:020000040030CA
:0E000000FF281F3CFFBF85FF0FC00FE00F4021
:00000001FF
