:040000002FEF00F0EE
:100008004B82FACF0EF0FBCF0FF0D9CF10F0DACF3A
:1000180011F0F3CF12F0F4CF13F0F2AA16EF00F0BC
:1000280018EF00F021EF00F0F2A41DEF00F01FEF31
:1000380000F021EF00F087EC12F013C0F4FF12C0BB
:10004800F3FF11C0DAFF10C0D9FF0FC0FBFF0EC0CD
:10005800FAFF4B9211008AEF11F0000E0101236F95
:10006800000E246F000E256F000E266F000E286FFD
:10007800000E276F000E1E6F000E1D6F000E1A6F08
:10008800A10EF66E790EF76E21EE00F0190E09003A
:10009800F5CFDEFFE806FBE2000E1C6F4DEC13F017
:1000A8008A88000E156E000E146EC4EC13F0F294DC
:1000B800F2A461EF00F063EF00F05CEF00F06A0E6D
:1000C800146E1F0E156EC9EC13F0F28EF28CE9EC6B
:1000D80013F0000EF9EC10F0940E0001A26F7F0EE1
:1000E800A36FFFEC12F0120E0001A26F7F0EA36F38
:1000F800FFEC12F0B60E0001A26F7F0EA36FFFECAB
:1001080012F0720E0001A26F7C0EA36FFFEC12F0CA
:10011800ACEC13F00009D8B494EF00F096EF00F0BF
:100128008CEF00F013EC13F001011B6FE20E0001DD
:10013800A26F7F0EA36F1BC1A4F0A56BFFEC12F09A
:100148007FEF06F0BE0EA26F7A0EA36FFFEC12F0DF
:10015800760E0001A26F7F0EA36FFFEC12F0C80E9F
:100168000001A26F7F0EA36FFFEC12F09B0E00013F
:10017800A26F7E0EA36FFFEC12F03E0E0001A26F7D
:100188007E0EA36FFFEC12F0F40E0001A26F7A0E40
:10019800A36FFFEC12F0260E0001A26F7E0EA36F74
:1001A800FFEC12F0F40E0001A26F7A0EA36FFFECC1
:1001B80012F0E60E0001A26F7C0EA36FFFEC12F0A6
:1001C800EF0E0001A26F7B0EA36FFFEC12F0560E2C
:1001D8000001A26F7E0EA36FFFEC12F0280E000143
:1001E800A26F7B0EA36FFFEC12F0F40E0001A26F5A
:1001F8007A0EA36FFFEC12F05C0E0001A26F7B0E6B
:10020800A36FFFEC12F01B0E0001A26F7C0EA36F10
:10021800FFEC12F02C0E0001A26F7D0EA36FFFEC15
:1002280012F0C00E0001A26F7A0EA36FFFEC12F05D
:10023800CAEF06F0BF0EA26F7F0EA36FFFEC12F09D
:10024800CAEF06F0000E0101286F000E276FF70EA7
:100258000001A26F7F0EA36FFFEC12F00101274B84
:10026800282B285109E1280E275DD8A03EEF01F080
:1002780040EF01F02BEF01F0FF00CAEF06F0000E8F
:100288000101286F000E276FF70E0001A26F7F0E85
:10029800A36FFFEC12F00101274B282B285109E12D
:1002A800280E275DD8A05BEF01F05DEF01F048EF65
:1002B80001F0CAEF06F0E9EC13F0000EF9EC10F0CB
:1002C800010EA1EC0CF0CAEF06F0000E0101235F4D
:1002D800020E245B000E255B000E265B040E265DD5
:1002E800D8A079EF01F07BEF01F08DEF01F04C0E13
:1002F8000001A26F7D0EA36FFFEC12F0000E01014A
:10030800236FFE0E246FFF0E256F030E266F94EFEA
:1003180001F0B00E0001A26F7E0EA36FFFEC12F089
:10032800FF0E0001A26F7E0EA36FFFEC12F0EC0E21
:100338000001A26F7F0EA36F25C1A4F026C1A5F00E
:10034800A66BA76BFFEC12F0850E0001A26F7D0E65
:10035800A36FFFEC12F0EC0E0001A26F7F0EA36FEB
:10036800FF0E010123150001A46FFF0E01012415E2
:100378000001A56F000E010125150001A66F000EF2
:10038800010126150001A76FFFEC12F0730E0001A2
:10039800A26F7F0EA36FFFEC12F0CAEF06F0000EFB
:1003A80001012327020E2423000E2523000E2623F5
:1003B800040E265DD8A0E3EF01F0E5EF01F0F7EFBA
:1003C80001F0A30E0001A26F7D0EA36FFFEC12F0E7
:1003D800000E0101236F000E246F000E256F000E22
:1003E800266FFEEF01F0C40E0001A26F7E0EA36F10
:1003F800FFEC12F0FF0E0001A26F7E0EA36FFFEC60
:1004080012F0EC0E0001A26F7F0EA36F25C1A4F0BD
:1004180026C1A5F0A66BA76BFFEC12F0850E0001B4
:10042800A26F7D0EA36FFFEC12F0EC0E0001A26F1D
:100438007F0EA36FFF0E010123150001A46FFF0EAD
:10044800010124150001A56F000E01012515000109
:10045800A66F000E010126150001A76FFFEC12F030
:10046800730E0001A26F7F0EA36FFFEC12F0CAEFAC
:1004780006F08B8A23C115F024C116F025C117F0A8
:1004880026C118F0290E196E010E1A6E61EC10F0D3
:100498008B9A670E0001A26F7F0EA36FFFEC12F01C
:1004A800460E0001A26F7F0EA36FFFEC12F0EC0E58
:1004B8000001A26F7F0EA36F25C1A4F026C1A5F08D
:1004C800A66BA76BFFEC12F0850E0001A26F7D0EE4
:1004D800A36FFFEC12F0EC0E0001A26F7F0EA36F6A
:1004E800FF0E010123150001A46FFF0E0101241561
:1004F8000001A56F000E010125150001A66F000E71
:10050800010126150001A76FFFEC12F0730E000120
:10051800A26F7F0EA36FFFEC12F0290E0001AE6FE1
:10052800010EAF6FFCEC09F0CAEF06F0000E0101F6
:10053800286F000E276F290E2725D96E010E282156
:10054800DA6E2751FF0ADF6E274B282B020E285D33
:10055800D8A0B1EF02F0B3EF02F09FEF02F08B8862
:1005680023C11AF024C11BF025C11CF026C11DF0BF
:10057800290E1E6E010E1F6E43EC11F06BEC12F08B
:1005880001011A6F1A29D8B4CCEF02F0CEEF02F0AD
:10059800C2EF02F08B98470E0001A26F7C0EA36F8A
:1005A800FFEC12F0460E0001A26F7F0EA36FFFEC66
:1005B80012F0EC0E0001A26F7F0EA36F25C1A4F00C
:1005C80026C1A5F0A66BA76BFFEC12F0850E000103
:1005D800A26F7D0EA36FFFEC12F0EC0E0001A26F6C
:1005E8007F0EA36FFF0E010123150001A46FFF0EFC
:1005F800010124150001A56F000E01012515000158
:10060800A66F000E010126150001A76FFFEC12F07E
:10061800730E0001A26F7F0EA36FFFEC12F06E0E37
:100628000001A26F7E0EA36F1AC1A4F0A56BFFECA8
:1006380012F0CAEF06F023C11FF124C120F125C131
:1006480021F126C122F1850EA26F7F0EA36F25C16D
:10065800A4F026C1A5F0A66BA76BFF0E0101231518
:100668000001A86FFF0E010124150001A96F000EFB
:10067800010125150001AA6F000E010126150001D0
:10068800AB6FFFEC12F0000E0101286F000E276F10
:10069800290E2725D96E010E2821DA6E000EDF6E8D
:1006A8001C2B190E1C655BEF03F05DEF03F05FEF89
:1006B80003F0000E1C6F274B282B020E285DD8A0D4
:1006C80068EF03F06AEF03F04CEF03F0000E286FB9
:1006D800000E276FAC0E0001A26F7F0EA36FFFEC18
:1006E80012F0810E0001A26F7D0EA36F21C1A4F04C
:1006F80022C1A5F0A66BA76BFFEC12F0DC0E00017F
:10070800A26F7F0EA36FFF0E01011F150001A46FDA
:10071800FF0E010120150001A56F000E0101211532
:100728000001A66F000E010122150001A76FFFEC62
:1007380012F01FC11AF020C11BF021C11CF022C108
:100748001DF0290E1E6E010E1F6E43EC11F06BECAE
:1007580012F0FF0AD8B4B3EF03F0B5EF03F0ABEF34
:1007680003F0000E156E000E146EEBEC12F09E9066
:100778009EA0C1EF03F0C3EF03F0BCEF03F0000E3F
:1007880001011F27020E2023000E2123000E222321
:10079800A10E0001A26F7F0EA36FFFEC12F0010102
:1007A800274B282B020E285DD8A0DDEF03F0DFEFE2
:1007B80003F06EEF03F0570E0001A26F7F0EA36FD8
:1007C800FFEC12F0CAEF06F023C11FF124C120F19B
:1007D80025C121F126C122F1000E0101286F000E6A
:1007E800276FAC0E0001A26F7F0EA36FFFEC12F013
:1007F800810E0001A26F7D0EA36F21C1A4F022C15A
:10080800A5F0A66BA76BFFEC12F0DC0E0001A26F3F
:100818007F0EA36FFF0E01011F150001A46FFF0ECD
:10082800010120150001A56F000E0101211500012D
:10083800A66F000E010122150001A76FFFEC12F050
:10084800000E01011E6F000E1D6F000E1C25D96ED3
:10085800DA6A010EDA22290E1D25E16E010E1E212B
:10086800E26EDFCFE7FF1C2B190E1C653EEF04F08C
:1008780040EF04F042EF04F0000E1C6F1D4B1E2BDE
:10088800020E1E5DD8A04BEF04F04DEF04F029EFE7
:1008980004F01FC11AF020C11BF021C11CF022C1B5
:1008A8001DF0290E1E6E010E1F6E43EC11F06BEC4D
:1008B80012F0FF0AD8B463EF04F065EF04F05BEFC1
:1008C80004F0000E156E000E146EEBEC12F09E9004
:1008D8009EA071EF04F073EF04F06CEF04F0000ECB
:1008E80001011F27020E2023000E2123000E2223C0
:1008F800A10E0001A26F7F0EA36FFFEC12F00101A1
:10090800274B282B020E285DD8A08DEF04F08FEF1F
:1009180004F0F5EF03F0EC0E0001A26F7E0EA36F5A
:10092800FFEC12F0CAEF06F0A00EE625B86F000E35
:10093800E721B96FB851E65DB951E759D8B0A7EFCB
:1009480004F0A9EF04F0ADEF04F0A00EE627000EC6
:10095800E723F40EA26F7D0EA36FE6C0A4F0E7C0F4
:10096800A5F0FFEC12F0CAEF06F0600EE625B86FAE
:10097800FF0EE721B96FE651B85DE751B959D8B014
:10098800C8EF04F0CAEF04F0CEEF04F0A00EE65F63
:10099800000EE75BF40EA26F7D0EA36FE6C0A4F015
:1009A800E7C0A5F0FFEC12F0CAEF06F0000EBE6F2C
:1009B80023C11FF124C120F125C121F126C122F153
:1009C800010E496E58EF05F00001BE51D8B4EFEFA3
:1009D80004F0F1EF04F058EF05F06A0EA26F7D0EF7
:1009E800A36FE8C0A4F0A56B21C1A6F022C1A7F0AF
:1009F800A86BA96BFFEC12F0CF0E0001A26F7F0E5F
:100A0800A36FFF0E01011F150001A46FFF0E010166
:100A180020150001A56F000E010121150001A66F28
:100A2800000E010122150001A76FFFEC12F01FC193
:100A38001AF020C11BF021C11CF022C11DF0E8C032
:100A480014F0156A020E176E000E166E27EC13F0DE
:100A5800290E14241E6E010E15201F6E43EC11F092
:100A68006BEC12F0FF0AD8B43CEF05F03EEF05F04E
:100A780034EF05F0000E156E000E146EEBEC12F05C
:100A88009E909EA04AEF05F04CEF05F045EF05F06B
:100A9800000E01011F27020E2023000E2123000E45
:100AA8002223000E0001BE6FACEC13F00009D8B48D
:100AB80060EF05F062EF05F0E8EF04F013EC13F0D7
:100AC800000E496E350E0001A26F7F0EA36FFFEC7A
:100AD80012F0CAEF06F0850EA26F7A0EA36FFFEC34
:100AE80012F0070E0001A26F7A0EA36FFFEC12F04E
:100AF800250E0001A26F7B0EA36FFFEC12F04B0EC8
:100B08000001A26F7A0EA36FFFEC12F00B0E00012A
:100B1800A26F7D0EA36FFFEC12F0850E0001A26F8D
:100B28007E0EA36FFFEC12F08E0E0001A26F7B0EFB
:100B3800A36FFFEC12F0BF0E0001A26F790EA36F36
:100B4800FFEC12F0D80E0001A26F7E0EA36FFFEC2F
:100B580012F00D0E0001A26F7E0EA36FFFEC12F0D3
:100B6800ACEC13F00009D8B4BCEF05F0BEEF05F00B
:100B7800B4EF05F013EC13F023C11FF124C120F1E9
:100B880025C121F126C122F1000E0101286F000EB6
:100B9800276F1FC115F020C116F021C117F022C11F
:100BA80018F0290E196E010E1A6E61EC10F0000E85
:100BB80001011E6F000E1D6FE70E0001A26F7F0E70
:100BC800A36F290E01011D25D96E010E1E21DA6EB3
:100BD800DF500001B86FB851A46FA56BF70EA66F70
:100BE8007F0EA76FFFEC12F0ACEC13F0E806D8A468
:100BF80000EF06F002EF06F004EF06F010EF06F043
:100C080001011D4B1E2B020E1E5DD8A00EEF06F033
:100C180010EF06F0E0EF05F0ACEC13F0E806D8A40E
:100C280018EF06F01AEF06F01CEF06F030EF06F0AA
:100C3800000E01011F27020E2023000E2123000EA3
:100C48002223274B282B020E285DD8A02EEF06F072
:100C580030EF06F0CDEF05F013EC13F09C0E000119
:100C6800A26F7C0EA36F27C1A4F028C1A5F0020EC5
:100C7800A76F000EA66FFFEC12F0C00E0001A26F66
:100C88007B0EA36FFFEC12F0250E0001A26F7B0E06
:100C9800A36FFFEC12F04B0E0001A26F7A0EA36F48
:100CA800FFEC12F00B0E0001A26F7D0EA36FFFEC9C
:100CB80012F0850E0001A26F7E0EA36FFFEC12F0FA
:100CC800C10E0001A26F7C0EA36FFFEC12F0D80ECC
:100CD8000001A26F7E0EA36FFFEC12F0CAEF06F0C0
:100CE800240EA26F7F0EA36F1BC1A4F0A56BFFECAF
:100CF80012F0CAEF06F001011B510001B86FB96B81
:100D0800B951000AD8B48BEF06F074EF06F0B85169
:100D18002B0AD8B498EF04F0060AD8B4B9EF04F057
:100D28001D0AD8B41FEF03F0010AD8B4E8EF03F0A6
:100D38000E0AD8B4A6EF00F07E0AD8B4D3EF01F0BB
:100D4800160AD8B4DAEF04F00D0AD8B426EF01F089
:100D58003B0AD8B469EF01F0080AD8B45FEF01F094
:100D6800060AD8B41EEF01F01D0AD8B43DEF02F010
:100D7800010AD8B46FEF05F0040AD8B49AEF02F06C
:100D88000D0AD8B443EF01F074EF06F0990E000194
:100D9800A26F7C0EA36FFFEC12F08CEF00F02FEF28
:100DA80000F085C0D9FF86C0DAFFDECFF6FFDDCFC1
:100DB800F7FF0800F550250AD8A4E5EF06F0E7EF9D
:100DC80006F0E8EF08F085C0D9FF86C0DAFFDE2A12
:100DD800000EDD22000E386E000E376E37C047F069
:100DE80039683A68000E00018F6F000E8E6F27EF8A
:100DF80007F0478285C0D9FF86C0DAFFDE2A000ED9
:100E0800DD2227EF07F0000E8F6F010E8E6F27EFA0
:100E180007F085C0D9FF86C0DAFFDECFF6FFDDCF49
:100E2800F7FF0800F550896F8A6B8A51000AD8B419
:100E380020EF07F007EF07F08951300AD8B4FDEF2B
:100E480006F007EF07F08E518F11D8B42EEF07F098
:100E580030EF07F00DEF07F085C0D9FF86C0DAFF45
:100E6800DECFF6FFDDCFF7FF0800F5502A0AD8A439
:100E780040EF07F042EF07F06BEF07F085C0D9FFAE
:100E880086C0DAFFDE2A000EDD2287C0D9FF88C0BF
:100E9800DAFFDFCF89F0020EDE26DFCF8AF0000E00
:100EA800DD2289C0D9FF8AC0DAFFDECF37F0DDCF77
:100EB80038F038BE64EF07F062EF07F09FEF07F0F5
:100EC8004780376C381ED8B0382A9FEF07F085C0A6
:100ED800D9FF86C0DAFFDECF1AF0DDCF1BF05DEC5C
:100EE8000DF01AC037F01BC038F082EF07F085C04C
:100EF800D9FF86C0DAFFDE2A000EDD2285C0D9FFC1
:100F080086C0DAFFDECFF6FFDDCFF7FF0800F5CFAA
:100F180089F0D00E000189258A6F8B6BFF0E8B2319
:100F28008B5109E10A0E8A5DD8A09DEF07F09FEF6B
:100F380007F07BEF07F085C0D9FF86C0DAFFDECF68
:100F4800F6FFDDCFF7FF0800F550630AD8A4AFEF2E
:100F580007F0B1EF07F0D4EF07F085C0D9FF86C0DE
:100F6800DAFFDE2A000EDD2287C0D9FF88C0DAFF4B
:100F7800DFCF89F0020EDE26DFCF8AF0000EDD22F9
:100F880089C0D9FF8AC0DAFFDF508D6F83C01FF098
:100F980084C020F08DC021F051EC0FF0FCEF08F078
:100FA80085C0D9FF86C0DAFFDECF9AF0DDCF9BF08F
:100FB8009AC0F6FF9BC0F7FF0800F550780AD8B42E
:100FC800E8EF07F0EAEF07F0F8EF07F09AC0F6FF4E
:100FD8009BC0F7FF0800F550750AD8A4F6EF07F094
:100FE800F8EF07F070EF08F087C0D9FF88C0DAFF84
:100FF800DFCF89F0020EDE26DFCF8AF0000EDD2279
:1010080089C0D9FF8AC0DAFFDECF8BF0DDCF8CF044
:101018008BC092F08CC093F0946B956B966B976B2A
:10102800986B996B010E9A25896F000E9B218A6F28
:1010380085C0D9FF86C0DAFF89C0DEFF8AC0DDFF20
:1010480056EF08F083C060F084C061F092C062F08F
:1010580093C063F094C064F095C065F096C066F0E4
:1010680097C067F098C068F099C069F0FDEC08F087
:10107800FCEF08F083C060F084C061F092C062F0B9
:1010880093C063F094C064F095C065F096C066F0B4
:1010980097C067F098C068F099C069F0F2EC0AF060
:1010A800FCEF08F09AC0F6FF9BC0F7FF0800F55068
:1010B800896F8A6B8A51000AD8B465EF08F070EF1F
:1010C80008F08951750AD8B426EF08F00D0AD8B48B
:1010D8003EEF08F070EF08F085C0D9FF86C0DAFF50
:1010E800DECFF6FFDDCFF7FF0800F550730AD8B45E
:1010F80080EF08F082EF08F09DEF08F085C0D9FF77
:1011080086C0DAFFDECF14F0DDCF15F0F10E166ED3
:101118007F0E176E000E196E030E186E7AEC0EF025
:1011280014501510D8A49BEF08F09DEF08F0DFEFDE
:1011380008F085C0D9FF86C0DAFFDECFF6FFDDCF25
:10114800F7FF0800F550730AD8B4ADEF08F0AFEF19
:1011580008F0B6EF08F0000E0001916F030E906FD3
:10116800BBEF08F0000E0001916F010E906F85C073
:10117800D9FF86C0DAFF9051DE269151DD2283C067
:101188001FF084C020F087C0D9FF88C0DAFFDFCF06
:1011980089F0020EDE26DFCF8AF0000EDD2289C03C
:1011A800D9FF8AC0DAFFDECF21F0DDCF22F0D9ECFB
:1011B8000BF0FCEF08F085C0D9FF86C0DAFFDE2A05
:1011C800000EDD22FCEF08F085C0D9FF86C0DAFFEB
:1011D800DECFF6FFDDCFF7FF0800F550166E176A71
:1011E80083C018F084C019F0AEEC10F0DFEF08F0FF
:1011F80012003ABE02EF09F004EF09F005EF09F01A
:1012080047923ABE12EF09F03A5006E13904D8B0D5
:1012180010EF09F012EF09F019EF09F0000E0001C4
:10122800736F010E726F1DEF09F039C072F03AC08A
:1012380073F037C074F038C075F062C076F063C0E0
:1012480077F064C078F065C079F066C07AF067C05E
:101258007BF068C07CF069C07DF0000E00017F6FF4
:101268001F0E7E6F000EDE6FB1EF09F07E07D8A06B
:101278007F07BF0E7E25D96E000E7F21DA6E76C0FD
:1012880014F077C015F078C016F079C017F07AC05E
:1012980018F07BC019F07CC01AF07DC01BF00A0E54
:1012A8001C6E000E1D6E000E1E6E000E1F6E000ED0
:1012B800206E000E216E000E226E000E236EE9ECE9
:1012C8000EF014C06AF015C06BF016C06CF017C0B1
:1012D8006DF018C06EF019C06FF01AC070F01BC026
:1012E80071F000016A51300FDF6E7207D8A07307E2
:1012F8007407D8A0750776C014F077C015F078C0C9
:1013080016F079C017F07AC018F07BC019F07CC0CD
:101318001AF07DC01BF00A0E1C6E000E1D6E000E2A
:101328001E6E000E1F6E000E206E000E216E000E47
:10133800226E000E236E02EC0EF014C076F015C07B
:1013480077F016C078F017C079F018C07AF019C095
:101358007BF01AC07CF01BC07DF000017E517F112C
:10136800D8B4B9EF09F0BBEF09F0EBEF09F076510B
:101378007711781179117A117B117C117D11D8A41C
:10138800C8EF09F0CAEF09F03AEF09F073BFD7EFD9
:1013980009F0735106E17205D8B0D5EF09F0D7EF1F
:1013A80009F03AEF09F075BFE2EF09F0755108E16D
:1013B8007405D8A0E2EF09F0E4EF09F0EBEF09F0CB
:1013C80047B2E9EF09F0EBEF09F03AEF09F060C036
:1013D80026F061C027F0BF0E7E25286E000E7F2103
:1013E800296E74C02AF075C02BF00CEC10F01200B6
:1013F800F50E0001A26F7F0EA36FFFEC12F0000E36
:101408000001B76F000EB66FB651B711D8B40FEF21
:101418000AF011EF0AF026EF0AF0070EB615B06FC2
:10142800000EB715B16FB051B111D8A41EEF0AF074
:1014380020EF0AF026EF0AF0550EA26F7F0EA36F79
:10144800FFEC12F00001B651B711D8B42EEF0AF034
:1014580030EF0AF089EF0AF00F0EB615B06F000EE4
:10146800B715B16FB051B111D8A43DEF0AF03FEFF5
:101478000AF089EF0AF0540EA26F7F0EA36FFFECFB
:1014880012F0F00E0001B625B26FFF0EB721B36F50
:1014980078EF0AF0B251AE25D96EB351AF21DA6EAA
:1014A800200EDF605AEF0AF05CEF0AF064EF0AF0F2
:1014B800FC0EA26F7F0EA36FFFEC12F075EF0AF01F
:1014C800F90EA26F7F0EA36FB251AE25D96EB3513C
:1014D800AF21DA6EDF50B06FB051A46FA56BFFEC8F
:1014E80012F00001B24BB32BB651B25DB751B359EC
:1014F800D8A081EF0AF083EF0AF04EEF0AF0730EDE
:10150800A26F7F0EA36FFFEC12F0D60E0001A26F40
:101518007F0EA36FB651AE25D96EB751AF21DA6EE3
:10152800DF50B06FB051A46FA56BFFEC12F0000153
:10153800B64BB72B020EB75DD8A0A5EF0AF0A7EF00
:101548000AF008EF0AF0530EA26F7F0EA36FFFECAC
:1015580012F0F00E0001B625B46FFF0EB721B56F7B
:10156800E0EF0AF0B451AE25D96EB551AF21DA6E6D
:10157800200EDF60C2EF0AF0C4EF0AF0CCEF0AF0E9
:10158800FC0EA26F7F0EA36FFFEC12F0DDEF0AF0E6
:10159800F90EA26F7F0EA36FB451AE25D96EB55167
:1015A800AF21DA6EDF50B06FB051A46FA56BFFECBE
:1015B80012F00001B44BB52BB651B45DB751B55913
:1015C800D8A0E9EF0AF0EBEF0AF0B6EF0AF0730ED5
:1015D800A26F7F0EA36FFFEC12F012003ABEF7EF76
:1015E8000AF0F9EF0AF0FAEF0AF047923ABE07EF6D
:1015F8000BF03A5006E13904D8B005EF0BF007EFCD
:101608000BF00EEF0BF0000E0001756F010E746FFA
:1016180012EF0BF039C074F03AC075F037C076F0AD
:1016280038C077F062C078F063C079F064C07AF0AF
:1016380065C07BF066C07CF067C07DF068C07EF056
:1016480069C07FF0000E0001816F1F0E806F000ED1
:10165800DE6F8AEF0BF08007D8A0810778510F0B57
:10166800826F090E82653BEF0BF03DEF0BF045EF03
:101678000BF0570E8225726F736B000E73234BEFBE
:101688000BF0300E8225726F736B000E732372C0DD
:1016980082F0BF0E8025D96E000E8121DA6E82C0DD
:1016A800DFFF7407D8A075077607D8A0770778C03A
:1016B8006AF079C06BF07AC06CF07BC06DF07CC0CA
:1016C8006EF07DC06FF07EC070F07FC071F0050EC7
:1016D80077EF0BF0D890713370336F336E336D330F
:1016E8006C336B336A33E82E6EEF0BF06AC078F018
:1016F8006BC079F06CC07AF06DC07BF06EC07CF086
:101708006FC07DF070C07EF071C07FF081BF96EF32
:101718000BF0815109E1020E805DD8A096EF0BF025
:1017280098EF0BF0C8EF0BF0785179117A117B1113
:101738007C117D117E117F11D8A4A5EF0BF0A7EFC6
:101748000BF02FEF0BF075BFB4EF0BF0755106E1FE
:101758007405D8B0B2EF0BF0B4EF0BF02FEF0BF02D
:1017680077BFBFEF0BF0775108E17605D8A0BFEF40
:101778000BF0C1EF0BF0C8EF0BF047B2C6EF0BF060
:10178800C8EF0BF02FEF0BF060C026F061C027F018
:10179800BF0E8025286E000E8121296E76C02AF0A2
:1017A80077C02BF00CEC10F0120020EEDFF010EEFA
:1017B80024F0060EDBCFE3FFE806FCE221C02FF0A1
:1017C80022C030F02F503010D8A4EDEF0BF0EFEF1F
:1017D8000BF0F3EF0BF0240E2F6E000E306E2FC0BF
:1017E80014F030C015F0E0EC11F014C033F015C05F
:1017F80034F039C031F03AC032F032BE06EF0CF0A6
:1018080008EF0CF01DEF0CF03350315C3250800AB9
:10181800236E3450800A2358D8A015EF0CF017EF28
:101828000CF019EF0CF01DEF0CF031C033F032C0A2
:1018380034F033C031F034C032F037C02DF038C046
:101848002EF047B02AEF0CF02CEF0CF049EF0CF01B
:101858003AEF0CF0000E176E200E166E1FC018F02F
:1018680020C019F0AEEC10F0334A342A2D50335C06
:101878003450800A236E2E50800A2358D8A047EF90
:101888000CF049EF0CF02EEF0CF0000E2C6E000E51
:101898002B6E6DEF0CF02FC0F6FF30C0F7FFF86A23
:1018A800050EF76403D00800F55005D0F6CFE1FF28
:1018B800F7CFE2FFE750236E2350166E176A1FC05A
:1018C80018F020C019F0AEEC10F02F4A302A2B4A3D
:1018D8002C2A31502B5C2C50800A236E3250800AFF
:1018E8002358D8A07AEF0CF07CEF0CF04FEF0CF0F7
:1018F80047A081EF0CF083EF0CF0A0EF0CF091EF14
:101908000CF0000E176E200E166E1FC018F020C0C7
:1019180019F0AEEC10F0334A342A2D50335C3450B1
:10192800800A236E2E50800A2358D8A09EEF0CF010
:10193800A0EF0CF085EF0CF012000001B06F000E64
:101948000001AF6F000EAE6FFF0E89EC13F00001BF
:10195800AE4BAF2BAFBFBAEF0CF0AF5109E10A0E97
:10196800AE5DD8A0BAEF0CF0BCEF0CF0A8EF0CF00D
:101978008A98FF0E89EC13F0400E89EC13F0000EE4
:1019880089EC13F0000E89EC13F0000E89EC13F0CB
:10199800000E89EC13F0950E89EC13F0FF0E89EC1C
:1019A80013F0FF0E89EC13F00001B16F8A88B005BF
:1019B800D8A4E1EF0CF0E3EF0CF0ECEF0CF0BF0E65
:1019C800A26F7D0EA36FB1C0A4F0A56BFFEC12F05F
:1019D8008A98FF0E89EC13F0410E89EC13F0000E83
:1019E80089EC13F0000E89EC13F0000E89EC13F06B
:1019F800000E89EC13F0FF0E89EC13F0FF0E89EC52
:101A080013F0FF0E89EC13F00001B16F8A88B15111
:101A1800D8A411EF0DF013EF0DF0ECEF0CF0B005BA
:101A2800D8A419EF0DF01BEF0DF024EF0DF0DA0E2E
:101A3800A26F7D0EA36FB1C0A4F0A56BFFEC12F0EE
:101A48008A98FF0E89EC13F0500E89EC13F0000E03
:101A580089EC13F0000E89EC13F0020E89EC13F0F8
:101A6800000E89EC13F0FF0E89EC13F0FF0E89ECE1
:101A780013F0FF0E89EC13F00001B16F8A88B129C9
:101A8800D8B449EF0DF04BEF0DF024EF0DF0B00591
:101A9800D8A451EF0DF053EF0DF05CEF0DF0870E69
:101AA800A26F7D0EA36FB1C0A4F0A56BFFEC12F07E
:101AB8001200000E226E000E216E000E206E000E27
:101AC8001F6E69EF0DF01A4A1B2A1AC0F6FF1BC0D9
:101AD800F7FF0800F550200AD8B475EF0DF077EF3E
:101AE8000DF067EF0DF01AC0F6FF1BC0F7FF0800F6
:101AF800F5CF1CF0F70E1C241D6E1E6AFF0E1E2269
:101B08001E5009E1050E1D5CD8A08DEF0DF08FEF7A
:101B18000DF067EF0DF099EF0DF0000E206E010E3D
:101B28001F6E1A4A1B2ACEEF0DF01AC0F6FF1BC013
:101B3800F7FF0800F5501C6E1D6A1D50000AD8B446
:101B4800A8EF0DF0CEEF0DF01C502B0AD8B495EF8E
:101B58000DF0060AD8B491EF0DF0CEEF0DF021C0CC
:101B680014F022C015F0000E176E0A0E166E27EC40
:101B780013F01AC0F6FF1BC0F7FF0800F550145EFB
:101B8800000E155A300E1424216E000E1520226EF8
:101B980095EF0DF01AC0F6FF1BC0F7FF0800F5CF50
:101BA8001CF0D00E1C241D6E1E6AFF0E1E221E5035
:101BB80009E10A0E1D5CD8A0E4EF0DF0E6EF0DF088
:101BC800B3EF0DF01F502010D8A4EDEF0DF0EFEF9C
:101BD8000DF0FDEF0DF021C01CF022C01DF01C1E01
:101BE8001D1E1C4A1D2A1CC01AF01DC01BF001EF47
:101BF8000EF021C01AF022C01BF0120020EE24F0D3
:101C0800070EDE6AE806FDE21C501D101E101F10AC
:101C18002010211022102310D8B415EF0EF017EF62
:101C28000EF069EF0EF0010E2C6E25EF0EF0D89035
:101C38001C361D361E361F362036213622362336F0
:101C48002C2A23AE2AEF0EF02CEF0EF01BEF0EF02D
:101C5800D8902436253626362736283629362A3689
:101C68002B361C50145C1D5015581E5016581F500A
:101C78001758205018582150195822501A582350D4
:101C88001B58D8A04AEF0EF04CEF0EF05DEF0EF0A7
:101C98001C50145E1D50155A1E50165A1F50175AC4
:101CA8002050185A2150195A22501A5A23501B5A98
:101CB8002480D89023322232213220321F321E3221
:101CC8001D321C322C2E2CEF0EF024C014F025C02F
:101CD80015F026C016F027C017F028C018F029C044
:101CE80019F02AC01AF02BC01BF0120014C01BF008
:101CF80015C01CF016C01DF017C01EF01806D8A09D
:101D08001906182806E11928D8A48DEF0EF08FEFD0
:101D18000EF09CEF0EF0000E156E000E146EE8EF3C
:101D28000EF01B4A1C2A1D4A1E2A1806D8A019069E
:101D38001BC0F6FF1CC0F7FF0800F5500009D8B417
:101D4800A8EF0EF0AAEF0EF0D6EF0EF01DC0F6FFCA
:101D58001EC0F7FF0800F5500009D8B4B6EF0EF022
:101D6800B8EF0EF0D6EF0EF018501910D8B4BFEF38
:101D78000EF0C1EF0EF0D6EF0EF01BC0F6FF1CC040
:101D8800F7FF0800F5CF1AF01DC0F6FF1EC0F7FFD9
:101D98000800F5501A18D8B4D4EF0EF0D6EF0EF0AC
:101DA80095EF0EF01BC0F6FF1CC0F7FF0800F5CF3B
:101DB8001AF01DC0F6FF1EC0F7FF0800F5501A5CA8
:101DC800146E156AD8A0150612001C501D101E109E
:101DD8001F102010211022102310D8B4F6EF0EF097
:101DE800F8EF0EF040EF0FF0010E246E06EF0FF043
:101DF800D8901C361D361E361F3620362136223620
:101E08002336242A23AE0BEF0FF00DEF0FF0FCEF73
:101E18000EF01C50145C1D5015581E5016581F50BB
:101E28001758205018582150195822501A58235022
:101E38001B58D8A022EF0FF024EF0FF034EF0FF06B
:101E48001C50145E1D50155A1E50165A1F50175A12
:101E58002050185A2150195A22501A5A23501B5AE6
:101E6800D89023322232213220321F321E321D32C4
:101E78001C32242E0DEF0FF014C014F015C015F00D
:101E880016C016F017C017F018C018F019C019F0CE
:101E98001AC01AF01BC01BF0120037503810D8A413
:101EA80058EF0FF05AEF0FF060EF0FF037C025F042
:101EB80038C026F066EF0FF0FF0E3724256EFF0EB0
:101EC8003820266E47A06BEF0FF06DEF0FF076EF1E
:101ED8000FF021C016F0176A1FC018F020C019F0C3
:101EE800AEEC10F026BE7BEF0FF07DEF0FF07FEF2A
:101EF8000FF083EF0FF0000E266E000E256E000E19
:101F0800246E000E236E95EF0FF0000E176E200E54
:101F1800166E1FC018F020C019F0AEEC10F0234A5E
:101F2800242A2550235C2450800A226E2650800AD9
:101F38002258D8A0A2EF0FF0A4EF0FF089EF0FF00E
:101F480047B0A9EF0FF0ABEF0FF0B4EF0FF021C0DF
:101F580016F0176A1FC018F020C019F0AEEC10F088
:101F680012004950D8B4BBEF0FF0BDEF0FF000EFEF
:101F780010F0C282C4CF0DF048C001F0026A020E10
:101F8800046E000E036E3AEC13F0290E01240B6E5A
:101F9800010E02200C6E3B500B24D96E3C500C20D5
:101FA800DA6E0DC0DFFF3B4A3C2A3B04020E3C5868
:101FB800D8A0E1EF0FF0E3EF0FF000EF10F048507A
:101FC800D8B4E9EF0FF0ECEF0FF0010EEDEF0FF0E2
:101FD800000E486E0001E851D8B4F5EF0FF0F8EFA5
:101FE8000FF0010EF9EF0FF0000EE86F010EBE6F53
:101FF800000E3C6E000E3B6E5EEC13F00001E651E5
:10200800015C096EE75102580A6EE2EC13F0120007
:1020180047A011EF10F013EF10F01DEF10F028C0DB
:102028001FF029C020F026C021F027C022F02AEC9A
:1020380012F02BBE22EF10F024EF10F02AEF10F070
:102048002AC02FF02BC030F02EEF10F0000E306EAB
:10205800000E2F6E000E2E6E000E2D6E40EF10F04B
:10206800000E176E200E166E26C018F027C019F045
:10207800AEEC10F02D4A2E2A2F502D5C2E50800ADF
:102088002C6E3050800A2C58D8A04DEF10F04FEF2E
:1020980010F034EF10F047B054EF10F056EF10F096
:1020A80060EF10F028C01FF029C020F026C021F0F2
:1020B80027C022F02AEC12F012008A98FF0E89EC51
:1020C80013F0510E89EC13F0185089EC13F01750E7
:1020D80089EC13F0165089EC13F0155089EC13F0C5
:1020E800FF0E89EC13F0FF0E89EC13F0FF0AD8B449
:1020F80080EF10F082EF10F077EF10F0FF0E89EC10
:1021080013F0FF0AD8B48BEF10F08DEF10F082EFC8
:1021180010F0000E1C6E000E1B6E1B501924D96E99
:102128001C501A20DA6EFF0E89EC13F0DF6E1B4A82
:102138001C2A020E1C5CD8A0A4EF10F0A6EF10F029
:1021480091EF10F0FF0E89EC13F0FF0E89EC13F0FD
:102158008A88120018501910D8B4B5EF10F0B7EFEC
:1021680010F0C0EF10F018501910D8A4BEEF10F0FE
:10217800C0EF10F0C5EF10F01650DDEC13F0F8EFDB
:1021880010F020EE09F01850D9261950DA22DE5046
:10219800DE10D8B4D2EF10F0D4EF10F0EFEF10F05B
:1021A80020EE09F01850D9261950DA2210EE03F063
:1021B8001850E1261950E222DE50E65CE650800A0B
:1021C8001E6EDE50800A1E58D8B0EDEF10F0EFEF0B
:1021D80010F0F8EF10F020EE03F01850D92619503F
:1021E800DA22DE2A000EDD221200156E6CBAFFEF2D
:1021F80010F001EF11F042EF11F01550040D010E2F
:10220800F326000EF422BB0EF324F66E790EF420AA
:10221800F76E0800F5CF6DFF1550040DBB0EF324C3
:10222800F66E790EF420F76E0800F5CF6CFF000EFD
:102238006B6E1550040D020EF326000EF422BB0E31
:10224800F324F66E790EF420F76E0800F5CF6EFFD2
:102258001550040D030EF326000EF422BB0EF324D2
:10226800F66E790EF420F76E0800F5CF14F01446D8
:1022780093501418FD0B1418936E6C8A12008A98E8
:10228800FF0E89EC13F0580E89EC13F01D5089EC01
:1022980013F01C5089EC13F01B5089EC13F01A5002
:1022A80089EC13F0FF0E89EC13F0FF0E89EC13F0A4
:1022B800FF0AD8B462EF11F064EF11F059EF11F092
:1022C800FF0E89EC13F0FF0E89EC13F0FF0E89EC7A
:1022D80013F0FE0E89EC13F0000E216E000E206E36
:1022E80020501E24D96E21501F20DA6EDF5089EC51
:1022F80013F0204A212A020E215CD8A086EF11F0A3
:1023080088EF11F074EF11F08A8812007E0EF66ED5
:10231800270EF76E000EF86E00EEDFF010EE0AF0F2
:102328000900F5CFEEFFE550E150FAE101EE29F0A2
:1023380014EE00F0EE6AE550E150FCE1E250FAE1FB
:1023480000EEBAF0250EEE6AE806FDE100EE37F081
:10235800140EEE6AE806FDE14B904B92000EF86E03
:10236800000131EF00F09EC035F09FC036F0CCEF91
:1023780011F09CC083F09DC084F0350E0001856F7C
:10238800000E866FA0C087F0A1C088F0D5EC06F0DB
:1023980035C0F6FF36C0F7FF0800F5500009D8A48D
:1023A800D8EF11F0DAEF11F0BDEF11F0000E0001D7
:1023B8009D6F000E9C6F120014C016F015C017F028
:1023C800E8EF11F0144A152A14C0F6FF15C0F7FFFC
:1023D800F86A050EF76403D00800F55005D0F6CF6B
:1023E800E1FFF7CFE2FFE7500009D8A4FEEF11F0B4
:1023F80000EF12F0E6EF11F01650145C146E17504F
:102408001558156E1200010E186E200E14181510AE
:10241800D8B411EF12F013EF12F026EF12F0F70E06
:102428001424166EFF0E1520176E175009E1050EBD
:10243800165CD8A022EF12F024EF12F026EF12F06B
:10244800000E186E18C014F0156A1200000E256EE2
:10245800000E246E3BEF12F023C016F0176A21C05D
:1024680018F022C019F0AEEC10F0244A252A2450A6
:102478001F24D96E25502020DA6EDF50236E23509A
:10248800D8A449EF12F04BEF12F030EF12F012001F
:10249800080EB86E900EAB6E240EAC6E8A0EAF6E40
:1024A800000EB06E000E146E000E156ED3EC13F015
:1024B800000E146E000E156ECEEC13F0000E146EA6
:1024C800000E156ED8EC13F0000E4A6E12008A98B2
:1024D8000D0E89EC13F0156E8A881528D8A477EFAD
:1024E80012F079EF12F07CEF12F0FF0E86EF12F087
:1024F800FF0E89EC13F0FF0E89EC13F0FF0E89EC48
:1025080013F015501200F2944450D76E43C0D6FF12
:1025180045504610D8B493EF12F095EF12F0A2EFA1
:1025280012F002D8A2EF12F00500FA6E4550FD6EC7
:102538004650FE6EF850FF6EFA5012001200D59CFD
:10254800000ED76E000ED66ED650D7CF16F0176A8B
:1025580016C017F0166A1610436E1750446EF294A0
:10256800F28AD60E146E270E156EC9EC13F09F0E64
:10257800D56E1200000E896E000E8A6E000E8B6EEC
:10258800BF0E926EE50E936E8F0E946E3C0E0F0189
:102598003A6F310E396F2F0E386F000E616EF18E63
:1025A8001200D00E1424166EFF0E1520176E175049
:1025B8000AE10A0E165CD8A0E4EF12F0E7EF12F079
:1025C800010EE8EF12F0000E146E156A1200CDA489
:1025D800F0EF12F0F2EF12F0FAEF12F0CD90155082
:1025E800CF6E14C0CEFFCD80FEEF12F01550CF6E27
:1025F80014C0CEFF1200A40E0001AC6F000EAD6F28
:10260800000E9C6F000E9D6FA2C09EF0A3C09FF0AD
:10261800AC0EA06F000EA16FB7EC11F012009EAACD
:1026280018EF13F01AEF13F013EF13F0000E4A6EC1
:10263800ABA221EF13F023EF13F025EF13F0AB98C3
:10264800AB88AE50120014501602F3CF18F0F4CF36
:1026580019F014501702F350192615501602F350AA
:10266800192618C014F019C015F012000150030201
:10267800F3CF05F0F4CF06F001500402F35006261C
:1026880002500302F350062605C001F006C002F00E
:102698001200E7EC13F0B6EC13F0BEEC12F07BEC92
:1026A80013F096EC13F06DEC13F0A3EC12F04CEC75
:1026B80012F01200D6CF07F0D7CF08F00850036EFB
:1026C8000750056E03C006F005C001F006C002F011
:1026D8001200000ECC6E440ECF6E800ECE6ECECFA2
:1026E8003DF0CFCF3EF09E90310ECD6E1200700EB1
:1026F800D36E040ED26E400E9B6ED2AE86EF13F0F0
:1027080088EF13F081EF13F01200146E14C06FFFFE
:10271800A4AE91EF13F093EF13F08CEF13F0A49E97
:102728006F501200000EC16E260EC06E000EC36EF2
:10273800000EC46E110EC26E1200146E9EA8A7EF92
:1027480013F0A9EF13F0A2EF13F014C0ADFF1200BD
:102758009EBAB1EF13F0B4EF13F0010EB5EF13F01A
:10276800000E1200400E6D6E010E6C6E010E6E6E44
:1027780093926C9A1200286E756C6C2900400601C1
:102788001550D76E14C0D6FF120014C045F015C0FE
:1027980046F0120014C03FF015C040F0120014C0FB
:1027A80041F015C042F0120014C0BCF015C0BDF0D5
:1027B8001200156E1550A1EC13F012000A50D76ED6
:1027C80009C0D6FF1200D09E12006C9A12001200A7
:1079A00000809FBBD5E9F8FFFFF8E9D5BB9F806158
:1079B000452B1708010108172B4561014001004CB8
:1079C0006F672066696C65206E616D653A202042A4
:1079D000726F77736520616E642070726F76696470
:1079E000652061202E63737620657874656E7369F7
:1079F0006F6E20746F20796F75722066696C6520D8
:107A00006E616D650A0D00546F2073706F6F6C208E
:107A10007465726D696E616C20636F6E74656E74EF
:107A20007320696E746F20612066696C6520666FD3
:107A30006C6C6F7720746865736520696E737472FF
:107A4000756374696F6E733A0A0D005269676874E2
:107A5000206D6F75736520636C69636B206F6E209A
:107A6000746865207570706572206C656674206F2F
:107A700066207468652050755454592077696E6487
:107A80006F770A0D00596F75206D617920746572EA
:107A90006D696E6174652073706F6F6C696E6720BD
:107AA000617420616E7974696D65207769746820EE
:107AB00061206B657970726573732E0A0D000D0A73
:107AC0002D2D2D2D2D2D2D2D2D2D2D2D2D2D2D2DE6
:107AD0002D2D2D2D2D2D2D2D2D2D2D2D2D2D2D2DD6
:107AE0002D2D2D2D2D2D2D2D2D2D2D2D2D2D2D2DC6
:107AF0002D0D0A002D2D2D2D2D2D2D2D2D2D2D2D26
:107B00002D2D2D2D2D2D2D2D2D2D2D2D2D2D2D2DA5
:107B10002D2D2D2D2D2D2D2D2D2D2D2D2D2D2D2D95
:107B20002D2D2D2D2D0A0D00313A207772697465A7
:107B300020706572666563742032362076616C75DC
:107B4000652073696E65207761766520746F2031DA
:107B5000323820626C6F636B730A0D002B2F2D3A45
:107B600020496E6372656173652F44656372656158
:107B70007365207468652073616D706C6520726137
:107B800074652062792031302075730A0D005365C9
:107B90006C6563743A202020202053657373696FED
:107BA0006E206C6F6767696E673A20416C6C20735A
:107BB000657373696F6E206F75747075740A0D004C
:107BC000546F20636C6F7365207468652066696C00
:107BD0006520666F6C6C6F772074686573652069CB
:107BE0006E737472756374696F6E733A0A0D007206
:107BF0003A2072656164206120626C6F636B206F54
:107C000066203531322062797465732066726F6D3B
:107C100020534420636172640A0D00573A20577262
:107C2000697465206D6963726F70686F6E65203D61
:107C30003E205344206361726420617420313630E9
:107C4000302075730A0D00577269746520626C6F7D
:107C5000636B206F662064656372656D656E746525
:107C60006420382D6269742076616C7565733A0DF5
:107C70000A004E6F20636F6E666967757261746982
:107C80006F6E206F6620646576656C6F706D656ED3
:107C90007420626F6172640D0A3E20000A0D5370F9
:107CA0006F6F6C6564202575206F7574206F66207A
:107CB00074686520257520626C6F636B732E0A0DE6
:107CC0000053656C6563743A20202020205365734F
:107CD00073696F6E20206C6F6767696E673A204E1C
:107CE0006F6E650A0D00612F4120646563726561E6
:107CF00073652F696E637265617365207265616477
:107D000020616464726573730A0D0053656C65636A
:107D1000743A20202020204368616E6765207365D7
:107D20007474696E67732E2E2E0A0D00733A2073D9
:107D3000706F6F6C206D656D6F727920746F20614C
:107D4000206373762066696C650A0D00556E646564
:107D500072666C6F77656420746F2068696768204D
:107D6000616464726573730D0A00777269746520CB
:107D7000646F75626C654275666665725B25755DDC
:107D800020253034783A00426C6F636B204C656E6E
:107D900067746820526573706F6E73653A2025783A
:107DA0000D0A004F766572666C6F77656420746F9C
:107DB000206C6F7720616464726573730D0A0043F1
:107DC0004D44302C20526573657420526573706F7A
:107DD0006E73653A2025780D0A00434D44312C20FE
:107DE000496E697420526573706F6E73653A202511
:107DF000780D0A0073616D706C652074696D653A69
:107E000020257520636F756E74730A0D00507265BE
:107E1000737320616E79206B657920746F207374A1
:107E20006172740A0D00693A20496E697469616C67
:107E3000697A6520534420636172640A0D007A3ABE
:107E400020436C65617220746865207465726D6989
:107E50006E616C0A0D00303A207A65726F20746F83
:107E60002031323820626C6F636B730A0D00202062
:107E700020205374617475733A202020202025300F
:107E800032780D0A0053656C6563743A2020202017
:107E9000204C6F6767696E670A0D005A3A20526579
:107EA0007365742070726F636573736F720A0D006F
:107EB00044656372656173656420616464726573AF
:107EC000730D0A00496E63726561736564206164B5
:107ED00064726573730D0A0053656C6563743A20B0
:107EE000202020204170706C790A0D0073696E208B
:107EF00077617665207772697474656E0A0D005338
:107F000044206361726420616464726573733A2013
:107F10002000534420636172642074657374696E39
:107F2000670D0A00556E6B6E6F776E206B6579205A
:107F300025630D0A00617564696F207265636F7255
:107F40006465640A0D00202020204164647265731A
:107F5000733A20202020007A65726F73207772694F
:107F60007474656E0A0D005265616420626C6F6303
:107F70006B3A200D0A003F3A2068656C70206D65F1
:107F80006E750A0D00616464726573733A2025751D
:107F90003A2575000A0D696E4C61622030390D0A70
:107FA00000636F6D706C6574650A0D00777269749B
:107FB0006520746F20004465762732310D0A006F0A
:107FC0003A20206F6B0D0A006F3A206B0A0D0025D6
:107FD0003034780A0D00253032782000253034788E
:107FE000200025630A0D002575257300253034789F
:0F7FF000006C6C73000D0A0A002563002E000060
:020000040020DA
:08000000FFFFFFFFFFFFFFFF00
:020000040030CA
:0E000000FF281F3CFFBF85FF0FC00FE00F4021
:00000001FF
