:04000000EBEF32F000
:10635C0001C064F002C065F0120001C068F002C018
:10636C0069F0120001C066F002C067F0120001C0B3
:10637C006AF002C06BF0120001C06EF002C06FF048
:10638C00120001C06CF002C06DF01200026E0250DF
:10639C00FCEC31F0120055D015340A1A8206410378
:1063AC00670EBB6E000EBC6E9E92050EBA6E12008E
:1063BC009EBAE3EF31F0E6EF31F0010EE7EF31F08A
:1063CC00000E1200A4BAEDEF31F0F0EF31F0010E37
:1063DC00F1EF31F0000E12009EB0F7EF31F0FAEF52
:1063EC0031F0010EFBEF31F0000E1200016E9EA891
:1063FC0002EF32F004EF32F0FDEF31F001C0ADFFEF
:10640C001200700ED36E040ED26E400E9B6ED2AE86
:10641C0012EF32F014EF32F00DEF32F01200000EEA
:10642C00CC6E000ECF6E000ECE6ECECF70F0CFCFF6
:10643C0071F09E90010ECD6E1200A7EC32F007ECBD
:10644C0032F032EC32F0D6EC31F015EC32F006ECE6
:10645C0033F026EC33F012000C0E666E000E646EF8
:10646C00800E656E010E636E000E686E000E676E18
:10647C00E70E0F014917120001500302F3CF05F08C
:10648C00F4CF06F001500402F3500626025003022A
:10649C00F350062605C001F006C002F01200CDA490
:1064AC005AEF32F05CEF32F064EF32F0CD900250E4
:1064BC00CF6E01C0CEFFCD8068EF32F00250CF6EB0
:1064CC0001C0CEFF1200970E00019B6F000E9C6F57
:1064DC00000E586E000E596E95C05AF096C05BF0C7
:1064EC009B0E5C6E000E5D6EABEC33F012009EAA40
:1064FC0082EF32F084EF32F07DEF32F0000E0001CB
:10650C00736FABA28CEF32F08EEF32F090EF32F073
:10651C00AB98AB88AE501200A4AA97EF32F099EF6B
:10652C0032F092EF32F0000E0001746F71A2A1EF05
:10653C0032F0A3EF32F0A5EF32F0719871887450FD
:10654C001200000E896E000E8A6E000E8B6E926821
:10655C00BF0E936EBD0E946E3C0E0F013A6F3F0E44
:10656C00396F2F0E386F000E616EF18E1200D00E47
:10657C000124036EFF0E0220046E04500AE10A0E81
:10658C00035CD8A0CCEF32F0CFEF32F0010ED0EF9D
:10659C0032F0000E016E026A120001C003F002C05C
:1065AC0004F0D89004320332D890043203320350F2
:1065BC00676E01C003F0030E0316033AF00E0316C8
:1065CC006650CF0B0310666E1200A20EF66E630EB1
:1065DC00F76E000EF86E00EEAEF010EE0AF0090049
:1065EC00F5CFEEFFE550E150FAE100EE60F0350E2C
:1065FC00EE6AE806FDE1000EF86E000126EF3BF0B6
:10660C00080EB86E900EAB6E240EAC6E820EAF6E92
:10661C00060EB06E000E016E000E026EB3EC31F081
:10662C00000E016E000E026EB8EC31F0000E016E21
:10663C00000E026EAEEC31F0000E0001736F120012
:10664C00080E706E900E716E240E726E140E756EB6
:10665C00340E766E000E016E000E026EC2EC31F03E
:10666C00000E016E000E026EC7EC31F0000E016ED2
:10667C00000E026EBDEC31F0000E0001746F1200C2
:10668C0014BE53EF33F0145006E11304D8B051EF9D
:10669C0033F053EF33F061EF33F013C015F014C047
:1066AC0016F0151E161E154A162A15C013F016C024
:1066BC0014F065EF33F013C013F014C014F0120093
:1066CC00000E126E000E116E77EF33F010C003F057
:1066DC00046A0EC005F00FC006F0D2EC33F0114A7C
:1066EC00122A11500C24D96E12500D20DA6EDF5084
:1066FC00106E1050D8A485EF33F087EF33F06CEFA9
:10670C0033F01200010E056E200E01180210D8B4E1
:10671C0092EF33F094EF33F0A7EF33F0F70E012440
:10672C00036EFF0E0220046E045009E1050E035C9B
:10673C00D8A0A3EF33F0A5EF33F0A7EF33F0000EA2
:10674C00056E05C001F0026A12005AC05EF05BC013
:10675C005FF0BFEF33F058C041F059C042F05E0E0D
:10676C00436E000E446E5CC045F05DC046F037ECE5
:10677C0039F05EC0F6FF5FC0F7FF0800F550000966
:10678C00D8A4CBEF33F0CDEF33F0B1EF33F0000EF4
:10679C00596E000E586E120005500610D8B4D9EF81
:1067AC0033F0DBEF33F0E4EF33F005500610D8A4F0
:1067BC00E2EF33F0E4EF33F0E9EF33F00350CCECDD
:1067CC0031F01CEF34F020EE09F00550D9260650BC
:1067DC00DA22DE50DE10D8B4F6EF33F0F8EF33F0F7
:1067EC0013EF34F020EE09F00550D9260650DA22CA
:1067FC0010EE03F00550E1260650E222DE50E65C76
:10680C00E650800A0B6EDE50800A0B58D8B011EFA0
:10681C0034F013EF34F01CEF34F020EE03F005509D
:10682C00D9260650DA22DE2A000EDD2212000001E3
:10683C0072A123EF34F025EF34F02FEF34F015C0B4
:10684C000CF016C00DF013C00EF014C00FF066EC77
:10685C0033F018BE34EF34F036EF34F03CEF34F054
:10686C0017C01CF018C01DF040EF34F0000E1D6E68
:10687C00000E1C6E000E1B6E000E1A6E52EF34F0E2
:10688C00000E046E200E036E13C005F014C006F04B
:10689C00D2EC33F01A4A1B2A1C501A5C1B50800A8B
:1068AC00196E1D50800A1958D8A05FEF34F061EFB3
:1068BC0034F046EF34F0000172B167EF34F069EF59
:1068CC0034F073EF34F015C00CF016C00DF013C09B
:1068DC000EF014C00FF066EC33F0120000016051A2
:1068EC006111D8A47CEF34F07EEF34F084EF34F0F7
:1068FC0060C012F061C013F08AEF34F0FF0E602517
:10690C00126EFF0E6121136E72A18FEF34F091EFB6
:10691C0034F09AEF34F00EC003F0046A0CC005F0AA
:10692C000DC006F0D2EC33F013BE9FEF34F0A1EFA4
:10693C0034F0A3EF34F0A7EF34F0000E136E000E1A
:10694C00126E000E116E000E106EB9EF34F0000EC8
:10695C00046E200E036E0CC005F00DC006F0D2ECD8
:10696C0033F0104A112A1250105C1150800A0F6E2D
:10697C001350800A0F58D8A0C6EF34F0C8EF34F08B
:10698C00ADEF34F0000172B1CEEF34F0D0EF34F053
:10699C00D9EF34F00EC003F0046A0CC005F00DC042
:1069AC0006F0D2EC33F01200000E0F6E000E0E6EDD
:1069BC00000E0D6E000E0C6EE6EF34F0074A082A3E
:1069CC0007C0F6FF08C0F7FF0800F550200AD8B43E
:1069DC00F2EF34F0F4EF34F0E4EF34F007C0F6FFEC
:1069EC0008C0F7FF0800F5CF09F0F70E09240A6E6E
:1069FC000B6AFF0E0B220B5009E1050E0A5CD8A0A6
:106A0C000AEF35F00CEF35F0E4EF34F016EF35F01B
:106A1C00000E0D6E010E0C6E074A082A4BEF35F076
:106A2C0007C0F6FF08C0F7FF0800F550096E0A6AA8
:106A3C000A50000AD8B425EF35F04BEF35F0095069
:106A4C002B0AD8B412EF35F0060AD8B40EEF35F095
:106A5C004BEF35F00EC001F00FC002F0000E046ECB
:106A6C000A0E036E42EC32F007C0F6FF08C0F7FFC7
:106A7C000800F550015E000E025A300E01240E6E15
:106A8C00000E02200F6E12EF35F007C0F6FF08C0A3
:106A9C00F7FF0800F5CF09F0D00E09240A6E0B6A37
:106AAC00FF0E0B220B5009E10A0E0A5CD8A061EF15
:106ABC0035F063EF35F030EF35F00C500D10D8A4F5
:106ACC006AEF35F06CEF35F07AEF35F00EC009F067
:106ADC000FC00AF0091E0A1E094A0A2A09C007F04B
:106AEC000AC008F07EEF35F00EC007F00FC008F0BA
:106AFC001200000E126E08BE88EF35F086EF35F0EE
:106B0C009AEF35F0081E071E061E051E041E031EF6
:106B1C00021E016C000E0222032204220522062210
:106B2C0007220822010E126E10BEA1EF35F09FEF66
:106B3C0035F0B1EF35F0101E0F1E0E1E0D1E0C1E83
:106B4C000B1E0A1E096C000E0A220B220C220D22AF
:106B5C000E220F22102209500A100B100C100D10CF
:106B6C000E100F101010D8B4BEEF35F0C0EF35F08A
:106B7C0008EF36F0010E116ECEEF35F0D8900936D5
:106B8C000A360B360C360D360E360F361036112AE9
:106B9C0010AED3EF35F0D5EF35F0C4EF35F009502A
:106BAC00015C0A5002580B5003580C5004580D50FD
:106BBC0005580E5006580F50075810500858D8A0BA
:106BCC00EAEF35F0ECEF35F0FCEF35F00950015EF3
:106BDC000A50025A0B50035A0C50045A0D50055AC5
:106BEC000E50065A0F50075A1050085AD8901032AF
:106BFC000F320E320D320C320B320A320932112E98
:106C0C00D5EF35F01250D8B40EEF36F010EF36F059
:106C1C0020EF36F0081E071E061E051E041E031E5E
:106C2C00021E016C000E02220322042205220622FF
:106C3C000722082201C001F002C002F003C003F0D9
:106C4C0004C004F005C005F006C006F007C007F04C
:106C5C0008C008F01200000E126E10BE3AEF36F0AB
:106C6C0038EF36F04CEF36F0101E0F1E0E1E0D1EB8
:106C7C000C1E0B1E0A1E096C000E0A220B220C2283
:106C8C000D220E220F221022010E126E08BE53EF9F
:106C9C0036F051EF36F065EF36F0081E071E061E73
:106CAC00051E041E031E021E016C000E022203228E
:106CBC0004220522062207220822010E121A20EEB7
:106CCC0013F0070EDE6AE806FDE209500A100B10FD
:106CDC000C100D100E100F101010D8B478EF36F0F9
:106CEC007AEF36F0CCEF36F0010E116E88EF36F0FD
:106CFC00D89009360A360B360C360D360E360F3652
:106D0C001036112A10AE8DEF36F08FEF36F07EEF85
:106D1C0036F0D89013361436153616361736183614
:106D2C0019361A360950015C0A5002580B50035898
:106D3C000C5004580D5005580E5006580F5007585B
:106D4C0010500858D8A0ADEF36F0AFEF36F0C0EFCA
:106D5C0036F00950015E0A50025A0B50035A0C507F
:106D6C00045A0D50055A0E50065A0F50075A10501F
:106D7C00085A1380D89010320F320E320D320C326A
:106D8C000B320A320932112E8FEF36F01250D8B472
:106D9C00D2EF36F0D4EF36F0E4EF36F01A1E191EAF
:106DAC00181E171E161E151E141E136C000E142210
:106DBC00152216221722182219221A2213C001F0AA
:106DCC0014C002F015C003F016C004F017C005F093
:106DDC0018C006F019C007F01AC008F01200000124
:106DEC0063BFFBEF36F0FDEF36F0FEEF36F072933B
:106DFC0063BF0BEF37F0635106E16205D8B009EFC2
:106E0C0037F00BEF37F011EF37F0000E336E010E49
:106E1C00326E15EF37F062C032F063C033F060C0F1
:106E2C0034F061C035F020C036F021C037F022C0FC
:106E3C0038F023C039F024C03AF025C03BF026C00E
:106E4C003CF027C03DF0000E3F6E1F0E3E6E000E54
:106E5C00946F8CEF37F03E06D8A03F0636500F0BE0
:106E6C00406E090E40643DEF37F03FEF37F047EFCF
:106E7C0037F0570E4024306E316A000E31224DEF40
:106E8C0037F0300E4024306E316A000E312230C0A3
:106E9C0040F0750E3E24D96E000E3F20DA6E40C0D5
:106EAC00DFFF3206D8A033063406D8A0350636C02C
:106EBC0028F037C029F038C02AF039C02BF03AC07E
:106ECC002CF03BC02DF03CC02EF03DC02FF0050E39
:106EDC0079EF37F0D8902F322E322D322C322B32D4
:106EEC002A3229322832E82E70EF37F028C036F0DB
:106EFC0029C037F02AC038F02BC039F02CC03AF03A
:106F0C002DC03BF02EC03CF02FC03DF03FBE98EFA3
:106F1C0037F03F5009E1020E3E5CD8A098EF37F0F5
:106F2C009AEF37F0CBEF37F0365037103810391066
:106F3C003A103B103C103D10D8A4A7EF37F0A9EF46
:106F4C0037F031EF37F033BEB6EF37F0335006E1A0
:106F5C003204D8B0B4EF37F0B6EF37F031EF37F08A
:106F6C0035BEC1EF37F0355008E13404D8A0C1EF7D
:106F7C0037F0C3EF37F0CBEF37F0000172B3C9EF46
:106F8C0037F0CBEF37F031EF37F01EC013F01FC0E6
:106F9C0014F0750E3E24156E000E3F20166E34C094
:106FAC0017F035C018F01DEC34F0120020C036F08C
:106FBC0021C037F022C038F023C039F024C03AF099
:106FCC0025C03BF026C03CF027C03DF03DBEF1EFA4
:106FDC0037F0F4EF37F0010EF5EF37F0000E406E9E
:106FEC004050D8B4FCEF37F0FEEF37F00EEF38F02E
:106FFC003D1E3C1E3B1E3A1E391E381E371E366C7B
:10700C00000E3722382239223A223B223C223D22E2
:10701C00000163BF14EF38F016EF38F017EF38F0BB
:10702C00729363BF24EF38F0635106E16205D8B068
:10703C0022EF38F024EF38F02AEF38F0000E336EE0
:10704C00010E326E2EEF38F062C032F063C033F0B6
:10705C0060C034F061C035F04050D8B438EF38F02F
:10706C003AEF38F051EF38F03406D8A035064050DE
:10707C00D8A443EF38F045EF38F04BEF38F0000E62
:10708C00316E2B0E306E4FEF38F0000E316E2D0E30
:10709C00306E30C040F0000E3F6E1F0E3E6E000E84
:1070AC00946FD5EF38F03E06D8A03F06750E3E24FF
:1070BC00D96E000E3F20DA6E36C001F037C002F0F8
:1070CC0038C003F039C004F03AC005F03BC006F0FC
:1070DC003CC007F03DC008F00A0E096E000E0A6EA7
:1070EC00000E0B6E000E0C6E000E0D6E000E0E6E72
:1070FC00000E0F6E000E106E7FEC35F001C028F004
:10710C0002C029F003C02AF004C02BF005C02CF0FB
:10711C0006C02DF007C02EF008C02FF028C013F0C9
:10712C0029C014F046EC33F01350300FDF6E3206EA
:10713C00D8A033063406D8A0350636C001F037C0C7
:10714C0002F038C003F039C004F03AC005F03BC07F
:10715C0006F03CC007F03DC008F00A0E096E000EA8
:10716C000A6E000E0B6E000E0C6E000E0D6E000EF5
:10717C000E6E000E0F6E000E106E31EC36F001C06C
:10718C0036F002C037F003C038F004C039F005C047
:10719C003AF006C03BF007C03CF008C03DF03FBEE3
:1071AC00E0EF38F03F5008E13E04D8A0E0EF38F0B3
:1071BC00E2EF38F013EF39F0365037103810391041
:1071CC003A103B103C103D10D8A4EFEF38F0F1EF23
:1071DC0038F059EF38F033BEFEEF38F0335006E19B
:1071EC003204D8B0FCEF38F0FEEF38F059EF38F03D
:1071FC0035BE09EF39F0355008E13404D8A009EF59
:10720C0039F00BEF39F013EF39F0000172B311EFD5
:10721C0039F013EF39F059EF38F04050D8B419EF7A
:10722C0039F01BEF39F026EF39F03E06D8A03F06B7
:10723C00750E3E24D96E000E3F20DA6E40C0DFFF83
:10724C001EC013F01FC014F0750E3E24156E000EF8
:10725C003F20166E34C017F035C018F01DEC34F01A
:10726C00120043C0D9FF44C0DAFFDECFF6FFDDCFFA
:10727C00F7FF0800F550250AD8A447EF39F049EF7D
:10728C0039F011EF3BF043C0D9FF44C0DAFFDE2ADE
:10729C00000EDD22000E0001616F000E606F60C0F9
:1072AC0072F062696369000E4C6E000E4B6E8AEFD1
:1072BC0039F00001728343C0D9FF44C0DAFFDE2AE3
:1072CC00000EDD228AEF39F0000E4C6E010E4B6E73
:1072DC008AEF39F043C0D9FF44C0DAFFDECFF6FFA6
:1072EC00DDCFF7FF0800F550476E486A4850000A9A
:1072FC00D8B483EF39F06AEF39F04750300AD8B47C
:10730C005FEF39F06AEF39F04B504C10D8B491EF75
:10731C0039F093EF39F070EF39F043C0D9FF44C026
:10732C00DAFFDECFF6FFDDCFF7FF0800F5502A0AB3
:10733C00D8A4A3EF39F0A5EF39F0CFEF39F043C063
:10734C00D9FF44C0DAFFDE2A000EDD2245C0D9FF8A
:10735C0046C0DAFFDFCF47F0020EDE26DFCF48F063
:10736C00000EDD2247C0D9FF48C0DAFFDECF60F047
:10737C00DDCF61F0000161BFC8EF39F0C6EF39F025
:10738C0002EF3AF07281606D611FD8B0612B02EF91
:10739C003AF043C0D9FF44C0DAFFDECF07F0DDCFAF
:1073AC0008F0DAEC34F007C060F008C061F0E6EFEA
:1073BC0039F043C0D9FF44C0DAFFDE2A000EDD22CB
:1073CC0043C0D9FF44C0DAFFDECFF6FFDDCFF7FFB5
:1073DC000800F5CF47F0D00E4724486E496AFF0EDF
:1073EC004922495009E10A0E485CD8A000EF3AF056
:1073FC0002EF3AF0DFEF39F043C0D9FF44C0DAFFB7
:10740C00DECFF6FFDDCFF7FF0800F550630AD8A4F6
:10741C0012EF3AF014EF3AF037EF3AF043C0D9FFDD
:10742C0044C0DAFFDE2A000EDD2245C0D9FF46C07B
:10743C00DAFFDFCF47F0020EDE26DFCF48F0000E7A
:10744C00DD2247C0D9FF48C0DAFFDF504D6E41C086
:10745C000CF042C00DF04DC00EF074EC34F025EF82
:10746C003BF043C0D9FF44C0DAFFDECF56F0DDCF8E
:10747C0057F056C0F6FF57C0F7FF0800F550640AE6
:10748C00D8B44BEF3AF04DEF3AF05BEF3AF056C010
:10749C00F6FF57C0F7FF0800F550690AD8A459EF5A
:1074AC003AF05BEF3AF09EEF3AF045C0D9FF46C098
:1074BC00DAFFDFCF47F0020EDE26DFCF48F0000EFA
:1074CC00DD2247C0D9FF48C0DAFFDECF4EF0DDCF5A
:1074DC004FF0000E4FBEFF0E506E516E526E536E3B
:1074EC00546E556E010E5624476E000E5720486E92
:1074FC0043C0D9FF44C0DAFF47C0DEFF48C0DDFF00
:10750C0041C01EF042C01FF04EC020F04FC021F011
:10751C0050C022F051C023F052C024F053C025F0CB
:10752C0054C026F055C027F0DCEC37F025EF3BF0CB
:10753C0056C0F6FF57C0F7FF0800F550780AD8A4DC
:10754C00AAEF3AF0ACEF3AF008EF3BF045C0D9FFA8
:10755C0046C0DAFFDFCF47F0020EDE26DFCF48F061
:10756C00000EDD2247C0D9FF48C0DAFFDECF49F05C
:10757C00DDCF4AF049C04EF04AC04FF0506A516A14
:10758C00526A536A546A556A010E5624476E000EAD
:10759C005720486E43C0D9FF44C0DAFF47C0DEFF16
:1075AC0048C0DDFFF2EF3AF041C01EF042C01FF0C0
:1075BC004EC020F04FC021F050C022F051C023F03B
:1075CC0052C024F053C025F054C026F055C027F00B
:1075DC00F5EC36F025EF3BF056C0F6FF57C0F7FF41
:1075EC000800F550476E486A4850000AD8B401EFBD
:1075FC003BF008EF3BF04750780AD8B4DAEF3AF09A
:10760C0008EF3BF043C0D9FF44C0DAFFDE2A000E7E
:10761C00DD2225EF3BF043C0D9FF44C0DAFFDECFBB
:10762C00F6FFDDCFF7FF0800F550036E046A41C08A
:10763C0005F042C006F0D2EC33F008EF3BF012003C
:10764C00010E0001AD6F300EAB6F20EEAEF010EE00
:10765C009FF0090EDBCFE3FFE806FCE223EC32F0EF
:10766C00000E026E000E016ED3EC32F0000E026EB4
:10767C00000E016E55EC32F09E90F2EC31F00009E8
:10768C00D8B44BEF3BF04DEF3BF043EF3BF0E8EC65
:10769C0031F00009D8B455EF3BF057EF3BF059EF00
:1076AC003BF092EC32F0E8EC31F00009D8B461EF29
:1076BC003BF063EF3BF065EF3BF092EC32F0E10E08
:1076CC000001956F7F0E966F69EC32F03A0E000157
:1076DC00956F7E0E966F69EC32F0D20E0001956FAD
:1076EC007E0E966F69EC32F0F60E0001956F7C0EF3
:1076FC00966F69EC32F0C90E0001956F7D0E966F96
:10770C0069EC32F0FA0E0001956F7F0E966F69EC02
:10771C0032F0DEEC31F00009D8B497EF3BF099EF82
:10772C003BF08FEF3BF07DEC32F00001A96F1AEFCC
:10773C003EF03C0E956F7D0E966F69EC32F0D7EFF4
:10774C003BF0D60E956F7F0E966F69EC32F0F9EF29
:10775C003BF0B20E956F7F0E966F69EC32F0F9EF3D
:10776C003BF0BE0E956F7F0E966F69EC32F0F9EF21
:10777C003BF0CA0E956F7F0E966F69EC32F0F9EF05
:10778C003BF0A50E956F7F0E966F69EC32F0F9EF1A
:10779C003BF0B20E956F7F0E966F69EC32F0F9EFFD
:1077AC003BF00001AD519D6F9E6B9E51000AD8B409
:1077BC00E2EF3BF0CFEF3BF09D51000AD8B4A7EFBE
:1077CC003BF0010AD8B4AFEF3BF0030AD8B4B7EFE3
:1077DC003BF0010AD8B4BFEF3BF0070AD8B4C7EFAF
:1077EC003BF0CFEF3BF03C0E0001956F7D0E966F9A
:1077FC0069EC32F0880E0001956F7F0E966F69EC84
:10780C0032F0F30E0001956F7F0E966F69EC32F03B
:10781C00FD0E0001956F7E0E966F69EC32F0BA0E7C
:10782C000001956F7E0E966F69EC32F0700E0001C0
:10783C00956F7D0E966F69EC32F09B0E0001956F83
:10784C007C0E966FAD51020D9F0EF324D96E000E77
:10785C00F420DA6EDECF97F0DDCF98F069EC32F0E1
:10786C00180E0001956F7E0E966FABC097F0986B5B
:10787C0069EC32F0F30E0001956F7D0E966F69EC9A
:10788C0032F0270E0001956F7F0E966F69EC32F087
:10789C003C0E0001956F7D0E966F69EC32F08FEF08
:1078AC003BF0EB0E956F7F0E966F69EC32F08FEF1D
:1078BC003BF0000EAC6F6E0E956F7D0E966F69EC03
:1078CC0032F00001AC2B270EAC656FEF3CF071EF82
:1078DC003CF061EF3CF0FF008FEF3BF0000EAC6F23
:1078EC006E0E956F7D0E966F69EC32F00001AC2B2D
:1078FC00270EAC6584EF3CF086EF3CF076EF3CF065
:10790C008FEF3BF09E0E956F7D0E966F69EC32F00B
:10791C00970E0001956F7F0E966F69EC32F05B0E3F
:10792C000001956F7F0E966F69EC32F06A0E0001C4
:10793C00956F7F0E966F69EC32F0790E0001956FA2
:10794C007F0E966F69EC32F04B0E0001956F7F0E37
:10795C00966F69EC32F0DEEC31F00009D8A4B9EF87
:10796C003CF0BBEF3CF0B1EF3CF07DEC32F0D00FD3
:10797C000001AD6FE0EF3CF0D00E766E540E756EDC
:10798C0001EF3DF0340E766E140E756E01EF3DF086
:10799C001A0E766E0A0E756E01EF3DF0060E766EBF
:1079AC00820E756E01EF3DF0030E766E400E756E15
:1079BC0001EF3DF0AD519D6F9E6B9E51000AD8B406
:1079CC00EAEF3CF0C8EF3CF09D51000AD8B4C2EF8E
:1079DC003CF0010AD8B4C8EF3CF0030AD8B4CEEF9F
:1079EC003CF0010AD8B4D4EF3CF0070AD8B4DAEF73
:1079FC003CF0C8EF3CF09B0E956F7E0E966F76CFE9
:107A0C0097F0986B75CF99F09A6B69EC32F08FEF19
:107A1C003BF0000E026E190E016ED3EC32F0000139
:107A2C00AD51020D9F0EF324D96E000EF420DA6EC8
:107A3C00DECF9DF0DDCF9EF09D510008016E9E5172
:107A4C00D8A0E82A0008026E55EC32F09E90F2ECB9
:107A5C0031F00009D8B435EF3DF037EF3DF02DEFA4
:107A6C003DF0000E026E000E016ED3EC32F08FEF83
:107A7C003BF0000E026E190E016ED3EC32F00001D9
:107A8C00AD51020D9F0EF324D96E000EF420DA6E68
:107A9C00DECF9DF0DDCF9EF09D510008016E9E5112
:107AAC00D8A0E82A0008026E55EC32F09E90F2EC59
:107ABC0031F00009D8B465EF3DF067EF3DF05DEFB4
:107ACC003DF0010E0001AA6FA9EF3DF0AB51AA15D4
:107ADC000009D8B474EF3DF076EF3DF07EEF3DF049
:107AEC00000E026E000E016ED3EC32F084EF3DF00E
:107AFC00000E026E190E016ED3EC32F00001AA5189
:107B0C00AA25AA6FAD51020D9F0EF324D96E000E5B
:107B1C00F420DA6EDECF9DF0DDCF9EF09D51000893
:107B2C00016E9E51D8A0E82A0008026E55EC32F086
:107B3C009E90F2EC31F00009D8B4A7EF3DF0A9EF1C
:107B4C003DF09FEF3DF00001AA51D8A4B0EF3DF0FD
:107B5C00B2EF3DF06CEF3DF0000E026E000E016EC8
:107B6C00D3EC32F00001AD51020D9F0EF324D96E0F
:107B7C00000EF420DA6EDECF9DF0DDCF9EF09D512D
:107B8C000008016E9E51D8A0E82A0008026E55EC40
:107B9C0032F09E90F2EC31F00009D8B4D8EF3DF001
:107BAC00DAEF3DF0D0EF3DF0120E0001956F7F0E35
:107BBC00966FABC097F0986BABC099F09A6B69EC71
:107BCC0032F00001AB2B8FEF3BF0A4AAF0EF3DF0AD
:107BDC00F2EF3DF0FDEF3DF07C0E956F7E0E966F53
:107BEC0074CF97F0986B69EC32F08FEF3BF05C0E32
:107BFC00956F7E0E966F69EC32F08FEF3BF07198BB
:107C0C007188E80E956F7E0E966F69EC32F08FEFEF
:107C1C003BF03A0E956F7F0E966FA9C097F0986B5C
:107C2C0069EC32F08FEF3BF0A9519D6F9E6B9E512A
:107C3C00000AD8B424EF3EF00FEF3EF09D513F0AFE
:107C4C00D8B49FEF3BF06D0AD8B4EBEF3DF0010ACE
:107C5C00D8B43FEF3DF0090AD8B45FEF3CF0380AD6
:107C6C00D8B488EF3CF00D0AD8B457EF3CF01F0A9B
:107C7C00D8B40FEF3DF0020AD8B405EF3EF0080A75
:107C8C00D8B474EF3CF00FEF3EF000EF00F0007052
:107C9C003A2073656E6420312070756C7365206FAB
:107CAC00662033386B487A20495220696C6C756DAC
:107CBC00696E6174696F6E207769746820612064E5
:107CCC0075726174696F6E206F6620256420313A7D
:107CDC0031207072657363616C656420544D523150
:107CEC0020636F756E74730D0A00496E7374616C4A
:107CFC006C2061206A756D706572207769726520E1
:107D0C0066726F6D2052433020746F2052423720C0
:107D1C004F4E4C5920414654455220756E706C752F
:107D2C006767696E67205049434B6974330D0A00CD
:107D3C002D2D2D2D2D2D2D2D2D2D2D2D2D2D2D2D67
:107D4C002D2D2D2D2D2D2D2D2D2D2D2D2D2D2D2D57
:107D5C002D2D2D2D2D2D2D2D2D2D2D2D2D2D2D2D47
:107D6C002D0D0A00623A20736574207468652042F8
:107D7C006175642072617465206F6620746865207B
:107D8C0073656E7420636861726163746572730DE0
:107D9C000A0043686F6F73652074686520696E64B0
:107DAC006578206F662074686520746172676574ED
:107DBC00206261756420726174650D0A00496E73EE
:107DCC0074616C6C2061206A756D706572206F76C1
:107DDC0065722049525F5458206865616465722051
:107DEC0070696E730D0A00523A2075736520455503
:107DFC00534152543220746F206465636F64652064
:107E0C006368617261637465720D0A00533A2053A2
:107E1C00656E64202563207573696E672049522056
:107E2C007472616E736D69747465720D0A005265BB
:107E3C00636569766520616E64206465636F646553
:107E4C0020616E204952207061636B65740D0A00CD
:107E5C004E6F7468696E67207265636569766564D8
:107E6C002066726F6D20455553415254320D0A00F5
:107E7C004A757374207265616420696E20256320D5
:107E8C0066726F6D20455553415254320D0A0042B3
:107E9C0061756420726174652061737369676E65C6
:107EAC006420253032783A253032780D0A007A3A3F
:107EBC0020436C65617220746865207465726D690D
:107ECC006E616C0D0A0044657627323120426F6179
:107EDC00726420776972696E670D0A004A75737453
:107EEC0020726573657420455553415254320D0A06
:107EFC00005A3A2052657365742070726F63657313
:107F0C00736F720D0A006A7573742073656E74203A
:107F1C0025632020202025780D0A00723A207265F6
:107F2C0073657420455553415254320D0A00556EF9
:107F3C006B6E6F776E206B65792025630D0A0034AC
:107F4C003A20313932303020626175640D0A0031CB
:107F5C003A203132303020626175640D0A00323AB9
:107F6C00203234303020626175640D0A00333A20BF
:107F7C003936303020626175640D0A003F3A206852
:107F8C00656C70206D656E750D0A00303A203330CB
:107F9C003020626175640D0A003139323030204274
:107FAC006175640D0A003132303020426175640D08
:107FBC000A003234303020426175640D0A003936C3
:107FCC00303020426175640D0A003330302042613C
:107FDC0075640D0A00696E4C616220360D0A006FE3
:107FEC003A096F6B0D0A006F3A206B0D0A000D0AEF
:047FFC003E20000023
:020000040020DA
:08000000FFFFFFFFFFFFFFFF00
:020000040030CA
:0E000000FF281F3CFFBF85FF0FC00FE00F4021
:00000001FF
