:040000001FEF00F0FE
:100008005282FACF0BF0FBCF0CF0F2AA0EEF00F001
:1000180010EF00F019EF00F0F2A415EF00F017EF61
:1000280000F019EF00F08AEC06F00CC0FBFF0BC0E3
:10003800FAFF52921100FEEF06F03FEC07F0000EB7
:100048000E6E000E0D6E7DEC07F0F294F2A42FEF09
:1000580000F031EF00F02AEF00F0220E0D6E0E0EC8
:100068000E6E82EC07F0F28EF28CD70E0001826FD2
:100078007F0E836FD6EC06F0710E0001826F7F0E43
:10008800836FD6EC06F0E20E0001826F7F0E836F5D
:10009800D6EC06F0FB0E0001826F7F0E836FD6EC64
:1000A80006F06EEC07F00009D8B45DEF00F05FEFE2
:1000B80000F055EF00F0EAEC06F000019A6FF20E3E
:1000C800826F7F0E836F9AC084F0856BD6EC06F042
:1000D80044EF01F0110E826F7F0E836FD6EC06F0AD
:1000E800C80E0001826F7F0E836FD6EC06F0EB0E10
:1000F8000001826F7F0E836FD6EC06F0A20E00011E
:10010800826F7F0E836FD6EC06F08A0E0001826F35
:100118007F0E836FD6EC06F0320E0001826F7F0EE1
:10012800836F000E856F100E846FD6EC06F0EC0E10
:100138000001826F7E0E836FD6EC06F0110E00016F
:10014800826F7F0E836FD6EC06F08EEF01F0ED0E16
:10015800826F7F0E836FD6EC06F08EEF01F0000EF3
:100168009B6FF40E826F7F0E836FD6EC06F0000152
:100178009B2B270E9B65C3EF00F0C5EF00F0B5EF92
:1001880000F0FF008EEF01F0000E9B6FF40E826FFF
:100198007F0E836FD6EC06F000019B2B270E9B6524
:1001A800D8EF00F0DAEF00F0CAEF00F08EEF01F0C0
:1001B800000E9B6FA251D8B4E4EF00F0E6EF00F018
:1001C800DEEF00F0000EA26F8A0E9B25D96EDA6A68
:1001D800000EDA22C4CFDFFF9B2B0F0E9B65F7EFD3
:1001E80000F0F9EF00F0DEEF00F0B90E826F7E0E3E
:1001F800836F000E856F100E846FD6EC06F0000E2C
:1002080000019B6FF70E826F7F0E836F8A0E9B250E
:10021800D96EDA6A000EDA22DF50886F8851846F4F
:10022800856BD6EC06F000019B2B0F0E9B651FEF2C
:1002380001F021EF01F006EF01F02F0E826F7F0E23
:10024800836FD6EC06F08EEF01F09A51D00F4CEC8C
:1002580007F0520E0001826F7F0E836F9AC084F000
:10026800856BD6EC06F08EEF01F0B70E826F7F0E2D
:10027800836F9AC084F0856BD6EC06F08EEF01F0A0
:1002880000019A51886F896B8951000AD8B44FEFE1
:1002980001F039EF01F08851300AD8B429EF01F0A4
:1002A800010AD8B429EF01F0030AD8B429EF01F004
:1002B800010AD8B429EF01F0070AD8B429EF01F0F0
:1002C800010AD8B429EF01F0030AD8B429EF01F0E4
:1002D800010AD8B429EF01F00F0AD8B429EF01F0C8
:1002E800010AD8B429EF01F0060AD8B46EEF00F07D
:1002F800650AD8B4B3EF00F0350AD8B4ABEF00F014
:100308001C0AD8B4DCEF00F0090AD8B4C8EF00F032
:1003180039EF01F0FB0E0001826F7F0E836FD6EC80
:1003280006F055EF00F01FEF00F02CC066F02DC06E
:1003380067F02EC068F02FC069F030C06AF031C095
:100348006BF032C06CF033C06DF000016DBFAFEFE1
:1003580001F0B2EF01F0010EB3EF01F0000E6E6F85
:100368006E51D8B4BAEF01F0BCEF01F0CCEF01F058
:100378006D1F6C1F6B1F6A1F691F681F671F666DE3
:10038800000E6723682369236A236B236C236D237C
:1003980049BED9EF01F0495006E14804D8B0D7EF7B
:1003A80001F0D9EF01F0DFEF01F0000E636F010EED
:1003B800626FE3EF01F048C062F049C063F046C0E5
:1003C80064F047C065F06E51D8B4EDEF01F0EFEF7F
:1003D80001F006EF02F06407D8A065076E51D8A4B3
:1003E800F8EF01F0FAEF01F000EF02F0000E616F94
:1003F8002B0E606F04EF02F0000E616F2D0E606F20
:1004080060C06EF0000E706F1F0E6F6F000EC26F2F
:100418008BEF02F06F07D8A07007A30E6F25D96E77
:10042800000E7021DA6E66C00DF067C00EF068C06D
:100438000FF069C010F06AC011F06BC012F06CC008
:1004480013F06DC014F00A0E156E000E166E000E35
:10045800176E000E186E000E196E000E1A6E000E42
:100468001B6E000E1C6E7AEC04F00DC034F00EC04A
:1004780035F00FC036F010C037F011C038F012C098
:1004880039F013C03AF014C03BF034C01FF035C047
:1004980020F04BEC06F01F50300FDF6E00016207B2
:1004A800D8A063076407D8A0650766C00DF067C0C9
:1004B8000EF068C00FF069C010F06AC011F06BC090
:1004C80012F06CC013F06DC014F00A0E156E000E19
:1004D800166E000E176E000E186E000E196E000EC6
:1004E8001A6E000E1B6E000E1C6EB6EC03F00DC0EB
:1004F80066F00EC067F00FC068F010C069F011C058
:100508006AF012C06BF013C06CF014C06DF00001FB
:1005180070BF97EF02F0705108E16F05D8A097EF10
:1005280002F099EF02F0B5EF02F066516711681119
:1005380069116A116B116C116D11D8A4A6EF02F044
:10054800A8EF02F00EEF02F063BFB5EF02F06351BF
:1005580006E16205D8B0B3EF02F0B5EF02F00EEF96
:1005680002F06E51D8B4BBEF02F0BDEF02F0C8EF55
:1005780002F06F07D8A07007A30E6F25D96E000E82
:100588007021DA6E6EC0DFFF2AC01FF02BC020F08A
:10059800A30E6F25216E000E7021226E64C023F019
:1005A80065C024F0C4EC05F012003EC0D9FF3FC07E
:1005B800DAFFDECFF6FFDDCFF7FF0800F550250A9A
:1005C800D8A4E9EF02F0EBEF02F0A1EF03F03EC090
:1005D800D9FF3FC0DAFFDE2A000EDD22000E476E8B
:1005E800000E466E46C050F0486849683EC0D9FFC4
:1005F8003FC0DAFFDECFF6FFDDCFF7FF0800F5508A
:10060800630AD8A40AEF03F00CEF03F030EF03F00D
:100618003EC0D9FF3FC0DAFFDE2A000EDD2240C00F
:10062800D9FF41C0DAFFDFCF42F0020EDE26DFCF6E
:1006380043F0000EDD2242C0D9FF43C0DAFFDF508D
:100648000001796F3CC018F03DC019F079C01AF06C
:100658002CEC05F0B5EF03F03EC0D9FF3FC0DAFF40
:10066800DECF7AF0DDCF7BF07AC0F6FF7BC0F7FFF4
:100678000800F550640AD8B444EF03F046EF03F0DD
:1006880054EF03F07AC0F6FF7BC0F7FF0800F5507F
:10069800690AD8A452EF03F054EF03F098EF03F07F
:1006A80040C0D9FF41C0DAFFDFCF42F0020EDE269C
:1006B800DFCF43F0000EDD2242C0D9FF43C0DAFF8E
:1006C800DECF71F0DDCF72F00001000E72BFFF0EB9
:1006D800736F746F756F766F776F786F010E7A2509
:1006E800426E000E7B21436E3EC0D9FF3FC0DAFF49
:1006F80042C0DEFF43C0DDFF3CC02AF03DC02BF006
:1007080071C02CF072C02DF073C02EF074C02FF0A1
:1007180075C030F076C031F077C032F078C033F071
:1007280099EC01F0B5EF03F03EC0D9FF3FC0DAFF06
:10073800DE2A000EDD22B5EF03F03EC0D9FF3FC030
:10074800DAFFDECFF6FFDDCFF7FF0800F5500F6EBA
:10075800106A3CC011F03DC012F079EC05F098EF3A
:1007680003F01200000E1E6E1CBEBFEF03F0BDEFBB
:1007780003F0D1EF03F01C1E1B1E1A1E191E181EB3
:10078800171E161E156C000E162217221822192283
:100798001A221B221C22010E1E6E14BED8EF03F073
:1007A800D6EF03F0EAEF03F0141E131E121E111EFB
:1007B800101E0F1E0E1E0D6C000E0E220F22102290
:1007C8001122122213221422010E1E1A20EE1FF0EB
:1007D800070EDE6AE806FDE215501610171018100D
:1007E80019101A101B101C10D8B4FDEF03F0FFEFFE
:1007F80003F051EF04F0010E1D6E0DEF04F0D890D8
:10080800153616361736183619361A361B361C366C
:100818001D2A1CAE12EF04F014EF04F003EF04F0ED
:10082800D8901F36203621362236233624362536F0
:10083800263615500D5C16500E5817500F58185084
:100848001058195011581A5012581B5013581C5050
:100858001458D8A032EF04F034EF04F045EF04F058
:1008680015500D5E16500E5A17500F5A1850105A40
:100878001950115A1A50125A1B50135A1C50145A14
:100888001F80D8901C321B321A3219321832173294
:10089800163215321D2E14EF04F01E50D8B457EF3F
:1008A80004F059EF04F069EF04F0261E251E241EFB
:1008B800231E221E211E201E1F6C000E2022212214
:1008C800222223222422252226221FC00DF020C006
:1008D8000EF021C00FF022C010F023C011F024C088
:1008E80012F025C013F026C014F01200000E1E6E80
:1008F80014BE83EF04F081EF04F095EF04F0141EAA
:10090800131E121E111E101E0F1E0E1E0D6C000E41
:100918000E220F2210221122122213221422010E5B
:100928001E6E1CBE9CEF04F09AEF04F0ACEF04F0CE
:100938001C1E1B1E1A1E191E181E171E161E156CAD
:10094800000E16221722182219221A221B221C22F4
:10095800155016101710181019101A101B101C100B
:10096800D8B4B9EF04F0BBEF04F003EF05F0010EC3
:100978001D6EC9EF04F0D89015361636173618369E
:1009880019361A361B361C361D2A1CAECEEF04F05B
:10099800D0EF04F0BFEF04F015500D5C16500E5860
:1009A80017500F5818501058195011581A501258FB
:1009B8001B5013581C501458D8A0E5EF04F0E7EF6B
:1009C80004F0F7EF04F015500D5E16500E5A17504C
:1009D8000F5A1850105A1950115A1A50125A1B50BF
:1009E800135A1C50145AD8901C321B321A3219321E
:1009F80018321732163215321D2ED0EF04F01E5061
:100A0800D8B409EF05F00BEF05F01BEF05F0141E45
:100A1800131E121E111E101E0F1E0E1E0D6C000E30
:100A28000E220F22102211221222132214220DC08C
:100A38000DF00EC00EF00FC00FF010C010F011C076
:100A480011F012C012F013C013F014C014F0120009
:100A580046504710D8A433EF05F035EF05F03BEFCB
:100A680005F046C01EF047C01FF041EF05F0FF0E2D
:100A780046241E6EFF0E47201F6E1FBE46EF05F070
:100A880048EF05F04AEF05F04EEF05F0000E1F6E37
:100A9800000E1E6E000E1D6E000E1C6E60EF05F03F
:100AA800000E106E200E0F6E18C011F019C012F053
:100AB80079EC05F01C4A1D2A1E501C5C1D50800A4A
:100AC8001B6E1F50800A1B58D8A06DEF05F06FEF02
:100AD80005F054EF05F01AC00FF0106A18C011F0B5
:100AE80019C012F079EC05F0120011501210D8B4A8
:100AF80080EF05F082EF05F08BEF05F01150121032
:100B0800D8A489EF05F08BEF05F090EF05F00F50B2
:100B180078EC07F0C3EF05F020EE09F01150D92664
:100B28001250DA22DE50DE10D8B49DEF05F09FEFA8
:100B380005F0BAEF05F020EE09F01150D926125051
:100B4800DA2210EE03F01150E1261250E222DE50B4
:100B5800E65CE650800A176EDE50800A1758D8B057
:100B6800B8EF05F0BAEF05F0C3EF05F020EE03F09B
:100B78001150D9261250DA22DE2A000EDD22120088
:100B880024BEC9EF05F0CBEF05F0D1EF05F023C087
:100B980028F024C029F0D5EF05F0000E296E000ECC
:100BA800286E000E276E000E266EE7EF05F0000E89
:100BB800106E200E0F6E1FC011F020C012F079ECDD
:100BC80005F0264A272A2850265C2750800A256ED9
:100BD8002950800A2558D8A0F4EF05F0F6EF05F063
:100BE800DBEF05F021C018F022C019F01FC01AF081
:100BF80020C01BF029EC06F012007EC044F07FC034
:100C080045F015EF06F07CC03CF07DC03DF0440E89
:100C18003E6E000E3F6E80C040F081C041F0D9ECBE
:100C280002F044C0F6FF45C0F7FF0800F550000980
:100C3800D8A421EF06F023EF06F007EF06F0000E28
:100C480000017D6F000E7C6F1200000E1E6E000EFC
:100C58001D6E3AEF06F01CC00FF0106A1AC011F0B2
:100C68001BC012F079EC05F01D4A1E2A1D501824ED
:100C7800D96E1E501920DA6EDF501C6E1C50D8A495
:100C880048EF06F04AEF06F02FEF06F0120020BEFC
:100C980058EF06F0205006E11F04D8B056EF06F0D2
:100CA80058EF06F066EF06F01FC021F020C022F0D2
:100CB800211E221E214A222A21C01FF022C020F014
:100CC8006AEF06F01FC01FF020C020F01200080EC7
:100CD800B86E900EAB6E240EAC6E820EAF6E060E22
:100CE800B06E000E0D6E000E0E6E8CEC07F0000E4E
:100CF8000D6E000E0E6E87EC07F0000E0D6E000EE6
:100D08000E6E91EC07F0000E516E1200F2944B50EB
:100D1800D76E4AC0D6FF4C504D10D8B496EF06F0A7
:100D280098EF06F0A5EF06F002D8A5EF06F005004B
:100D3800FA6E4C50FD6E4D50FE6EF850FF6EFA5034
:100D480012001200D59C000ED76E000ED66ED6503B
:100D5800D7CF0FF0106A0FC010F00F6A0F104A6E4D
:100D680010504B6EF294F28A3A0E0D6E0F0E0E6E04
:100D780082EC07F09F0ED56E1200000E896E000EF1
:100D88008A6E000E8B6E92689368BF0E946E3C0E4E
:100D98000F013A6F3F0E396F2F0E386F000E616EDC
:100DA800F18E1200840E0001866F000E876F000E10
:100DB8007C6F000E7D6F82C07EF083C07FF0860E50
:100DC800806F000E816F01EC06F012009EAAEFEF13
:100DD80006F0F1EF06F0EAEF06F0000E516EABA256
:100DE800F8EF06F0FAEF06F0FCEF06F0AB98AB88E8
:100DF800AE50120000EE9CF0270EEE6AE806FDE108
:100E080000EE46F00C0EEE6AE806FDE152905292B2
:100E1800000EF86E000121EF00F0898CC282010EED
:100E28000001A26F22EC07F0C00E0124096EF90E32
:100E380002200A6E96EC07F0899C1200D6CF07F0C4
:100E4800D7CF08F00850036E0750056E03C006F0B0
:100E580005C001F006C002F01200700ED36E040E39
:100E6800D26E400E9B6ED2AE3CEF07F03EEF07F01D
:100E780037EF07F012009BEC07F0C1EC06F031ECFD
:100E880007F0A6EC06F063EC07F06BEC06F0120036
:100E98000E6E0EC00DF00D460D46C2500D18830B98
:100EA8000D18C26EC28012000D6E9EA85EEF07F08C
:100EB80060EF07F059EF07F00DC0ADFF1200000E0C
:100EC800C16E260EC06E000EC36E000EC46E110EEB
:100ED800C26E12009EBA73EF07F076EF07F0010EAC
:100EE80077EF07F0000E12000E6E0E5058EC07F068
:100EF80012000E50D76E0DC0D6FF12000DC04CF078
:100F08000EC04DF012000DC09EF00EC09FF01200F2
:100F18000DC0A0F00EC0A1F012000DC09CF00EC0D4
:100F28009DF012000A50D76E09C0D6FF1200D09E5D
:040F38001200120091
:107EB80000546865206C6173742025642041444334
:107EC8002073616D706C65732066726F6D207468C5
:107ED80065206D6963726F70686F6E652061726589
:107EE8003A0D0A00302D393A207377697463682097
:107EF80073616D706C6564206368616E6E656C207B
:107F0800746F20414E780D0A002D2D2D2D2D2D2D0D
:107F18002D2D2D2D2D2D2D2D2D2D2D2D2D2D2D2D89
:107F28002D2D2D2D2D2D2D0D0A00733A20676174EE
:107F38006865722025642073616D706C65732066B6
:107F4800726F6D204144430D0A0054686520414416
:107F580043206973206E6F772073616D706C696E52
:107F68006720414E25630D0A004D6963726F706882
:107F78006F6E65206578706572696D656E74730DD6
:107F88000A007A3A20436C6561722074686520742F
:107F980065726D696E616C0D0A005A3A20526573FC
:107FA80065742070726F636573736F720D0A005584
:107FB8006E6B6E6F776E206B65792025630D0A00F6
:107FC8003F3A2048656C70206D656E750D0A006932
:107FD8006E4C61622030380D0A00446576273231D4
:107FE8000D0A006F3A206B0D0A0025630A0D002563
:077FF8006420003E200000A0
:020000040020DA
:08000000FFFFFFFFFFFFFFFF00
:020000040030CA
:0E000000FF281F3CFFBF85FF0FC00FE00F4021
:00000001FF
