:040000001FEF00F0FE
:100008005282FACF0BF0FBCF0CF0F2AA0EEF00F001
:1000180010EF00F019EF00F0F2A415EF00F017EF61
:1000280000F019EF00F077EC06F00CC0FBFF0BC0F6
:10003800FAFF52921100EBEF06F02CEC07F0000EDD
:100048000E6E000E0D6E6AEC07F0F294F2A42FEF1C
:1000580000F031EF00F02AEF00F0FC0E0D6E0D0EEF
:100068000E6E6FEC07F0F28EF28CD70E0001826FE5
:100078007F0E836FC3EC06F0710E0001826F7F0E56
:10008800836FC3EC06F0E20E0001826F7F0E836F70
:10009800C3EC06F0FC0E0001826F7F0E836FC3EC89
:1000A80006F05BEC07F00009D8B45DEF00F05FEFF5
:1000B80000F055EF00F0D7EC06F000019A6F3BEF27
:1000C80001F0110E826F7F0E836FC3EC06F0C80E2D
:1000D8000001826F7F0E836FC3EC06F0EB0E000108
:1000E800826F7F0E836FC3EC06F0A20E0001826F51
:1000F8007F0E836FC3EC06F08A0E0001826F7F0EBD
:10010800836FC3EC06F0320E0001826F7F0E836F9F
:10011800000E856F100E846FC3EC06F0EC0E000124
:10012800826F7E0E836FC3EC06F0110E0001826FA2
:100138007F0E836FC3EC06F055EF00F0F20E826F6E
:100148007F0E836FC3EC06F055EF00F0000E9B6F37
:10015800300E826F7F0E836FC3EC06F000019B2B7D
:10016800270E9B65BAEF00F0BCEF00F0ACEF00F093
:10017800FF0055EF00F0000E9B6FF50E826F7F0EAB
:10018800836FC3EC06F000019B2B270E9B65CFEF16
:1001980000F0D1EF00F0C1EF00F055EF00F0000ED5
:1001A8009B6FA251D8B4DBEF00F0DDEF00F0D5EF84
:1001B80000F0000EA26F8A0E9B25D96EDA6A000E37
:1001C800DA22C4CFDFFF9B2B0F0E9B65EEEF00F00A
:1001D800F0EF00F0D5EF00F0B90E826F7E0E836F5E
:1001E800000E856F100E846FC3EC06F0000E000140
:1001F8009B6FF80E826F7F0E836F8A0E9B25D96ED8
:10020800DA6A000EDA22DF50886F8851846F856BB6
:10021800C3EC06F000019B2B0F0E9B6516EF01F057
:1002280018EF01F0FDEF00F02F0E826F7F0E836F45
:10023800C3EC06F055EF00F09A51D00F39EC07F0F7
:10024800520E0001826F7F0E836F9AC084F0856B17
:10025800C3EC06F055EF00F0B70E826F7F0E836F88
:100268009AC084F0856BC3EC06F055EF00F09A5104
:10027800886F896B8951000AD8B445EF01F030EFD7
:1002880001F08851300AD8B420EF01F0010AD8B43F
:1002980020EF01F0030AD8B420EF01F0010AD8B426
:1002A80020EF01F0070AD8B420EF01F0010AD8B412
:1002B80020EF01F0030AD8B420EF01F0010AD8B406
:1002C80020EF01F00F0AD8B420EF01F0010AD8B4EA
:1002D80020EF01F0060AD8B465EF00F0650AD8B43B
:1002E800AAEF00F0350AD8B4A2EF00F01C0AD8B47F
:1002F800D3EF00F0090AD8B4BFEF00F030EF01F0F7
:100308001FEF00F02CC066F02DC067F02EC068F01B
:100318002FC069F030C06AF031C06BF032C06CF0A9
:1003280033C06DF000016DBF9CEF01F09FEF01F04D
:10033800010EA0EF01F0000E6E6F6E51D8B4A7EF5A
:1003480001F0A9EF01F0B9EF01F06D1F6C1F6B1FF1
:100358006A1F691F681F671F666D000E6723682381
:1003680069236A236B236C236D2349BEC6EF01F012
:10037800495006E14804D8B0C4EF01F0C6EF01F0D7
:10038800CCEF01F0000E636F010E626FD0EF01F049
:1003980048C062F049C063F046C064F047C065F0E9
:1003A8006E51D8B4DAEF01F0DCEF01F0F3EF01F0B1
:1003B8006407D8A065076E51D8A4E5EF01F0E7EF10
:1003C80001F0EDEF01F0000E616F2B0E606FF1EFA1
:1003D80001F0000E616F2D0E606F60C06EF0000EB0
:1003E800706F1F0E6F6F000EC26F78EF02F06F070D
:1003F800D8A07007A30E6F25D96E000E7021DA6E93
:1004080066C00DF067C00EF068C00FF069C010F04C
:100418006AC011F06BC012F06CC013F06DC014F01C
:100428000A0E156E000E166E000E176E000E186E70
:10043800000E196E000E1A6E000E1B6E000E1C6E5A
:1004480067EC04F00DC034F00EC035F00FC036F084
:1004580010C037F011C038F012C039F013C03AF0AC
:1004680014C03BF034C01FF035C020F038EC06F063
:100478001F50300FDF6E00016207D8A063076407C2
:10048800D8A0650766C00DF067C00EF068C00FF011
:1004980069C010F06AC011F06BC012F06CC013F0A4
:1004A8006DC014F00A0E156E000E166E000E176E53
:1004B800000E186E000E196E000E1A6E000E1B6EDE
:1004C800000E1C6EA3EC03F00DC066F00EC067F0C2
:1004D8000FC068F010C069F011C06AF012C06BF06C
:1004E80013C06CF014C06DF0000170BF84EF02F00F
:1004F800705108E16F05D8A084EF02F086EF02F092
:10050800A2EF02F066516711681169116A116B1147
:100518006C116D11D8A493EF02F095EF02F0FBEF88
:1005280001F063BFA2EF02F0635106E16205D8B0A3
:10053800A0EF02F0A2EF02F0FBEF01F06E51D8B489
:10054800A8EF02F0AAEF02F0B5EF02F06F07D8A00B
:100558007007A30E6F25D96E000E7021DA6E6EC07B
:10056800DFFF2AC01FF02BC020F0A30E6F25216EDD
:10057800000E7021226E64C023F065C024F0B1EC37
:1005880005F012003EC0D9FF3FC0DAFFDECFF6FF0C
:10059800DDCFF7FF0800F550250AD8A4D6EF02F002
:1005A800D8EF02F08EEF03F03EC0D9FF3FC0DAFF6C
:1005B800DE2A000EDD22000E476E000E466E46C093
:1005C80050F0486849683EC0D9FF3FC0DAFFDECF27
:1005D800F6FFDDCFF7FF0800F550630AD8A4F7EF60
:1005E80002F0F9EF02F01DEF03F03EC0D9FF3FC063
:1005F800DAFFDE2A000EDD2240C0D9FF41C0DAFF53
:10060800DFCF42F0020EDE26DFCF43F0000EDD2200
:1006180042C0D9FF43C0DAFFDF500001796F3CC008
:1006280018F03DC019F079C01AF019EC05F0A2EFE6
:1006380003F03EC0D9FF3FC0DAFFDECF7AF0DDCF4E
:100648007BF07AC0F6FF7BC0F7FF0800F550640A1C
:10065800D8B431EF03F033EF03F041EF03F07AC081
:10066800F6FF7BC0F7FF0800F550690AD8A43FEFF2
:1006780003F041EF03F085EF03F040C0D9FF41C01C
:10068800DAFFDFCF42F0020EDE26DFCF43F0000EA6
:10069800DD2242C0D9FF43C0DAFFDECF71F0DDCFE3
:1006A80072F00001000E72BFFF0E736F746F756FEA
:1006B800766F776F786F010E7A25426E000E7B2178
:1006C800436E3EC0D9FF3FC0DAFF42C0DEFF43C0E1
:1006D800DDFF3CC02AF03DC02BF071C02CF072C089
:1006E8002DF073C02EF074C02FF075C030F076C0B6
:1006F80031F077C032F078C033F086EC01F0A2EF29
:1007080003F03EC0D9FF3FC0DAFFDE2A000EDD222B
:10071800A2EF03F03EC0D9FF3FC0DAFFDECFF6FFFD
:10072800DDCFF7FF0800F5500F6E106A3CC011F0DE
:100738003DC012F066EC05F085EF03F01200000EE4
:100748001E6E1CBEACEF03F0AAEF03F0BEEF03F081
:100758001C1E1B1E1A1E191E181E171E161E156C8F
:10076800000E16221722182219221A221B221C22D6
:10077800010E1E6E14BEC5EF03F0C3EF03F0D7EFF2
:1007880003F0141E131E121E111E101E0F1E0E1E25
:100798000D6C000E0E220F2210221122122213229B
:1007A8001422010E1E1A20EE1FF0070EDE6AE8065C
:1007B800FDE2155016101710181019101A101B10FA
:1007C8001C10D8B4EAEF03F0ECEF03F03EEF04F0AE
:1007D800010E1D6EFAEF03F0D8901536163617364F
:1007E800183619361A361B361C361D2A1CAEFFEF72
:1007F80003F001EF04F0F0EF03F0D8901F36203635
:1008080021362236233624362536263615500D5CF9
:1008180016500E5817500F58185010581950115894
:100828001A5012581B5013581C501458D8A01FEFB8
:1008380004F021EF04F032EF04F015500D5E16506D
:100848000E5A17500F5A1850105A1950115A1A5058
:10085800125A1B50135A1C50145A1F80D8901C321D
:100868001B321A32193218321732163215321D2E2F
:1008780001EF04F01E50D8B444EF04F046EF04F042
:1008880056EF04F0261E251E241E231E221E211E9E
:10089800201E1F6C000E2022212222222322242225
:1008A800252226221FC00DF020C00EF021C00FF017
:1008B80022C010F023C011F024C012F025C013F09C
:1008C80026C014F01200000E1E6E14BE70EF04F065
:1008D8006EEF04F082EF04F0141E131E121E111E98
:1008E800101E0F1E0E1E0D6C000E0E220F2210225F
:1008F8001122122213221422010E1E6E1CBE89EF31
:1009080004F087EF04F099EF04F01C1E1B1E1A1E5A
:10091800191E181E171E161E156C000E16221722F9
:10092800182219221A221B221C22155016101710E1
:10093800181019101A101B101C10D8B4A6EF04F0C8
:10094800A8EF04F0F0EF04F0010E1D6EB6EF04F00E
:10095800D890153616361736183619361A361B3605
:100968001C361D2A1CAEBBEF04F0BDEF04F0ACEF43
:1009780004F015500D5C16500E5817500F581850AB
:100988001058195011581A5012581B5013581C500F
:100998001458D8A0D2EF04F0D4EF04F0E4EF04F038
:1009A80015500D5E16500E5A17500F5A1850105AFF
:1009B8001950115A1A50125A1B50135A1C50145AD3
:1009C800D8901C321B321A321932183217321632AA
:1009D80015321D2EBDEF04F01E50D8B4F6EF04F00A
:1009E800F8EF04F008EF05F0141E131E121E111E76
:1009F800101E0F1E0E1E0D6C000E0E220F2210224E
:100A080011221222132214220DC00DF00EC00EF076
:100A18000FC00FF010C010F011C011F012C012F08A
:100A280013C013F014C014F0120046504710D8A495
:100A380020EF05F022EF05F028EF05F046C01EF084
:100A480047C01FF02EEF05F0FF0E46241E6EFF0E66
:100A580047201F6E1FBE33EF05F035EF05F037EF67
:100A680005F03BEF05F0000E1F6E000E1E6E000E27
:100A78001D6E000E1C6E4DEF05F0000E106E200E60
:100A88000F6E18C011F019C012F066EC05F01C4A80
:100A98001D2A1E501C5C1D50800A1B6E1F50800AA8
:100AA8001B58D8A05AEF05F05CEF05F041EF05F0B0
:100AB8001AC00FF0106A18C011F019C012F066ECD5
:100AC80005F0120011501210D8B46DEF05F06FEF59
:100AD80005F078EF05F011501210D8A476EF05F064
:100AE80078EF05F07DEF05F00F5065EC07F0B0EFFB
:100AF80005F020EE09F01150D9261250DA22DE5006
:100B0800DE10D8B48AEF05F08CEF05F0A7EF05F0FA
:100B180020EE09F01150D9261250DA2210EE03F017
:100B28001150E1261250E222DE50E65CE650800ABF
:100B3800176EDE50800A1758D8B0A5EF05F0A7EF5A
:100B480005F0B0EF05F020EE03F01150D926125051
:100B5800DA22DE2A000EDD22120024BEB6EF05F0EE
:100B6800B8EF05F0BEEF05F023C028F024C029F047
:100B7800C2EF05F0000E296E000E286E000E276EDB
:100B8800000E266ED4EF05F0000E106E200E0F6ECC
:100B98001FC011F020C012F066EC05F0264A272A83
:100BA8002850265C2750800A256E2950800A25582F
:100BB800D8A0E1EF05F0E3EF05F0C8EF05F021C09C
:100BC80018F022C019F01FC01AF020C01BF016EC54
:100BD80006F012007EC044F07FC045F002EF06F038
:100BE8007CC03CF07DC03DF0440E3E6E000E3F6E72
:100BF80080C040F081C041F0C6EC02F044C0F6FF6E
:100C080045C0F7FF0800F5500009D8A40EEF06F01C
:100C180010EF06F0F4EF05F0000E00017D6F000EF6
:100C28007C6F1200000E1E6E000E1D6E27EF06F080
:100C38001CC00FF0106A1AC011F01BC012F066EC4D
:100C480005F01D4A1E2A1D501824D96E1E50192061
:100C5800DA6EDF501C6E1C50D8A435EF06F037EF63
:100C680006F01CEF06F0120020BE45EF06F02050FB
:100C780006E11F04D8B043EF06F045EF06F053EF46
:100C880006F01FC021F020C022F0211E221E214A9A
:100C9800222A21C01FF022C020F057EF06F01FC003
:100CA8001FF020C020F01200080EB86E900EAB6E38
:100CB800240EAC6E820EAF6E060EB06E000E0D6E78
:100CC800000E0E6E79EC07F0000E0D6E000E0E6E23
:100CD80074EC07F0000E0D6E000E0E6E7EEC07F041
:100CE800000E516E1200F2944B50D76E4AC0D6FFD8
:100CF8004C504D10D8B483EF06F085EF06F092EF14
:100D080006F002D892EF06F00500FA6E4C50FD6E20
:100D18004D50FE6EF850FF6EFA5012001200D59C2E
:100D2800000ED76E000ED66ED650D7CF0FF0106AD1
:100D38000FC010F00F6A0F104A6E10504B6EF294ED
:100D4800F28A140E0D6E0F0E0E6E6FEC07F09F0EEA
:100D5800D56E1200000E896E000E8A6E000E8B6E24
:100D680092689368BF0E946E3C0E0F013A6F3F0E67
:100D7800396F2F0E386F000E616EF18E1200840EDF
:100D88000001866F000E876F000E7C6F000E7D6F6E
:100D980082C07EF083C07FF0860E806F000E816F68
:100DA800EEEC05F012009EAADCEF06F0DEEF06F08E
:100DB800D7EF06F0000E516EABA2E5EF06F0E7EFB5
:100DC80006F0E9EF06F0AB98AB88AE50120000EEE3
:100DD8009CF0270EEE6AE806FDE100EE46F00C0EE8
:100DE800EE6AE806FDE152905292000EF86E00019C
:100DF80021EF00F0898CC282010E0001A26F0FEC76
:100E080007F0C00E0124096EF90E02200A6E83EC69
:100E180007F0899C1200D6CF07F0D7CF08F008500A
:100E2800036E0750056E03C006F005C001F006C04A
:100E380002F01200700ED36E040ED26E400E9B6E3E
:100E4800D2AE29EF07F02BEF07F024EF07F01200DE
:100E580088EC07F0AEEC06F01EEC07F093EC06F019
:100E680050EC07F058EC06F012000E6E0EC00DF0B4
:100E78000D460D46C2500D18830B0D18C26EC28068
:100E880012000D6E9EA84BEF07F04DEF07F046EFEE
:100E980007F00DC0ADFF1200000EC16E260EC06E29
:100EA800000EC36E000EC46E110EC26E12009EBA02
:100EB80060EF07F063EF07F0010E64EF07F0000E34
:100EC80012000E6E0E5045EC07F012000E50D76E51
:100ED8000DC0D6FF12000DC04CF00EC04DF0120030
:100EE8000DC09EF00EC09FF012000DC0A0F00EC005
:100EF800A1F012000DC09CF00EC09DF012000A5027
:0E0F0800D76E09C0D6FF1200D09E1200120054
:107EB80000546865206C6173742025642041444334
:107EC8002073616D706C65732066726F6D207468C5
:107ED80065206D6963726F70686F6E652061726589
:107EE8003A0D0A00302D393A207377697463682097
:107EF80073616D706C6564206368616E6E656C207B
:107F0800746F20414E780D0A002D2D2D2D2D2D2D0D
:107F18002D2D2D2D2D2D2D2D2D2D2D2D2D2D2D2D89
:107F28002D2D2D2D2D2D2D0D0A00733A20676174EE
:107F38006865722025642073616D706C65732066B6
:107F4800726F6D204144430D0A0054686520414416
:107F580043206973206E6F772073616D706C696E52
:107F68006720414E25630D0A004D6963726F706882
:107F78006F6E65206578706572696D656E74730DD6
:107F88000A007A3A20436C6561722074686520742F
:107F980065726D696E616C0D0A005A3A20526573FC
:107FA80065742070726F636573736F720D0A005584
:107FB8006E6B6E6F776E206B65792025630D0A00F6
:107FC8003F3A2048656C70206D656E750D0A006932
:107FD8006E4C61622030380D0A00446576273231D4
:107FE8000D0A006F3A206B0D0A00206B0D0A3E0047
:087FF800256420003E2000007A
:020000040020DA
:08000000FFFFFFFFFFFFFFFF00
:020000040030CA
:0E000000FF281F3CFFBF85FF0FC00FE00F4021
:00000001FF
