:0400000014EF00F009
:100008005582FACF08F0FBCF09F0F2BAF2A402D079
:10001800CBEC0AF009C0FBFF08C0FAFF55921100AB
:1000280013EF0AF0000E0001926F000E916F000EA0
:10003800966F000E956F1DEC0BF0000E0B6E000E08
:100048000A6E59EC0BF0F294F2A4FED78E0E0A6EEB
:10005800110E0B6E5EEC0BF0F28EF28CCB0E0001E3
:100068007B6F7F0E7C6FF6EC0AF0F00E00017B6F61
:100078007E0E7C6FF6EC0AF0D60E00017B6F7F0EC9
:100088007C6FF6EC0AF0FB0E00017B6F7F0E7C6F35
:10009800F6EC0AF04EEC0BF00009D8B4FBD735ECBF
:1000A8000BF00001976FF20E7B6F7F0E7C6F97C08D
:1000B8007DF07E6BF6EC0AF0EDD2310E7B6F7E0E92
:1000C8007C6FF6EC0AF09F0E00017B6F7F0E7C6F51
:1000D800F6EC0AF0DF0E00017B6F7F0E7C6FF6EC0A
:1000E8000AF04F0E00017B6F7F0E7C6FF6EC0AF072
:1000F800090E00017B6F7F0E7C6FF6EC0AF0940E00
:1001080000017B6F7E0E7C6FF6EC0AF0730E000127
:100118007B6F7E0E7C6FF6EC0AF0DB0E00017B6FC6
:100128007D0E7C6F020E7E6F000E7D6FF6EC0AF07E
:10013800B50E00017B6F7E0E7C6F020E7E6F000E87
:100148007D6FF6EC0AF00C0E00017B6F7E0E7C6F63
:10015800F6EC0AF0310E00017B6F7E0E7C6FF6EC38
:100168000AF0BAD2E10E7B6F7F0E7C6FF6EC0AF0D4
:10017800B3D2000E9B6F000E9A6FEF0E7B6F7F0E4F
:100188007C6FF6EC0AF000019A4B9B2B9B5104E123
:10019800280E9A5DD8A0F1D7FF009ED2000E9B6F63
:1001A800000E9A6FEF0E7B6F7F0E7C6FF6EC0AF0F5
:1001B80000019A4B9B2B9B5105E1280E9A5DD8B004
:1001C8008BD2F0D789D2050EC927640E7B6F7F0EBC
:1001D8007C6F800EC9257D6F7E6B000E7E23F6EC4A
:1001E8000AF0780E00017B6F7F0E7C6FC951800882
:1001F8007D6F000ED8A0E82A00087E6FF6EC0AF0A2
:100208006BD2050EC95F640E7B6F7F0E7C6F800E0C
:10021800C9257D6F7E6B000E7E23F6EC0AF0780E02
:1002280000017B6F7F0E7C6FC95180087D6F000EC7
:10023800D8A0E82A00087E6FF6EC0AF04DD28C0EA2
:100248007B6F7F0E7C6FF6EC0AF0010E536E000E8A
:1002580000019B6F000E9A6FA751D8B4FDD7CA0E44
:100268009A25D96E020E9B21DA6EC4CFDFFF000EED
:10027800A76F9A4B9B2B020E9B5DD8A0EDD7000E63
:10028800536E390E7B6F7F0E7C6FF6EC0AF0000E12
:100298000001A86F000E9B6F010E9A6FC90E9A2578
:1002A800D96E020E9B21DA6E810EDF6016D0CA0E5F
:1002B8009A25D96E020E9B21DA6E800EDF640DD06E
:1002C800A851020DCA0EF324D96E000EF420DA6E7E
:1002D8009AC0DEFF9BC0DDFFA82B9A4B9B2B020E1A
:1002E8009B5DD8A0DBD7730E7B6F7D0E7C6FF6EC21
:1002F8000AF0000E00019B6F000E9A6FE60E7B6FEE
:100308007F0E7C6F9AC085F09BC086F0853B863B4C
:10031800F00E861785510F0B8613F00E851785C0D2
:100328007DF086C07EF0F6EC0AF09AC085F09BC09E
:1003380086F00001853B863BF00E861785510F0B32
:100348008613F00E851786510AE1640E855DD8B0D4
:1003580006D0FC0E7B6F7F0E7C6FF6EC0AF09AC01D
:1003680085F09BC086F00001853B863BF00E861722
:1003780085510F0B8613F00E851786510AE10A0E78
:10038800855DD8B006D0FC0E7B6F7F0E7C6FF6ECD7
:100398000AF0000E0001996F9AC085F09BC086F0A4
:1003A800853B863BF00E861785510F0B8613F00EA2
:1003B8008517CA0E8525876F020E8621886F995189
:1003C8008725D96E000E8821DA6EDF50986FF70EF8
:1003D8007B6F7F0E7C6F98C07DF07E6BF6EC0AF029
:1003E800640E0001986106D0FC0E7B6F7F0E7C6F57
:1003F800F6EC0AF00A0E0001986106D0FC0E7B6F3D
:100408007F0E7C6FF6EC0AF00001992B0F0E9965B0
:10041800C3D7EF0E7B6F7F0E7C6FF6EC0AF00001FE
:100428009A4B9B2B9B5104E1200E9A5DD8A066D76E
:10043800EF0E7B6F7F0E7C6FF6EC0AF0A70E0001C3
:100448007B6F7D0E7C6FF6EC0AF0000E00019B6F4F
:10045800000E9A6F16D0F70E7B6F7F0E7C6FD890C8
:100468009A35D96E9B35DA6ECA0ED926000EDA2275
:10047800DECF7DF0DDCF7EF0F6EC0AF000019A4B7E
:100488009B2BA851856F866B85519A5D86519B5928
:10049800D8A0E1D7ED0E7B6F7F0E7C6FF6EC0AF0EB
:1004A800520E00017B6F7E0E7C6FA8C07DF07E6BC4
:1004B800F6EC0AF0000E0001966F000E956F000E24
:1004C8009B6F010E9A6F4BD0D8909A35D96E9B3599
:1004D800DA6EC80ED926000EDA22DECF85F0DDCF1F
:1004E80086F0D8909A35D96E9B35DA6ECA0ED92621
:1004F800000EDA22DECF87F0DDCF88F08551875DE8
:10050800936F86518859946F9351952794519623E8
:10051800AE0E7B6F7F0E7C6FD8909A35D96E9B3567
:10052800DA6ECA0ED926000EDA22DECF7DF0DDCFD4
:100538007EF0D8909A35D96E9B35DA6EC80ED926DA
:10054800000EDA22DECF7FF0DDCF80F093C081F09D
:1005580094C082F0F6EC0AF000019A4B9B2BA8514C
:10056800856F866B85519A5D86519B59D8A0ACD70B
:10057800ED0E7B6F7F0E7C6FF6EC0AF095C00AF0EB
:1005880096C00BF0000E0D6E190E0C6E0AEC0BF0F7
:100598000AC010F00BC011F0FF0E0001A825126E62
:1005A800136AFF0E1322EAEC09F010C091F011C093
:1005B80092F0190E1A6E000E1B6E000E1C6E000EC5
:1005C8001D6EFF0E0001A825856F866BFF0E862322
:1005D80085C00AF086C00BF0000E0BBEFF0E0C6E35
:1005E8000D6E400E0E6E420E0F6E0F0E106E000E48
:1005F800116EBFEC09F00AC016F00BC017F00CC062
:1006080018F00DC019F00AEC08F016C08DF017C0EC
:100618008EF018C08FF019C090F08DC016F08EC003
:1006280017F08FC018F090C019F095C01AF096C056
:100638001BF01C6A1D6A0AEC08F016C089F017C086
:100648008AF018C08BF019C08CF0210E00017B6F66
:100658007F0E7C6F91C07DF092C07EF0F6EC0AF0C0
:10066800D50E00017B6F7E0E7C6F89C07DF08AC03D
:100678007EF08BC07FF08CC080F0F6EC0AF02CD0B6
:10068800BD0E7B6F7F0E7C6F97C07DF07E6BF6ECA6
:100698000AF022D000019751856F866B8651000AB7
:1006A800D8A4EED78551000AD8B416D03F0AD8B4DA
:1006B80004D56B0AD8B487D50E0AD8B45AD53C0AE3
:1006C800D8B4BDD5090AD8B44DD51B0AD8B499D524
:1006D8000E0AD8B463D5D4D7FB0E00017B6F7F0E0A
:1006E8007C6FF6EC0AF0D6D462C0D9FF63C0DAFF9B
:1006F800DECFF6FFDDCFF7FF0800F550250AD8A4B6
:1007080002D162C0D9FF63C0DAFFDE2A000EDD2203
:10071800000E4D6E000E4C6E4CC0A6F04E684F6831
:1007280062C0D9FF63C0DAFFDECFF6FFDDCFF7FF87
:100738000800F550630AD8A423D062C0D9FF63C06B
:10074800DAFFDE2A000EDD2264C0D9FF65C0DAFFB9
:10075800DFCF66F0020EDE26DFCF67F0000EDD2267
:1007680066C0D9FF67C0DAFFDF5000016A6F60C05A
:1007780015F061C016F06AC017F01EEC09F01200FF
:1007880062C0D9FF63C0DAFFDECF73F0DDCF74F04B
:1007980073C0F6FF74C0F7FF0800F550640AD8B4B8
:1007A80009D073C0F6FF74C0F7FF0800F550690A56
:1007B800D8A443D064C0D9FF65C0DAFFDFCF66F0A4
:1007C800020EDE26DFCF67F0000EDD2266C0D9FFFD
:1007D80067C0DAFFDECF6BF0DDCF6CF00001000EF2
:1007E8006CBFFF0E6D6F6E6F6F6F706F716F726F92
:1007F800010E7325666F000E7421676F62C0D9FF02
:1008080063C0DAFF66C0DEFF67C0DDFF60C027F0A7
:1008180061C028F06BC029F06CC02AF06DC02BF0C5
:100828006EC02CF06FC02DF070C02EF071C02FF08C
:1008380072C030F09AEC04F0120073C0F6FF74C076
:10084800F7FF0800F550750AD8A455D064C0D9FF41
:1008580065C0DAFFDFCF66F0020EDE26DFCF67F075
:10086800000EDD2266C0D9FF67C0DAFFDECF68F070
:10087800DDCF69F068C06BF069C06CF000016D6B8A
:100888006E6B6F6B706B716B726B010E7325666F9D
:10089800000E7421676F62C0D9FF63C0DAFF66C0BB
:1008A800DEFF67C0DDFF17D060C027F061C028F009
:1008B8006BC029F06CC02AF06DC02BF06EC02CF014
:1008C8006FC02DF070C02EF071C02FF072C030F0E4
:1008D800A5EC05F0120073C0F6FF74C0F7FF08001E
:1008E800F550666F676B6751000AD8A404D066514B
:1008F800750AD8B4D9D762C0D9FF63C0DAFFDE2A37
:10090800000EDD22120062C0D9FF63C0DAFFDECF1D
:10091800F6FFDDCFF7FF0800F5500C6E0D6A60C0DA
:100928000EF061C00FF058EC09F0E5D729C03FF090
:100938002AC040F02BC041F02CC042F02DC043F03B
:100948002EC044F02FC045F030C046F046AE02D06D
:10095800010E01D0000E496E4950D8B410D0461E81
:10096800451E441E431E421E411E401E3F6C000E83
:1009780040224122422243224422452246224FBE9F
:1009880005D04F5008E14E04D8B005D0000E3C6E9B
:10099800010E3B6E04D04EC03BF04FC03CF04CC043
:1009A8003DF04DC03EF04950D8B410D03D06D8A017
:1009B8003E064950D8A404D0000E3A6E2B0E03D040
:1009C800000E3A6E2D0E396E39C049F0000E486E91
:1009D8001F0E476E000E0001C86F7CD04706D8A0D6
:1009E8004806A90E4724D96E000E4820DA6E3FC08B
:1009F8000AF040C00BF041C00CF042C00DF043C0FB
:100A08000EF044C00FF045C010F046C011F00A0EB9
:100A1800126E000E136E000E146E000E156E000E90
:100A2800166E000E176E000E186E000E196E11EC81
:100A380007F00AC031F00BC032F00CC033F00DC023
:100A480034F00EC035F00FC036F010C037F011C0CA
:100A580038F031C01CF032C01DF0B2EC0AF01C5066
:100A6800300FDF6E3B06D8A03C063D06D8A03E06F8
:100A78003FC00AF040C00BF041C00CF042C00DF07E
:100A880043C00EF044C00FF045C010F046C011F04E
:100A98000A0E126E000E136E000E146E000E156E06
:100AA800000E166E000E176E000E186E000E196EF0
:100AB8006DEC06F00AC03FF00BC040F00CC041F0EE
:100AC8000DC042F00EC043F00FC044F010C045F016
:100AD80011C046F048BE16D0485003E14704D8A0DC
:100AE80011D03F504010411042104310441045109F
:100AF8004610D8A473D73CBE05D03C5002E13B0455
:100B0800D8B06CD74950D8B40BD04706D8A04806FF
:100B1800A90E4724D96E000E4820DA6E49C0DFFFBF
:100B280027C01CF028C01DF0A90E47241E6E000E19
:100B380048201F6E3DC020F03EC021F08EEC09F029
:100B480012004FBE05D04F5008E14E04D8B005D072
:100B5800000E3C6E010E3B6E04D04EC03BF04FC001
:100B68003CF04CC039F04DC03AF029C03DF02AC0E5
:100B78003EF02BC03FF02CC040F02DC041F02EC0FD
:100B880042F02FC043F030C044F0000E466E1F0EF6
:100B9800456E000E0001C86F76D04506D8A04606FF
:100BA800A90E4524D96E000E4620DA6E3DC00AF023
:100BB8003EC00BF03FC00CF040C00DF041C00EF03D
:100BC80042C00FF043C010F044C011F00A0E126E7C
:100BD800000E136E000E146E000E156E000E166ECB
:100BE800000E176E000E186E000E196E70EC08F0ED
:100BF8000AC031F00BC032F00CC033F00DC034F035
:100C08000EC035F00FC036F010C037F011C038F004
:100C18003150300FDF6E3B06D8A03C063906D8A00D
:100C28003A063DC00AF03EC00BF03FC00CF040C091
:100C38000DF041C00EF042C00FF043C010F044C0A8
:100C480011F00A0E126E000E136E000E146E000ED6
:100C5800156E000E166E000E176E000E186E000E42
:100C6800196EA3EC07F00AC03DF00BC03EF00CC0B3
:100C78003FF00DC040F00EC041F00FC042F010C070
:100C880043F011C044F045504610D8B411D03D503F
:100C98003E103F1040104110421043104410D8A499
:100CA8007CD73CBE05D03C5002E13B04D8B075D798
:100CB80027C01CF028C01DF0A90E45241E6E000E8A
:100CC80046201F6E39C020F03AC021F08EEC09F0A2
:100CD8001200000E1B6E19AE12D0191E181E171E18
:100CE800161E151E141E131E126C000E132214223B
:100CF80015221622172218221922010E1B6E11AE78
:100D080012D0111E101E0F1E0E1E0D1E0C1E0B1EC5
:100D18000A6C000E0B220C220D220E220F2210222A
:100D28001122010E1B1A20EE1CF0070EDE6AE806DF
:100D3800FDE2125013101410151016101710181089
:100D48001910D8B446D0010E1A6E0AD0D8901236AF
:100D580013361436153616361736183619361A2A33
:100D680019AEF4D7D8901C361D361E361F362036DD
:100D780021362236233612500A5C13500B58145071
:100D88000C5815500D5816500E5817500F5818502B
:100D9800105819501158D8A011D012500A5E13508B
:100DA8000B5A14500C5A15500D5A16500E5A17500B
:100DB8000F5A1850105A1950115A1C80D8901932CD
:100DC80018321732163215321432133212321A2EE2
:100DD800C9D71B50D8B410D0231E221E211E201E96
:100DE8001F1E1E1E1D1E1C6C000E1D221E221F22F1
:100DF80020222122222223221CC00AF01DC00BF02F
:100E08001EC00CF01FC00DF020C00EF021C00FF066
:100E180022C010F023C011F01200000E1B6E11AE9C
:100E280012D0111E101E0F1E0E1E0D1E0C1E0B1EA4
:100E38000A6C000E0B220C220D220E220F22102209
:100E48001122010E1B6E19AE10D0191E181E171E86
:100E5800161E151E141E131E126C000E13221422C9
:100E680015221622172218221922125013101410B4
:100E780015101610171018101910D8B43CD0010E00
:100E88001A6E0AD0D890123613361436153616361E
:100E98001736183619361A2A19AEF4D712500A5CC2
:100EA80013500B5814500C5815500D5816500E5816
:100EB80017500F581850105819501158D8A010D062
:100EC80012500A5E13500B5A14500C5A15500D5AF2
:100ED80016500E5A17500F5A1850105A1950115AC6
:100EE800D89019321832173216321532143213329A
:100EF80012321A2ED3D71B50D8B410D0111E101E80
:100F08000F1E0E1E0D1E0C1E0B1E0A6C000E0B2251
:100F18000C220D220E220F22102211220AC00AF0E2
:100F28000BC00BF00CC00CF00DC00DF00EC00EF095
:100F38000FC00FF010C010F011C011F0120020EE19
:100F48001AF0070EDE6AE806FDE2125013101410BC
:100F580015101610171018101910D8B446D0010E15
:100F6800226E0AD0D8901236133614361536163635
:100F7800173618361936222A19AEF4D7D8901A36E9
:100F88001B361C361D361E361F36203621361250AB
:100F98000A5C13500B5814500C5815500D58165025
:100FA8000E5817500F581850105819501158D8A0EB
:100FB80011D012500A5E13500B5A14500C5A155087
:100FC8000D5A16500E5A17500F5A1850105A1950D9
:100FD800115A1A80D890193218321732163215322F
:100FE800143213321232222EC9D71AC00AF01BC08B
:100FF8000BF01CC00CF01DC00DF01EC00EF01FC081
:101008000FF020C010F021C011F01200000E1F6E6A
:101018001DAE0AD01D1E1C1E1B1E1A6C000E1B22A4
:101028001C221D22010E1F6E19AE0AD0191E181E91
:10103800171E166C000E172218221922010E1F1AED
:10104800000E206E000E216E000E226E000E236E22
:101058001A501B101C101D10D8B42AD0010E1E6E79
:1010680006D0D8901A361B361C361D361E2A1DAEE1
:10107800F8D7D89020362136223623361A50165CF7
:101088001B5017581C5018581D501958D8A009D073
:101098001A50165E1B50175A1C50185A1D50195AD0
:1010A8002080D8901D321C321B321A321E2EE1D7F6
:1010B8001F50D8B408D0231E221E211E206C000EFB
:1010C80021222222232220C016F021C017F022C09C
:1010D80018F023C019F01200125013101410151034
:1010E8001610171018101910D8B43CD0010E1A6E2B
:1010F8000AD0D890123613361436153616361736E7
:10110800183619361A2A19AEF4D712500A5C135039
:101118000B5814500C5815500D5816500E5817509F
:101128000F581850105819501158D8A010D01250F4
:101138000A5E13500B5A14500C5A15500D5A16507B
:101148000E5A17500F5A1850105A1950115AD89051
:10115800193218321732163215321432133212324B
:101168001A2ED3D70AC00AF00BC00BF00CC00CF033
:101178000DC00DF00EC00EF00FC00FF010C010F033
:1011880011C011F01200898C3BD05304D8A449D067
:10119800010E2BD0C450036E046A0001C951056EBC
:1011A800066A800E0526000E06220350055C0650CE
:1011B800800A076E0450800A0758D8A015D0800E00
:1011C800036E000E046EC951035E000E045AC4502B
:1011D800056E066A0350055C0650800A076E0450C7
:1011E800800A0758D8B01DD0020E526E1AD053503C
:1011F800D8A402D0000E526E010E0001A76F11D0C4
:101208005250036E046A0450000AD8A40AD003504E
:10121800000AD8B4BAD7010AD8B4BCD7030AD8B4DC
:10122800E6D7C282FE0E026EBB0E016E72EC0BF0A8
:10123800899C12004C504D10D8A405D04CC01BF00E
:101248004DC01CF006D0FF0E4C241B6EFF0E4D2027
:101258001C6E1CAE04D0000E1C6E000E1B6E000E21
:101268001A6E000E196E0CD0000E0D6E200E0C6E4C
:1012780015C00EF016C00FF058EC09F0194A1A2ADA
:101288001B50195C1A50800A186E1C50800A185896
:10129800D8A0EAD717C00CF00D6A15C00EF016C01A
:1012A8000FF058EC09F012000E500F10D8B404D00B
:1012B8000E500F10D8A404D00C5054EC0BF01200B0
:1012C80020EE09F00E50D9260F50DA22DE50DE103B
:1012D800D8B416D020EE09F00E50D9260F50DA22D5
:1012E80010EE03F00E50E1260F50E222DE50E65CCD
:1012F800E650800A146EDE50800A1458D8B01200E6
:1013080020EE03F00E50D9260F50DA22DE2A000E06
:10131800DD22120021BE05D020C025F021C026F014
:1013280004D0000E266E000E256E000E246E000EF0
:10133800236E0CD0000E0D6E200E0C6E1CC00EF02D
:101348001DC00FF058EC09F0234A242A2550235CCD
:101358002450800A226E2650800A2258D8A0EAD744
:101368001EC015F01FC016F01CC017F01DC018F0E5
:101378007BEC0AF01200000E126E000E136E000EC7
:10138800146E000E156E0AA008D00E5012260F50CB
:1013980013221050142211501522D8900E360F36F1
:1013A80010361136D8900D320C320B320A320A50F0
:1013B8000B100C100D10D8A4E6D712C00AF013C0F9
:1013C8000BF014C00CF015C00DF01200000E156ED5
:1013D800000E146E12501310D8B41CD0010E166EE5
:1013E80004D0D89012361336162A13AEFAD7D890EE
:1013F800143615361250105C13501158D8A005D069
:101408001250105E1350115A1480D89013321232B1
:10141800162EEDD714C010F015C011F01200F40EFE
:10142800F66E160EF76E000EF86E0900F5CFC9F0CD
:1014380000EECAF014EE00F0EE6AE550E150FCE16F
:10144800E250FAE100EE9CF02D0EEE6AE806FDE1AE
:1014580000EE4CF0090EEE6AE806FDE15590559253
:10146800000EF86E000116EF00F077C04AF078C061
:101478004BF00FD075C060F076C061F04A0E0001E5
:10148800626F000E636F79C064F07AC065F078EC23
:1014980003F04AC0F6FF4BC0F7FF0800F5500009FB
:1014A800D8A4E8D7000E0001766F000E756F120001
:1014B800080EB86E900EAB6E240EAC6E820EAF6E38
:1014C800060EB06E000E0A6E000E0B6E68EC0BF086
:1014D800000E0A6E000E0B6E63EC0BF0000E0A6E27
:1014E800000E0B6E6DEC0BF0000E546E1200000E29
:1014F8001B6E000E1A6E0BD019C00CF00D6A17C0C7
:101508000EF018C00FF058EC09F01A4A1B2A1A50AE
:101518001524D96E1B501620DA6EDF50196E19503B
:10152800D8B41200E9D7D59C000ED76E000ED66E3F
:10153800D650D7CF0CF00D6A0CC00DF00C6A0C1009
:10154800506E0D50516EF294F28AF20E0A6E160E1B
:101558000B6E5EEC0BF09F0ED56E12001DBE05D013
:101568001D5010E11C04D8B00DD01CC01EF01DC0C9
:101578001FF01E1E1F1E1E4A1F2A1EC01CF01FC061
:101588001DF012001CC01CF01DC01DF01200F294CA
:101598005150D76E50C0D6FF00019C519D11D8B450
:1015A800120001D812000500FA6E9C51FD6E9D5183
:1015B800FE6EF850FF6EFA501200000E896E000E93
:1015C8008A6E000E8B6E92689368BF0E946E3C0E06
:1015D8000F013A6F3F0E396F2F0E386F000E616E94
:1015E800F18E12007D0E0001836F000E846F000ED5
:1015F800756F000E766F7BC077F07CC078F0830E35
:10160800796F000E7A6F39EC0AF012000A500C025A
:10161800F3CF0EF0F4CF0FF00A500D02F3500F265F
:101628000B500C02F3500F260EC00AF00FC00BF03F
:10163800120077EC0BF0E1EC0AF03FEC0BF097ECC2
:101648000AF02AEC0BF05CEC0AF01200000EC16EF6
:10165800260EC06E000EC36E000EC46E110EC26E52
:1016680012009EAAFED7000E546EABA202D0AB9811
:10167800AB88AE501200700ED36E040ED26E400EC0
:101688009B6ED2BE1200FDD70A6E9EA8FED70AC076
:10169800ADFF12009EAA02D0010E1200000E120029
:1016A8000B6E0B5048EC0BF012000B50D76E0AC0B3
:1016B800D6FF12000AC09CF00BC09DF012000AC0B1
:1016C800A0F00BC0A1F012000AC0A2F00BC0A3F05A
:1016D80012000AC09EF00BC09FF012000250D76E95
:0D16E80001C0D6FF1200D09E120012000AB1
:107D720000546865206C61737420323536204144AA
:107D8200432073616D706C65732066726F6D207431
:107D92006865206D6963726F70686F6E65206172CD
:107DA200653A0A0D0054686520736F756E6420771A
:107DB2006176652063726F737365642061742074E9
:107DC200686520666F6C6C6F77696E6720696E6498
:107DD20069636965733A0A0D00663A20636F6D70D4
:107DE2007574652074686520706572696F642066B9
:107DF200726F6D2025642073616D706C65732066EF
:107E0200726F6D204144430D0A00302D393A2073C0
:107E120077697463682073616D706C656420636850
:107E2200616E6E656C20746F20414E780D0A002DD4
:107E32002D2D2D2D2D2D2D2D2D2D2D2D2D2D2D2D70
:107E42002D2D2D2D2D2D2D2D2D2D2D2D2D0D0A00D0
:107E520054686520736F756E64207761766520685B
:107E6200616420257520706572696F64733A0A0D2A
:107E720000743A2064656372656173652073616D95
:107E8200706C696E67207468726573686F6C640ADF
:107E92000D00543A20696E637265617365207361E7
:107EA2006D706C696E67207468726573686F6C645C
:107EB2000A0D00733A206761746865722025642098
:107EC20073616D706C65732066726F6D20414443FF
:107ED2000D0A00617665726167652066726571756B
:107EE200656E63793A20257520487A0A0D004D693E
:107EF20063726F70686F6E65206578706572696D08
:107F0200656E74730D0A007A3A20436C65617220C3
:107F1200746865207465726D696E616C0D0A00612A
:107F220076657261676520706572696F643A2025B3
:107F3200752075730A0D0066696E64696E67206349
:107F4200726F7373696E67733A200A0D005A3A2092
:107F520052657365742070726F636573736F720D0F
:107F62000A00757070657220747269676765723A8B
:107F72002025750A0D006C6F77657220747269672F
:107F82006765723A2025750A0D0074616B696E6728
:107F92002073616D706C65733A200A0D003F3A20C0
:107FA20048656C70206D656E750D0A002575202D73
:107FB200202575203D2025750A0D00756E6B6E6FAC
:107FC200776E206B65790D0A00696E4C6162203014
:107FD200380D0A004465762732310D0A006F3A20C7
:107FE2006B0D0A00535B25755D20000A0D0A0D001A
:0D7FF20025630A0D00257520003E200000CB
:020000040020DA
:08000000FFFFFFFFFFFFFFFF00
:020000040030CA
:0E000000FF281F3CFFBF85FF0FC00FE00F4021
:00000001FF
