:040000001FEF00F0FE
:100008005982FACF05F0FBCF06F0F2AA0EEF00F006
:1000180010EF00F019EF00F0F2A415EF00F017EF61
:1000280000F019EF00F084EC0AF006C0FBFF05C0F1
:10003800FAFF599211003EEF0BF049C0D9FF4AC0B0
:10004800DAFFDECFF6FFDDCFF7FF0800F550250A0F
:10005800D8A431EF00F033EF00F0C3EF01F049C04E
:10006800D9FF4AC0DAFFDE2A000EDD22000E546EE8
:10007800000E536E53C057F000016069616949C0B2
:10008800D9FF4AC0DAFFDECFF6FFDDCFF7FF080061
:10009800F5502A0AD8A453EF00F055EF00F07EEF90
:1000A80000F049C0D9FF4AC0DAFFDE2A000EDD227F
:1000B8004BC0D9FF4CC0DAFFDFCF4DF0020EDE2671
:1000C800DFCF4EF0000EDD224DC0D9FF4EC0DAFF63
:1000D800DECF53F0DDCF54F054BE77EF00F075EF6C
:1000E80000F0B1EF00F05780536C541ED8B0542A7A
:1000F800B1EF00F049C0D9FF4AC0DAFFDECF0DF0FA
:10010800DDCF0EF01CEC07F00DC053F00EC054F01C
:1001180095EF00F049C0D9FF4AC0DAFFDE2A000E89
:10012800DD2249C0D9FF4AC0DAFFDECFF6FFDDCFB6
:10013800F7FF0800F5CF4DF0D00E4D244E6E4F6AF4
:10014800FF0E4F224F5009E10A0E4E5CD8A0AFEFC8
:1001580000F0B1EF00F08EEF00F049C0D9FF4AC0BF
:10016800DAFFDECFF6FFDDCFF7FF0800F550630AB0
:10017800D8A4C1EF00F0C3EF00F0E7EF00F049C0EA
:10018800D9FF4AC0DAFFDE2A000EDD224BC0D9FFB4
:100198004CC0DAFFDFCF4DF0020EDE26DFCF4EF087
:1001A800000EDD224DC0D9FF4EC0DAFFDF5000013E
:1001B8008C6F47C012F048C013F08CC014F0A1EC4B
:1001C80008F0D7EF01F049C0D9FF4AC0DAFFDECF07
:1001D80095F0DDCF96F095C0F6FF96C0F7FF0800C2
:1001E800F550640AD8B4FBEF00F0FDEF00F00BEF18
:1001F80001F095C0F6FF96C0F7FF0800F550690AB0
:10020800D8A409EF01F00BEF01F04FEF01F04BC05C
:10021800D9FF4CC0DAFFDFCF4DF0020EDE26DFCF6C
:100228004EF0000EDD224DC0D9FF4EC0DAFFDECF02
:100238008DF0DDCF8EF00001000E8EBFFF0E8F6FA8
:10024800906F916F926F936F946F010E95254D6E1D
:10025800000E96214E6E49C0D9FF4AC0DAFF4DC044
:10026800DEFF4EC0DDFF47C024F048C025F08DC03A
:1002780026F08EC027F08FC028F090C029F091C0DA
:100288002AF092C02BF093C02CF094C02DF088EC8B
:1002980003F0D7EF01F095C0F6FF96C0F7FF08000E
:1002A800F550750AD8A45BEF01F05DEF01F0BAEFE5
:1002B80001F04BC0D9FF4CC0DAFFDFCF4DF0020E82
:1002C800DE26DFCF4EF0000EDD224DC0D9FF4EC036
:1002D800DAFFDECF4FF0DDCF50F04FC08DF050C0C9
:1002E8008EF000018F6B906B916B926B936B946B9C
:1002F800010E95254D6E000E96214E6E49C0D9FF10
:100308004AC0DAFF4DC0DEFF4EC0DDFFA4EF01F0AA
:1003180047C024F048C025F08DC026F08EC027F0D5
:100328008FC028F090C029F091C02AF092C02BF01D
:1003380093C02CF094C02DF0C6EC04F0D7EF01F078
:1003480095C0F6FF96C0F7FF0800F5504D6E4E6A4F
:100358004E50000AD8B4B3EF01F0BAEF01F04D5097
:10036800750AD8B48CEF01F0BAEF01F049C0D9FF93
:100378004AC0DAFFDE2A000EDD22D7EF01F049C0BD
:10038800D9FF4AC0DAFFDECFF6FFDDCFF7FF08005E
:10039800F550096E0A6A47C00BF048C00CF05AECD9
:1003A80009F0BAEF01F0120075EC0BF0000E086EC0
:1003B800000E076EDCEC0BF0F294F2A4E6EF01F00D
:1003C800E8EF01F0E1EF01F0080E076E170E086E76
:1003D800E1EC0BF0F28EF28CBA0E00019D6F7F0EED
:1003E8009E6F16EC0BF0710E00019D6F7F0E9E6FD5
:1003F80016EC0BF0FD0E00019D6F7E0E9E6F16EC45
:100408000BF0230E00019D6F7E0E9E6F16EC0BF015
:10041800970E00019D6F7F0E9E6F16EC0BF0850EF8
:1004280000019D6F7F0E9E6F16EC0BF05C0E0001B5
:100438009D6F7E0E9E6F16EC0BF0F60E00019D6F01
:100448007F0E9E6F16EC0BF0C4EC0BF00009D8B4CD
:1004580030EF02F032EF02F028EF02F02AEC0BF056
:100468000001B56F5DEF03F0BE0E9D6F7E0E9E6FAF
:1004780016EC0BF0C90E00019D6F7F0E9E6F16ECF7
:100488000BF0E50E00019D6F7F0E9E6F16EC0BF0D2
:100498005C0E00019D6F7F0E9E6F16EC0BF0170E21
:1004A80000019D6F7F0E9E6F16EC0BF0DF0E0001B2
:1004B8009D6F7E0E9E6F16EC0BF0470E00019D6F30
:1004C8007F0E9E6F16EC0BF0910E00019D6F7E0E55
:1004D8009E6F000EA06F080E9F6F16EC0BF0BE0EFD
:1004E80000019D6F7E0E9E6F16EC0BF028EF02F058
:1004F800E70E9D6F7F0E9E6F16EC0BF028EF02F053
:10050800000EB66FDD0E9D6F7E0E9E6F16EC0BF023
:100518000001B62B270EB66594EF02F096EF02F0B5
:1005280086EF02F0FF0028EF02F0000EB66FFB0E18
:100538009D6F7F0E9E6F16EC0BF00001B62B270EF9
:10054800B665A9EF02F0ABEF02F09BEF02F028EFDF
:1005580002F02F0E9D6F7F0E9E6F16EC0BF0C2EF10
:1005680002F0EC0E00019D6F7F0E9E6FA5EC09F066
:100578000BC09FF00CC0A0F016EC0BF0C4EC0BF015
:100588000009D8B4CAEF02F0CCEF02F0B5EF02F0E0
:100598002AEC0BF0DC0E00019D6F7E0E9E6F16ECB0
:1005A8000BF028EF02F02F0E9D6F7F0E9E6F16EC5A
:1005B8000BF0F2EF02F0EC0E00019D6F7F0E9E6FC4
:1005C800A5EC09F00BC011F00CC012F064EC0BF0B4
:1005D80011C09FF012C0A0F016EC0BF0C4EC0BF0A9
:1005E8000009D8B4FAEF02F0FCEF02F0DFEF02F0F6
:1005F8002AEC0BF0DC0E00019D6F7E0E9E6F16EC50
:100608000BF028EF02F0000EB66FA5EC09F0000120
:10061800B651020DA50EF324D96E000EF420DA6E41
:100628000BC0DEFF0CC0DDFFB62B070EB6651FEF53
:1006380003F021EF03F009EF03F0D80E9D6F7F0E52
:100648009E6F000EA06F080E9F6F16EC0BF0000E49
:100658000001B66FF10E9D6F7F0E9E6FB651020DB1
:10066800A50EF324D96E000EF420DA6EDECF9FF0CB
:10067800DDCFA0F016EC0BF00001B62B070EB66527
:1006880048EF03F04AEF03F02EEF03F0DC0E9D6F06
:100698007E0E9E6F16EC0BF028EF02F0A90E9D6FF0
:1006A8007F0E9E6FB5C09FF0A06B16EC0BF028EF85
:1006B80002F0B551A36FA46BA451000AD8B467EF38
:1006C80003F052EF03F0A3513F0AD8B438EF02F019
:1006D8006C0AD8B4D7EF02F0090AD8B484EF02F054
:1006E8003B0AD8B407EF03F00E0AD8B47CEF02F047
:1006F8001C0AD8B4ADEF02F0090AD8B499EF02F099
:1007080052EF03F01FEF00F026C03CF027C03DF089
:1007180028C03EF029C03FF02AC040F02BC041F06D
:100728002CC042F02DC043F043BE9DEF03F0A0EF74
:1007380003F0010EA1EF03F0000E466E4650D8B448
:10074800A8EF03F0AAEF03F0BAEF03F0431E421E2E
:10075800411E401E3F1E3E1E3D1E3C6C000E3D22AB
:100768003E223F224022412242224322000161BF11
:10077800C8EF03F0615106E16005D8B0C6EF03F099
:10078800C8EF03F0CEEF03F0000E396E010E386E9D
:10079800D2EF03F060C038F061C039F053C03AF0CE
:1007A80054C03BF04650D8B4DCEF03F0DEEF03F062
:1007B800F5EF03F03A06D8A03B064650D8A4E7EF79
:1007C80003F0E9EF03F0EFEF03F0000E376E2B0EA6
:1007D800366EF3EF03F0000E376E2D0E366E36C010
:1007E80046F0000E456E1F0E446E000E8B6F79EFBB
:1007F80004F04406D8A045066C0E4424D96E000EB9
:100808004520DA6E3CC007F03DC008F03EC009F054
:100818003FC00AF040C00BF041C00CF042C00DF0E0
:1008280043C00EF00A0E0F6E000E106E000E116E11
:10083800000E126E000E136E000E146E000E156E72
:10084800000E166E6AEC06F007C02EF008C02FF0F6
:1008580009C030F00AC031F00BC032F00CC033F0E0
:100868000DC034F00EC035F02EC019F02FC01AF0AC
:1008780045EC0AF01950300FDF6E3806D8A039065B
:100888003A06D8A03B063CC007F03DC008F03EC081
:1008980009F03FC00AF040C00BF041C00CF042C064
:1008A8000DF043C00EF00A0E0F6E000E106E000E13
:1008B800116E000E126E000E136E000E146E000EF6
:1008C800156E000E166EA6EC05F007C03CF008C0C9
:1008D8003DF009C03EF00AC03FF00BC040F00CC02C
:1008E80041F00DC042F00EC043F045BE84EF04F065
:1008F800455008E14404D8A084EF04F086EF04F0E2
:10090800A2EF04F03C503D103E103F104010411043
:1009180042104310D8A493EF04F095EF04F0FDEFD4
:1009280003F039BEA2EF04F0395006E13804D8B01C
:10093800A0EF04F0A2EF04F0FDEF03F04650D8B4A6
:10094800A8EF04F0AAEF04F0B5EF04F04406D8A02D
:1009580045066C0E4424D96E000E4520DA6E46C05A
:10096800DFFF24C019F025C01AF06C0E44241B6E5A
:10097800000E45201C6E3AC01DF03BC01EF005EC71
:1009880009F01200000161BFD4EF04F0615106E1E3
:100998006005D8B0D2EF04F0D4EF04F0DAEF04F039
:1009A800000E396E010E386EDEEF04F060C038F0CC
:1009B80061C039F053C036F054C037F026C03AF061
:1009C80027C03BF028C03CF029C03DF02AC03EF0CB
:1009D8002BC03FF02CC040F02DC041F0000E436EFC
:1009E8001F0E426E000E8B6F70EF05F04206D8A006
:1009F80043066C0E4224D96E000E4320DA6E3AC0CC
:100A080007F03BC008F03CC009F03DC00AF03EC00A
:100A18000BF03FC00CF040C00DF041C00EF00A0EC4
:100A28000F6E000E106E000E116E000E126E000E8C
:100A3800136E000E146E000E156E000E166E39EC55
:100A480008F007C02EF008C02FF009C030F00AC027
:100A580031F00BC032F00CC033F00DC034F00EC0D2
:100A680035F02E50300FDF6E3806D8A0390636061E
:100A7800D8A037063AC007F03BC008F03CC009F0E0
:100A88003DC00AF03EC00BF03FC00CF040C00DF076
:100A980041C00EF00A0E0F6E000E106E000E116EA1
:100AA800000E126E000E136E000E146E000E156E00
:100AB800000E166EC1EC07F007C03AF008C03BF014
:100AC80009C03CF00AC03DF00BC03EF00CC03FF03E
:100AD8000DC040F00EC041F042504310D8B477EF3B
:100AE80005F079EF05F095EF05F03A503B103C1012
:100AF8003D103E103F1040104110D8A486EF05F07D
:100B080088EF05F0FAEF04F039BE95EF05F039509B
:100B180006E13804D8B093EF05F095EF05F0FAEF49
:100B280004F024C019F025C01AF06C0E42241B6E84
:100B3800000E43201C6E36C01DF037C01EF005ECB9
:100B480009F01200000E186E16BEAFEF05F0ADEFFB
:100B580005F0C1EF05F0161E151E141E131E121EF9
:100B6800111E101E0F6C000E1022112212221322C9
:100B7800142215221622010E186E0EBEC8EF05F0BB
:100B8800C6EF05F0DAEF05F00E1E0D1E0C1E0B1E4B
:100B98000A1E091E081E076C000E082209220A22D6
:100BA8000B220C220D220E22010E181A20EE19F02B
:100BB800070EDE6AE806FDE20F5010101110121041
:100BC8001310141015101610D8B4EDEF05F0EFEF50
:100BD80005F041EF06F0010E176EFDEF05F0D89015
:100BE8000F361036113612361336143615361636B9
:100BF800172A16AE02EF06F004EF06F0F3EF05F041
:100C0800D89019361A361B361C361D361E361F3636
:100C180020360F50075C10500858115009581250D0
:100C28000A5813500B5814500C5815500D5816509C
:100C38000E58D8A022EF06F024EF06F035EF06F0A4
:100C48000F50075E1050085A1150095A12500A5A8C
:100C580013500B5A14500C5A15500D5A16500E5A60
:100C68001980D890163215321432133212321132DA
:100C780010320F32172E04EF06F01850D8B447EF91
:100C880006F049EF06F059EF06F0201E1F1E1E1E43
:100C98001D1E1C1E1B1E1A1E196C000E1A221B225A
:100CA8001C221D221E221F22202219C007F01AC052
:100CB80008F01BC009F01CC00AF01DC00BF01EC0D4
:100CC8000CF01FC00DF020C00EF01200000E186EC0
:100CD8000EBE73EF06F071EF06F085EF06F00E1EFC
:100CE8000D1E0C1E0B1E0A1E091E081E076C000E88
:100CF800082209220A220B220C220D220E22010EA2
:100D0800186E16BE8CEF06F08AEF06F09CEF06F020
:100D1800161E151E141E131E121E111E101E0F6CF9
:100D2800000E10221122122213221422152216223A
:100D38000F50101011101210131014101510161057
:100D4800D8B4A9EF06F0ABEF06F0F3EF06F0010E0A
:100D5800176EB9EF06F0D8900F36103611361236E6
:100D68001336143615361636172A16AEBEEF06F0A9
:100D7800C0EF06F0AFEF06F00F50075C10500858B0
:100D88001150095812500A5813500B5814500C5847
:100D980015500D5816500E58D8A0D5EF06F0D7EFBD
:100DA80006F0E7EF06F00F50075E1050085A115092
:100DB800095A12500A5A13500B5A14500C5A15500B
:100DC8000D5A16500E5AD890163215321432133264
:100DD8001232113210320F32172EC0EF06F01850AF
:100DE800D8B4F9EF06F0FBEF06F00BEF07F00E1E94
:100DF8000D1E0C1E0B1E0A1E091E081E076C000E77
:100E0800082209220A220B220C220D220E2207C0D8
:100E180007F008C008F009C009F00AC00AF00BC0C2
:100E28000BF00CC00CF00DC00DF00EC00EF012004F
:100E3800000E156E000E146E000E136E000E126E6C
:100E480028EF07F00D4A0E2A0DC0F6FF0EC0F7FF77
:100E58000800F550200AD8B434EF07F036EF07F051
:100E680026EF07F00DC0F6FF0EC0F7FF0800F5CF1C
:100E78000FF0F70E0F24106E116AFF0E1122115099
:100E880009E1050E105CD8A04CEF07F04EEF07F013
:100E980026EF07F058EF07F0000E136E010E126EE2
:100EA8000D4A0E2A8DEF07F00DC0F6FF0EC0F7FFB2
:100EB8000800F5500F6E106A1050000AD8B467EF9A
:100EC80007F08DEF07F00F502B0AD8B454EF07F056
:100ED800060AD8B450EF07F08DEF07F014C007F0FA
:100EE80015C008F0000E0A6E0A0E096E51EC0BF0E0
:100EF8000DC0F6FF0EC0F7FF0800F550075E000EA4
:100F0800085A300E0724146E000E0820156E54EF90
:100F180007F00DC0F6FF0EC0F7FF0800F5CF0FF081
:100F2800D00E0F24106E116AFF0E1122115009E124
:100F38000A0E105CD8A0A3EF07F0A5EF07F072EF38
:100F480007F012501310D8A4ACEF07F0AEEF07F07B
:100F5800BCEF07F014C00FF015C010F00F1E101EE4
:100F68000F4A102A0FC00DF010C00EF0C0EF07F0A6
:100F780014C00DF015C00EF0120020EE17F0070E89
:100F8800DE6AE806FDE20F5010101110121013105F
:100F9800141015101610D8B4D4EF07F0D6EF07F0D8
:100FA80028EF08F0010E1F6EE4EF07F0D8900F3617
:100FB80010361136123613361436153616361F2AE1
:100FC80016AEE9EF07F0EBEF07F0DAEF07F0D8908D
:100FD8001736183619361A361B361C361D361E3685
:100FE8000F50075C105008581150095812500A58F1
:100FF80013500B5814500C5815500D5816500E58C5
:10100800D8A009EF08F00BEF08F01CEF08F00F501C
:10101800075E1050085A1150095A12500A5A1350B4
:101028000B5A14500C5A15500D5A16500E5A178058
:10103800D89016321532143213321232113210325D
:101048000F321F2EEBEF07F017C007F018C008F09B
:1010580019C009F01AC00AF01BC00BF01CC00CF034
:101068001DC00DF01EC00EF012000F501010111010
:1010780012101310141015101610D8B446EF08F0FB
:1010880048EF08F090EF08F0010E176E56EF08F0E1
:10109800D8900F36103611361236133614361536E8
:1010A8001636172A16AE5BEF08F05DEF08F04CEF26
:1010B80008F00F50075C105008581150095812508A
:1010C8000A5813500B5814500C5815500D581650F8
:1010D8000E58D8A072EF08F074EF08F084EF08F00B
:1010E8000F50075E1050085A1150095A12500A5AE8
:1010F80013500B5A14500C5A15500D5A16500E5ABC
:10110800D89016321532143213321232113210328C
:101118000F32172E5DEF08F007C007F008C008F07F
:1011280009C009F00AC00AF00BC00BF00CC00CF0A3
:101138000DC00DF00EC00EF0120053505410D8A47C
:10114800A8EF08F0AAEF08F0B0EF08F053C018F0C5
:1011580054C019F0B6EF08F0FF0E5324186EFF0EB6
:101168005420196E57A0BBEF08F0BDEF08F0C6EF8A
:1011780008F014C009F00A6A12C00BF013C00CF092
:101188005AEC09F019BECBEF08F0CDEF08F0CFEF1D
:1011980008F0D3EF08F0000E196E000E186E000E5E
:1011A800176E000E166EE5EF08F0000E0A6E200EA0
:1011B800096E12C00BF013C00CF05AEC09F0164A75
:1011C800172A1850165C1750800A156E1950800A95
:1011D8001558D8A0F2EF08F0F4EF08F0D9EF08F0AE
:1011E80057B0F9EF08F0FBEF08F004EF09F014C06E
:1011F80009F00A6A12C00BF013C00CF05AEC09F09F
:10120800120057A00AEF09F00CEF09F016EF09F0E9
:101218001BC012F01CC013F019C014F01AC015F04E
:1012280023EC0AF01EBE1BEF09F01DEF09F023EFB7
:1012380009F01DC022F01EC023F027EF09F0000EB0
:10124800236E000E226E000E216E000E206E39EF06
:1012580009F0000E0A6E200E096E19C00BF01AC0B4
:101268000CF05AEC09F0204A212A2250205C215027
:10127800800A1F6E2350800A1F58D8A046EF09F035
:1012880048EF09F02DEF09F057B04DEF09F04FEF97
:1012980009F059EF09F01BC012F01CC013F019C077
:1012A80014F01AC015F023EC0AF012000B500C10C1
:1012B800D8B461EF09F063EF09F06CEF09F00B5057
:1012C8000C10D8A46AEF09F06CEF09F071EF09F07F
:1012D8000950D7EC0BF0A4EF09F020EE09F00B5001
:1012E800D9260C50DA22DE50DE10D8B47EEF09F091
:1012F80080EF09F09BEF09F020EE09F00B50D9269A
:101308000C50DA2210EE03F00B50E1260C50E222CA
:10131800DE50E65CE650800A116EDE50800A1158F5
:10132800D8B099EF09F09BEF09F0A4EF09F020EE8F
:1013380003F00B50D9260C50DA22DE2A000EDD22EB
:1013480012000F015751F00B0509576F7B92ECEC17
:101358000AF00009D8B4B3EF09F0B5EF09F0ABEF24
:1013680009F0CEEC0BF007C00DF008C00EF00F012D
:101378005751F00B0409576F7B92ECEC0AF0000907
:10138800D8B4C9EF09F0CBEF09F0C1EF09F0CEEC02
:101398000BF007C00FF008C010F00D500F5C0B6E7B
:1013A8000E5010580C6E120099C051F09AC052F0AD
:1013B800ECEF09F097C047F098C048F0510E496E1D
:1013C800000E4A6E9BC04BF09CC04CF021EC00F024
:1013D80051C0F6FF52C0F7FF0800F5500009D8A425
:1013E800F8EF09F0FAEF09F0DEEF09F0000E00015E
:1013F800986F000E976F1200010E0B6E200E0718E3
:101408000810D8B40AEF0AF00CEF0AF01FEF0AF040
:10141800F70E0724096EFF0E08200A6E0A5009E12C
:10142800050E095CD8A01BEF0AF01DEF0AF01FEFAC
:101438000AF0000E0B6E0BC007F0086A1200000ECF
:10144800186E000E176E34EF0AF016C009F00A6A1B
:1014580014C00BF015C00CF05AEC09F0174A182A02
:1014680017501224D96E18501320DA6EDF50166EFA
:101478001650D8A442EF0AF044EF0AF029EF0AF018
:1014880012001ABE52EF0AF01A5006E11904D8B039
:1014980050EF0AF052EF0AF060EF0AF019C01BF0A3
:1014A8001AC01CF01B1E1C1E1B4A1C2A1BC019F04C
:1014B8001CC01AF064EF0AF019C019F01AC01AF02B
:1014C8001200080EB86E900EAB6E240EAC6E820E33
:1014D800AF6E060EB06E000E076E000E086EEBECD7
:1014E8000BF0000E076E000E086EE6EC0BF0000E17
:1014F800076E000E086EF0EC0BF0000E586E12002E
:10150800F2945650D76E55C0D6FF00016851691144
:10151800D8B491EF0AF093EF0AF0A0EF0AF002D8DE
:10152800A0EF0AF00500FA6E6851FD6E6951FE6E73
:10153800F850FF6EFA5012001200D59C000ED76EBC
:10154800230ED66ED650D7CF09F00A6A09C00AF022
:10155800096A0910556E0A50566EF294F28AF80E0E
:10156800076E170E086EE1EC0BF0940ED56E1200A4
:10157800000E046E000E036ECAEF0AF000F000F0D1
:1015880000F000F000F000F0034A042A0150035C68
:1015980002500458D8A0D3EF0AF0D5EF0AF0C2EFF2
:1015A8000AF01200D00E0724096EFF0E08200A6EFA
:1015B8000A500AE10A0E095CD8A0E5EF0AF0E8EF44
:1015C8000AF0010EE9EF0AF0000E076E086A120031
:1015D8007BB2F1EF0AF0F4EF0AF0010EF5EF0AF032
:1015E800000E076E0750D8B4FCEF0AF0FEEF0AF0C1
:1015F800FFEF0AF07B9207501200000E896E000E72
:101608008A6E000E8B6E92689368AF0E946E2C0EE5
:101618000F013A6F3E0E396F2F0E386F000E616E54
:10162800F18E12009F0E0001A16F000EA26F000E36
:10163800976F000E986F9DC099F09EC09AF0A10E0A
:101648009B6F000E9C6FD8EC09F012009EAA2FEF3A
:101658000BF031EF0BF02AEF0BF0000E586EABA237
:1016680038EF0BF03AEF0BF03CEF0BF0AB98AB8890
:10167800AE50120000EE60F02C0EEE6AE806FDE1B6
:10168800586A576A566A556A546A536A5990599201
:10169800000EF86E0001D8EF01F007500902F3CFF1
:1016A8000BF0F4CF0CF007500A02F3500C26085048
:1016B8000902F3500C260BC007F00CC008F012000A
:1016C80011C013F012C014F0070E156ED890143222
:1016D8001332152E6AEF0BF013C011F014C012F07C
:1016E8001200FAEC0BF001EC0BF0A1EC0BF093EC10
:1016F8000BF0A1EC0AF0BAEC0BF065EC0AF0120062
:101708008B88000E026E0A0E016EBCEC0AF08B98F4
:101718003C0E026EB00E016EF5EC0BF01200000EDE
:10172800CC6E060ECF6E000ECE6ECECF6AF0CFCF47
:101738006BF09E90310ECD6E1200700ED36E040EBB
:10174800D26E400E9B6ED2AEACEF0BF0AEEF0BF04C
:10175800A7EF0BF01200076E9EA8B5EF0BF0B7EFDE
:101768000BF0B0EF0BF007C0ADFF1200050E0F0134
:10177800576F000E586F000E596FFC0E4817120075
:101788009EBAC9EF0BF0CCEF0BF0010ECDEF0BF0CA
:10179800000E120058CF09F059CF0AF009C007F01F
:1017A8000AC008F01200086E0850AFEC0BF01200E7
:1017B8000850D76E07C0D6FF120007C068F008C0EF
:1017C80069F0120007C064F008C065F0120007C095
:1017D80066F008C067F0120007C062F008C063F046
:1017E80012000250D76E01C0D6FF1200D09E120020
:0217F8001200DD
:107E220000202020205663633A206C65667420701F
:107E3200696E206F6E204A503120686561646572F8
:107E42002028636C6F7365737420746F206D696E84
:107E52006920555342292E0D0A0020202020474E2A
:107E6200443A20202020474E4420686561646572B0
:107E72002070696E206F6E205049432062726561E6
:107E82006B6F7574206865616465722E0D0A0061FE
:107E92003A206761746865722025642073616D7091
:107EA2006C657320696E20616E2061727261792047
:107EB200616E64207072696E740D0A002D2D2D2D75
:107EC2002D2D2D2D2D2D2D2D2D2D2D2D2D2D2D2DE0
:107ED2002D2D2D2D2D2D2D2D2D2D0D0A00733A20FA
:107EE20053747265616D204563686F2070756C73A1
:107EF20065206C656E6774680D0A00556C7472615A
:107F0200736F6E696320436F6E6E656374696F6E23
:107F1200733A0D0A007A3A20436C656172207468E4
:107F220065207465726D696E616C0D0A0070726510
:107F3200737320616E79206B657920746F20657888
:107F420069740D0A00533A2053747265616D20649E
:107F5200697374616E63650D0A005A3A2052657343
:107F620065742070726F636573736F720D0A0069B6
:107F72006E4C6162203133207465726D696E616C82
:107F82000D0A00202020204563686F3A20202052ED
:107F920042300D0A0020202020547269673A2020C6
:107FA200205243340D0A00556E6B6E6F776E206B54
:107FB20065792025630D0A00446576273231204217
:107FC2006F6172640D0A003F3A2048656C70206D43
:107FD200656E750D0A0025642073616D706C6573A2
:107FE2000D0A006F3A206B0D0A002538750D002529
:0D7FF200752020000D0A3E20000A3E000010
:020000040020DA
:08000000FFFFFFFFFFFFFFFF00
:020000040030CA
:0E000000FF281F3CFFBF85FF0FC00FE00F4021
:00000001FF
